{
  "contractName": "Contract",
  "abi": [
    {
      "inputs": [],
      "stateMutability": "nonpayable",
      "type": "constructor"
    },
    {
      "inputs": [
        {
          "internalType": "uint256",
          "name": "",
          "type": "uint256"
        }
      ],
      "name": "OrganisationList",
      "outputs": [
        {
          "internalType": "address",
          "name": "",
          "type": "address"
        }
      ],
      "stateMutability": "view",
      "type": "function",
      "constant": true
    },
    {
      "inputs": [
        {
          "internalType": "uint256",
          "name": "",
          "type": "uint256"
        }
      ],
      "name": "PatientList",
      "outputs": [
        {
          "internalType": "address",
          "name": "",
          "type": "address"
        }
      ],
      "stateMutability": "view",
      "type": "function",
      "constant": true
    },
    {
      "inputs": [
        {
          "internalType": "uint256",
          "name": "",
          "type": "uint256"
        }
      ],
      "name": "PractitionerList",
      "outputs": [
        {
          "internalType": "address",
          "name": "",
          "type": "address"
        }
      ],
      "stateMutability": "view",
      "type": "function",
      "constant": true
    },
    {
      "inputs": [],
      "name": "getCentralAuthority",
      "outputs": [
        {
          "internalType": "address",
          "name": "",
          "type": "address"
        }
      ],
      "stateMutability": "view",
      "type": "function",
      "constant": true
    },
    {
      "inputs": [],
      "name": "isCentralAuthority",
      "outputs": [
        {
          "internalType": "bool",
          "name": "",
          "type": "bool"
        }
      ],
      "stateMutability": "view",
      "type": "function",
      "constant": true
    },
    {
      "inputs": [
        {
          "components": [
            {
              "internalType": "address",
              "name": "id",
              "type": "address"
            },
            {
              "internalType": "string",
              "name": "name",
              "type": "string"
            },
            {
              "internalType": "uint256",
              "name": "dateJoined",
              "type": "uint256"
            },
            {
              "components": [
                {
                  "internalType": "string",
                  "name": "use",
                  "type": "string"
                },
                {
                  "internalType": "string",
                  "name": "street",
                  "type": "string"
                },
                {
                  "internalType": "string",
                  "name": "city",
                  "type": "string"
                },
                {
                  "internalType": "string",
                  "name": "state",
                  "type": "string"
                },
                {
                  "internalType": "string",
                  "name": "postalCode",
                  "type": "string"
                },
                {
                  "internalType": "string",
                  "name": "country",
                  "type": "string"
                }
              ],
              "internalType": "struct Contract.PhysicalAddress",
              "name": "organisationAddress",
              "type": "tuple"
            }
          ],
          "internalType": "struct Contract.Organisation",
          "name": "data",
          "type": "tuple"
        }
      ],
      "name": "addOrganisation",
      "outputs": [],
      "stateMutability": "nonpayable",
      "type": "function"
    },
    {
      "inputs": [
        {
          "internalType": "address",
          "name": "id",
          "type": "address"
        }
      ],
      "name": "getOrganisation",
      "outputs": [
        {
          "components": [
            {
              "internalType": "address",
              "name": "id",
              "type": "address"
            },
            {
              "internalType": "string",
              "name": "name",
              "type": "string"
            },
            {
              "internalType": "uint256",
              "name": "dateJoined",
              "type": "uint256"
            },
            {
              "components": [
                {
                  "internalType": "string",
                  "name": "use",
                  "type": "string"
                },
                {
                  "internalType": "string",
                  "name": "street",
                  "type": "string"
                },
                {
                  "internalType": "string",
                  "name": "city",
                  "type": "string"
                },
                {
                  "internalType": "string",
                  "name": "state",
                  "type": "string"
                },
                {
                  "internalType": "string",
                  "name": "postalCode",
                  "type": "string"
                },
                {
                  "internalType": "string",
                  "name": "country",
                  "type": "string"
                }
              ],
              "internalType": "struct Contract.PhysicalAddress",
              "name": "organisationAddress",
              "type": "tuple"
            }
          ],
          "internalType": "struct Contract.Organisation",
          "name": "",
          "type": "tuple"
        }
      ],
      "stateMutability": "view",
      "type": "function",
      "constant": true
    },
    {
      "inputs": [],
      "name": "getAllOrganisation",
      "outputs": [
        {
          "internalType": "address[]",
          "name": "",
          "type": "address[]"
        }
      ],
      "stateMutability": "view",
      "type": "function",
      "constant": true
    },
    {
      "inputs": [],
      "name": "isOrganisation",
      "outputs": [
        {
          "internalType": "bool",
          "name": "",
          "type": "bool"
        }
      ],
      "stateMutability": "view",
      "type": "function",
      "constant": true
    },
    {
      "inputs": [
        {
          "components": [
            {
              "internalType": "address",
              "name": "id",
              "type": "address"
            },
            {
              "components": [
                {
                  "internalType": "string",
                  "name": "givenNames",
                  "type": "string"
                },
                {
                  "internalType": "string",
                  "name": "surname",
                  "type": "string"
                }
              ],
              "internalType": "struct Contract.HumanName",
              "name": "name",
              "type": "tuple"
            },
            {
              "components": [
                {
                  "internalType": "string",
                  "name": "phoneNumber",
                  "type": "string"
                },
                {
                  "internalType": "string",
                  "name": "email",
                  "type": "string"
                }
              ],
              "internalType": "struct Contract.ContactPoint",
              "name": "telecom",
              "type": "tuple"
            },
            {
              "components": [
                {
                  "internalType": "string",
                  "name": "use",
                  "type": "string"
                },
                {
                  "internalType": "string",
                  "name": "street",
                  "type": "string"
                },
                {
                  "internalType": "string",
                  "name": "city",
                  "type": "string"
                },
                {
                  "internalType": "string",
                  "name": "state",
                  "type": "string"
                },
                {
                  "internalType": "string",
                  "name": "postalCode",
                  "type": "string"
                },
                {
                  "internalType": "string",
                  "name": "country",
                  "type": "string"
                }
              ],
              "internalType": "struct Contract.PhysicalAddress",
              "name": "homeAddress",
              "type": "tuple"
            },
            {
              "internalType": "enum Contract.Gender",
              "name": "gender",
              "type": "uint8"
            },
            {
              "internalType": "uint256",
              "name": "birthDate",
              "type": "uint256"
            },
            {
              "components": [
                {
                  "internalType": "string[]",
                  "name": "languages",
                  "type": "string[]"
                },
                {
                  "internalType": "string",
                  "name": "preferred",
                  "type": "string"
                }
              ],
              "internalType": "struct Contract.Communication",
              "name": "communication",
              "type": "tuple"
            },
            {
              "internalType": "address",
              "name": "memberOrgaisation",
              "type": "address"
            }
          ],
          "internalType": "struct Contract.Practitioner",
          "name": "data",
          "type": "tuple"
        }
      ],
      "name": "addPractitioner",
      "outputs": [],
      "stateMutability": "nonpayable",
      "type": "function"
    },
    {
      "inputs": [
        {
          "internalType": "address",
          "name": "_id",
          "type": "address"
        }
      ],
      "name": "getDr",
      "outputs": [
        {
          "components": [
            {
              "internalType": "address",
              "name": "id",
              "type": "address"
            },
            {
              "components": [
                {
                  "internalType": "string",
                  "name": "givenNames",
                  "type": "string"
                },
                {
                  "internalType": "string",
                  "name": "surname",
                  "type": "string"
                }
              ],
              "internalType": "struct Contract.HumanName",
              "name": "name",
              "type": "tuple"
            },
            {
              "components": [
                {
                  "internalType": "string",
                  "name": "phoneNumber",
                  "type": "string"
                },
                {
                  "internalType": "string",
                  "name": "email",
                  "type": "string"
                }
              ],
              "internalType": "struct Contract.ContactPoint",
              "name": "telecom",
              "type": "tuple"
            },
            {
              "components": [
                {
                  "internalType": "string",
                  "name": "use",
                  "type": "string"
                },
                {
                  "internalType": "string",
                  "name": "street",
                  "type": "string"
                },
                {
                  "internalType": "string",
                  "name": "city",
                  "type": "string"
                },
                {
                  "internalType": "string",
                  "name": "state",
                  "type": "string"
                },
                {
                  "internalType": "string",
                  "name": "postalCode",
                  "type": "string"
                },
                {
                  "internalType": "string",
                  "name": "country",
                  "type": "string"
                }
              ],
              "internalType": "struct Contract.PhysicalAddress",
              "name": "homeAddress",
              "type": "tuple"
            },
            {
              "internalType": "enum Contract.Gender",
              "name": "gender",
              "type": "uint8"
            },
            {
              "internalType": "uint256",
              "name": "birthDate",
              "type": "uint256"
            },
            {
              "components": [
                {
                  "internalType": "string[]",
                  "name": "languages",
                  "type": "string[]"
                },
                {
                  "internalType": "string",
                  "name": "preferred",
                  "type": "string"
                }
              ],
              "internalType": "struct Contract.Communication",
              "name": "communication",
              "type": "tuple"
            },
            {
              "internalType": "address",
              "name": "memberOrgaisation",
              "type": "address"
            }
          ],
          "internalType": "struct Contract.Practitioner",
          "name": "",
          "type": "tuple"
        }
      ],
      "stateMutability": "view",
      "type": "function",
      "constant": true
    },
    {
      "inputs": [
        {
          "internalType": "address",
          "name": "id",
          "type": "address"
        }
      ],
      "name": "isPractitioner",
      "outputs": [
        {
          "internalType": "int256",
          "name": "",
          "type": "int256"
        }
      ],
      "stateMutability": "view",
      "type": "function",
      "constant": true
    },
    {
      "inputs": [],
      "name": "getPractitionerCount",
      "outputs": [
        {
          "internalType": "uint256",
          "name": "",
          "type": "uint256"
        }
      ],
      "stateMutability": "view",
      "type": "function",
      "constant": true
    },
    {
      "inputs": [],
      "name": "getPatientCount",
      "outputs": [
        {
          "internalType": "uint256",
          "name": "",
          "type": "uint256"
        }
      ],
      "stateMutability": "view",
      "type": "function",
      "constant": true
    },
    {
      "inputs": [],
      "name": "getPractitionersPerOrg",
      "outputs": [
        {
          "components": [
            {
              "internalType": "address",
              "name": "id",
              "type": "address"
            },
            {
              "components": [
                {
                  "internalType": "string",
                  "name": "givenNames",
                  "type": "string"
                },
                {
                  "internalType": "string",
                  "name": "surname",
                  "type": "string"
                }
              ],
              "internalType": "struct Contract.HumanName",
              "name": "name",
              "type": "tuple"
            },
            {
              "components": [
                {
                  "internalType": "string",
                  "name": "phoneNumber",
                  "type": "string"
                },
                {
                  "internalType": "string",
                  "name": "email",
                  "type": "string"
                }
              ],
              "internalType": "struct Contract.ContactPoint",
              "name": "telecom",
              "type": "tuple"
            },
            {
              "components": [
                {
                  "internalType": "string",
                  "name": "use",
                  "type": "string"
                },
                {
                  "internalType": "string",
                  "name": "street",
                  "type": "string"
                },
                {
                  "internalType": "string",
                  "name": "city",
                  "type": "string"
                },
                {
                  "internalType": "string",
                  "name": "state",
                  "type": "string"
                },
                {
                  "internalType": "string",
                  "name": "postalCode",
                  "type": "string"
                },
                {
                  "internalType": "string",
                  "name": "country",
                  "type": "string"
                }
              ],
              "internalType": "struct Contract.PhysicalAddress",
              "name": "homeAddress",
              "type": "tuple"
            },
            {
              "internalType": "enum Contract.Gender",
              "name": "gender",
              "type": "uint8"
            },
            {
              "internalType": "uint256",
              "name": "birthDate",
              "type": "uint256"
            },
            {
              "components": [
                {
                  "internalType": "string[]",
                  "name": "languages",
                  "type": "string[]"
                },
                {
                  "internalType": "string",
                  "name": "preferred",
                  "type": "string"
                }
              ],
              "internalType": "struct Contract.Communication",
              "name": "communication",
              "type": "tuple"
            },
            {
              "internalType": "address",
              "name": "memberOrgaisation",
              "type": "address"
            }
          ],
          "internalType": "struct Contract.Practitioner[]",
          "name": "",
          "type": "tuple[]"
        }
      ],
      "stateMutability": "view",
      "type": "function",
      "constant": true
    },
    {
      "inputs": [],
      "name": "getPatientsPerDoc",
      "outputs": [
        {
          "components": [
            {
              "internalType": "address",
              "name": "id",
              "type": "address"
            },
            {
              "components": [
                {
                  "internalType": "string",
                  "name": "givenNames",
                  "type": "string"
                },
                {
                  "internalType": "string",
                  "name": "surname",
                  "type": "string"
                }
              ],
              "internalType": "struct Contract.HumanName",
              "name": "name",
              "type": "tuple"
            },
            {
              "components": [
                {
                  "internalType": "string",
                  "name": "phoneNumber",
                  "type": "string"
                },
                {
                  "internalType": "string",
                  "name": "email",
                  "type": "string"
                }
              ],
              "internalType": "struct Contract.ContactPoint",
              "name": "telecom",
              "type": "tuple"
            },
            {
              "internalType": "enum Contract.Gender",
              "name": "gender",
              "type": "uint8"
            },
            {
              "internalType": "uint256",
              "name": "birthDate",
              "type": "uint256"
            },
            {
              "components": [
                {
                  "internalType": "string",
                  "name": "use",
                  "type": "string"
                },
                {
                  "internalType": "string",
                  "name": "street",
                  "type": "string"
                },
                {
                  "internalType": "string",
                  "name": "city",
                  "type": "string"
                },
                {
                  "internalType": "string",
                  "name": "state",
                  "type": "string"
                },
                {
                  "internalType": "string",
                  "name": "postalCode",
                  "type": "string"
                },
                {
                  "internalType": "string",
                  "name": "country",
                  "type": "string"
                }
              ],
              "internalType": "struct Contract.PhysicalAddress",
              "name": "homeAddress",
              "type": "tuple"
            },
            {
              "internalType": "bool",
              "name": "deceasedBoolean",
              "type": "bool"
            },
            {
              "internalType": "uint256",
              "name": "deceasedDateTime",
              "type": "uint256"
            },
            {
              "internalType": "bool",
              "name": "multipleBirthBoolean",
              "type": "bool"
            },
            {
              "internalType": "uint256",
              "name": "multipleBirthInteger",
              "type": "uint256"
            },
            {
              "components": [
                {
                  "internalType": "string[]",
                  "name": "languages",
                  "type": "string[]"
                },
                {
                  "internalType": "string",
                  "name": "preferred",
                  "type": "string"
                }
              ],
              "internalType": "struct Contract.Communication",
              "name": "communication",
              "type": "tuple"
            },
            {
              "internalType": "address",
              "name": "generalPractitioner",
              "type": "address"
            },
            {
              "internalType": "address",
              "name": "managingOrganisation",
              "type": "address"
            }
          ],
          "internalType": "struct Contract.Patient[]",
          "name": "",
          "type": "tuple[]"
        }
      ],
      "stateMutability": "view",
      "type": "function",
      "constant": true
    },
    {
      "inputs": [],
      "name": "getPatientsPerOrg",
      "outputs": [
        {
          "components": [
            {
              "internalType": "address",
              "name": "id",
              "type": "address"
            },
            {
              "components": [
                {
                  "internalType": "string",
                  "name": "givenNames",
                  "type": "string"
                },
                {
                  "internalType": "string",
                  "name": "surname",
                  "type": "string"
                }
              ],
              "internalType": "struct Contract.HumanName",
              "name": "name",
              "type": "tuple"
            },
            {
              "components": [
                {
                  "internalType": "string",
                  "name": "phoneNumber",
                  "type": "string"
                },
                {
                  "internalType": "string",
                  "name": "email",
                  "type": "string"
                }
              ],
              "internalType": "struct Contract.ContactPoint",
              "name": "telecom",
              "type": "tuple"
            },
            {
              "internalType": "enum Contract.Gender",
              "name": "gender",
              "type": "uint8"
            },
            {
              "internalType": "uint256",
              "name": "birthDate",
              "type": "uint256"
            },
            {
              "components": [
                {
                  "internalType": "string",
                  "name": "use",
                  "type": "string"
                },
                {
                  "internalType": "string",
                  "name": "street",
                  "type": "string"
                },
                {
                  "internalType": "string",
                  "name": "city",
                  "type": "string"
                },
                {
                  "internalType": "string",
                  "name": "state",
                  "type": "string"
                },
                {
                  "internalType": "string",
                  "name": "postalCode",
                  "type": "string"
                },
                {
                  "internalType": "string",
                  "name": "country",
                  "type": "string"
                }
              ],
              "internalType": "struct Contract.PhysicalAddress",
              "name": "homeAddress",
              "type": "tuple"
            },
            {
              "internalType": "bool",
              "name": "deceasedBoolean",
              "type": "bool"
            },
            {
              "internalType": "uint256",
              "name": "deceasedDateTime",
              "type": "uint256"
            },
            {
              "internalType": "bool",
              "name": "multipleBirthBoolean",
              "type": "bool"
            },
            {
              "internalType": "uint256",
              "name": "multipleBirthInteger",
              "type": "uint256"
            },
            {
              "components": [
                {
                  "internalType": "string[]",
                  "name": "languages",
                  "type": "string[]"
                },
                {
                  "internalType": "string",
                  "name": "preferred",
                  "type": "string"
                }
              ],
              "internalType": "struct Contract.Communication",
              "name": "communication",
              "type": "tuple"
            },
            {
              "internalType": "address",
              "name": "generalPractitioner",
              "type": "address"
            },
            {
              "internalType": "address",
              "name": "managingOrganisation",
              "type": "address"
            }
          ],
          "internalType": "struct Contract.Patient[]",
          "name": "",
          "type": "tuple[]"
        }
      ],
      "stateMutability": "view",
      "type": "function",
      "constant": true
    },
    {
      "inputs": [
        {
          "internalType": "address",
          "name": "id",
          "type": "address"
        }
      ],
      "name": "isPatient",
      "outputs": [
        {
          "internalType": "int256",
          "name": "",
          "type": "int256"
        }
      ],
      "stateMutability": "view",
      "type": "function",
      "constant": true
    },
    {
      "inputs": [
        {
          "internalType": "address",
          "name": "iD",
          "type": "address"
        }
      ],
      "name": "getPatInfo",
      "outputs": [
        {
          "components": [
            {
              "internalType": "address",
              "name": "id",
              "type": "address"
            },
            {
              "components": [
                {
                  "internalType": "string",
                  "name": "givenNames",
                  "type": "string"
                },
                {
                  "internalType": "string",
                  "name": "surname",
                  "type": "string"
                }
              ],
              "internalType": "struct Contract.HumanName",
              "name": "name",
              "type": "tuple"
            },
            {
              "components": [
                {
                  "internalType": "string",
                  "name": "phoneNumber",
                  "type": "string"
                },
                {
                  "internalType": "string",
                  "name": "email",
                  "type": "string"
                }
              ],
              "internalType": "struct Contract.ContactPoint",
              "name": "telecom",
              "type": "tuple"
            },
            {
              "internalType": "enum Contract.Gender",
              "name": "gender",
              "type": "uint8"
            },
            {
              "internalType": "uint256",
              "name": "birthDate",
              "type": "uint256"
            },
            {
              "components": [
                {
                  "internalType": "string",
                  "name": "use",
                  "type": "string"
                },
                {
                  "internalType": "string",
                  "name": "street",
                  "type": "string"
                },
                {
                  "internalType": "string",
                  "name": "city",
                  "type": "string"
                },
                {
                  "internalType": "string",
                  "name": "state",
                  "type": "string"
                },
                {
                  "internalType": "string",
                  "name": "postalCode",
                  "type": "string"
                },
                {
                  "internalType": "string",
                  "name": "country",
                  "type": "string"
                }
              ],
              "internalType": "struct Contract.PhysicalAddress",
              "name": "homeAddress",
              "type": "tuple"
            },
            {
              "internalType": "bool",
              "name": "deceasedBoolean",
              "type": "bool"
            },
            {
              "internalType": "uint256",
              "name": "deceasedDateTime",
              "type": "uint256"
            },
            {
              "internalType": "bool",
              "name": "multipleBirthBoolean",
              "type": "bool"
            },
            {
              "internalType": "uint256",
              "name": "multipleBirthInteger",
              "type": "uint256"
            },
            {
              "components": [
                {
                  "internalType": "string[]",
                  "name": "languages",
                  "type": "string[]"
                },
                {
                  "internalType": "string",
                  "name": "preferred",
                  "type": "string"
                }
              ],
              "internalType": "struct Contract.Communication",
              "name": "communication",
              "type": "tuple"
            },
            {
              "internalType": "address",
              "name": "generalPractitioner",
              "type": "address"
            },
            {
              "internalType": "address",
              "name": "managingOrganisation",
              "type": "address"
            }
          ],
          "internalType": "struct Contract.Patient",
          "name": "",
          "type": "tuple"
        }
      ],
      "stateMutability": "view",
      "type": "function",
      "constant": true
    },
    {
      "inputs": [
        {
          "components": [
            {
              "internalType": "address",
              "name": "id",
              "type": "address"
            },
            {
              "components": [
                {
                  "internalType": "string",
                  "name": "givenNames",
                  "type": "string"
                },
                {
                  "internalType": "string",
                  "name": "surname",
                  "type": "string"
                }
              ],
              "internalType": "struct Contract.HumanName",
              "name": "name",
              "type": "tuple"
            },
            {
              "components": [
                {
                  "internalType": "string",
                  "name": "phoneNumber",
                  "type": "string"
                },
                {
                  "internalType": "string",
                  "name": "email",
                  "type": "string"
                }
              ],
              "internalType": "struct Contract.ContactPoint",
              "name": "telecom",
              "type": "tuple"
            },
            {
              "internalType": "enum Contract.Gender",
              "name": "gender",
              "type": "uint8"
            },
            {
              "internalType": "uint256",
              "name": "birthDate",
              "type": "uint256"
            },
            {
              "components": [
                {
                  "internalType": "string",
                  "name": "use",
                  "type": "string"
                },
                {
                  "internalType": "string",
                  "name": "street",
                  "type": "string"
                },
                {
                  "internalType": "string",
                  "name": "city",
                  "type": "string"
                },
                {
                  "internalType": "string",
                  "name": "state",
                  "type": "string"
                },
                {
                  "internalType": "string",
                  "name": "postalCode",
                  "type": "string"
                },
                {
                  "internalType": "string",
                  "name": "country",
                  "type": "string"
                }
              ],
              "internalType": "struct Contract.PhysicalAddress",
              "name": "homeAddress",
              "type": "tuple"
            },
            {
              "internalType": "bool",
              "name": "deceasedBoolean",
              "type": "bool"
            },
            {
              "internalType": "uint256",
              "name": "deceasedDateTime",
              "type": "uint256"
            },
            {
              "internalType": "bool",
              "name": "multipleBirthBoolean",
              "type": "bool"
            },
            {
              "internalType": "uint256",
              "name": "multipleBirthInteger",
              "type": "uint256"
            },
            {
              "components": [
                {
                  "internalType": "string[]",
                  "name": "languages",
                  "type": "string[]"
                },
                {
                  "internalType": "string",
                  "name": "preferred",
                  "type": "string"
                }
              ],
              "internalType": "struct Contract.Communication",
              "name": "communication",
              "type": "tuple"
            },
            {
              "internalType": "address",
              "name": "generalPractitioner",
              "type": "address"
            },
            {
              "internalType": "address",
              "name": "managingOrganisation",
              "type": "address"
            }
          ],
          "internalType": "struct Contract.Patient",
          "name": "data",
          "type": "tuple"
        }
      ],
      "name": "addPatient",
      "outputs": [],
      "stateMutability": "nonpayable",
      "type": "function"
    },
    {
      "inputs": [
        {
          "components": [
            {
              "internalType": "address",
              "name": "patientId",
              "type": "address"
            },
            {
              "internalType": "address",
              "name": "practitionerId",
              "type": "address"
            },
            {
              "internalType": "address",
              "name": "organisationId",
              "type": "address"
            },
            {
              "internalType": "uint256",
              "name": "timestamp",
              "type": "uint256"
            },
            {
              "internalType": "string",
              "name": "diagnosis",
              "type": "string"
            },
            {
              "internalType": "string[]",
              "name": "medicationName",
              "type": "string[]"
            },
            {
              "internalType": "uint256[]",
              "name": "dosage",
              "type": "uint256[]"
            },
            {
              "internalType": "string[]",
              "name": "unit",
              "type": "string[]"
            },
            {
              "internalType": "uint256[]",
              "name": "noOfDays",
              "type": "uint256[]"
            },
            {
              "internalType": "string[]",
              "name": "remarks",
              "type": "string[]"
            },
            {
              "internalType": "string[]",
              "name": "clinicalTests",
              "type": "string[]"
            }
          ],
          "internalType": "struct Contract.MedicalRecord",
          "name": "data",
          "type": "tuple"
        }
      ],
      "name": "addMedicalRecord",
      "outputs": [],
      "stateMutability": "nonpayable",
      "type": "function"
    },
    {
      "inputs": [
        {
          "internalType": "address",
          "name": "id",
          "type": "address"
        }
      ],
      "name": "viewMedicalRecord",
      "outputs": [
        {
          "components": [
            {
              "internalType": "address",
              "name": "patientId",
              "type": "address"
            },
            {
              "internalType": "address",
              "name": "practitionerId",
              "type": "address"
            },
            {
              "internalType": "address",
              "name": "organisationId",
              "type": "address"
            },
            {
              "internalType": "uint256",
              "name": "timestamp",
              "type": "uint256"
            },
            {
              "internalType": "string",
              "name": "diagnosis",
              "type": "string"
            },
            {
              "internalType": "string[]",
              "name": "medicationName",
              "type": "string[]"
            },
            {
              "internalType": "uint256[]",
              "name": "dosage",
              "type": "uint256[]"
            },
            {
              "internalType": "string[]",
              "name": "unit",
              "type": "string[]"
            },
            {
              "internalType": "uint256[]",
              "name": "noOfDays",
              "type": "uint256[]"
            },
            {
              "internalType": "string[]",
              "name": "remarks",
              "type": "string[]"
            },
            {
              "internalType": "string[]",
              "name": "clinicalTests",
              "type": "string[]"
            }
          ],
          "internalType": "struct Contract.MedicalRecord[]",
          "name": "",
          "type": "tuple[]"
        }
      ],
      "stateMutability": "view",
      "type": "function",
      "constant": true
    },
    {
      "inputs": [],
      "name": "viewMedicalRecord",
      "outputs": [
        {
          "components": [
            {
              "internalType": "address",
              "name": "patientId",
              "type": "address"
            },
            {
              "internalType": "address",
              "name": "practitionerId",
              "type": "address"
            },
            {
              "internalType": "address",
              "name": "organisationId",
              "type": "address"
            },
            {
              "internalType": "uint256",
              "name": "timestamp",
              "type": "uint256"
            },
            {
              "internalType": "string",
              "name": "diagnosis",
              "type": "string"
            },
            {
              "internalType": "string[]",
              "name": "medicationName",
              "type": "string[]"
            },
            {
              "internalType": "uint256[]",
              "name": "dosage",
              "type": "uint256[]"
            },
            {
              "internalType": "string[]",
              "name": "unit",
              "type": "string[]"
            },
            {
              "internalType": "uint256[]",
              "name": "noOfDays",
              "type": "uint256[]"
            },
            {
              "internalType": "string[]",
              "name": "remarks",
              "type": "string[]"
            },
            {
              "internalType": "string[]",
              "name": "clinicalTests",
              "type": "string[]"
            }
          ],
          "internalType": "struct Contract.MedicalRecord[]",
          "name": "",
          "type": "tuple[]"
        }
      ],
      "stateMutability": "view",
      "type": "function",
      "constant": true
    }
  ],
  "bytecode": "0x60806040523480156200001157600080fd5b50600b80546001600160a01b0319163390811790915562000035906000906200003b565b6200012c565b620000478282620000b2565b156200008d5760405162461bcd60e51b815260206004820152601060248201526f4163636f756e742068617320726f6c6560801b60448201526064015b60405180910390fd5b6001600160a01b0316600090815260209190915260409020805460ff19166001179055565b60006001600160a01b0382166200010c5760405162461bcd60e51b815260206004820152601b60248201527f4163636f756e7420697320746865207a65726f20616464726573730000000000604482015260640162000084565b506001600160a01b03166000908152602091909152604090205460ff1690565b615f43806200013c6000396000f3fe608060405234801561001057600080fd5b506004361061014d5760003560e01c8063b48f3cab116100c3578063d4fd45c41161007c578063d4fd45c4146102cf578063da662334146102ef578063dc5244f314610302578063dce1278a1461030a578063ed39472b14610312578063f66be1091461032757600080fd5b8063b48f3cab14610264578063b771e51e14610279578063c09368321461028c578063c190665b14610294578063c875802b1461029c578063cc572914146102af57600080fd5b80635ca60edb116101155780635ca60edb146101d05780636052f825146101e857806372a094591461020857806389f5ffc71461021e5780638f9c79ed1461023157806397a08aca1461024457600080fd5b80631ce8e455146101525780632040e86f1461018257806324e9480e146101975780632f862d6a146101a85780634914cf09146101bd575b600080fd5b610165610160366004614e11565b61033a565b6040516001600160a01b0390911681526020015b60405180910390f35b6101956101903660046150cd565b610364565b005b600b546001600160a01b0316610165565b6101b0610542565b6040516101799190615446565b6101656101cb366004614e11565b610e89565b6101d8610e99565b6040519015158152602001610179565b6101fb6101f63660046154a8565b610eab565b6040516101799190615505565b610210611428565b604051908152602001610179565b61021061022c3660046154a8565b611458565b61021061023f3660046154a8565b61147a565b6102576102523660046154a8565b611487565b6040516101799190615652565b61026c6118e4565b60405161017991906156a7565b610195610287366004615862565b61196d565b6101d8611bc0565b610210611bcd565b6101956102aa366004615988565b611bfd565b6102c26102bd3660046154a8565b611efd565b6040516101799190615af1565b6102e26102dd3660046154a8565b612794565b6040516101799190615bbd565b6101656102fd366004614e11565b612f92565b6101fb612fa2565b6101b0613531565b61031a613e71565b6040516101799190615bd0565b610195610335366004615c80565b61476e565b600a818154811061034a57600080fd5b6000918252602090912001546001600160a01b0316905081565b61036f6000336149c7565b6103945760405162461bcd60e51b815260040161038b90615e0a565b60405180910390fd5b61039f6000336149c7565b15156001146103e25760405162461bcd60e51b815260206004820152600f60248201526e4f6e6c7920666f722041646d696e7360881b604482015260640161038b565b80516001600160a01b039081166000908152600460209081526040909120835181546001600160a01b031916931692909217825580830151805161042c9260018501920190614aae565b5060408201516002820155606082015180518051600384019161045491839160200190614aae565b50602082810151805161046d9260018501920190614aae565b5060408201518051610489916002840191602090910190614aae565b50606082015180516104a5916003840191602090910190614aae565b50608082015180516104c1916004840191602090910190614aae565b5060a082015180516104dd916005840191602090910190614aae565b5050825160088054600180820183556000929092527ff3f7a9fe364faab93b216da50a3214154f22a0a2b415b23a84c8169e8b636ee30180546001600160a01b0319166001600160a01b0390931692909217909155835161053e9250614a3f565b5050565b606061054f6002336149c7565b61056b5760405162461bcd60e51b815260040161038b90615e39565b600a5460009081906001600160401b0381111561058a5761058a614e2a565b6040519080825280602002602001820160405280156105c357816020015b6105b0614b32565b8152602001906001900390816105a85790505b50905060005b600a54811015610e8257600060066000600a84815481106105ec576105ec615e63565b60009182526020808320909101546001600160a01b0390811684529083019390935260409091019020601381015490925016331415610e6f57604080516101a08101825282546001600160a01b031681528151808301909252600183018054919284926020850192908290829061066290615e79565b80601f016020809104026020016040519081016040528092919081815260200182805461068e90615e79565b80156106db5780601f106106b0576101008083540402835291602001916106db565b820191906000526020600020905b8154815290600101906020018083116106be57829003601f168201915b505050505081526020016001820180546106f490615e79565b80601f016020809104026020016040519081016040528092919081815260200182805461072090615e79565b801561076d5780601f106107425761010080835404028352916020019161076d565b820191906000526020600020905b81548152906001019060200180831161075057829003601f168201915b50505050508152505081526020016003820160405180604001604052908160008201805461079a90615e79565b80601f01602080910402602001604051908101604052809291908181526020018280546107c690615e79565b80156108135780601f106107e857610100808354040283529160200191610813565b820191906000526020600020905b8154815290600101906020018083116107f657829003601f168201915b5050505050815260200160018201805461082c90615e79565b80601f016020809104026020016040519081016040528092919081815260200182805461085890615e79565b80156108a55780601f1061087a576101008083540402835291602001916108a5565b820191906000526020600020905b81548152906001019060200180831161088857829003601f168201915b505050919092525050508152600582015460209091019060ff1660038111156108d0576108d06151fc565b60038111156108e1576108e16151fc565b815260200160068201548152602001600782016040518060c001604052908160008201805461090f90615e79565b80601f016020809104026020016040519081016040528092919081815260200182805461093b90615e79565b80156109885780601f1061095d57610100808354040283529160200191610988565b820191906000526020600020905b81548152906001019060200180831161096b57829003601f168201915b505050505081526020016001820180546109a190615e79565b80601f01602080910402602001604051908101604052809291908181526020018280546109cd90615e79565b8015610a1a5780601f106109ef57610100808354040283529160200191610a1a565b820191906000526020600020905b8154815290600101906020018083116109fd57829003601f168201915b50505050508152602001600282018054610a3390615e79565b80601f0160208091040260200160405190810160405280929190818152602001828054610a5f90615e79565b8015610aac5780601f10610a8157610100808354040283529160200191610aac565b820191906000526020600020905b815481529060010190602001808311610a8f57829003601f168201915b50505050508152602001600382018054610ac590615e79565b80601f0160208091040260200160405190810160405280929190818152602001828054610af190615e79565b8015610b3e5780601f10610b1357610100808354040283529160200191610b3e565b820191906000526020600020905b815481529060010190602001808311610b2157829003601f168201915b50505050508152602001600482018054610b5790615e79565b80601f0160208091040260200160405190810160405280929190818152602001828054610b8390615e79565b8015610bd05780601f10610ba557610100808354040283529160200191610bd0565b820191906000526020600020905b815481529060010190602001808311610bb357829003601f168201915b50505050508152602001600582018054610be990615e79565b80601f0160208091040260200160405190810160405280929190818152602001828054610c1590615e79565b8015610c625780601f10610c3757610100808354040283529160200191610c62565b820191906000526020600020905b815481529060010190602001808311610c4557829003601f168201915b505050919092525050508152600d82015460ff9081161515602080840191909152600e840154604080850191909152600f850154909216151560608085019190915260108501546080850152825160118601805493840282018301855293810183815260a090950194909392849284919060009085015b82821015610d85578382906000526020600020018054610cf890615e79565b80601f0160208091040260200160405190810160405280929190818152602001828054610d2490615e79565b8015610d715780601f10610d4657610100808354040283529160200191610d71565b820191906000526020600020905b815481529060010190602001808311610d5457829003601f168201915b505050505081526020019060010190610cd9565b505050508152602001600182018054610d9d90615e79565b80601f0160208091040260200160405190810160405280929190818152602001828054610dc990615e79565b8015610e165780601f10610deb57610100808354040283529160200191610e16565b820191906000526020600020905b815481529060010190602001808311610df957829003601f168201915b50505091909252505050815260138201546001600160a01b0390811660208301526014909201549091166040909101528385610e5181615eb4565b965081518110610e6357610e63615e63565b60200260200101819052505b5080610e7a81615eb4565b9150506105c9565b5091505090565b6008818154811061034a57600080fd5b6000610ea66001336149c7565b905090565b6060610eb86002336149c7565b610ed45760405162461bcd60e51b815260040161038b90615e39565b6001600160a01b038216600090815260076020908152604080832080548251818502810185019093528083529193909284015b8282101561141c5760008481526020908190206040805161016081018252600b860290920180546001600160a01b039081168452600182015481169484019490945260028101549093169082015260038201546060820152600482018054919291608084019190610f7790615e79565b80601f0160208091040260200160405190810160405280929190818152602001828054610fa390615e79565b8015610ff05780601f10610fc557610100808354040283529160200191610ff0565b820191906000526020600020905b815481529060010190602001808311610fd357829003601f168201915b5050505050815260200160058201805480602002602001604051908101604052809291908181526020016000905b828210156110ca57838290600052602060002001805461103d90615e79565b80601f016020809104026020016040519081016040528092919081815260200182805461106990615e79565b80156110b65780601f1061108b576101008083540402835291602001916110b6565b820191906000526020600020905b81548152906001019060200180831161109957829003601f168201915b50505050508152602001906001019061101e565b5050505081526020016006820180548060200260200160405190810160405280929190818152602001828054801561112157602002820191906000526020600020905b81548152602001906001019080831161110d575b5050505050815260200160078201805480602002602001604051908101604052809291908181526020016000905b828210156111fb57838290600052602060002001805461116e90615e79565b80601f016020809104026020016040519081016040528092919081815260200182805461119a90615e79565b80156111e75780601f106111bc576101008083540402835291602001916111e7565b820191906000526020600020905b8154815290600101906020018083116111ca57829003601f168201915b50505050508152602001906001019061114f565b5050505081526020016008820180548060200260200160405190810160405280929190818152602001828054801561125257602002820191906000526020600020905b81548152602001906001019080831161123e575b5050505050815260200160098201805480602002602001604051908101604052809291908181526020016000905b8282101561132c57838290600052602060002001805461129f90615e79565b80601f01602080910402602001604051908101604052809291908181526020018280546112cb90615e79565b80156113185780601f106112ed57610100808354040283529160200191611318565b820191906000526020600020905b8154815290600101906020018083116112fb57829003601f168201915b505050505081526020019060010190611280565b505050508152602001600a8201805480602002602001604051908101604052809291908181526020016000905b8282101561140557838290600052602060002001805461137890615e79565b80601f01602080910402602001604051908101604052809291908181526020018280546113a490615e79565b80156113f15780601f106113c6576101008083540402835291602001916113f1565b820191906000526020600020905b8154815290600101906020018083116113d457829003601f168201915b505050505081526020019060010190611359565b505050508152505081526020019060010190610f07565b5050505090505b919050565b60006114356000336149c7565b6114515760405162461bcd60e51b815260040161038b90615e0a565b5060095490565b60006114656002836149c7565b1561147257506001919050565b506000919050565b60006114656003836149c7565b61148f614bfe565b6001600160a01b0380831660009081526004602090815260409182902082516080810190935280549093168252600183018054929392918401916114d290615e79565b80601f01602080910402602001604051908101604052809291908181526020018280546114fe90615e79565b801561154b5780601f106115205761010080835404028352916020019161154b565b820191906000526020600020905b81548152906001019060200180831161152e57829003601f168201915b5050505050815260200160028201548152602001600382016040518060c001604052908160008201805461157e90615e79565b80601f01602080910402602001604051908101604052809291908181526020018280546115aa90615e79565b80156115f75780601f106115cc576101008083540402835291602001916115f7565b820191906000526020600020905b8154815290600101906020018083116115da57829003601f168201915b5050505050815260200160018201805461161090615e79565b80601f016020809104026020016040519081016040528092919081815260200182805461163c90615e79565b80156116895780601f1061165e57610100808354040283529160200191611689565b820191906000526020600020905b81548152906001019060200180831161166c57829003601f168201915b505050505081526020016002820180546116a290615e79565b80601f01602080910402602001604051908101604052809291908181526020018280546116ce90615e79565b801561171b5780601f106116f05761010080835404028352916020019161171b565b820191906000526020600020905b8154815290600101906020018083116116fe57829003601f168201915b5050505050815260200160038201805461173490615e79565b80601f016020809104026020016040519081016040528092919081815260200182805461176090615e79565b80156117ad5780601f10611782576101008083540402835291602001916117ad565b820191906000526020600020905b81548152906001019060200180831161179057829003601f168201915b505050505081526020016004820180546117c690615e79565b80601f01602080910402602001604051908101604052809291908181526020018280546117f290615e79565b801561183f5780601f106118145761010080835404028352916020019161183f565b820191906000526020600020905b81548152906001019060200180831161182257829003601f168201915b5050505050815260200160058201805461185890615e79565b80601f016020809104026020016040519081016040528092919081815260200182805461188490615e79565b80156118d15780601f106118a6576101008083540402835291602001916118d1565b820191906000526020600020905b8154815290600101906020018083116118b457829003601f168201915b5050509190925250505090525092915050565b60606118f16000336149c7565b61190d5760405162461bcd60e51b815260040161038b90615e0a565b600880548060200260200160405190810160405280929190818152602001828054801561196357602002820191906000526020600020905b81546001600160a01b03168152600190910190602001808311611945575b5050505050905090565b6119786001336149c7565b6119945760405162461bcd60e51b815260040161038b90615edd565b80516001600160a01b039081166000908152600560209081526040909120835181546001600160a01b03191693169290921782558083015180518051919260018501926119e49284920190614aae565b5060208281015180516119fd9260018501920190614aae565b5050506040820151805180516003840191611a1d91839160200190614aae565b506020828101518051611a369260018501920190614aae565b50505060a0820151600c8201556080820151600b8201805460ff19166001836003811115611a6657611a666151fc565b02179055506060820151805180516005840191611a8891839160200190614aae565b506020828101518051611aa19260018501920190614aae565b5060408201518051611abd916002840191602090910190614aae565b5060608201518051611ad9916003840191602090910190614aae565b5060808201518051611af5916004840191602090910190614aae565b5060a08201518051611b11916005840191602090910190614aae565b50505060c082015180518051600d840191611b3191839160200190614c34565b506020828101518051611b4a9260018501920190614aae565b50505060e0820151600f820180546001600160a01b039283166001600160a01b0319918216179091558351600980546001810182556000919091527f6e1540171b6c0c960b71a7020d9f60077f6af931a8bbf590da0223dacf75c7af018054919093169116179055815161053e90600290614a3f565b6000610ea66000326149c7565b6000611bda6000336149c7565b611bf65760405162461bcd60e51b815260040161038b90615e0a565b50600a5490565b611c086001336149c7565b611c245760405162461bcd60e51b815260040161038b90615edd565b611c2f6001336149c7565b8015611c465750611c4660028261016001516149c7565b611c815760405162461bcd60e51b815260206004820152600c60248201526b496e76616c6964204461746160a01b604482015260640161038b565b80516001600160a01b039081166000908152600660209081526040909120835181546001600160a01b0319169316929092178255808301518051805191926001850192611cd19284920190614aae565b506020828101518051611cea9260018501920190614aae565b5050506040820151805180516003840191611d0a91839160200190614aae565b506020828101518051611d239260018501920190614aae565b50505060808201516006820155610140820151805180516011840191611d4e91839160200190614c34565b506020828101518051611d679260018501920190614aae565b505050606082015160058201805460ff19166001836003811115611d8d57611d8d6151fc565b021790555060a0820151805180516007840191611daf91839160200190614aae565b506020828101518051611dc89260018501920190614aae565b5060408201518051611de4916002840191602090910190614aae565b5060608201518051611e00916003840191602090910190614aae565b5060808201518051611e1c916004840191602090910190614aae565b5060a08201518051611e38916005840191602090910190614aae565b50505060c0820151600d8201805491151560ff1992831617905560e0830151600e830155610100830151600f830180549115159190921617905561012082015160108201556101608201516013820180546001600160a01b039283166001600160a01b0319918216179091556014830180548216331790558351600a80546001810182556000919091527fc65a7bb8d6351c1cf70c95a316cc6a92839c986682d98bc35f958f4883f9d2a8018054919093169116179055815161053e90600390614a3f565b611f05614b32565b611f106003336149c7565b80611f215750611f216002336149c7565b611f5b5760405162461bcd60e51b815260206004820152600b60248201526a139bdd08185b1b1bddd95960aa1b604482015260640161038b565b6001600160a01b0380831660009081526006602090815260409182902082516101a0810184528154909416845282518084019093526001810180549193928501929182908290611faa90615e79565b80601f0160208091040260200160405190810160405280929190818152602001828054611fd690615e79565b80156120235780601f10611ff857610100808354040283529160200191612023565b820191906000526020600020905b81548152906001019060200180831161200657829003601f168201915b5050505050815260200160018201805461203c90615e79565b80601f016020809104026020016040519081016040528092919081815260200182805461206890615e79565b80156120b55780601f1061208a576101008083540402835291602001916120b5565b820191906000526020600020905b81548152906001019060200180831161209857829003601f168201915b5050505050815250508152602001600382016040518060400160405290816000820180546120e290615e79565b80601f016020809104026020016040519081016040528092919081815260200182805461210e90615e79565b801561215b5780601f106121305761010080835404028352916020019161215b565b820191906000526020600020905b81548152906001019060200180831161213e57829003601f168201915b5050505050815260200160018201805461217490615e79565b80601f01602080910402602001604051908101604052809291908181526020018280546121a090615e79565b80156121ed5780601f106121c2576101008083540402835291602001916121ed565b820191906000526020600020905b8154815290600101906020018083116121d057829003601f168201915b505050919092525050508152600582015460209091019060ff166003811115612218576122186151fc565b6003811115612229576122296151fc565b815260200160068201548152602001600782016040518060c001604052908160008201805461225790615e79565b80601f016020809104026020016040519081016040528092919081815260200182805461228390615e79565b80156122d05780601f106122a5576101008083540402835291602001916122d0565b820191906000526020600020905b8154815290600101906020018083116122b357829003601f168201915b505050505081526020016001820180546122e990615e79565b80601f016020809104026020016040519081016040528092919081815260200182805461231590615e79565b80156123625780601f1061233757610100808354040283529160200191612362565b820191906000526020600020905b81548152906001019060200180831161234557829003601f168201915b5050505050815260200160028201805461237b90615e79565b80601f01602080910402602001604051908101604052809291908181526020018280546123a790615e79565b80156123f45780601f106123c9576101008083540402835291602001916123f4565b820191906000526020600020905b8154815290600101906020018083116123d757829003601f168201915b5050505050815260200160038201805461240d90615e79565b80601f016020809104026020016040519081016040528092919081815260200182805461243990615e79565b80156124865780601f1061245b57610100808354040283529160200191612486565b820191906000526020600020905b81548152906001019060200180831161246957829003601f168201915b5050505050815260200160048201805461249f90615e79565b80601f01602080910402602001604051908101604052809291908181526020018280546124cb90615e79565b80156125185780601f106124ed57610100808354040283529160200191612518565b820191906000526020600020905b8154815290600101906020018083116124fb57829003601f168201915b5050505050815260200160058201805461253190615e79565b80601f016020809104026020016040519081016040528092919081815260200182805461255d90615e79565b80156125aa5780601f1061257f576101008083540402835291602001916125aa565b820191906000526020600020905b81548152906001019060200180831161258d57829003601f168201915b505050919092525050508152600d82015460ff9081161515602080840191909152600e840154604080850191909152600f850154909216151560608085019190915260108501546080850152825160118601805493840282018301855293810183815260a090950194909392849284919060009085015b828210156126cd57838290600052602060002001805461264090615e79565b80601f016020809104026020016040519081016040528092919081815260200182805461266c90615e79565b80156126b95780601f1061268e576101008083540402835291602001916126b9565b820191906000526020600020905b81548152906001019060200180831161269c57829003601f168201915b505050505081526020019060010190612621565b5050505081526020016001820180546126e590615e79565b80601f016020809104026020016040519081016040528092919081815260200182805461271190615e79565b801561275e5780601f106127335761010080835404028352916020019161275e565b820191906000526020600020905b81548152906001019060200180831161274157829003601f168201915b50505091909252505050815260138201546001600160a01b03908116602083015260149092015490911660409091015292915050565b61279c614c8d565b6001600160a01b0380831660009081526005602090815260409182902082516101008101845281549094168452825180840190935260018101805491939285019291829082906127eb90615e79565b80601f016020809104026020016040519081016040528092919081815260200182805461281790615e79565b80156128645780601f1061283957610100808354040283529160200191612864565b820191906000526020600020905b81548152906001019060200180831161284757829003601f168201915b5050505050815260200160018201805461287d90615e79565b80601f01602080910402602001604051908101604052809291908181526020018280546128a990615e79565b80156128f65780601f106128cb576101008083540402835291602001916128f6565b820191906000526020600020905b8154815290600101906020018083116128d957829003601f168201915b50505050508152505081526020016003820160405180604001604052908160008201805461292390615e79565b80601f016020809104026020016040519081016040528092919081815260200182805461294f90615e79565b801561299c5780601f106129715761010080835404028352916020019161299c565b820191906000526020600020905b81548152906001019060200180831161297f57829003601f168201915b505050505081526020016001820180546129b590615e79565b80601f01602080910402602001604051908101604052809291908181526020018280546129e190615e79565b8015612a2e5780601f10612a0357610100808354040283529160200191612a2e565b820191906000526020600020905b815481529060010190602001808311612a1157829003601f168201915b5050505050815250508152602001600582016040518060c0016040529081600082018054612a5b90615e79565b80601f0160208091040260200160405190810160405280929190818152602001828054612a8790615e79565b8015612ad45780601f10612aa957610100808354040283529160200191612ad4565b820191906000526020600020905b815481529060010190602001808311612ab757829003601f168201915b50505050508152602001600182018054612aed90615e79565b80601f0160208091040260200160405190810160405280929190818152602001828054612b1990615e79565b8015612b665780601f10612b3b57610100808354040283529160200191612b66565b820191906000526020600020905b815481529060010190602001808311612b4957829003601f168201915b50505050508152602001600282018054612b7f90615e79565b80601f0160208091040260200160405190810160405280929190818152602001828054612bab90615e79565b8015612bf85780601f10612bcd57610100808354040283529160200191612bf8565b820191906000526020600020905b815481529060010190602001808311612bdb57829003601f168201915b50505050508152602001600382018054612c1190615e79565b80601f0160208091040260200160405190810160405280929190818152602001828054612c3d90615e79565b8015612c8a5780601f10612c5f57610100808354040283529160200191612c8a565b820191906000526020600020905b815481529060010190602001808311612c6d57829003601f168201915b50505050508152602001600482018054612ca390615e79565b80601f0160208091040260200160405190810160405280929190818152602001828054612ccf90615e79565b8015612d1c5780601f10612cf157610100808354040283529160200191612d1c565b820191906000526020600020905b815481529060010190602001808311612cff57829003601f168201915b50505050508152602001600582018054612d3590615e79565b80601f0160208091040260200160405190810160405280929190818152602001828054612d6190615e79565b8015612dae5780601f10612d8357610100808354040283529160200191612dae565b820191906000526020600020905b815481529060010190602001808311612d9157829003601f168201915b505050919092525050508152600b82015460209091019060ff166003811115612dd957612dd96151fc565b6003811115612dea57612dea6151fc565b8152602001600c8201548152602001600d820160405180604001604052908160008201805480602002602001604051908101604052809291908181526020016000905b82821015612ed9578382906000526020600020018054612e4c90615e79565b80601f0160208091040260200160405190810160405280929190818152602001828054612e7890615e79565b8015612ec55780601f10612e9a57610100808354040283529160200191612ec5565b820191906000526020600020905b815481529060010190602001808311612ea857829003601f168201915b505050505081526020019060010190612e2d565b505050508152602001600182018054612ef190615e79565b80601f0160208091040260200160405190810160405280929190818152602001828054612f1d90615e79565b8015612f6a5780601f10612f3f57610100808354040283529160200191612f6a565b820191906000526020600020905b815481529060010190602001808311612f4d57829003601f168201915b505050919092525050508152600f91909101546001600160a01b031660209091015292915050565b6009818154811061034a57600080fd5b6060612faf6003336149c7565b612fe95760405162461bcd60e51b815260206004820152600b60248201526a139bdd0814185d1a595b9d60aa1b604482015260640161038b565b33600090815260076020908152604080832080548251818502810185019093528083529193909284015b828210156135285760008481526020908190206040805161016081018252600b860290920180546001600160a01b03908116845260018201548116948401949094526002810154909316908201526003820154606082015260048201805491929160808401919061308390615e79565b80601f01602080910402602001604051908101604052809291908181526020018280546130af90615e79565b80156130fc5780601f106130d1576101008083540402835291602001916130fc565b820191906000526020600020905b8154815290600101906020018083116130df57829003601f168201915b5050505050815260200160058201805480602002602001604051908101604052809291908181526020016000905b828210156131d657838290600052602060002001805461314990615e79565b80601f016020809104026020016040519081016040528092919081815260200182805461317590615e79565b80156131c25780601f10613197576101008083540402835291602001916131c2565b820191906000526020600020905b8154815290600101906020018083116131a557829003601f168201915b50505050508152602001906001019061312a565b5050505081526020016006820180548060200260200160405190810160405280929190818152602001828054801561322d57602002820191906000526020600020905b815481526020019060010190808311613219575b5050505050815260200160078201805480602002602001604051908101604052809291908181526020016000905b8282101561330757838290600052602060002001805461327a90615e79565b80601f01602080910402602001604051908101604052809291908181526020018280546132a690615e79565b80156132f35780601f106132c8576101008083540402835291602001916132f3565b820191906000526020600020905b8154815290600101906020018083116132d657829003601f168201915b50505050508152602001906001019061325b565b5050505081526020016008820180548060200260200160405190810160405280929190818152602001828054801561335e57602002820191906000526020600020905b81548152602001906001019080831161334a575b5050505050815260200160098201805480602002602001604051908101604052809291908181526020016000905b828210156134385783829060005260206000200180546133ab90615e79565b80601f01602080910402602001604051908101604052809291908181526020018280546133d790615e79565b80156134245780601f106133f957610100808354040283529160200191613424565b820191906000526020600020905b81548152906001019060200180831161340757829003601f168201915b50505050508152602001906001019061338c565b505050508152602001600a8201805480602002602001604051908101604052809291908181526020016000905b8282101561351157838290600052602060002001805461348490615e79565b80601f01602080910402602001604051908101604052809291908181526020018280546134b090615e79565b80156134fd5780601f106134d2576101008083540402835291602001916134fd565b820191906000526020600020905b8154815290600101906020018083116134e057829003601f168201915b505050505081526020019060010190613465565b505050508152505081526020019060010190613013565b50505050905090565b606061353e6001336149c7565b61355a5760405162461bcd60e51b815260040161038b90615edd565b600a5460009081906001600160401b0381111561357957613579614e2a565b6040519080825280602002602001820160405280156135b257816020015b61359f614b32565b8152602001906001900390816135975790505b50905060005b600a54811015610e8257600060066000600a84815481106135db576135db615e63565b60009182526020808320909101546001600160a01b0390811684529083019390935260409091019020601481015490925016331415613e5e57604080516101a08101825282546001600160a01b031681528151808301909252600183018054919284926020850192908290829061365190615e79565b80601f016020809104026020016040519081016040528092919081815260200182805461367d90615e79565b80156136ca5780601f1061369f576101008083540402835291602001916136ca565b820191906000526020600020905b8154815290600101906020018083116136ad57829003601f168201915b505050505081526020016001820180546136e390615e79565b80601f016020809104026020016040519081016040528092919081815260200182805461370f90615e79565b801561375c5780601f106137315761010080835404028352916020019161375c565b820191906000526020600020905b81548152906001019060200180831161373f57829003601f168201915b50505050508152505081526020016003820160405180604001604052908160008201805461378990615e79565b80601f01602080910402602001604051908101604052809291908181526020018280546137b590615e79565b80156138025780601f106137d757610100808354040283529160200191613802565b820191906000526020600020905b8154815290600101906020018083116137e557829003601f168201915b5050505050815260200160018201805461381b90615e79565b80601f016020809104026020016040519081016040528092919081815260200182805461384790615e79565b80156138945780601f1061386957610100808354040283529160200191613894565b820191906000526020600020905b81548152906001019060200180831161387757829003601f168201915b505050919092525050508152600582015460209091019060ff1660038111156138bf576138bf6151fc565b60038111156138d0576138d06151fc565b815260200160068201548152602001600782016040518060c00160405290816000820180546138fe90615e79565b80601f016020809104026020016040519081016040528092919081815260200182805461392a90615e79565b80156139775780601f1061394c57610100808354040283529160200191613977565b820191906000526020600020905b81548152906001019060200180831161395a57829003601f168201915b5050505050815260200160018201805461399090615e79565b80601f01602080910402602001604051908101604052809291908181526020018280546139bc90615e79565b8015613a095780601f106139de57610100808354040283529160200191613a09565b820191906000526020600020905b8154815290600101906020018083116139ec57829003601f168201915b50505050508152602001600282018054613a2290615e79565b80601f0160208091040260200160405190810160405280929190818152602001828054613a4e90615e79565b8015613a9b5780601f10613a7057610100808354040283529160200191613a9b565b820191906000526020600020905b815481529060010190602001808311613a7e57829003601f168201915b50505050508152602001600382018054613ab490615e79565b80601f0160208091040260200160405190810160405280929190818152602001828054613ae090615e79565b8015613b2d5780601f10613b0257610100808354040283529160200191613b2d565b820191906000526020600020905b815481529060010190602001808311613b1057829003601f168201915b50505050508152602001600482018054613b4690615e79565b80601f0160208091040260200160405190810160405280929190818152602001828054613b7290615e79565b8015613bbf5780601f10613b9457610100808354040283529160200191613bbf565b820191906000526020600020905b815481529060010190602001808311613ba257829003601f168201915b50505050508152602001600582018054613bd890615e79565b80601f0160208091040260200160405190810160405280929190818152602001828054613c0490615e79565b8015613c515780601f10613c2657610100808354040283529160200191613c51565b820191906000526020600020905b815481529060010190602001808311613c3457829003601f168201915b505050919092525050508152600d82015460ff9081161515602080840191909152600e840154604080850191909152600f850154909216151560608085019190915260108501546080850152825160118601805493840282018301855293810183815260a090950194909392849284919060009085015b82821015613d74578382906000526020600020018054613ce790615e79565b80601f0160208091040260200160405190810160405280929190818152602001828054613d1390615e79565b8015613d605780601f10613d3557610100808354040283529160200191613d60565b820191906000526020600020905b815481529060010190602001808311613d4357829003601f168201915b505050505081526020019060010190613cc8565b505050508152602001600182018054613d8c90615e79565b80601f0160208091040260200160405190810160405280929190818152602001828054613db890615e79565b8015613e055780601f10613dda57610100808354040283529160200191613e05565b820191906000526020600020905b815481529060010190602001808311613de857829003601f168201915b50505091909252505050815260138201546001600160a01b0390811660208301526014909201549091166040909101528385613e4081615eb4565b965081518110613e5257613e52615e63565b60200260200101819052505b5080613e6981615eb4565b9150506135b8565b6060613e7e6001336149c7565b613e9a5760405162461bcd60e51b815260040161038b90615edd565b60095460009081906001600160401b03811115613eb957613eb9614e2a565b604051908082528060200260200182016040528015613ef257816020015b613edf614c8d565b815260200190600190039081613ed75790505b50905060005b600954811015610e825760006005600060098481548110613f1b57613f1b615e63565b60009182526020808320909101546001600160a01b0390811684529083019390935260409091019020600f8101549092501633141561475b57604080516101008101825282546001600160a01b0316815281518083019092526001830180549192849260208501929082908290613f9190615e79565b80601f0160208091040260200160405190810160405280929190818152602001828054613fbd90615e79565b801561400a5780601f10613fdf5761010080835404028352916020019161400a565b820191906000526020600020905b815481529060010190602001808311613fed57829003601f168201915b5050505050815260200160018201805461402390615e79565b80601f016020809104026020016040519081016040528092919081815260200182805461404f90615e79565b801561409c5780601f106140715761010080835404028352916020019161409c565b820191906000526020600020905b81548152906001019060200180831161407f57829003601f168201915b5050505050815250508152602001600382016040518060400160405290816000820180546140c990615e79565b80601f01602080910402602001604051908101604052809291908181526020018280546140f590615e79565b80156141425780601f1061411757610100808354040283529160200191614142565b820191906000526020600020905b81548152906001019060200180831161412557829003601f168201915b5050505050815260200160018201805461415b90615e79565b80601f016020809104026020016040519081016040528092919081815260200182805461418790615e79565b80156141d45780601f106141a9576101008083540402835291602001916141d4565b820191906000526020600020905b8154815290600101906020018083116141b757829003601f168201915b5050505050815250508152602001600582016040518060c001604052908160008201805461420190615e79565b80601f016020809104026020016040519081016040528092919081815260200182805461422d90615e79565b801561427a5780601f1061424f5761010080835404028352916020019161427a565b820191906000526020600020905b81548152906001019060200180831161425d57829003601f168201915b5050505050815260200160018201805461429390615e79565b80601f01602080910402602001604051908101604052809291908181526020018280546142bf90615e79565b801561430c5780601f106142e15761010080835404028352916020019161430c565b820191906000526020600020905b8154815290600101906020018083116142ef57829003601f168201915b5050505050815260200160028201805461432590615e79565b80601f016020809104026020016040519081016040528092919081815260200182805461435190615e79565b801561439e5780601f106143735761010080835404028352916020019161439e565b820191906000526020600020905b81548152906001019060200180831161438157829003601f168201915b505050505081526020016003820180546143b790615e79565b80601f01602080910402602001604051908101604052809291908181526020018280546143e390615e79565b80156144305780601f1061440557610100808354040283529160200191614430565b820191906000526020600020905b81548152906001019060200180831161441357829003601f168201915b5050505050815260200160048201805461444990615e79565b80601f016020809104026020016040519081016040528092919081815260200182805461447590615e79565b80156144c25780601f10614497576101008083540402835291602001916144c2565b820191906000526020600020905b8154815290600101906020018083116144a557829003601f168201915b505050505081526020016005820180546144db90615e79565b80601f016020809104026020016040519081016040528092919081815260200182805461450790615e79565b80156145545780601f1061452957610100808354040283529160200191614554565b820191906000526020600020905b81548152906001019060200180831161453757829003601f168201915b505050919092525050508152600b82015460209091019060ff16600381111561457f5761457f6151fc565b6003811115614590576145906151fc565b8152602001600c8201548152602001600d820160405180604001604052908160008201805480602002602001604051908101604052809291908181526020016000905b8282101561467f5783829060005260206000200180546145f290615e79565b80601f016020809104026020016040519081016040528092919081815260200182805461461e90615e79565b801561466b5780601f106146405761010080835404028352916020019161466b565b820191906000526020600020905b81548152906001019060200180831161464e57829003601f168201915b5050505050815260200190600101906145d3565b50505050815260200160018201805461469790615e79565b80601f01602080910402602001604051908101604052809291908181526020018280546146c390615e79565b80156147105780601f106146e557610100808354040283529160200191614710565b820191906000526020600020905b8154815290600101906020018083116146f357829003601f168201915b505050919092525050508152600f91909101546001600160a01b0316602090910152838561473d81615eb4565b96508151811061474f5761474f615e63565b60200260200101819052505b508061476681615eb4565b915050613ef8565b6147796002336149c7565b6147955760405162461bcd60e51b815260040161038b90615e39565b61480d60405180610160016040528060006001600160a01b0316815260200160006001600160a01b0316815260200160006001600160a01b0316815260200160008152602001606081526020016060815260200160608152602001606081526020016060815260200160608152602001606081525090565b81516001600160a01b0390811682523360208084018281526000928352600582526040808420600f015485168187019081526060808901519088019081526080808a015190890190815260a0808b0151908a015260c0808b0151908a015260e0808b0151908a0152610100808b0151908a0152610120808b0151908a0152610140808b0151908a015289518816875260078652928620805460018181018355918852968690208951600b9098020180549789166001600160a01b03199889161781559451908501805491891691881691909117905590516002840180549190971695169490941790945591516003830155915180518493614915926004850192910190614aae565b5060a08201518051614931916005840191602090910190614c34565b5060c0820151805161494d916006840191602090910190614d32565b5060e08201518051614969916007840191602090910190614c34565b506101008201518051614986916008840191602090910190614d32565b5061012082015180516149a3916009840191602090910190614c34565b5061014082015180516149c091600a840191602090910190614c34565b5050505050565b60006001600160a01b038216614a1f5760405162461bcd60e51b815260206004820152601b60248201527f4163636f756e7420697320746865207a65726f20616464726573730000000000604482015260640161038b565b506001600160a01b03166000908152602091909152604090205460ff1690565b614a4982826149c7565b15614a895760405162461bcd60e51b815260206004820152601060248201526f4163636f756e742068617320726f6c6560801b604482015260640161038b565b6001600160a01b0316600090815260209190915260409020805460ff19166001179055565b828054614aba90615e79565b90600052602060002090601f016020900481019282614adc5760008555614b22565b82601f10614af557805160ff1916838001178555614b22565b82800160010185558215614b22579182015b82811115614b22578251825591602001919060010190614b07565b50614b2e929150614d6c565b5090565b604051806101a0016040528060006001600160a01b03168152602001614b6b604051806040016040528060608152602001606081525090565b8152602001614b8d604051806040016040528060608152602001606081525090565b81526020016000815260200160008152602001614ba8614d81565b81526020016000151581526020016000815260200160001515815260200160008152602001614bea604051806040016040528060608152602001606081525090565b815260006020820181905260409091015290565b604051806080016040528060006001600160a01b031681526020016060815260200160008152602001614c2f614d81565b905290565b828054828255906000526020600020908101928215614c81579160200282015b82811115614c815782518051614c71918491602090910190614aae565b5091602001919060010190614c54565b50614b2e929150614db7565b60405180610100016040528060006001600160a01b03168152602001614cc6604051806040016040528060608152602001606081525090565b8152602001614ce8604051806040016040528060608152602001606081525090565b8152602001614cf5614d81565b81526020016000815260200160008152602001614d25604051806040016040528060608152602001606081525090565b8152600060209091015290565b828054828255906000526020600020908101928215614b225791602002820182811115614b22578251825591602001919060010190614b07565b5b80821115614b2e5760008155600101614d6d565b6040518060c001604052806060815260200160608152602001606081526020016060815260200160608152602001606081525090565b80821115614b2e576000614dcb8282614dd4565b50600101614db7565b508054614de090615e79565b6000825580601f10614df0575050565b601f016020900490600052602060002090810190614e0e9190614d6c565b50565b600060208284031215614e2357600080fd5b5035919050565b634e487b7160e01b600052604160045260246000fd5b60405160c081016001600160401b0381118282101715614e6257614e62614e2a565b60405290565b604051608081016001600160401b0381118282101715614e6257614e62614e2a565b604080519081016001600160401b0381118282101715614e6257614e62614e2a565b60405161010081016001600160401b0381118282101715614e6257614e62614e2a565b6040516101a081016001600160401b0381118282101715614e6257614e62614e2a565b60405161016081016001600160401b0381118282101715614e6257614e62614e2a565b604051601f8201601f191681016001600160401b0381118282101715614f3d57614f3d614e2a565b604052919050565b80356001600160a01b038116811461142357600080fd5b600082601f830112614f6d57600080fd5b81356001600160401b03811115614f8657614f86614e2a565b614f99601f8201601f1916602001614f15565b818152846020838601011115614fae57600080fd5b816020850160208301376000918101602001919091529392505050565b600060c08284031215614fdd57600080fd5b614fe5614e40565b905081356001600160401b0380821115614ffe57600080fd5b61500a85838601614f5c565b8352602084013591508082111561502057600080fd5b61502c85838601614f5c565b6020840152604084013591508082111561504557600080fd5b61505185838601614f5c565b6040840152606084013591508082111561506a57600080fd5b61507685838601614f5c565b6060840152608084013591508082111561508f57600080fd5b61509b85838601614f5c565b608084015260a08401359150808211156150b457600080fd5b506150c184828501614f5c565b60a08301525092915050565b6000602082840312156150df57600080fd5b81356001600160401b03808211156150f657600080fd5b908301906080828603121561510a57600080fd5b615112614e68565b61511b83614f45565b815260208301358281111561512f57600080fd5b61513b87828601614f5c565b6020830152506040830135604082015260608301358281111561515d57600080fd5b61516987828601614fcb565b60608301525095945050505050565b6000815180845260005b8181101561519e57602081850181015186830182015201615182565b818111156151b0576000602083870101525b50601f01601f19169290920160200192915050565b60008151604084526151da6040850182615178565b9050602083015184820360208601526151f38282615178565b95945050505050565b634e487b7160e01b600052602160045260246000fd5b6004811061523057634e487b7160e01b600052602160045260246000fd5b9052565b6000815160c0845261524960c0850182615178565b9050602083015184820360208601526152628282615178565b9150506040830151848203604086015261527c8282615178565b915050606083015184820360608601526152968282615178565b915050608083015184820360808601526152b08282615178565b91505060a083015184820360a08601526151f38282615178565b600081518084526020808501808196508360051b8101915082860160005b85811015615312578284038952615300848351615178565b988501989350908401906001016152e8565b5091979650505050505050565b60008151604084526151da60408501826152ca565b80516001600160a01b0316825260006101a0602083015181602086015261535d828601826151c5565b9150506040830151848203604086015261537782826151c5565b915050606083015161538c6060860182615212565b506080830151608085015260a083015184820360a08601526153ae8282615234565b91505060c08301516153c460c086018215159052565b5060e083015160e0850152610100808401516153e38287018215159052565b505061012083810151908501526101408084015185830382870152615408838261531f565b9250505061016080840151615427828701826001600160a01b03169052565b5050610180928301516001600160a01b03169390920192909252919050565b6000602080830181845280855180835260408601915060408160051b870101925083870160005b8281101561549b57603f19888603018452615489858351615334565b9450928501929085019060010161546d565b5092979650505050505050565b6000602082840312156154ba57600080fd5b6154c382614f45565b9392505050565b600081518084526020808501945080840160005b838110156154fa578151875295820195908201906001016154de565b509495945050505050565b60006020808301818452808551808352604092508286019150828160051b87010184880160005b8381101561564457603f19898403018552815180516001600160a01b0390811685528882015181168986015287820151168785015260608082015190850152608080820151610160828701819052919061558883880182615178565b9250505060a080830151868303828801526155a383826152ca565b9250505060c080830151868303828801526155be83826154ca565b9250505060e080830151868303828801526155d983826152ca565b9250505061010080830151868303828801526155f583826154ca565b92505050610120808301518683038288015261561183826152ca565b92505050610140808301519250858203818701525061563081836152ca565b96890196945050509086019060010161552c565b509098975050505050505050565b602080825282516001600160a01b0316828201528201516080604083015260009061568060a0840182615178565b9050604084015160608401526060840151601f198483030160808501526151f38282615234565b6020808252825182820181905260009190848201906040850190845b818110156156e85783516001600160a01b0316835292840192918401916001016156c3565b50909695505050505050565b60006040828403121561570657600080fd5b61570e614e8a565b905081356001600160401b038082111561572757600080fd5b61573385838601614f5c565b8352602084013591508082111561574957600080fd5b5061575684828501614f5c565b60208301525092915050565b80356004811061142357600080fd5b60006001600160401b0382111561578a5761578a614e2a565b5060051b60200190565b600082601f8301126157a557600080fd5b813560206157ba6157b583615771565b614f15565b82815260059290921b840181019181810190868411156157d957600080fd5b8286015b848110156158185780356001600160401b038111156157fc5760008081fd5b61580a8986838b0101614f5c565b8452509183019183016157dd565b509695505050505050565b60006040828403121561583557600080fd5b61583d614e8a565b905081356001600160401b038082111561585657600080fd5b61573385838601615794565b60006020828403121561587457600080fd5b81356001600160401b038082111561588b57600080fd5b9083019061010082860312156158a057600080fd5b6158a8614eac565b6158b183614f45565b81526020830135828111156158c557600080fd5b6158d1878286016156f4565b6020830152506040830135828111156158e957600080fd5b6158f5878286016156f4565b60408301525060608301358281111561590d57600080fd5b61591987828601614fcb565b60608301525061592b60808401615762565b608082015260a083013560a082015260c08301358281111561594c57600080fd5b61595887828601615823565b60c08301525061596a60e08401614f45565b60e082015295945050505050565b8035801515811461142357600080fd5b60006020828403121561599a57600080fd5b81356001600160401b03808211156159b157600080fd5b908301906101a082860312156159c657600080fd5b6159ce614ecf565b6159d783614f45565b81526020830135828111156159eb57600080fd5b6159f7878286016156f4565b602083015250604083013582811115615a0f57600080fd5b615a1b878286016156f4565b604083015250615a2d60608401615762565b60608201526080830135608082015260a083013582811115615a4e57600080fd5b615a5a87828601614fcb565b60a083015250615a6c60c08401615978565b60c082015260e083013560e0820152610100615a89818501615978565b9082015261012083810135908201526101408084013583811115615aac57600080fd5b615ab888828701615823565b8284015250506101609150615ace828401614f45565b828201526101809150615ae2828401614f45565b91810191909152949350505050565b6020815260006154c36020830184615334565b80516001600160a01b0316825260006101006020830151816020860152615b2d828601826151c5565b91505060408301518482036040860152615b4782826151c5565b91505060608301518482036060860152615b618282615234565b9150506080830151615b766080860182615212565b5060a083015160a085015260c083015184820360c0860152615b98828261531f565b91505060e0830151615bb560e08601826001600160a01b03169052565b509392505050565b6020815260006154c36020830184615b04565b6000602080830181845280855180835260408601915060408160051b870101925083870160005b8281101561549b57603f19888603018452615c13858351615b04565b94509285019290850190600101615bf7565b600082601f830112615c3657600080fd5b81356020615c466157b583615771565b82815260059290921b84018101918181019086841115615c6557600080fd5b8286015b848110156158185780358352918301918301615c69565b600060208284031215615c9257600080fd5b81356001600160401b0380821115615ca957600080fd5b908301906101608286031215615cbe57600080fd5b615cc6614ef2565b615ccf83614f45565b8152615cdd60208401614f45565b6020820152615cee60408401614f45565b604082015260608301356060820152608083013582811115615d0f57600080fd5b615d1b87828601614f5c565b60808301525060a083013582811115615d3357600080fd5b615d3f87828601615794565b60a08301525060c083013582811115615d5757600080fd5b615d6387828601615c25565b60c08301525060e083013582811115615d7b57600080fd5b615d8787828601615794565b60e0830152506101008084013583811115615da157600080fd5b615dad88828701615c25565b8284015250506101208084013583811115615dc757600080fd5b615dd388828701615794565b8284015250506101408084013583811115615ded57600080fd5b615df988828701615794565b918301919091525095945050505050565b6020808252601590820152744e6f742043656e7472616c20417574686f7269747960581b604082015260600190565b60208082526010908201526f2737ba10283930b1ba34ba34b7b732b960811b604082015260600190565b634e487b7160e01b600052603260045260246000fd5b600181811c90821680615e8d57607f821691505b60208210811415615eae57634e487b7160e01b600052602260045260246000fd5b50919050565b6000600019821415615ed657634e487b7160e01b600052601160045260246000fd5b5060010190565b6020808252601690820152752737ba1027b933b0b734b9b0ba34b7b71020b236b4b760511b60408201526060019056fea26469706673582212208081f32ecc506c8ff05d709eeabf8754770191c2cbabc863a184cc2c4a8f30e764736f6c634300080b0033",
  "immutableReferences": {},
  "source": "// SPDX-License-Identifier: MIT\npragma solidity >= 0.8.11;\n\ncontract Contract{\n\n    struct Role {\n        mapping (address => bool) bearer;\n    }\n    //Add a role to an account\n    function add(Role storage role, address account) internal {\n        require(!has(role, account), \"Account has role\");\n        role.bearer[account] = true;\n    }\n    //Remove a role from an account\n    function remove(Role storage role, address account) internal {\n        require(has(role, account), \"Account does not have role\");\n        role.bearer[account] = false;\n    }\n    //Check if an account has a role\n    function has(Role storage role, address account) internal view returns (bool) {\n        require(account != address(0), \"Account is the zero address\");\n        return role.bearer[account];\n    }\n\n    Role private centralAuthority;\n    Role private organisationAdmin;\n    Role private practitioner;\n    Role private patient;\n\n     /*\n        Modifiers\n    */\n\n    modifier onlyCentralAuthority(){\n        require(has(centralAuthority,msg.sender), 'Not Central Authority');\n        _;\n    }\n    modifier onlyOrganisationAdmin(){\n        require(has(organisationAdmin,msg.sender), 'Not Organisation Admin');\n        _;\n    }\n    modifier onlyPractitioner(){\n        require(has(practitioner,msg.sender), 'Not Practitioner');\n        _;\n    }\n    modifier onlyPatient(){\n        require(has(patient,msg.sender), 'Not Patient');\n        _;\n    }\n    \n    /*\n        General Information\n    */\n    struct HumanName{\n        string givenNames;\n        string surname;\n    }\n\n    struct ContactPoint{\n        string phoneNumber;\n        string email;\n    }\n    \n    struct PhysicalAddress{\n        string use;\n        string street;\n        string city;\n        string state;\n        string postalCode;\n        string country;\n    }\n\n    struct Communication{\n        string[] languages;\n        string preferred;\n    }\n\n    enum Gender{ MALE, FEMALE, OTHER, UNKNOWN }\n\n    struct Organisation{\n        address id;\n        string name;\n        uint dateJoined;\n        PhysicalAddress organisationAddress;\n    }\n    /*\n        Practitioner\n    */\n    struct Practitioner{\n        address id;\n        HumanName name;\n        ContactPoint telecom;\n        PhysicalAddress homeAddress;\n        Gender gender;\n        uint birthDate;\n        Communication communication;\n        address memberOrgaisation;\n    }\n    /*\n        Patient\n    */\n    struct Patient{\n        address id;\n        HumanName name;\n        ContactPoint telecom;       \n        Gender gender;\n        uint birthDate;\n        PhysicalAddress homeAddress; \n        bool deceasedBoolean;\n        uint deceasedDateTime;\n        bool multipleBirthBoolean;\n        uint multipleBirthInteger;\n        Communication communication;     \n        address generalPractitioner;\n        address managingOrganisation;\n    }\n\n    // Start of Medical Records\n    struct MedicalRecord{\n        address patientId;\n        address practitionerId;\n        address organisationId;\n        uint timestamp;\n        string diagnosis;\n        string[] medicationName;\n        uint[] dosage;\n        string[] unit;\n        uint[] noOfDays;\n        string[] remarks;\n        string[] clinicalTests;\n    }\n    // End of Medical Records\n\n    mapping(address => Organisation) Organisations;\n    mapping(address => Practitioner) Practitioners;\n    mapping(address => Patient) Patients;\n    mapping(address => MedicalRecord[]) Records;\n\n    address[] public OrganisationList;\n    address[] public PractitionerList;\n    address[] public PatientList;\n\n    address centralAuthorityID;\n\n    constructor() {\n        centralAuthorityID = msg.sender;\n        add(centralAuthority,centralAuthorityID);\n    }\n\n    //get Admin\n\n    function getCentralAuthority() external view returns(address){\n        return centralAuthorityID;\n    }\n  \n    function isCentralAuthority() external view returns(bool){\n        return has(centralAuthority,tx.origin);\n    }\n\n    function addOrganisation(Organisation memory data) external onlyCentralAuthority{\n        require(has(centralAuthority,msg.sender) == true, \"Only for Admins\");\n\n        Organisation storage organisationData = Organisations[data.id];\n        organisationData.id = data.id;\n        organisationData.name = data.name;\n        organisationData.dateJoined = data.dateJoined;\n        organisationData.organisationAddress = data.organisationAddress;\n\n        OrganisationList.push(data.id);\n        add(organisationAdmin,data.id);\n    }\n\n    function getOrganisation(address id) public view returns(Organisation memory){\n        return Organisations[id];\n    }\n\n    function getAllOrganisation() external onlyCentralAuthority view returns(address[] memory){\n        return OrganisationList;\n    }\n\n    function isOrganisation() external view returns(bool){\n        return has(organisationAdmin,msg.sender);\n    }\n\n    function addPractitioner(Practitioner memory data) external onlyOrganisationAdmin{\n        Practitioner storage practitionerData = Practitioners[data.id];\n        practitionerData.id = data.id;\n        practitionerData.name = data.name;\n        practitionerData.telecom = data.telecom;\n        practitionerData.birthDate = data.birthDate;\n        practitionerData.gender = data.gender;\n        practitionerData.homeAddress = data.homeAddress;\n        practitionerData.communication = data.communication;\n        practitionerData.memberOrgaisation = data.memberOrgaisation;\n\n        PractitionerList.push(data.id);\n        add(practitioner,data.id);\n    }\n\n    function getDr(address _id) external view returns(Practitioner memory){\n        return (Practitioners[_id]);\n    }\n\n    function isPractitioner(address id) external view returns(int){\n        if(has(practitioner,id)){\n            return 1;\n        }\n        return 0;\n    }\n\n    function getPractitionerCount() external onlyCentralAuthority view returns(uint) {\n        return(PractitionerList.length);\n    }\n\n    function getPatientCount() external onlyCentralAuthority view returns(uint){\n        return(PatientList.length);\n    }\n\n    function getPractitionersPerOrg() external onlyOrganisationAdmin view returns(Practitioner[] memory){\n        uint count = 0;\n        Practitioner[] memory practitionerList = new Practitioner[](PractitionerList.length);\n        for(uint i=0;i<PractitionerList.length;i++){\n            Practitioner storage pracData = Practitioners[PractitionerList[i]];\n            if(pracData.memberOrgaisation == msg.sender){\n                practitionerList[count++] = pracData;\n            }\n        }\n        return(practitionerList);\n    }\n\n    function getPatientsPerDoc() external onlyPractitioner view returns(Patient[] memory){\n        uint count = 0;\n        Patient[] memory patientList = new Patient[](PatientList.length);\n        for(uint i=0;i<PatientList.length;i++){\n            Patient storage patientData = Patients[PatientList[i]];\n            if(patientData.generalPractitioner == msg.sender){\n                patientList[count++] = patientData;\n            }\n        }\n        return(patientList);\n    }\n\n    function getPatientsPerOrg() external onlyOrganisationAdmin view returns(Patient[] memory){\n        uint count = 0;\n        Patient[] memory patientList = new Patient[](PatientList.length);\n        for(uint i=0;i<PatientList.length;i++){\n            Patient storage patientData = Patients[PatientList[i]];\n            if(patientData.managingOrganisation == msg.sender){\n                patientList[count++] = patientData;\n            }\n        }\n        return(patientList);\n    }\n\n    /*\n            Patient\n    */\n    function isPatient(address id) external view returns(int){\n       if(has(patient,id)){\n           return 1;\n        }\n        return 0;\n    }\n\n    function getPatInfo(address iD) external view returns(Patient memory){\n        require(has(patient,msg.sender) || has(practitioner,msg.sender), \"Not allowed\");\n        return (Patients[iD]);\n    }\n\n    function addPatient(Patient memory data ) external onlyOrganisationAdmin{\n        require(has(organisationAdmin,msg.sender) && has(practitioner,data.generalPractitioner), 'Invalid Data');\n        Patient storage patientData = Patients[data.id];\n        patientData.id = data.id;\n        patientData.name = data.name;\n        patientData.telecom = data.telecom;\n        patientData.birthDate = data.birthDate;\n        patientData.communication = data.communication;\n        patientData.gender = data.gender;\n        patientData.homeAddress = data.homeAddress;\n        patientData.deceasedBoolean = data.deceasedBoolean;\n        patientData.deceasedDateTime = data.deceasedDateTime;\n        patientData.multipleBirthBoolean = data.multipleBirthBoolean;\n        patientData.multipleBirthInteger = data.multipleBirthInteger;\n        patientData.generalPractitioner = data.generalPractitioner;\n        patientData.managingOrganisation = msg.sender;\n\n        PatientList.push(data.id);\n        add(patient,data.id);\n    }\n\n    /*\n        Medical Records\n    */\n\n    function addMedicalRecord(MedicalRecord memory data) external onlyPractitioner{\n        MedicalRecord memory recordData;\n        recordData.patientId = data.patientId;\n        recordData.practitionerId = msg.sender;\n        recordData.organisationId = Practitioners[msg.sender].memberOrgaisation;\n        recordData.timestamp = data.timestamp;\n        recordData.diagnosis = data.diagnosis;\n        recordData.medicationName = data.medicationName;\n        recordData.dosage = data.dosage;\n        recordData.unit = data.unit;\n        recordData.noOfDays = data.noOfDays;\n        recordData.remarks = data.remarks;\n        recordData.clinicalTests = data.clinicalTests;\n        Records[data.patientId].push(recordData);\n    }\n\n    function viewMedicalRecord(address id) external onlyPractitioner view returns(MedicalRecord[] memory){\n        return (Records[id]);\n    }\n\n    function viewMedicalRecord() external onlyPatient view returns(MedicalRecord[] memory){\n        return (Records[msg.sender]);\n    }\n}\n\n",
  "sourcePath": "/Users/amrhoballah/Documents/GitHub/Algobucks/contracts/Contract.sol",
  "compiler": {
    "name": "solc",
    "version": "0.8.11+commit.d7f03943.Emscripten.clang"
  },
  "schemaVersion": "3.4.6",
  "updatedAt": "2022-05-07T02:12:44.764Z",
  "networkType": "ethereum",
  "devdoc": {
    "kind": "dev",
    "methods": {},
    "version": 1
  },
  "userdoc": {
    "kind": "user",
    "methods": {},
    "version": 1
  }
}