{
  "contractName": "Contract",
  "abi": [
    {
      "inputs": [],
      "stateMutability": "nonpayable",
      "type": "constructor"
    },
    {
      "inputs": [
        {
          "internalType": "uint256",
          "name": "",
          "type": "uint256"
        }
      ],
      "name": "Dr_ids",
      "outputs": [
        {
          "internalType": "address",
          "name": "",
          "type": "address"
        }
      ],
      "stateMutability": "view",
      "type": "function",
      "constant": true
    },
    {
      "inputs": [
        {
          "internalType": "uint256",
          "name": "",
          "type": "uint256"
        }
      ],
      "name": "Patient_ids",
      "outputs": [
        {
          "internalType": "address",
          "name": "",
          "type": "address"
        }
      ],
      "stateMutability": "view",
      "type": "function",
      "constant": true
    },
    {
      "inputs": [
        {
          "internalType": "uint256",
          "name": "",
          "type": "uint256"
        }
      ],
      "name": "RecordHashes",
      "outputs": [
        {
          "internalType": "string",
          "name": "",
          "type": "string"
        }
      ],
      "stateMutability": "view",
      "type": "function",
      "constant": true
    },
    {
      "inputs": [],
      "name": "getAdmin",
      "outputs": [
        {
          "internalType": "address",
          "name": "",
          "type": "address"
        }
      ],
      "stateMutability": "view",
      "type": "function",
      "constant": true
    },
    {
      "inputs": [
        {
          "internalType": "address",
          "name": "dr_id",
          "type": "address"
        },
        {
          "internalType": "string",
          "name": "firstName",
          "type": "string"
        },
        {
          "internalType": "string",
          "name": "lastName",
          "type": "string"
        }
      ],
      "name": "addDrInfo",
      "outputs": [],
      "stateMutability": "nonpayable",
      "type": "function"
    },
    {
      "inputs": [
        {
          "internalType": "address",
          "name": "_newdr",
          "type": "address"
        }
      ],
      "name": "addDoctor",
      "outputs": [],
      "stateMutability": "nonpayable",
      "type": "function"
    },
    {
      "inputs": [
        {
          "internalType": "address",
          "name": "_accid",
          "type": "address"
        }
      ],
      "name": "delDr",
      "outputs": [],
      "stateMutability": "nonpayable",
      "type": "function"
    },
    {
      "inputs": [],
      "name": "get_drtid",
      "outputs": [
        {
          "internalType": "address",
          "name": "",
          "type": "address"
        }
      ],
      "stateMutability": "view",
      "type": "function",
      "constant": true
    },
    {
      "inputs": [
        {
          "internalType": "address",
          "name": "_id",
          "type": "address"
        }
      ],
      "name": "search",
      "outputs": [],
      "stateMutability": "nonpayable",
      "type": "function"
    },
    {
      "inputs": [],
      "name": "getDrInfo",
      "outputs": [
        {
          "components": [
            {
              "internalType": "string",
              "name": "firstName",
              "type": "string"
            },
            {
              "internalType": "string",
              "name": "lastName",
              "type": "string"
            }
          ],
          "internalType": "struct Contract.Doctor",
          "name": "",
          "type": "tuple"
        }
      ],
      "stateMutability": "view",
      "type": "function",
      "constant": true
    },
    {
      "inputs": [
        {
          "internalType": "address",
          "name": "_id",
          "type": "address"
        }
      ],
      "name": "getDr",
      "outputs": [
        {
          "components": [
            {
              "internalType": "string",
              "name": "firstName",
              "type": "string"
            },
            {
              "internalType": "string",
              "name": "lastName",
              "type": "string"
            }
          ],
          "internalType": "struct Contract.Doctor",
          "name": "",
          "type": "tuple"
        }
      ],
      "stateMutability": "view",
      "type": "function",
      "constant": true
    },
    {
      "inputs": [
        {
          "internalType": "address",
          "name": "id",
          "type": "address"
        }
      ],
      "name": "isDr",
      "outputs": [
        {
          "internalType": "string",
          "name": "",
          "type": "string"
        }
      ],
      "stateMutability": "view",
      "type": "function",
      "constant": true
    },
    {
      "inputs": [
        {
          "internalType": "address",
          "name": "id",
          "type": "address"
        }
      ],
      "name": "isDoctor",
      "outputs": [
        {
          "internalType": "int256",
          "name": "",
          "type": "int256"
        }
      ],
      "stateMutability": "view",
      "type": "function",
      "constant": true
    },
    {
      "inputs": [],
      "name": "getAllDrs",
      "outputs": [
        {
          "internalType": "address[]",
          "name": "",
          "type": "address[]"
        }
      ],
      "stateMutability": "view",
      "type": "function",
      "constant": true
    },
    {
      "inputs": [],
      "name": "getDoctorCount",
      "outputs": [
        {
          "internalType": "uint256",
          "name": "",
          "type": "uint256"
        }
      ],
      "stateMutability": "view",
      "type": "function",
      "constant": true
    },
    {
      "inputs": [
        {
          "internalType": "address",
          "name": "id",
          "type": "address"
        }
      ],
      "name": "isPat",
      "outputs": [
        {
          "internalType": "string",
          "name": "",
          "type": "string"
        }
      ],
      "stateMutability": "view",
      "type": "function",
      "constant": true
    },
    {
      "inputs": [
        {
          "internalType": "address",
          "name": "id",
          "type": "address"
        }
      ],
      "name": "isPatient",
      "outputs": [
        {
          "internalType": "int256",
          "name": "",
          "type": "int256"
        }
      ],
      "stateMutability": "view",
      "type": "function",
      "constant": true
    },
    {
      "inputs": [
        {
          "internalType": "address",
          "name": "_newpatient",
          "type": "address"
        }
      ],
      "name": "addPatient",
      "outputs": [],
      "stateMutability": "nonpayable",
      "type": "function"
    },
    {
      "inputs": [
        {
          "internalType": "address",
          "name": "_patid",
          "type": "address"
        }
      ],
      "name": "addRec",
      "outputs": [],
      "stateMutability": "nonpayable",
      "type": "function"
    },
    {
      "inputs": [
        {
          "internalType": "address",
          "name": "_patid",
          "type": "address"
        }
      ],
      "name": "viewPatRec",
      "outputs": [],
      "stateMutability": "nonpayable",
      "type": "function"
    },
    {
      "inputs": [
        {
          "internalType": "address",
          "name": "_accid",
          "type": "address"
        }
      ],
      "name": "delPat",
      "outputs": [],
      "stateMutability": "nonpayable",
      "type": "function"
    },
    {
      "inputs": [],
      "name": "get",
      "outputs": [
        {
          "internalType": "address",
          "name": "",
          "type": "address"
        }
      ],
      "stateMutability": "view",
      "type": "function",
      "constant": true
    },
    {
      "inputs": [],
      "name": "get_patid",
      "outputs": [
        {
          "internalType": "address",
          "name": "",
          "type": "address"
        }
      ],
      "stateMutability": "view",
      "type": "function",
      "constant": true
    },
    {
      "inputs": [
        {
          "internalType": "address",
          "name": "iD",
          "type": "address"
        }
      ],
      "name": "getPatInfo",
      "outputs": [
        {
          "components": [
            {
              "internalType": "string",
              "name": "firstName",
              "type": "string"
            },
            {
              "internalType": "string",
              "name": "lastName",
              "type": "string"
            }
          ],
          "internalType": "struct Contract.Patient",
          "name": "",
          "type": "tuple"
        }
      ],
      "stateMutability": "view",
      "type": "function",
      "constant": true
    },
    {
      "inputs": [
        {
          "internalType": "address",
          "name": "pat_id",
          "type": "address"
        },
        {
          "internalType": "string",
          "name": "firstName",
          "type": "string"
        },
        {
          "internalType": "string",
          "name": "lastName",
          "type": "string"
        }
      ],
      "name": "addPatInfo",
      "outputs": [],
      "stateMutability": "nonpayable",
      "type": "function"
    },
    {
      "inputs": [
        {
          "internalType": "string",
          "name": "_recHash",
          "type": "string"
        },
        {
          "internalType": "address",
          "name": "_pat_id",
          "type": "address"
        }
      ],
      "name": "addMedRecord",
      "outputs": [],
      "stateMutability": "nonpayable",
      "type": "function"
    },
    {
      "inputs": [
        {
          "internalType": "address",
          "name": "id",
          "type": "address"
        }
      ],
      "name": "viewMedRec",
      "outputs": [
        {
          "internalType": "string",
          "name": "",
          "type": "string"
        }
      ],
      "stateMutability": "view",
      "type": "function",
      "constant": true
    }
  ],
  "bytecode": "0x608060405234801561001057600080fd5b50600a80546001600160a01b0319163390811790915561003290600090610037565b61013b565b61004182826100b8565b156100935760405162461bcd60e51b815260206004820152601f60248201527f526f6c65733a206163636f756e7420616c72656164792068617320726f6c650060448201526064015b60405180910390fd5b6001600160a01b0316600090815260209190915260409020805460ff19166001179055565b60006001600160a01b03821661011b5760405162461bcd60e51b815260206004820152602260248201527f526f6c65733a206163636f756e7420697320746865207a65726f206164647265604482015261737360f01b606482015260840161008a565b506001600160a01b03166000908152602091909152604090205460ff1690565b61140b8061014a6000396000f3fe608060405234801561001057600080fd5b50600436106101a95760003560e01c8063720d5b4b116100f9578063be95687311610097578063d2fce6cc11610071578063d2fce6cc1461039a578063d4fd45c4146103ad578063ddf8f98b146103c0578063f1a1d7d5146103d157600080fd5b8063be95687314610361578063c979783f14610374578063cc5729141461038757600080fd5b806391174ee1116100d357806391174ee11461031357806392bed5ce14610326578063996440c61461033b5780639fd067741461034e57600080fd5b8063720d5b4b146102db57806379111c1c146102ee5780638f9c79ed1461030057600080fd5b80634780468f11610166578063657a251211610140578063657a2512146102815780636d263ceb146102b15780636d4ce63c146102c45780636e9960c3146102ca57600080fd5b80634780468f146102485780634fe6c9501461025b57806358dae14f1461026e57600080fd5b8063047f66c3146101ae5780631b61c08c146101c35780631c7fb129146101d65780631da3e2dc146102005780632f4a4dcb146102155780633c52554b14610228575b600080fd5b6101c16101bc366004611094565b6103e4565b005b6101c16101d1366004611159565b610406565b600c546001600160a01b03165b6040516001600160a01b0390911681526020015b60405180910390f35b6102086104f4565b6040516101f791906111cd565b6101e361022336600461121a565b610556565b61023b610236366004611094565b610580565b6040516101f79190611280565b6101c1610256366004611094565b61062c565b6101c1610269366004611094565b610666565b61023b61027c36600461121a565b61069d565b6101c161028f366004611094565b600c80546001600160a01b0319166001600160a01b0392909216919091179055565b6101c16102bf366004611094565b610749565b336101e3565b600a546001600160a01b03166101e3565b61023b6102e9366004611094565b610780565b6006545b6040519081526020016101f7565b6102f261030e366004611094565b6107e9565b6101c1610321366004611159565b61084c565b61032e610939565b6040516101f791906112ca565b6102f2610349366004611094565b610a99565b6101c161035c366004611094565b610af9565b61023b61036f366004611094565b610b30565b6101e361038236600461121a565b610b3d565b61032e610395366004611094565b610b4d565b6101c16103a8366004611094565b610cad565b61032e6103bb366004611094565b610d52565b600b546001600160a01b03166101e3565b6101c16103df3660046112dd565b610d97565b600b80546001600160a01b0319166001600160a01b0392909216919091179055565b610411600033610e5e565b6104545760405162461bcd60e51b815260206004820152600f60248201526e27b7363c902337b9102237b1ba37b960891b60448201526064015b60405180910390fd5b6001600160a01b038316600090815260036020908152604090912083519091610481918391860190610fdf565b5081516104979060018301906020850190610fdf565b5060068054600180820183556000929092527ff652222313e28459528d920b65115c16c04f3efc82aaedc97be59f3f377c0d3f0180546001600160a01b0319166001600160a01b0387161790556104ee9085610ee1565b50505050565b6060600680548060200260200160405190810160405280929190818152602001828054801561054c57602002820191906000526020600020905b81546001600160a01b0316815260019091019060200180831161052e575b5050505050905090565b6007818154811061056657600080fd5b6000918252602090912001546001600160a01b0316905081565b6001600160a01b03811660009081526005602052604090208054606091906105a79061132b565b80601f01602080910402602001604051908101604052809291908181526020018280546105d39061132b565b80156106205780601f106105f557610100808354040283529160200191610620565b820191906000526020600020905b81548152906001019060200180831161060357829003601f168201915b50505050509050919050565b610637600033610e5e565b15156001146106585760405162461bcd60e51b815260040161044b90611366565b610663600182610ee1565b50565b610671600033610e5e565b15156001146106925760405162461bcd60e51b815260040161044b90611366565b610663600182610f5d565b600881815481106106ad57600080fd5b9060005260206000200160009150905080546106c89061132b565b80601f01602080910402602001604051908101604052809291908181526020018280546106f49061132b565b80156107415780601f1061071657610100808354040283529160200191610741565b820191906000526020600020905b81548152906001019060200180831161072457829003601f168201915b505050505081565b610754600033610e5e565b15156001146107755760405162461bcd60e51b815260040161044b90611366565b610663600282610ee1565b606061078d600283610e5e565b6107cc5760405162461bcd60e51b815260206004820152601060248201526f4f6e6c7920666f7220446f63746f727360801b604482015260640161044b565b50506040805180820190915260018152603160f81b602082015290565b6000805b6007548111610843576007818154811061080957610809611396565b6000918252602090912001546001600160a01b03848116911614156108315750600192915050565b8061083b816113ac565b9150506107ed565b50600092915050565b610857600033610e5e565b15156001146108a85760405162461bcd60e51b815260206004820152601b60248201527f4f6e6c7920796f752043616e2041646420796f757220696e666f200000000000604482015260640161044b565b6001600160a01b0383166000908152600460209081526040909120835190916108d5918391860190610fdf565b5081516108eb9060018301906020850190610fdf565b50600780546001810182556000919091527fa66cc928b5edb82af9bd49922954155ab7b0942694bea4ce44661d9a8736c6880180546001600160a01b031916331790556104ee600285610ee1565b6040805180820190915260608082526020820152600c546001600160a01b03166000908152600360205260409081902081518083019092528054829082906109809061132b565b80601f01602080910402602001604051908101604052809291908181526020018280546109ac9061132b565b80156109f95780601f106109ce576101008083540402835291602001916109f9565b820191906000526020600020905b8154815290600101906020018083116109dc57829003601f168201915b50505050508152602001600182018054610a129061132b565b80601f0160208091040260200160405190810160405280929190818152602001828054610a3e9061132b565b8015610a8b5780601f10610a6057610100808354040283529160200191610a8b565b820191906000526020600020905b815481529060010190602001808311610a6e57829003601f168201915b505050505081525050905090565b6000805b600654811161084357826001600160a01b031660068281548110610ac357610ac3611396565b6000918252602090912001546001600160a01b03161415610ae75750600192915050565b80610af1816113ac565b915050610a9d565b610b04600033610e5e565b1515600114610b255760405162461bcd60e51b815260040161044b90611366565b610663600282610f5d565b606061078d600183610e5e565b6006818154811061056657600080fd5b60408051808201909152606080825260208201526001600160a01b038216600090815260046020526040908190208151808301909252805482908290610b929061132b565b80601f0160208091040260200160405190810160405280929190818152602001828054610bbe9061132b565b8015610c0b5780601f10610be057610100808354040283529160200191610c0b565b820191906000526020600020905b815481529060010190602001808311610bee57829003601f168201915b50505050508152602001600182018054610c249061132b565b80601f0160208091040260200160405190810160405280929190818152602001828054610c509061132b565b8015610c9d5780601f10610c7257610100808354040283529160200191610c9d565b820191906000526020600020905b815481529060010190602001808311610c8057829003601f168201915b5050505050815250509050919050565b610cb8600133610e5e565b1515600114610d035760405162461bcd60e51b815260206004820152601760248201527613db9b1e48111bd8dd1bdc8810d85b88111bc8151a185d604a1b604482015260640161044b565b610d0e600282610e5e565b15156001146103e45760405162461bcd60e51b815260206004820152601060248201526f1a5cc81b9bdd08184814185d1a595b9d60821b604482015260640161044b565b60408051808201909152606080825260208201526001600160a01b038216600090815260036020526040908190208151808301909252805482908290610b929061132b565b610da2600133610e5e565b1515600114610ded5760405162461bcd60e51b815260206004820152601760248201527613db9b1e48111bd8dd1bdc8810d85b88111bc8151a185d604a1b604482015260640161044b565b6001600160a01b038116600090815260056020908152604090912083519091610e1a918391860190610fdf565b506008805460018101825560009190915283516104ee917ff3f7a9fe364faab93b216da50a3214154f22a0a2b415b23a84c8169e8b636ee301906020860190610fdf565b60006001600160a01b038216610ec15760405162461bcd60e51b815260206004820152602260248201527f526f6c65733a206163636f756e7420697320746865207a65726f206164647265604482015261737360f01b606482015260840161044b565b506001600160a01b03166000908152602091909152604090205460ff1690565b610eeb8282610e5e565b15610f385760405162461bcd60e51b815260206004820152601f60248201527f526f6c65733a206163636f756e7420616c72656164792068617320726f6c6500604482015260640161044b565b6001600160a01b0316600090815260209190915260409020805460ff19166001179055565b610f678282610e5e565b610fbd5760405162461bcd60e51b815260206004820152602160248201527f526f6c65733a206163636f756e7420646f6573206e6f74206861766520726f6c6044820152606560f81b606482015260840161044b565b6001600160a01b0316600090815260209190915260409020805460ff19169055565b828054610feb9061132b565b90600052602060002090601f01602090048101928261100d5760008555611053565b82601f1061102657805160ff1916838001178555611053565b82800160010185558215611053579182015b82811115611053578251825591602001919060010190611038565b5061105f929150611063565b5090565b5b8082111561105f5760008155600101611064565b80356001600160a01b038116811461108f57600080fd5b919050565b6000602082840312156110a657600080fd5b6110af82611078565b9392505050565b634e487b7160e01b600052604160045260246000fd5b600082601f8301126110dd57600080fd5b813567ffffffffffffffff808211156110f8576110f86110b6565b604051601f8301601f19908116603f01168101908282118183101715611120576111206110b6565b8160405283815286602085880101111561113957600080fd5b836020870160208301376000602085830101528094505050505092915050565b60008060006060848603121561116e57600080fd5b61117784611078565b9250602084013567ffffffffffffffff8082111561119457600080fd5b6111a0878388016110cc565b935060408601359150808211156111b657600080fd5b506111c3868287016110cc565b9150509250925092565b6020808252825182820181905260009190848201906040850190845b8181101561120e5783516001600160a01b0316835292840192918401916001016111e9565b50909695505050505050565b60006020828403121561122c57600080fd5b5035919050565b6000815180845260005b818110156112595760208185018101518683018201520161123d565b8181111561126b576000602083870101525b50601f01601f19169290920160200192915050565b6020815260006110af6020830184611233565b60008151604084526112a86040850182611233565b9050602083015184820360208601526112c18282611233565b95945050505050565b6020815260006110af6020830184611293565b600080604083850312156112f057600080fd5b823567ffffffffffffffff81111561130757600080fd5b611313858286016110cc565b92505061132260208401611078565b90509250929050565b600181811c9082168061133f57607f821691505b6020821081141561136057634e487b7160e01b600052602260045260246000fd5b50919050565b60208082526016908201527513db9b1e4810591b5a5b8810d85b88111bc8151a185d60521b604082015260600190565b634e487b7160e01b600052603260045260246000fd5b60006000198214156113ce57634e487b7160e01b600052601160045260246000fd5b506001019056fea2646970667358221220b95a7c951571c491c4ea87d452e4d675d448621141b3c1c9eada662b8939f44664736f6c634300080b0033",
  "immutableReferences": {},
  "source": "// SPDX-License-Identifier: MIT\npragma solidity >= 0.4.21;\n\n// import './Roles.sol';\n\n// using Roles for Roles.Role;\n\ncontract Contract{\n\n    struct Role {\n        mapping (address => bool) bearer;\n        /**\n     * @dev Give an account access to this role.\n     */\n\n    }\n\n    function add(Role storage role, address account) internal {\n        require(!has(role, account), \"Roles: account already has role\");\n        role.bearer[account] = true;\n    }\n\n    /**\n     * @dev Remove an account's access to this role.\n     */\n    function remove(Role storage role, address account) internal {\n        require(has(role, account), \"Roles: account does not have role\");\n        role.bearer[account] = false;\n    }\n\n    /**\n     * @dev Check if an account has this role.\n     * @return bool\n     */\n    function has(Role storage role, address account) internal view returns (bool) {\n        require(account != address(0), \"Roles: account is the zero address\");\n        return role.bearer[account];\n    }\n\n    Role private admin;\n    Role private doctor;\n    Role private patient;\n\n    struct Doctor{\n        string firstName;\n        string lastName;\n    }\n\n    struct Patient{\n        string firstName;\n        string lastName;\n    }\n\n    struct MedRec{\n        string RecordHash;\n    }\n\n    mapping(address => Doctor) Doctors;\n    mapping(address => Patient) Patients;\n    mapping(address => MedRec) Records;\n\n    address[] public Dr_ids;\n    address[] public Patient_ids;\n    string[] public RecordHashes;\n\n    address accountId;\n    address admin_id;\n    address get_patient_id;\n    address get_dr_id;\n\n    constructor() {\n        admin_id = msg.sender;\n        add(admin,admin_id);\n    }\n\n    //get Admin\n\n    function getAdmin() public view returns(address){\n        return admin_id;\n    }\n\n    /*\n\n        Doctor\n\n    */\n    //Add Doctor\n\n    function addDrInfo(address dr_id, string memory firstName, string memory lastName) public{\n        require(has(admin,msg.sender), 'Only For Doctor');\n\n        Doctor storage drInfo = Doctors[dr_id];\n        drInfo.firstName = firstName;\n        drInfo.lastName = lastName;\n        Dr_ids.push(dr_id);\n\n        add(doctor,dr_id);\n    }\n\n    // function updateInfo(address dr_id, string memory _drInfo_hash) public{\n    //     Doctor storage drInfo = Doctors[msg.sender];\n    //     drInfo.drHash = _drInfo_hash;\n    //     Dr_ids.push(dr_id);\n    // }\n\n    function addDoctor(address _newdr) external onlyAdmin() {\n        add(doctor,_newdr);\n    }\n\n    function delDr(address _accid) external onlyAdmin(){\n        remove(doctor,_accid);\n    }\n\n    function get_drtid() public view returns(address){\n        return get_dr_id;\n    }\n\n    function search(address _id)public{\n        get_dr_id = _id;\n    }\n\n    function getDrInfo() public view returns(Doctor memory){\n        return (Doctors[get_dr_id]);\n    }\n\n    function getDr(address _id) public view returns(Doctor memory){\n        return (Doctors[_id]);\n    }\n\n    function isDr(address id) public view returns(string memory){\n        require(has(doctor,id), \"Only for Doctors\");\n        return \"1\";\n    }\n\n    function isDoctor(address id) public view returns(int){\n        // require(doctor.has(msg.sender), \"Only for Doctors\");\n        for(uint i=0;i<=Dr_ids.length;i++){\n            if(Dr_ids[i] == id){\n                return 1;\n            }\n        }\n        return 0;\n    }\n\n    function getAllDrs() public view returns(address[] memory){\n        return(Dr_ids);\n    }\n\n    function getDoctorCount() public view returns(uint){\n        return(Dr_ids.length);\n    }\n\n    // function getAllDrDetails() onlyAdmin() public view returns(string[] memory) {\n    //     drIds =\n    //     return ['']\n    // }\n    /*\n            Patient\n\n    */\n    function isPat(address id) public view returns(string memory){\n        require(has(patient,id), \"Only for Doctors\");\n        return \"1\";\n    }\n    // Check is patient\n    function isPatient(address id) public view returns(int){\n        for(uint i = 0 ;i<=Patient_ids.length;i++){\n            if(id == Patient_ids[i]){return 1;}\n        }\n        return 0;\n    }\n\n\n    function addPatient(address _newpatient) external onlyAdmin() {\n        add(patient,_newpatient);\n    }\n\n    function addRec(address _patid) external onlyDoctor() {\n        require(has(patient,_patid) == true, \"is not a Patient\");\n        get_patient_id = _patid;\n    }\n    function viewPatRec(address _patid) public{\n        get_patient_id = _patid;\n    }\n\n    function delPat(address _accid) external onlyAdmin(){\n        remove(patient,_accid);\n    }\n    function get() public view  returns(address){\n        return msg.sender;\n    }\n    function get_patid() public view returns(address){\n        return get_patient_id;\n    }\n    function getPatInfo(address iD)public view returns(Patient memory){\n        return (Patients[iD]);\n    }\n    function addPatInfo(address pat_id, string memory firstName, string memory lastName) public {\n        require(has(admin,msg.sender) == true, 'Only you Can Add your info ');\n        Patient storage patInfo = Patients[pat_id];\n        patInfo.firstName = firstName;\n        patInfo.lastName = lastName;\n        Patient_ids.push(msg.sender);\n\n        add(patient,pat_id);\n    }\n\n    /*\n\n        Medical Records\n\n\n    */\n\n    function addMedRecord(string memory _recHash, address _pat_id) public{\n        require(has(doctor,msg.sender) == true, 'Only Doctor Can Do That');\n\n        MedRec storage record = Records[_pat_id];\n        record.RecordHash = _recHash;\n        RecordHashes.push(_recHash);\n    }\n\n    function viewMedRec(address id)public view returns(string memory){\n        // if(RecordHashes.has(Records[]) != )\n        return (Records[id].RecordHash);\n    }\n\n    /*\n        Modifiers\n    */\n\n\n    modifier onlyAdmin(){\n        require(has(admin,msg.sender) == true, 'Only Admin Can Do That');\n        _;\n    }\n    modifier onlyDoctor(){\n        require(has(doctor,msg.sender) == true, 'Only Doctor Can Do That');\n        _;\n    }\n    modifier onlyPatient(){\n        require(has(patient,msg.sender) == true, 'Only Admin Can Do That');\n        _;\n    }\n\n}\n\n",
  "sourcePath": "/Users/amrhoballah/Documents/GitHub/ehr-blockchain/contracts/Contract.sol",
  "compiler": {
    "name": "solc",
    "version": "0.8.11+commit.d7f03943.Emscripten.clang"
  },
  "schemaVersion": "3.4.6",
  "updatedAt": "2022-03-24T18:20:56.595Z",
  "networkType": "ethereum",
  "devdoc": {
    "kind": "dev",
    "methods": {},
    "version": 1
  },
  "userdoc": {
    "kind": "user",
    "methods": {},
    "version": 1
  }
}