{
  "contractName": "Contract",
  "abi": [
    {
      "inputs": [],
      "stateMutability": "nonpayable",
      "type": "constructor"
    },
    {
      "inputs": [
        {
          "internalType": "uint256",
          "name": "",
          "type": "uint256"
        }
      ],
      "name": "OrganisationList",
      "outputs": [
        {
          "internalType": "address",
          "name": "",
          "type": "address"
        }
      ],
      "stateMutability": "view",
      "type": "function"
    },
    {
      "inputs": [
        {
          "internalType": "uint256",
          "name": "",
          "type": "uint256"
        }
      ],
      "name": "PatientList",
      "outputs": [
        {
          "internalType": "address",
          "name": "",
          "type": "address"
        }
      ],
      "stateMutability": "view",
      "type": "function"
    },
    {
      "inputs": [
        {
          "internalType": "uint256",
          "name": "",
          "type": "uint256"
        }
      ],
      "name": "PractitionerList",
      "outputs": [
        {
          "internalType": "address",
          "name": "",
          "type": "address"
        }
      ],
      "stateMutability": "view",
      "type": "function"
    },
    {
      "inputs": [],
      "name": "getCentralAuthority",
      "outputs": [
        {
          "internalType": "address",
          "name": "",
          "type": "address"
        }
      ],
      "stateMutability": "view",
      "type": "function"
    },
    {
      "inputs": [],
      "name": "isCentralAuthority",
      "outputs": [
        {
          "internalType": "bool",
          "name": "",
          "type": "bool"
        }
      ],
      "stateMutability": "view",
      "type": "function"
    },
    {
      "inputs": [
        {
          "components": [
            {
              "internalType": "address",
              "name": "id",
              "type": "address"
            },
            {
              "internalType": "string",
              "name": "name",
              "type": "string"
            },
            {
              "internalType": "uint256",
              "name": "dateJoined",
              "type": "uint256"
            },
            {
              "components": [
                {
                  "internalType": "string",
                  "name": "use",
                  "type": "string"
                },
                {
                  "internalType": "string",
                  "name": "street",
                  "type": "string"
                },
                {
                  "internalType": "string",
                  "name": "city",
                  "type": "string"
                },
                {
                  "internalType": "string",
                  "name": "state",
                  "type": "string"
                },
                {
                  "internalType": "string",
                  "name": "postalCode",
                  "type": "string"
                },
                {
                  "internalType": "string",
                  "name": "country",
                  "type": "string"
                }
              ],
              "internalType": "struct Contract.PhysicalAddress",
              "name": "organisationAddress",
              "type": "tuple"
            }
          ],
          "internalType": "struct Contract.Organisation",
          "name": "data",
          "type": "tuple"
        }
      ],
      "name": "addOrganisation",
      "outputs": [],
      "stateMutability": "nonpayable",
      "type": "function"
    },
    {
      "inputs": [
        {
          "internalType": "address",
          "name": "id",
          "type": "address"
        }
      ],
      "name": "getOrganisation",
      "outputs": [
        {
          "components": [
            {
              "internalType": "address",
              "name": "id",
              "type": "address"
            },
            {
              "internalType": "string",
              "name": "name",
              "type": "string"
            },
            {
              "internalType": "uint256",
              "name": "dateJoined",
              "type": "uint256"
            },
            {
              "components": [
                {
                  "internalType": "string",
                  "name": "use",
                  "type": "string"
                },
                {
                  "internalType": "string",
                  "name": "street",
                  "type": "string"
                },
                {
                  "internalType": "string",
                  "name": "city",
                  "type": "string"
                },
                {
                  "internalType": "string",
                  "name": "state",
                  "type": "string"
                },
                {
                  "internalType": "string",
                  "name": "postalCode",
                  "type": "string"
                },
                {
                  "internalType": "string",
                  "name": "country",
                  "type": "string"
                }
              ],
              "internalType": "struct Contract.PhysicalAddress",
              "name": "organisationAddress",
              "type": "tuple"
            }
          ],
          "internalType": "struct Contract.Organisation",
          "name": "",
          "type": "tuple"
        }
      ],
      "stateMutability": "view",
      "type": "function"
    },
    {
      "inputs": [],
      "name": "getAllOrganisation",
      "outputs": [
        {
          "internalType": "address[]",
          "name": "",
          "type": "address[]"
        }
      ],
      "stateMutability": "view",
      "type": "function"
    },
    {
      "inputs": [],
      "name": "isOrganisation",
      "outputs": [
        {
          "internalType": "bool",
          "name": "",
          "type": "bool"
        }
      ],
      "stateMutability": "view",
      "type": "function"
    },
    {
      "inputs": [
        {
          "components": [
            {
              "internalType": "address",
              "name": "id",
              "type": "address"
            },
            {
              "components": [
                {
                  "internalType": "string",
                  "name": "givenNames",
                  "type": "string"
                },
                {
                  "internalType": "string",
                  "name": "surname",
                  "type": "string"
                }
              ],
              "internalType": "struct Contract.HumanName",
              "name": "name",
              "type": "tuple"
            },
            {
              "components": [
                {
                  "internalType": "string",
                  "name": "phoneNumber",
                  "type": "string"
                },
                {
                  "internalType": "string",
                  "name": "email",
                  "type": "string"
                }
              ],
              "internalType": "struct Contract.ContactPoint",
              "name": "telecom",
              "type": "tuple"
            },
            {
              "components": [
                {
                  "internalType": "string",
                  "name": "use",
                  "type": "string"
                },
                {
                  "internalType": "string",
                  "name": "street",
                  "type": "string"
                },
                {
                  "internalType": "string",
                  "name": "city",
                  "type": "string"
                },
                {
                  "internalType": "string",
                  "name": "state",
                  "type": "string"
                },
                {
                  "internalType": "string",
                  "name": "postalCode",
                  "type": "string"
                },
                {
                  "internalType": "string",
                  "name": "country",
                  "type": "string"
                }
              ],
              "internalType": "struct Contract.PhysicalAddress",
              "name": "homeAddress",
              "type": "tuple"
            },
            {
              "internalType": "enum Contract.Gender",
              "name": "gender",
              "type": "uint8"
            },
            {
              "internalType": "uint256",
              "name": "birthDate",
              "type": "uint256"
            },
            {
              "components": [
                {
                  "internalType": "string[]",
                  "name": "languages",
                  "type": "string[]"
                },
                {
                  "internalType": "string",
                  "name": "preferred",
                  "type": "string"
                }
              ],
              "internalType": "struct Contract.Communication",
              "name": "communication",
              "type": "tuple"
            },
            {
              "internalType": "address",
              "name": "memberOrgaisation",
              "type": "address"
            }
          ],
          "internalType": "struct Contract.Practitioner",
          "name": "data",
          "type": "tuple"
        }
      ],
      "name": "addPractitioner",
      "outputs": [],
      "stateMutability": "nonpayable",
      "type": "function"
    },
    {
      "inputs": [
        {
          "internalType": "address",
          "name": "_id",
          "type": "address"
        }
      ],
      "name": "getDr",
      "outputs": [
        {
          "components": [
            {
              "internalType": "address",
              "name": "id",
              "type": "address"
            },
            {
              "components": [
                {
                  "internalType": "string",
                  "name": "givenNames",
                  "type": "string"
                },
                {
                  "internalType": "string",
                  "name": "surname",
                  "type": "string"
                }
              ],
              "internalType": "struct Contract.HumanName",
              "name": "name",
              "type": "tuple"
            },
            {
              "components": [
                {
                  "internalType": "string",
                  "name": "phoneNumber",
                  "type": "string"
                },
                {
                  "internalType": "string",
                  "name": "email",
                  "type": "string"
                }
              ],
              "internalType": "struct Contract.ContactPoint",
              "name": "telecom",
              "type": "tuple"
            },
            {
              "components": [
                {
                  "internalType": "string",
                  "name": "use",
                  "type": "string"
                },
                {
                  "internalType": "string",
                  "name": "street",
                  "type": "string"
                },
                {
                  "internalType": "string",
                  "name": "city",
                  "type": "string"
                },
                {
                  "internalType": "string",
                  "name": "state",
                  "type": "string"
                },
                {
                  "internalType": "string",
                  "name": "postalCode",
                  "type": "string"
                },
                {
                  "internalType": "string",
                  "name": "country",
                  "type": "string"
                }
              ],
              "internalType": "struct Contract.PhysicalAddress",
              "name": "homeAddress",
              "type": "tuple"
            },
            {
              "internalType": "enum Contract.Gender",
              "name": "gender",
              "type": "uint8"
            },
            {
              "internalType": "uint256",
              "name": "birthDate",
              "type": "uint256"
            },
            {
              "components": [
                {
                  "internalType": "string[]",
                  "name": "languages",
                  "type": "string[]"
                },
                {
                  "internalType": "string",
                  "name": "preferred",
                  "type": "string"
                }
              ],
              "internalType": "struct Contract.Communication",
              "name": "communication",
              "type": "tuple"
            },
            {
              "internalType": "address",
              "name": "memberOrgaisation",
              "type": "address"
            }
          ],
          "internalType": "struct Contract.Practitioner",
          "name": "",
          "type": "tuple"
        }
      ],
      "stateMutability": "view",
      "type": "function"
    },
    {
      "inputs": [
        {
          "internalType": "address",
          "name": "id",
          "type": "address"
        }
      ],
      "name": "isPractitioner",
      "outputs": [
        {
          "internalType": "int256",
          "name": "",
          "type": "int256"
        }
      ],
      "stateMutability": "view",
      "type": "function"
    },
    {
      "inputs": [],
      "name": "getPractitionerCount",
      "outputs": [
        {
          "internalType": "uint256",
          "name": "",
          "type": "uint256"
        }
      ],
      "stateMutability": "view",
      "type": "function"
    },
    {
      "inputs": [],
      "name": "getPatientCount",
      "outputs": [
        {
          "internalType": "uint256",
          "name": "",
          "type": "uint256"
        }
      ],
      "stateMutability": "view",
      "type": "function"
    },
    {
      "inputs": [],
      "name": "getPractitionersPerOrg",
      "outputs": [
        {
          "components": [
            {
              "internalType": "address",
              "name": "id",
              "type": "address"
            },
            {
              "components": [
                {
                  "internalType": "string",
                  "name": "givenNames",
                  "type": "string"
                },
                {
                  "internalType": "string",
                  "name": "surname",
                  "type": "string"
                }
              ],
              "internalType": "struct Contract.HumanName",
              "name": "name",
              "type": "tuple"
            },
            {
              "components": [
                {
                  "internalType": "string",
                  "name": "phoneNumber",
                  "type": "string"
                },
                {
                  "internalType": "string",
                  "name": "email",
                  "type": "string"
                }
              ],
              "internalType": "struct Contract.ContactPoint",
              "name": "telecom",
              "type": "tuple"
            },
            {
              "components": [
                {
                  "internalType": "string",
                  "name": "use",
                  "type": "string"
                },
                {
                  "internalType": "string",
                  "name": "street",
                  "type": "string"
                },
                {
                  "internalType": "string",
                  "name": "city",
                  "type": "string"
                },
                {
                  "internalType": "string",
                  "name": "state",
                  "type": "string"
                },
                {
                  "internalType": "string",
                  "name": "postalCode",
                  "type": "string"
                },
                {
                  "internalType": "string",
                  "name": "country",
                  "type": "string"
                }
              ],
              "internalType": "struct Contract.PhysicalAddress",
              "name": "homeAddress",
              "type": "tuple"
            },
            {
              "internalType": "enum Contract.Gender",
              "name": "gender",
              "type": "uint8"
            },
            {
              "internalType": "uint256",
              "name": "birthDate",
              "type": "uint256"
            },
            {
              "components": [
                {
                  "internalType": "string[]",
                  "name": "languages",
                  "type": "string[]"
                },
                {
                  "internalType": "string",
                  "name": "preferred",
                  "type": "string"
                }
              ],
              "internalType": "struct Contract.Communication",
              "name": "communication",
              "type": "tuple"
            },
            {
              "internalType": "address",
              "name": "memberOrgaisation",
              "type": "address"
            }
          ],
          "internalType": "struct Contract.Practitioner[]",
          "name": "",
          "type": "tuple[]"
        }
      ],
      "stateMutability": "view",
      "type": "function"
    },
    {
      "inputs": [],
      "name": "getPatientsPerDoc",
      "outputs": [
        {
          "components": [
            {
              "internalType": "address",
              "name": "id",
              "type": "address"
            },
            {
              "components": [
                {
                  "internalType": "string",
                  "name": "givenNames",
                  "type": "string"
                },
                {
                  "internalType": "string",
                  "name": "surname",
                  "type": "string"
                }
              ],
              "internalType": "struct Contract.HumanName",
              "name": "name",
              "type": "tuple"
            },
            {
              "components": [
                {
                  "internalType": "string",
                  "name": "phoneNumber",
                  "type": "string"
                },
                {
                  "internalType": "string",
                  "name": "email",
                  "type": "string"
                }
              ],
              "internalType": "struct Contract.ContactPoint",
              "name": "telecom",
              "type": "tuple"
            },
            {
              "internalType": "enum Contract.Gender",
              "name": "gender",
              "type": "uint8"
            },
            {
              "internalType": "uint256",
              "name": "birthDate",
              "type": "uint256"
            },
            {
              "components": [
                {
                  "internalType": "string",
                  "name": "use",
                  "type": "string"
                },
                {
                  "internalType": "string",
                  "name": "street",
                  "type": "string"
                },
                {
                  "internalType": "string",
                  "name": "city",
                  "type": "string"
                },
                {
                  "internalType": "string",
                  "name": "state",
                  "type": "string"
                },
                {
                  "internalType": "string",
                  "name": "postalCode",
                  "type": "string"
                },
                {
                  "internalType": "string",
                  "name": "country",
                  "type": "string"
                }
              ],
              "internalType": "struct Contract.PhysicalAddress",
              "name": "homeAddress",
              "type": "tuple"
            },
            {
              "internalType": "bool",
              "name": "deceasedBoolean",
              "type": "bool"
            },
            {
              "internalType": "uint256",
              "name": "deceasedDateTime",
              "type": "uint256"
            },
            {
              "internalType": "bool",
              "name": "multipleBirthBoolean",
              "type": "bool"
            },
            {
              "internalType": "uint256",
              "name": "multipleBirthInteger",
              "type": "uint256"
            },
            {
              "components": [
                {
                  "internalType": "string[]",
                  "name": "languages",
                  "type": "string[]"
                },
                {
                  "internalType": "string",
                  "name": "preferred",
                  "type": "string"
                }
              ],
              "internalType": "struct Contract.Communication",
              "name": "communication",
              "type": "tuple"
            },
            {
              "internalType": "address",
              "name": "generalPractitioner",
              "type": "address"
            },
            {
              "internalType": "address",
              "name": "managingOrganisation",
              "type": "address"
            }
          ],
          "internalType": "struct Contract.Patient[]",
          "name": "",
          "type": "tuple[]"
        }
      ],
      "stateMutability": "view",
      "type": "function"
    },
    {
      "inputs": [],
      "name": "getPatientsPerOrg",
      "outputs": [
        {
          "components": [
            {
              "internalType": "address",
              "name": "id",
              "type": "address"
            },
            {
              "components": [
                {
                  "internalType": "string",
                  "name": "givenNames",
                  "type": "string"
                },
                {
                  "internalType": "string",
                  "name": "surname",
                  "type": "string"
                }
              ],
              "internalType": "struct Contract.HumanName",
              "name": "name",
              "type": "tuple"
            },
            {
              "components": [
                {
                  "internalType": "string",
                  "name": "phoneNumber",
                  "type": "string"
                },
                {
                  "internalType": "string",
                  "name": "email",
                  "type": "string"
                }
              ],
              "internalType": "struct Contract.ContactPoint",
              "name": "telecom",
              "type": "tuple"
            },
            {
              "internalType": "enum Contract.Gender",
              "name": "gender",
              "type": "uint8"
            },
            {
              "internalType": "uint256",
              "name": "birthDate",
              "type": "uint256"
            },
            {
              "components": [
                {
                  "internalType": "string",
                  "name": "use",
                  "type": "string"
                },
                {
                  "internalType": "string",
                  "name": "street",
                  "type": "string"
                },
                {
                  "internalType": "string",
                  "name": "city",
                  "type": "string"
                },
                {
                  "internalType": "string",
                  "name": "state",
                  "type": "string"
                },
                {
                  "internalType": "string",
                  "name": "postalCode",
                  "type": "string"
                },
                {
                  "internalType": "string",
                  "name": "country",
                  "type": "string"
                }
              ],
              "internalType": "struct Contract.PhysicalAddress",
              "name": "homeAddress",
              "type": "tuple"
            },
            {
              "internalType": "bool",
              "name": "deceasedBoolean",
              "type": "bool"
            },
            {
              "internalType": "uint256",
              "name": "deceasedDateTime",
              "type": "uint256"
            },
            {
              "internalType": "bool",
              "name": "multipleBirthBoolean",
              "type": "bool"
            },
            {
              "internalType": "uint256",
              "name": "multipleBirthInteger",
              "type": "uint256"
            },
            {
              "components": [
                {
                  "internalType": "string[]",
                  "name": "languages",
                  "type": "string[]"
                },
                {
                  "internalType": "string",
                  "name": "preferred",
                  "type": "string"
                }
              ],
              "internalType": "struct Contract.Communication",
              "name": "communication",
              "type": "tuple"
            },
            {
              "internalType": "address",
              "name": "generalPractitioner",
              "type": "address"
            },
            {
              "internalType": "address",
              "name": "managingOrganisation",
              "type": "address"
            }
          ],
          "internalType": "struct Contract.Patient[]",
          "name": "",
          "type": "tuple[]"
        }
      ],
      "stateMutability": "view",
      "type": "function"
    },
    {
      "inputs": [
        {
          "internalType": "address",
          "name": "id",
          "type": "address"
        }
      ],
      "name": "isPatient",
      "outputs": [
        {
          "internalType": "int256",
          "name": "",
          "type": "int256"
        }
      ],
      "stateMutability": "view",
      "type": "function"
    },
    {
      "inputs": [
        {
          "internalType": "address",
          "name": "iD",
          "type": "address"
        }
      ],
      "name": "getPatInfo",
      "outputs": [
        {
          "components": [
            {
              "internalType": "address",
              "name": "id",
              "type": "address"
            },
            {
              "components": [
                {
                  "internalType": "string",
                  "name": "givenNames",
                  "type": "string"
                },
                {
                  "internalType": "string",
                  "name": "surname",
                  "type": "string"
                }
              ],
              "internalType": "struct Contract.HumanName",
              "name": "name",
              "type": "tuple"
            },
            {
              "components": [
                {
                  "internalType": "string",
                  "name": "phoneNumber",
                  "type": "string"
                },
                {
                  "internalType": "string",
                  "name": "email",
                  "type": "string"
                }
              ],
              "internalType": "struct Contract.ContactPoint",
              "name": "telecom",
              "type": "tuple"
            },
            {
              "internalType": "enum Contract.Gender",
              "name": "gender",
              "type": "uint8"
            },
            {
              "internalType": "uint256",
              "name": "birthDate",
              "type": "uint256"
            },
            {
              "components": [
                {
                  "internalType": "string",
                  "name": "use",
                  "type": "string"
                },
                {
                  "internalType": "string",
                  "name": "street",
                  "type": "string"
                },
                {
                  "internalType": "string",
                  "name": "city",
                  "type": "string"
                },
                {
                  "internalType": "string",
                  "name": "state",
                  "type": "string"
                },
                {
                  "internalType": "string",
                  "name": "postalCode",
                  "type": "string"
                },
                {
                  "internalType": "string",
                  "name": "country",
                  "type": "string"
                }
              ],
              "internalType": "struct Contract.PhysicalAddress",
              "name": "homeAddress",
              "type": "tuple"
            },
            {
              "internalType": "bool",
              "name": "deceasedBoolean",
              "type": "bool"
            },
            {
              "internalType": "uint256",
              "name": "deceasedDateTime",
              "type": "uint256"
            },
            {
              "internalType": "bool",
              "name": "multipleBirthBoolean",
              "type": "bool"
            },
            {
              "internalType": "uint256",
              "name": "multipleBirthInteger",
              "type": "uint256"
            },
            {
              "components": [
                {
                  "internalType": "string[]",
                  "name": "languages",
                  "type": "string[]"
                },
                {
                  "internalType": "string",
                  "name": "preferred",
                  "type": "string"
                }
              ],
              "internalType": "struct Contract.Communication",
              "name": "communication",
              "type": "tuple"
            },
            {
              "internalType": "address",
              "name": "generalPractitioner",
              "type": "address"
            },
            {
              "internalType": "address",
              "name": "managingOrganisation",
              "type": "address"
            }
          ],
          "internalType": "struct Contract.Patient",
          "name": "",
          "type": "tuple"
        }
      ],
      "stateMutability": "view",
      "type": "function"
    },
    {
      "inputs": [
        {
          "components": [
            {
              "internalType": "address",
              "name": "id",
              "type": "address"
            },
            {
              "components": [
                {
                  "internalType": "string",
                  "name": "givenNames",
                  "type": "string"
                },
                {
                  "internalType": "string",
                  "name": "surname",
                  "type": "string"
                }
              ],
              "internalType": "struct Contract.HumanName",
              "name": "name",
              "type": "tuple"
            },
            {
              "components": [
                {
                  "internalType": "string",
                  "name": "phoneNumber",
                  "type": "string"
                },
                {
                  "internalType": "string",
                  "name": "email",
                  "type": "string"
                }
              ],
              "internalType": "struct Contract.ContactPoint",
              "name": "telecom",
              "type": "tuple"
            },
            {
              "internalType": "enum Contract.Gender",
              "name": "gender",
              "type": "uint8"
            },
            {
              "internalType": "uint256",
              "name": "birthDate",
              "type": "uint256"
            },
            {
              "components": [
                {
                  "internalType": "string",
                  "name": "use",
                  "type": "string"
                },
                {
                  "internalType": "string",
                  "name": "street",
                  "type": "string"
                },
                {
                  "internalType": "string",
                  "name": "city",
                  "type": "string"
                },
                {
                  "internalType": "string",
                  "name": "state",
                  "type": "string"
                },
                {
                  "internalType": "string",
                  "name": "postalCode",
                  "type": "string"
                },
                {
                  "internalType": "string",
                  "name": "country",
                  "type": "string"
                }
              ],
              "internalType": "struct Contract.PhysicalAddress",
              "name": "homeAddress",
              "type": "tuple"
            },
            {
              "internalType": "bool",
              "name": "deceasedBoolean",
              "type": "bool"
            },
            {
              "internalType": "uint256",
              "name": "deceasedDateTime",
              "type": "uint256"
            },
            {
              "internalType": "bool",
              "name": "multipleBirthBoolean",
              "type": "bool"
            },
            {
              "internalType": "uint256",
              "name": "multipleBirthInteger",
              "type": "uint256"
            },
            {
              "components": [
                {
                  "internalType": "string[]",
                  "name": "languages",
                  "type": "string[]"
                },
                {
                  "internalType": "string",
                  "name": "preferred",
                  "type": "string"
                }
              ],
              "internalType": "struct Contract.Communication",
              "name": "communication",
              "type": "tuple"
            },
            {
              "internalType": "address",
              "name": "generalPractitioner",
              "type": "address"
            },
            {
              "internalType": "address",
              "name": "managingOrganisation",
              "type": "address"
            }
          ],
          "internalType": "struct Contract.Patient",
          "name": "data",
          "type": "tuple"
        }
      ],
      "name": "addPatient",
      "outputs": [],
      "stateMutability": "nonpayable",
      "type": "function"
    },
    {
      "inputs": [
        {
          "components": [
            {
              "internalType": "address",
              "name": "patientId",
              "type": "address"
            },
            {
              "internalType": "address",
              "name": "practitionerId",
              "type": "address"
            },
            {
              "internalType": "address",
              "name": "organisationId",
              "type": "address"
            },
            {
              "internalType": "uint256",
              "name": "timestamp",
              "type": "uint256"
            },
            {
              "internalType": "string",
              "name": "diagnosis",
              "type": "string"
            },
            {
              "internalType": "string[]",
              "name": "medicationName",
              "type": "string[]"
            },
            {
              "internalType": "uint256[]",
              "name": "dosage",
              "type": "uint256[]"
            },
            {
              "internalType": "string[]",
              "name": "unit",
              "type": "string[]"
            },
            {
              "internalType": "uint256[]",
              "name": "noOfDays",
              "type": "uint256[]"
            },
            {
              "internalType": "string[]",
              "name": "remarks",
              "type": "string[]"
            },
            {
              "internalType": "string[]",
              "name": "clinicalTests",
              "type": "string[]"
            }
          ],
          "internalType": "struct Contract.MedicalRecord",
          "name": "data",
          "type": "tuple"
        }
      ],
      "name": "addMedicalRecord",
      "outputs": [],
      "stateMutability": "nonpayable",
      "type": "function"
    },
    {
      "inputs": [
        {
          "internalType": "address",
          "name": "id",
          "type": "address"
        }
      ],
      "name": "viewMedicalRecord",
      "outputs": [
        {
          "components": [
            {
              "internalType": "address",
              "name": "patientId",
              "type": "address"
            },
            {
              "internalType": "address",
              "name": "practitionerId",
              "type": "address"
            },
            {
              "internalType": "address",
              "name": "organisationId",
              "type": "address"
            },
            {
              "internalType": "uint256",
              "name": "timestamp",
              "type": "uint256"
            },
            {
              "internalType": "string",
              "name": "diagnosis",
              "type": "string"
            },
            {
              "internalType": "string[]",
              "name": "medicationName",
              "type": "string[]"
            },
            {
              "internalType": "uint256[]",
              "name": "dosage",
              "type": "uint256[]"
            },
            {
              "internalType": "string[]",
              "name": "unit",
              "type": "string[]"
            },
            {
              "internalType": "uint256[]",
              "name": "noOfDays",
              "type": "uint256[]"
            },
            {
              "internalType": "string[]",
              "name": "remarks",
              "type": "string[]"
            },
            {
              "internalType": "string[]",
              "name": "clinicalTests",
              "type": "string[]"
            }
          ],
          "internalType": "struct Contract.MedicalRecord[]",
          "name": "",
          "type": "tuple[]"
        }
      ],
      "stateMutability": "view",
      "type": "function"
    },
    {
      "inputs": [],
      "name": "viewMedicalRecord",
      "outputs": [
        {
          "components": [
            {
              "internalType": "address",
              "name": "patientId",
              "type": "address"
            },
            {
              "internalType": "address",
              "name": "practitionerId",
              "type": "address"
            },
            {
              "internalType": "address",
              "name": "organisationId",
              "type": "address"
            },
            {
              "internalType": "uint256",
              "name": "timestamp",
              "type": "uint256"
            },
            {
              "internalType": "string",
              "name": "diagnosis",
              "type": "string"
            },
            {
              "internalType": "string[]",
              "name": "medicationName",
              "type": "string[]"
            },
            {
              "internalType": "uint256[]",
              "name": "dosage",
              "type": "uint256[]"
            },
            {
              "internalType": "string[]",
              "name": "unit",
              "type": "string[]"
            },
            {
              "internalType": "uint256[]",
              "name": "noOfDays",
              "type": "uint256[]"
            },
            {
              "internalType": "string[]",
              "name": "remarks",
              "type": "string[]"
            },
            {
              "internalType": "string[]",
              "name": "clinicalTests",
              "type": "string[]"
            }
          ],
          "internalType": "struct Contract.MedicalRecord[]",
          "name": "",
          "type": "tuple[]"
        }
      ],
      "stateMutability": "view",
      "type": "function"
    }
  ],
  "bytecode": "0x60806040523480156200001157600080fd5b50600b80546001600160a01b0319163390811790915562000035906000906200003b565b6200012c565b620000478282620000b2565b156200008d5760405162461bcd60e51b815260206004820152601060248201526f4163636f756e742068617320726f6c6560801b60448201526064015b60405180910390fd5b6001600160a01b0316600090815260209190915260409020805460ff19166001179055565b60006001600160a01b0382166200010c5760405162461bcd60e51b815260206004820152601b60248201527f4163636f756e7420697320746865207a65726f20616464726573730000000000604482015260640162000084565b506001600160a01b03166000908152602091909152604090205460ff1690565b615faa806200013c6000396000f3fe608060405234801561001057600080fd5b506004361061014d5760003560e01c8063b48f3cab116100c3578063d4fd45c41161007c578063d4fd45c4146102cf578063da662334146102ef578063dc5244f314610302578063dce1278a1461030a578063ed39472b14610312578063f66be1091461032757600080fd5b8063b48f3cab14610264578063b771e51e14610279578063c09368321461028c578063c190665b14610294578063c875802b1461029c578063cc572914146102af57600080fd5b80635ca60edb116101155780635ca60edb146101d05780636052f825146101e857806372a094591461020857806389f5ffc71461021e5780638f9c79ed1461023157806397a08aca1461024457600080fd5b80631ce8e455146101525780632040e86f1461018257806324e9480e146101975780632f862d6a146101a85780634914cf09146101bd575b600080fd5b610165610160366004614e78565b61033a565b6040516001600160a01b0390911681526020015b60405180910390f35b610195610190366004615134565b610364565b005b600b546001600160a01b0316610165565b6101b0610542565b60405161017991906154ad565b6101656101cb366004614e78565b610e89565b6101d8610e99565b6040519015158152602001610179565b6101fb6101f636600461550f565b610eab565b604051610179919061556c565b610210611428565b604051908152602001610179565b61021061022c36600461550f565b611458565b61021061023f36600461550f565b61147a565b61025761025236600461550f565b611487565b60405161017991906156b9565b61026c6118e4565b604051610179919061570e565b6101956102873660046158c9565b61196d565b6101d8611bc0565b610210611bcd565b6101956102aa3660046159ef565b611bfd565b6102c26102bd36600461550f565b611efd565b6040516101799190615b58565b6102e26102dd36600461550f565b612794565b6040516101799190615c24565b6101656102fd366004614e78565b612ff9565b6101fb613009565b6101b0613598565b61031a613ed8565b6040516101799190615c37565b610195610335366004615ce7565b6147d5565b600a818154811061034a57600080fd5b6000918252602090912001546001600160a01b0316905081565b61036f600033614a2e565b6103945760405162461bcd60e51b815260040161038b90615e71565b60405180910390fd5b61039f600033614a2e565b15156001146103e25760405162461bcd60e51b815260206004820152600f60248201526e4f6e6c7920666f722041646d696e7360881b604482015260640161038b565b80516001600160a01b039081166000908152600460209081526040909120835181546001600160a01b031916931692909217825580830151805161042c9260018501920190614b15565b5060408201516002820155606082015180518051600384019161045491839160200190614b15565b50602082810151805161046d9260018501920190614b15565b5060408201518051610489916002840191602090910190614b15565b50606082015180516104a5916003840191602090910190614b15565b50608082015180516104c1916004840191602090910190614b15565b5060a082015180516104dd916005840191602090910190614b15565b5050825160088054600180820183556000929092527ff3f7a9fe364faab93b216da50a3214154f22a0a2b415b23a84c8169e8b636ee30180546001600160a01b0319166001600160a01b0390931692909217909155835161053e9250614aa6565b5050565b606061054f600233614a2e565b61056b5760405162461bcd60e51b815260040161038b90615ea0565b600a5460009081906001600160401b0381111561058a5761058a614e91565b6040519080825280602002602001820160405280156105c357816020015b6105b0614b99565b8152602001906001900390816105a85790505b50905060005b600a54811015610e8257600060066000600a84815481106105ec576105ec615eca565b60009182526020808320909101546001600160a01b0390811684529083019390935260409091019020601381015490925016331415610e6f57604080516101a08101825282546001600160a01b031681528151808301909252600183018054919284926020850192908290829061066290615ee0565b80601f016020809104026020016040519081016040528092919081815260200182805461068e90615ee0565b80156106db5780601f106106b0576101008083540402835291602001916106db565b820191906000526020600020905b8154815290600101906020018083116106be57829003601f168201915b505050505081526020016001820180546106f490615ee0565b80601f016020809104026020016040519081016040528092919081815260200182805461072090615ee0565b801561076d5780601f106107425761010080835404028352916020019161076d565b820191906000526020600020905b81548152906001019060200180831161075057829003601f168201915b50505050508152505081526020016003820160405180604001604052908160008201805461079a90615ee0565b80601f01602080910402602001604051908101604052809291908181526020018280546107c690615ee0565b80156108135780601f106107e857610100808354040283529160200191610813565b820191906000526020600020905b8154815290600101906020018083116107f657829003601f168201915b5050505050815260200160018201805461082c90615ee0565b80601f016020809104026020016040519081016040528092919081815260200182805461085890615ee0565b80156108a55780601f1061087a576101008083540402835291602001916108a5565b820191906000526020600020905b81548152906001019060200180831161088857829003601f168201915b505050919092525050508152600582015460209091019060ff1660038111156108d0576108d0615263565b60038111156108e1576108e1615263565b815260200160068201548152602001600782016040518060c001604052908160008201805461090f90615ee0565b80601f016020809104026020016040519081016040528092919081815260200182805461093b90615ee0565b80156109885780601f1061095d57610100808354040283529160200191610988565b820191906000526020600020905b81548152906001019060200180831161096b57829003601f168201915b505050505081526020016001820180546109a190615ee0565b80601f01602080910402602001604051908101604052809291908181526020018280546109cd90615ee0565b8015610a1a5780601f106109ef57610100808354040283529160200191610a1a565b820191906000526020600020905b8154815290600101906020018083116109fd57829003601f168201915b50505050508152602001600282018054610a3390615ee0565b80601f0160208091040260200160405190810160405280929190818152602001828054610a5f90615ee0565b8015610aac5780601f10610a8157610100808354040283529160200191610aac565b820191906000526020600020905b815481529060010190602001808311610a8f57829003601f168201915b50505050508152602001600382018054610ac590615ee0565b80601f0160208091040260200160405190810160405280929190818152602001828054610af190615ee0565b8015610b3e5780601f10610b1357610100808354040283529160200191610b3e565b820191906000526020600020905b815481529060010190602001808311610b2157829003601f168201915b50505050508152602001600482018054610b5790615ee0565b80601f0160208091040260200160405190810160405280929190818152602001828054610b8390615ee0565b8015610bd05780601f10610ba557610100808354040283529160200191610bd0565b820191906000526020600020905b815481529060010190602001808311610bb357829003601f168201915b50505050508152602001600582018054610be990615ee0565b80601f0160208091040260200160405190810160405280929190818152602001828054610c1590615ee0565b8015610c625780601f10610c3757610100808354040283529160200191610c62565b820191906000526020600020905b815481529060010190602001808311610c4557829003601f168201915b505050919092525050508152600d82015460ff9081161515602080840191909152600e840154604080850191909152600f850154909216151560608085019190915260108501546080850152825160118601805493840282018301855293810183815260a090950194909392849284919060009085015b82821015610d85578382906000526020600020018054610cf890615ee0565b80601f0160208091040260200160405190810160405280929190818152602001828054610d2490615ee0565b8015610d715780601f10610d4657610100808354040283529160200191610d71565b820191906000526020600020905b815481529060010190602001808311610d5457829003601f168201915b505050505081526020019060010190610cd9565b505050508152602001600182018054610d9d90615ee0565b80601f0160208091040260200160405190810160405280929190818152602001828054610dc990615ee0565b8015610e165780601f10610deb57610100808354040283529160200191610e16565b820191906000526020600020905b815481529060010190602001808311610df957829003601f168201915b50505091909252505050815260138201546001600160a01b0390811660208301526014909201549091166040909101528385610e5181615f1b565b965081518110610e6357610e63615eca565b60200260200101819052505b5080610e7a81615f1b565b9150506105c9565b5091505090565b6008818154811061034a57600080fd5b6000610ea6600133614a2e565b905090565b6060610eb8600233614a2e565b610ed45760405162461bcd60e51b815260040161038b90615ea0565b6001600160a01b038216600090815260076020908152604080832080548251818502810185019093528083529193909284015b8282101561141c5760008481526020908190206040805161016081018252600b860290920180546001600160a01b039081168452600182015481169484019490945260028101549093169082015260038201546060820152600482018054919291608084019190610f7790615ee0565b80601f0160208091040260200160405190810160405280929190818152602001828054610fa390615ee0565b8015610ff05780601f10610fc557610100808354040283529160200191610ff0565b820191906000526020600020905b815481529060010190602001808311610fd357829003601f168201915b5050505050815260200160058201805480602002602001604051908101604052809291908181526020016000905b828210156110ca57838290600052602060002001805461103d90615ee0565b80601f016020809104026020016040519081016040528092919081815260200182805461106990615ee0565b80156110b65780601f1061108b576101008083540402835291602001916110b6565b820191906000526020600020905b81548152906001019060200180831161109957829003601f168201915b50505050508152602001906001019061101e565b5050505081526020016006820180548060200260200160405190810160405280929190818152602001828054801561112157602002820191906000526020600020905b81548152602001906001019080831161110d575b5050505050815260200160078201805480602002602001604051908101604052809291908181526020016000905b828210156111fb57838290600052602060002001805461116e90615ee0565b80601f016020809104026020016040519081016040528092919081815260200182805461119a90615ee0565b80156111e75780601f106111bc576101008083540402835291602001916111e7565b820191906000526020600020905b8154815290600101906020018083116111ca57829003601f168201915b50505050508152602001906001019061114f565b5050505081526020016008820180548060200260200160405190810160405280929190818152602001828054801561125257602002820191906000526020600020905b81548152602001906001019080831161123e575b5050505050815260200160098201805480602002602001604051908101604052809291908181526020016000905b8282101561132c57838290600052602060002001805461129f90615ee0565b80601f01602080910402602001604051908101604052809291908181526020018280546112cb90615ee0565b80156113185780601f106112ed57610100808354040283529160200191611318565b820191906000526020600020905b8154815290600101906020018083116112fb57829003601f168201915b505050505081526020019060010190611280565b505050508152602001600a8201805480602002602001604051908101604052809291908181526020016000905b8282101561140557838290600052602060002001805461137890615ee0565b80601f01602080910402602001604051908101604052809291908181526020018280546113a490615ee0565b80156113f15780601f106113c6576101008083540402835291602001916113f1565b820191906000526020600020905b8154815290600101906020018083116113d457829003601f168201915b505050505081526020019060010190611359565b505050508152505081526020019060010190610f07565b5050505090505b919050565b6000611435600033614a2e565b6114515760405162461bcd60e51b815260040161038b90615e71565b5060095490565b6000611465600283614a2e565b1561147257506001919050565b506000919050565b6000611465600383614a2e565b61148f614c65565b6001600160a01b0380831660009081526004602090815260409182902082516080810190935280549093168252600183018054929392918401916114d290615ee0565b80601f01602080910402602001604051908101604052809291908181526020018280546114fe90615ee0565b801561154b5780601f106115205761010080835404028352916020019161154b565b820191906000526020600020905b81548152906001019060200180831161152e57829003601f168201915b5050505050815260200160028201548152602001600382016040518060c001604052908160008201805461157e90615ee0565b80601f01602080910402602001604051908101604052809291908181526020018280546115aa90615ee0565b80156115f75780601f106115cc576101008083540402835291602001916115f7565b820191906000526020600020905b8154815290600101906020018083116115da57829003601f168201915b5050505050815260200160018201805461161090615ee0565b80601f016020809104026020016040519081016040528092919081815260200182805461163c90615ee0565b80156116895780601f1061165e57610100808354040283529160200191611689565b820191906000526020600020905b81548152906001019060200180831161166c57829003601f168201915b505050505081526020016002820180546116a290615ee0565b80601f01602080910402602001604051908101604052809291908181526020018280546116ce90615ee0565b801561171b5780601f106116f05761010080835404028352916020019161171b565b820191906000526020600020905b8154815290600101906020018083116116fe57829003601f168201915b5050505050815260200160038201805461173490615ee0565b80601f016020809104026020016040519081016040528092919081815260200182805461176090615ee0565b80156117ad5780601f10611782576101008083540402835291602001916117ad565b820191906000526020600020905b81548152906001019060200180831161179057829003601f168201915b505050505081526020016004820180546117c690615ee0565b80601f01602080910402602001604051908101604052809291908181526020018280546117f290615ee0565b801561183f5780601f106118145761010080835404028352916020019161183f565b820191906000526020600020905b81548152906001019060200180831161182257829003601f168201915b5050505050815260200160058201805461185890615ee0565b80601f016020809104026020016040519081016040528092919081815260200182805461188490615ee0565b80156118d15780601f106118a6576101008083540402835291602001916118d1565b820191906000526020600020905b8154815290600101906020018083116118b457829003601f168201915b5050509190925250505090525092915050565b60606118f1600033614a2e565b61190d5760405162461bcd60e51b815260040161038b90615e71565b600880548060200260200160405190810160405280929190818152602001828054801561196357602002820191906000526020600020905b81546001600160a01b03168152600190910190602001808311611945575b5050505050905090565b611978600133614a2e565b6119945760405162461bcd60e51b815260040161038b90615f44565b80516001600160a01b039081166000908152600560209081526040909120835181546001600160a01b03191693169290921782558083015180518051919260018501926119e49284920190614b15565b5060208281015180516119fd9260018501920190614b15565b5050506040820151805180516003840191611a1d91839160200190614b15565b506020828101518051611a369260018501920190614b15565b50505060a0820151600c8201556080820151600b8201805460ff19166001836003811115611a6657611a66615263565b02179055506060820151805180516005840191611a8891839160200190614b15565b506020828101518051611aa19260018501920190614b15565b5060408201518051611abd916002840191602090910190614b15565b5060608201518051611ad9916003840191602090910190614b15565b5060808201518051611af5916004840191602090910190614b15565b5060a08201518051611b11916005840191602090910190614b15565b50505060c082015180518051600d840191611b3191839160200190614c9b565b506020828101518051611b4a9260018501920190614b15565b50505060e0820151600f820180546001600160a01b039283166001600160a01b0319918216179091558351600980546001810182556000919091527f6e1540171b6c0c960b71a7020d9f60077f6af931a8bbf590da0223dacf75c7af018054919093169116179055815161053e90600290614aa6565b6000610ea6600032614a2e565b6000611bda600033614a2e565b611bf65760405162461bcd60e51b815260040161038b90615e71565b50600a5490565b611c08600133614a2e565b611c245760405162461bcd60e51b815260040161038b90615f44565b611c2f600133614a2e565b8015611c465750611c466002826101600151614a2e565b611c815760405162461bcd60e51b815260206004820152600c60248201526b496e76616c6964204461746160a01b604482015260640161038b565b80516001600160a01b039081166000908152600660209081526040909120835181546001600160a01b0319169316929092178255808301518051805191926001850192611cd19284920190614b15565b506020828101518051611cea9260018501920190614b15565b5050506040820151805180516003840191611d0a91839160200190614b15565b506020828101518051611d239260018501920190614b15565b50505060808201516006820155610140820151805180516011840191611d4e91839160200190614c9b565b506020828101518051611d679260018501920190614b15565b505050606082015160058201805460ff19166001836003811115611d8d57611d8d615263565b021790555060a0820151805180516007840191611daf91839160200190614b15565b506020828101518051611dc89260018501920190614b15565b5060408201518051611de4916002840191602090910190614b15565b5060608201518051611e00916003840191602090910190614b15565b5060808201518051611e1c916004840191602090910190614b15565b5060a08201518051611e38916005840191602090910190614b15565b50505060c0820151600d8201805491151560ff1992831617905560e0830151600e830155610100830151600f830180549115159190921617905561012082015160108201556101608201516013820180546001600160a01b039283166001600160a01b0319918216179091556014830180548216331790558351600a80546001810182556000919091527fc65a7bb8d6351c1cf70c95a316cc6a92839c986682d98bc35f958f4883f9d2a8018054919093169116179055815161053e90600390614aa6565b611f05614b99565b611f10600333614a2e565b80611f215750611f21600233614a2e565b611f5b5760405162461bcd60e51b815260206004820152600b60248201526a139bdd08185b1b1bddd95960aa1b604482015260640161038b565b6001600160a01b0380831660009081526006602090815260409182902082516101a0810184528154909416845282518084019093526001810180549193928501929182908290611faa90615ee0565b80601f0160208091040260200160405190810160405280929190818152602001828054611fd690615ee0565b80156120235780601f10611ff857610100808354040283529160200191612023565b820191906000526020600020905b81548152906001019060200180831161200657829003601f168201915b5050505050815260200160018201805461203c90615ee0565b80601f016020809104026020016040519081016040528092919081815260200182805461206890615ee0565b80156120b55780601f1061208a576101008083540402835291602001916120b5565b820191906000526020600020905b81548152906001019060200180831161209857829003601f168201915b5050505050815250508152602001600382016040518060400160405290816000820180546120e290615ee0565b80601f016020809104026020016040519081016040528092919081815260200182805461210e90615ee0565b801561215b5780601f106121305761010080835404028352916020019161215b565b820191906000526020600020905b81548152906001019060200180831161213e57829003601f168201915b5050505050815260200160018201805461217490615ee0565b80601f01602080910402602001604051908101604052809291908181526020018280546121a090615ee0565b80156121ed5780601f106121c2576101008083540402835291602001916121ed565b820191906000526020600020905b8154815290600101906020018083116121d057829003601f168201915b505050919092525050508152600582015460209091019060ff16600381111561221857612218615263565b600381111561222957612229615263565b815260200160068201548152602001600782016040518060c001604052908160008201805461225790615ee0565b80601f016020809104026020016040519081016040528092919081815260200182805461228390615ee0565b80156122d05780601f106122a5576101008083540402835291602001916122d0565b820191906000526020600020905b8154815290600101906020018083116122b357829003601f168201915b505050505081526020016001820180546122e990615ee0565b80601f016020809104026020016040519081016040528092919081815260200182805461231590615ee0565b80156123625780601f1061233757610100808354040283529160200191612362565b820191906000526020600020905b81548152906001019060200180831161234557829003601f168201915b5050505050815260200160028201805461237b90615ee0565b80601f01602080910402602001604051908101604052809291908181526020018280546123a790615ee0565b80156123f45780601f106123c9576101008083540402835291602001916123f4565b820191906000526020600020905b8154815290600101906020018083116123d757829003601f168201915b5050505050815260200160038201805461240d90615ee0565b80601f016020809104026020016040519081016040528092919081815260200182805461243990615ee0565b80156124865780601f1061245b57610100808354040283529160200191612486565b820191906000526020600020905b81548152906001019060200180831161246957829003601f168201915b5050505050815260200160048201805461249f90615ee0565b80601f01602080910402602001604051908101604052809291908181526020018280546124cb90615ee0565b80156125185780601f106124ed57610100808354040283529160200191612518565b820191906000526020600020905b8154815290600101906020018083116124fb57829003601f168201915b5050505050815260200160058201805461253190615ee0565b80601f016020809104026020016040519081016040528092919081815260200182805461255d90615ee0565b80156125aa5780601f1061257f576101008083540402835291602001916125aa565b820191906000526020600020905b81548152906001019060200180831161258d57829003601f168201915b505050919092525050508152600d82015460ff9081161515602080840191909152600e840154604080850191909152600f850154909216151560608085019190915260108501546080850152825160118601805493840282018301855293810183815260a090950194909392849284919060009085015b828210156126cd57838290600052602060002001805461264090615ee0565b80601f016020809104026020016040519081016040528092919081815260200182805461266c90615ee0565b80156126b95780601f1061268e576101008083540402835291602001916126b9565b820191906000526020600020905b81548152906001019060200180831161269c57829003601f168201915b505050505081526020019060010190612621565b5050505081526020016001820180546126e590615ee0565b80601f016020809104026020016040519081016040528092919081815260200182805461271190615ee0565b801561275e5780601f106127335761010080835404028352916020019161275e565b820191906000526020600020905b81548152906001019060200180831161274157829003601f168201915b50505091909252505050815260138201546001600160a01b03908116602083015260149092015490911660409091015292915050565b61279c614cf4565b6127a7600233614a2e565b806127b857506127b8600133614a2e565b806127c957506127c9600333614a2e565b6128035760405162461bcd60e51b815260206004820152600b60248201526a139bdd08105b1b1bddd95960aa1b604482015260640161038b565b6001600160a01b03808316600090815260056020908152604091829020825161010081018452815490941684528251808401909352600181018054919392850192918290829061285290615ee0565b80601f016020809104026020016040519081016040528092919081815260200182805461287e90615ee0565b80156128cb5780601f106128a0576101008083540402835291602001916128cb565b820191906000526020600020905b8154815290600101906020018083116128ae57829003601f168201915b505050505081526020016001820180546128e490615ee0565b80601f016020809104026020016040519081016040528092919081815260200182805461291090615ee0565b801561295d5780601f106129325761010080835404028352916020019161295d565b820191906000526020600020905b81548152906001019060200180831161294057829003601f168201915b50505050508152505081526020016003820160405180604001604052908160008201805461298a90615ee0565b80601f01602080910402602001604051908101604052809291908181526020018280546129b690615ee0565b8015612a035780601f106129d857610100808354040283529160200191612a03565b820191906000526020600020905b8154815290600101906020018083116129e657829003601f168201915b50505050508152602001600182018054612a1c90615ee0565b80601f0160208091040260200160405190810160405280929190818152602001828054612a4890615ee0565b8015612a955780601f10612a6a57610100808354040283529160200191612a95565b820191906000526020600020905b815481529060010190602001808311612a7857829003601f168201915b5050505050815250508152602001600582016040518060c0016040529081600082018054612ac290615ee0565b80601f0160208091040260200160405190810160405280929190818152602001828054612aee90615ee0565b8015612b3b5780601f10612b1057610100808354040283529160200191612b3b565b820191906000526020600020905b815481529060010190602001808311612b1e57829003601f168201915b50505050508152602001600182018054612b5490615ee0565b80601f0160208091040260200160405190810160405280929190818152602001828054612b8090615ee0565b8015612bcd5780601f10612ba257610100808354040283529160200191612bcd565b820191906000526020600020905b815481529060010190602001808311612bb057829003601f168201915b50505050508152602001600282018054612be690615ee0565b80601f0160208091040260200160405190810160405280929190818152602001828054612c1290615ee0565b8015612c5f5780601f10612c3457610100808354040283529160200191612c5f565b820191906000526020600020905b815481529060010190602001808311612c4257829003601f168201915b50505050508152602001600382018054612c7890615ee0565b80601f0160208091040260200160405190810160405280929190818152602001828054612ca490615ee0565b8015612cf15780601f10612cc657610100808354040283529160200191612cf1565b820191906000526020600020905b815481529060010190602001808311612cd457829003601f168201915b50505050508152602001600482018054612d0a90615ee0565b80601f0160208091040260200160405190810160405280929190818152602001828054612d3690615ee0565b8015612d835780601f10612d5857610100808354040283529160200191612d83565b820191906000526020600020905b815481529060010190602001808311612d6657829003601f168201915b50505050508152602001600582018054612d9c90615ee0565b80601f0160208091040260200160405190810160405280929190818152602001828054612dc890615ee0565b8015612e155780601f10612dea57610100808354040283529160200191612e15565b820191906000526020600020905b815481529060010190602001808311612df857829003601f168201915b505050919092525050508152600b82015460209091019060ff166003811115612e4057612e40615263565b6003811115612e5157612e51615263565b8152602001600c8201548152602001600d820160405180604001604052908160008201805480602002602001604051908101604052809291908181526020016000905b82821015612f40578382906000526020600020018054612eb390615ee0565b80601f0160208091040260200160405190810160405280929190818152602001828054612edf90615ee0565b8015612f2c5780601f10612f0157610100808354040283529160200191612f2c565b820191906000526020600020905b815481529060010190602001808311612f0f57829003601f168201915b505050505081526020019060010190612e94565b505050508152602001600182018054612f5890615ee0565b80601f0160208091040260200160405190810160405280929190818152602001828054612f8490615ee0565b8015612fd15780601f10612fa657610100808354040283529160200191612fd1565b820191906000526020600020905b815481529060010190602001808311612fb457829003601f168201915b505050919092525050508152600f91909101546001600160a01b031660209091015292915050565b6009818154811061034a57600080fd5b6060613016600333614a2e565b6130505760405162461bcd60e51b815260206004820152600b60248201526a139bdd0814185d1a595b9d60aa1b604482015260640161038b565b33600090815260076020908152604080832080548251818502810185019093528083529193909284015b8282101561358f5760008481526020908190206040805161016081018252600b860290920180546001600160a01b0390811684526001820154811694840194909452600281015490931690820152600382015460608201526004820180549192916080840191906130ea90615ee0565b80601f016020809104026020016040519081016040528092919081815260200182805461311690615ee0565b80156131635780601f1061313857610100808354040283529160200191613163565b820191906000526020600020905b81548152906001019060200180831161314657829003601f168201915b5050505050815260200160058201805480602002602001604051908101604052809291908181526020016000905b8282101561323d5783829060005260206000200180546131b090615ee0565b80601f01602080910402602001604051908101604052809291908181526020018280546131dc90615ee0565b80156132295780601f106131fe57610100808354040283529160200191613229565b820191906000526020600020905b81548152906001019060200180831161320c57829003601f168201915b505050505081526020019060010190613191565b5050505081526020016006820180548060200260200160405190810160405280929190818152602001828054801561329457602002820191906000526020600020905b815481526020019060010190808311613280575b5050505050815260200160078201805480602002602001604051908101604052809291908181526020016000905b8282101561336e5783829060005260206000200180546132e190615ee0565b80601f016020809104026020016040519081016040528092919081815260200182805461330d90615ee0565b801561335a5780601f1061332f5761010080835404028352916020019161335a565b820191906000526020600020905b81548152906001019060200180831161333d57829003601f168201915b5050505050815260200190600101906132c2565b505050508152602001600882018054806020026020016040519081016040528092919081815260200182805480156133c557602002820191906000526020600020905b8154815260200190600101908083116133b1575b5050505050815260200160098201805480602002602001604051908101604052809291908181526020016000905b8282101561349f57838290600052602060002001805461341290615ee0565b80601f016020809104026020016040519081016040528092919081815260200182805461343e90615ee0565b801561348b5780601f106134605761010080835404028352916020019161348b565b820191906000526020600020905b81548152906001019060200180831161346e57829003601f168201915b5050505050815260200190600101906133f3565b505050508152602001600a8201805480602002602001604051908101604052809291908181526020016000905b828210156135785783829060005260206000200180546134eb90615ee0565b80601f016020809104026020016040519081016040528092919081815260200182805461351790615ee0565b80156135645780601f1061353957610100808354040283529160200191613564565b820191906000526020600020905b81548152906001019060200180831161354757829003601f168201915b5050505050815260200190600101906134cc565b50505050815250508152602001906001019061307a565b50505050905090565b60606135a5600133614a2e565b6135c15760405162461bcd60e51b815260040161038b90615f44565b600a5460009081906001600160401b038111156135e0576135e0614e91565b60405190808252806020026020018201604052801561361957816020015b613606614b99565b8152602001906001900390816135fe5790505b50905060005b600a54811015610e8257600060066000600a848154811061364257613642615eca565b60009182526020808320909101546001600160a01b0390811684529083019390935260409091019020601481015490925016331415613ec557604080516101a08101825282546001600160a01b03168152815180830190925260018301805491928492602085019290829082906136b890615ee0565b80601f01602080910402602001604051908101604052809291908181526020018280546136e490615ee0565b80156137315780601f1061370657610100808354040283529160200191613731565b820191906000526020600020905b81548152906001019060200180831161371457829003601f168201915b5050505050815260200160018201805461374a90615ee0565b80601f016020809104026020016040519081016040528092919081815260200182805461377690615ee0565b80156137c35780601f10613798576101008083540402835291602001916137c3565b820191906000526020600020905b8154815290600101906020018083116137a657829003601f168201915b5050505050815250508152602001600382016040518060400160405290816000820180546137f090615ee0565b80601f016020809104026020016040519081016040528092919081815260200182805461381c90615ee0565b80156138695780601f1061383e57610100808354040283529160200191613869565b820191906000526020600020905b81548152906001019060200180831161384c57829003601f168201915b5050505050815260200160018201805461388290615ee0565b80601f01602080910402602001604051908101604052809291908181526020018280546138ae90615ee0565b80156138fb5780601f106138d0576101008083540402835291602001916138fb565b820191906000526020600020905b8154815290600101906020018083116138de57829003601f168201915b505050919092525050508152600582015460209091019060ff16600381111561392657613926615263565b600381111561393757613937615263565b815260200160068201548152602001600782016040518060c001604052908160008201805461396590615ee0565b80601f016020809104026020016040519081016040528092919081815260200182805461399190615ee0565b80156139de5780601f106139b3576101008083540402835291602001916139de565b820191906000526020600020905b8154815290600101906020018083116139c157829003601f168201915b505050505081526020016001820180546139f790615ee0565b80601f0160208091040260200160405190810160405280929190818152602001828054613a2390615ee0565b8015613a705780601f10613a4557610100808354040283529160200191613a70565b820191906000526020600020905b815481529060010190602001808311613a5357829003601f168201915b50505050508152602001600282018054613a8990615ee0565b80601f0160208091040260200160405190810160405280929190818152602001828054613ab590615ee0565b8015613b025780601f10613ad757610100808354040283529160200191613b02565b820191906000526020600020905b815481529060010190602001808311613ae557829003601f168201915b50505050508152602001600382018054613b1b90615ee0565b80601f0160208091040260200160405190810160405280929190818152602001828054613b4790615ee0565b8015613b945780601f10613b6957610100808354040283529160200191613b94565b820191906000526020600020905b815481529060010190602001808311613b7757829003601f168201915b50505050508152602001600482018054613bad90615ee0565b80601f0160208091040260200160405190810160405280929190818152602001828054613bd990615ee0565b8015613c265780601f10613bfb57610100808354040283529160200191613c26565b820191906000526020600020905b815481529060010190602001808311613c0957829003601f168201915b50505050508152602001600582018054613c3f90615ee0565b80601f0160208091040260200160405190810160405280929190818152602001828054613c6b90615ee0565b8015613cb85780601f10613c8d57610100808354040283529160200191613cb8565b820191906000526020600020905b815481529060010190602001808311613c9b57829003601f168201915b505050919092525050508152600d82015460ff9081161515602080840191909152600e840154604080850191909152600f850154909216151560608085019190915260108501546080850152825160118601805493840282018301855293810183815260a090950194909392849284919060009085015b82821015613ddb578382906000526020600020018054613d4e90615ee0565b80601f0160208091040260200160405190810160405280929190818152602001828054613d7a90615ee0565b8015613dc75780601f10613d9c57610100808354040283529160200191613dc7565b820191906000526020600020905b815481529060010190602001808311613daa57829003601f168201915b505050505081526020019060010190613d2f565b505050508152602001600182018054613df390615ee0565b80601f0160208091040260200160405190810160405280929190818152602001828054613e1f90615ee0565b8015613e6c5780601f10613e4157610100808354040283529160200191613e6c565b820191906000526020600020905b815481529060010190602001808311613e4f57829003601f168201915b50505091909252505050815260138201546001600160a01b0390811660208301526014909201549091166040909101528385613ea781615f1b565b965081518110613eb957613eb9615eca565b60200260200101819052505b5080613ed081615f1b565b91505061361f565b6060613ee5600133614a2e565b613f015760405162461bcd60e51b815260040161038b90615f44565b60095460009081906001600160401b03811115613f2057613f20614e91565b604051908082528060200260200182016040528015613f5957816020015b613f46614cf4565b815260200190600190039081613f3e5790505b50905060005b600954811015610e825760006005600060098481548110613f8257613f82615eca565b60009182526020808320909101546001600160a01b0390811684529083019390935260409091019020600f810154909250163314156147c257604080516101008101825282546001600160a01b0316815281518083019092526001830180549192849260208501929082908290613ff890615ee0565b80601f016020809104026020016040519081016040528092919081815260200182805461402490615ee0565b80156140715780601f1061404657610100808354040283529160200191614071565b820191906000526020600020905b81548152906001019060200180831161405457829003601f168201915b5050505050815260200160018201805461408a90615ee0565b80601f01602080910402602001604051908101604052809291908181526020018280546140b690615ee0565b80156141035780601f106140d857610100808354040283529160200191614103565b820191906000526020600020905b8154815290600101906020018083116140e657829003601f168201915b50505050508152505081526020016003820160405180604001604052908160008201805461413090615ee0565b80601f016020809104026020016040519081016040528092919081815260200182805461415c90615ee0565b80156141a95780601f1061417e576101008083540402835291602001916141a9565b820191906000526020600020905b81548152906001019060200180831161418c57829003601f168201915b505050505081526020016001820180546141c290615ee0565b80601f01602080910402602001604051908101604052809291908181526020018280546141ee90615ee0565b801561423b5780601f106142105761010080835404028352916020019161423b565b820191906000526020600020905b81548152906001019060200180831161421e57829003601f168201915b5050505050815250508152602001600582016040518060c001604052908160008201805461426890615ee0565b80601f016020809104026020016040519081016040528092919081815260200182805461429490615ee0565b80156142e15780601f106142b6576101008083540402835291602001916142e1565b820191906000526020600020905b8154815290600101906020018083116142c457829003601f168201915b505050505081526020016001820180546142fa90615ee0565b80601f016020809104026020016040519081016040528092919081815260200182805461432690615ee0565b80156143735780601f1061434857610100808354040283529160200191614373565b820191906000526020600020905b81548152906001019060200180831161435657829003601f168201915b5050505050815260200160028201805461438c90615ee0565b80601f01602080910402602001604051908101604052809291908181526020018280546143b890615ee0565b80156144055780601f106143da57610100808354040283529160200191614405565b820191906000526020600020905b8154815290600101906020018083116143e857829003601f168201915b5050505050815260200160038201805461441e90615ee0565b80601f016020809104026020016040519081016040528092919081815260200182805461444a90615ee0565b80156144975780601f1061446c57610100808354040283529160200191614497565b820191906000526020600020905b81548152906001019060200180831161447a57829003601f168201915b505050505081526020016004820180546144b090615ee0565b80601f01602080910402602001604051908101604052809291908181526020018280546144dc90615ee0565b80156145295780601f106144fe57610100808354040283529160200191614529565b820191906000526020600020905b81548152906001019060200180831161450c57829003601f168201915b5050505050815260200160058201805461454290615ee0565b80601f016020809104026020016040519081016040528092919081815260200182805461456e90615ee0565b80156145bb5780601f10614590576101008083540402835291602001916145bb565b820191906000526020600020905b81548152906001019060200180831161459e57829003601f168201915b505050919092525050508152600b82015460209091019060ff1660038111156145e6576145e6615263565b60038111156145f7576145f7615263565b8152602001600c8201548152602001600d820160405180604001604052908160008201805480602002602001604051908101604052809291908181526020016000905b828210156146e657838290600052602060002001805461465990615ee0565b80601f016020809104026020016040519081016040528092919081815260200182805461468590615ee0565b80156146d25780601f106146a7576101008083540402835291602001916146d2565b820191906000526020600020905b8154815290600101906020018083116146b557829003601f168201915b50505050508152602001906001019061463a565b5050505081526020016001820180546146fe90615ee0565b80601f016020809104026020016040519081016040528092919081815260200182805461472a90615ee0565b80156147775780601f1061474c57610100808354040283529160200191614777565b820191906000526020600020905b81548152906001019060200180831161475a57829003601f168201915b505050919092525050508152600f91909101546001600160a01b031660209091015283856147a481615f1b565b9650815181106147b6576147b6615eca565b60200260200101819052505b50806147cd81615f1b565b915050613f5f565b6147e0600233614a2e565b6147fc5760405162461bcd60e51b815260040161038b90615ea0565b61487460405180610160016040528060006001600160a01b0316815260200160006001600160a01b0316815260200160006001600160a01b0316815260200160008152602001606081526020016060815260200160608152602001606081526020016060815260200160608152602001606081525090565b81516001600160a01b0390811682523360208084018281526000928352600582526040808420600f015485168187019081526060808901519088019081526080808a015190890190815260a0808b0151908a015260c0808b0151908a015260e0808b0151908a0152610100808b0151908a0152610120808b0151908a0152610140808b0151908a015289518816875260078652928620805460018181018355918852968690208951600b9098020180549789166001600160a01b0319988916178155945190850180549189169188169190911790559051600284018054919097169516949094179094559151600383015591518051849361497c926004850192910190614b15565b5060a08201518051614998916005840191602090910190614c9b565b5060c082015180516149b4916006840191602090910190614d99565b5060e082015180516149d0916007840191602090910190614c9b565b5061010082015180516149ed916008840191602090910190614d99565b506101208201518051614a0a916009840191602090910190614c9b565b506101408201518051614a2791600a840191602090910190614c9b565b5050505050565b60006001600160a01b038216614a865760405162461bcd60e51b815260206004820152601b60248201527f4163636f756e7420697320746865207a65726f20616464726573730000000000604482015260640161038b565b506001600160a01b03166000908152602091909152604090205460ff1690565b614ab08282614a2e565b15614af05760405162461bcd60e51b815260206004820152601060248201526f4163636f756e742068617320726f6c6560801b604482015260640161038b565b6001600160a01b0316600090815260209190915260409020805460ff19166001179055565b828054614b2190615ee0565b90600052602060002090601f016020900481019282614b435760008555614b89565b82601f10614b5c57805160ff1916838001178555614b89565b82800160010185558215614b89579182015b82811115614b89578251825591602001919060010190614b6e565b50614b95929150614dd3565b5090565b604051806101a0016040528060006001600160a01b03168152602001614bd2604051806040016040528060608152602001606081525090565b8152602001614bf4604051806040016040528060608152602001606081525090565b81526020016000815260200160008152602001614c0f614de8565b81526020016000151581526020016000815260200160001515815260200160008152602001614c51604051806040016040528060608152602001606081525090565b815260006020820181905260409091015290565b604051806080016040528060006001600160a01b031681526020016060815260200160008152602001614c96614de8565b905290565b828054828255906000526020600020908101928215614ce8579160200282015b82811115614ce85782518051614cd8918491602090910190614b15565b5091602001919060010190614cbb565b50614b95929150614e1e565b60405180610100016040528060006001600160a01b03168152602001614d2d604051806040016040528060608152602001606081525090565b8152602001614d4f604051806040016040528060608152602001606081525090565b8152602001614d5c614de8565b81526020016000815260200160008152602001614d8c604051806040016040528060608152602001606081525090565b8152600060209091015290565b828054828255906000526020600020908101928215614b895791602002820182811115614b89578251825591602001919060010190614b6e565b5b80821115614b955760008155600101614dd4565b6040518060c001604052806060815260200160608152602001606081526020016060815260200160608152602001606081525090565b80821115614b95576000614e328282614e3b565b50600101614e1e565b508054614e4790615ee0565b6000825580601f10614e57575050565b601f016020900490600052602060002090810190614e759190614dd3565b50565b600060208284031215614e8a57600080fd5b5035919050565b634e487b7160e01b600052604160045260246000fd5b60405160c081016001600160401b0381118282101715614ec957614ec9614e91565b60405290565b604051608081016001600160401b0381118282101715614ec957614ec9614e91565b604080519081016001600160401b0381118282101715614ec957614ec9614e91565b60405161010081016001600160401b0381118282101715614ec957614ec9614e91565b6040516101a081016001600160401b0381118282101715614ec957614ec9614e91565b60405161016081016001600160401b0381118282101715614ec957614ec9614e91565b604051601f8201601f191681016001600160401b0381118282101715614fa457614fa4614e91565b604052919050565b80356001600160a01b038116811461142357600080fd5b600082601f830112614fd457600080fd5b81356001600160401b03811115614fed57614fed614e91565b615000601f8201601f1916602001614f7c565b81815284602083860101111561501557600080fd5b816020850160208301376000918101602001919091529392505050565b600060c0828403121561504457600080fd5b61504c614ea7565b905081356001600160401b038082111561506557600080fd5b61507185838601614fc3565b8352602084013591508082111561508757600080fd5b61509385838601614fc3565b602084015260408401359150808211156150ac57600080fd5b6150b885838601614fc3565b604084015260608401359150808211156150d157600080fd5b6150dd85838601614fc3565b606084015260808401359150808211156150f657600080fd5b61510285838601614fc3565b608084015260a084013591508082111561511b57600080fd5b5061512884828501614fc3565b60a08301525092915050565b60006020828403121561514657600080fd5b81356001600160401b038082111561515d57600080fd5b908301906080828603121561517157600080fd5b615179614ecf565b61518283614fac565b815260208301358281111561519657600080fd5b6151a287828601614fc3565b602083015250604083013560408201526060830135828111156151c457600080fd5b6151d087828601615032565b60608301525095945050505050565b6000815180845260005b81811015615205576020818501810151868301820152016151e9565b81811115615217576000602083870101525b50601f01601f19169290920160200192915050565b600081516040845261524160408501826151df565b90506020830151848203602086015261525a82826151df565b95945050505050565b634e487b7160e01b600052602160045260246000fd5b6004811061529757634e487b7160e01b600052602160045260246000fd5b9052565b6000815160c084526152b060c08501826151df565b9050602083015184820360208601526152c982826151df565b915050604083015184820360408601526152e382826151df565b915050606083015184820360608601526152fd82826151df565b9150506080830151848203608086015261531782826151df565b91505060a083015184820360a086015261525a82826151df565b600081518084526020808501808196508360051b8101915082860160005b858110156153795782840389526153678483516151df565b9885019893509084019060010161534f565b5091979650505050505050565b60008151604084526152416040850182615331565b80516001600160a01b0316825260006101a060208301518160208601526153c48286018261522c565b915050604083015184820360408601526153de828261522c565b91505060608301516153f36060860182615279565b506080830151608085015260a083015184820360a0860152615415828261529b565b91505060c083015161542b60c086018215159052565b5060e083015160e08501526101008084015161544a8287018215159052565b50506101208381015190850152610140808401518583038287015261546f8382615386565b925050506101608084015161548e828701826001600160a01b03169052565b5050610180928301516001600160a01b03169390920192909252919050565b6000602080830181845280855180835260408601915060408160051b870101925083870160005b8281101561550257603f198886030184526154f085835161539b565b945092850192908501906001016154d4565b5092979650505050505050565b60006020828403121561552157600080fd5b61552a82614fac565b9392505050565b600081518084526020808501945080840160005b8381101561556157815187529582019590820190600101615545565b509495945050505050565b60006020808301818452808551808352604092508286019150828160051b87010184880160005b838110156156ab57603f19898403018552815180516001600160a01b039081168552888201518116898601528782015116878501526060808201519085015260808082015161016082870181905291906155ef838801826151df565b9250505060a0808301518683038288015261560a8382615331565b9250505060c080830151868303828801526156258382615531565b9250505060e080830151868303828801526156408382615331565b92505050610100808301518683038288015261565c8382615531565b9250505061012080830151868303828801526156788382615331565b9250505061014080830151925085820381870152506156978183615331565b968901969450505090860190600101615593565b509098975050505050505050565b602080825282516001600160a01b031682820152820151608060408301526000906156e760a08401826151df565b9050604084015160608401526060840151601f1984830301608085015261525a828261529b565b6020808252825182820181905260009190848201906040850190845b8181101561574f5783516001600160a01b03168352928401929184019160010161572a565b50909695505050505050565b60006040828403121561576d57600080fd5b615775614ef1565b905081356001600160401b038082111561578e57600080fd5b61579a85838601614fc3565b835260208401359150808211156157b057600080fd5b506157bd84828501614fc3565b60208301525092915050565b80356004811061142357600080fd5b60006001600160401b038211156157f1576157f1614e91565b5060051b60200190565b600082601f83011261580c57600080fd5b8135602061582161581c836157d8565b614f7c565b82815260059290921b8401810191818101908684111561584057600080fd5b8286015b8481101561587f5780356001600160401b038111156158635760008081fd5b6158718986838b0101614fc3565b845250918301918301615844565b509695505050505050565b60006040828403121561589c57600080fd5b6158a4614ef1565b905081356001600160401b03808211156158bd57600080fd5b61579a858386016157fb565b6000602082840312156158db57600080fd5b81356001600160401b03808211156158f257600080fd5b90830190610100828603121561590757600080fd5b61590f614f13565b61591883614fac565b815260208301358281111561592c57600080fd5b6159388782860161575b565b60208301525060408301358281111561595057600080fd5b61595c8782860161575b565b60408301525060608301358281111561597457600080fd5b61598087828601615032565b606083015250615992608084016157c9565b608082015260a083013560a082015260c0830135828111156159b357600080fd5b6159bf8782860161588a565b60c0830152506159d160e08401614fac565b60e082015295945050505050565b8035801515811461142357600080fd5b600060208284031215615a0157600080fd5b81356001600160401b0380821115615a1857600080fd5b908301906101a08286031215615a2d57600080fd5b615a35614f36565b615a3e83614fac565b8152602083013582811115615a5257600080fd5b615a5e8782860161575b565b602083015250604083013582811115615a7657600080fd5b615a828782860161575b565b604083015250615a94606084016157c9565b60608201526080830135608082015260a083013582811115615ab557600080fd5b615ac187828601615032565b60a083015250615ad360c084016159df565b60c082015260e083013560e0820152610100615af08185016159df565b9082015261012083810135908201526101408084013583811115615b1357600080fd5b615b1f8882870161588a565b8284015250506101609150615b35828401614fac565b828201526101809150615b49828401614fac565b91810191909152949350505050565b60208152600061552a602083018461539b565b80516001600160a01b0316825260006101006020830151816020860152615b948286018261522c565b91505060408301518482036040860152615bae828261522c565b91505060608301518482036060860152615bc8828261529b565b9150506080830151615bdd6080860182615279565b5060a083015160a085015260c083015184820360c0860152615bff8282615386565b91505060e0830151615c1c60e08601826001600160a01b03169052565b509392505050565b60208152600061552a6020830184615b6b565b6000602080830181845280855180835260408601915060408160051b870101925083870160005b8281101561550257603f19888603018452615c7a858351615b6b565b94509285019290850190600101615c5e565b600082601f830112615c9d57600080fd5b81356020615cad61581c836157d8565b82815260059290921b84018101918181019086841115615ccc57600080fd5b8286015b8481101561587f5780358352918301918301615cd0565b600060208284031215615cf957600080fd5b81356001600160401b0380821115615d1057600080fd5b908301906101608286031215615d2557600080fd5b615d2d614f59565b615d3683614fac565b8152615d4460208401614fac565b6020820152615d5560408401614fac565b604082015260608301356060820152608083013582811115615d7657600080fd5b615d8287828601614fc3565b60808301525060a083013582811115615d9a57600080fd5b615da6878286016157fb565b60a08301525060c083013582811115615dbe57600080fd5b615dca87828601615c8c565b60c08301525060e083013582811115615de257600080fd5b615dee878286016157fb565b60e0830152506101008084013583811115615e0857600080fd5b615e1488828701615c8c565b8284015250506101208084013583811115615e2e57600080fd5b615e3a888287016157fb565b8284015250506101408084013583811115615e5457600080fd5b615e60888287016157fb565b918301919091525095945050505050565b6020808252601590820152744e6f742043656e7472616c20417574686f7269747960581b604082015260600190565b60208082526010908201526f2737ba10283930b1ba34ba34b7b732b960811b604082015260600190565b634e487b7160e01b600052603260045260246000fd5b600181811c90821680615ef457607f821691505b60208210811415615f1557634e487b7160e01b600052602260045260246000fd5b50919050565b6000600019821415615f3d57634e487b7160e01b600052601160045260246000fd5b5060010190565b6020808252601690820152752737ba1027b933b0b734b9b0ba34b7b71020b236b4b760511b60408201526060019056fea2646970667358221220c6c3b6f39777dbe5a76e40f5ac70a70e551304b4681c01927fc3a9cb2601fc4364736f6c634300080b0033",
  "immutableReferences": {},
  "source": "// SPDX-License-Identifier: MIT\npragma solidity >= 0.8.11;\n\ncontract Contract{\n\n    struct Role {\n        mapping (address => bool) bearer;\n    }\n    //Add a role to an account\n    function add(Role storage role, address account) internal {\n        require(!has(role, account), \"Account has role\");\n        role.bearer[account] = true;\n    }\n    //Remove a role from an account\n    function remove(Role storage role, address account) internal {\n        require(has(role, account), \"Account does not have role\");\n        role.bearer[account] = false;\n    }\n    //Check if an account has a role\n    function has(Role storage role, address account) internal view returns (bool) {\n        require(account != address(0), \"Account is the zero address\");\n        return role.bearer[account];\n    }\n\n    Role private centralAuthority;\n    Role private organisationAdmin;\n    Role private practitioner;\n    Role private patient;\n\n     /*\n        Modifiers\n    */\n\n    modifier onlyCentralAuthority(){\n        require(has(centralAuthority,msg.sender), 'Not Central Authority');\n        _;\n    }\n    modifier onlyOrganisationAdmin(){\n        require(has(organisationAdmin,msg.sender), 'Not Organisation Admin');\n        _;\n    }\n    modifier onlyPractitioner(){\n        require(has(practitioner,msg.sender), 'Not Practitioner');\n        _;\n    }\n    modifier onlyPatient(){\n        require(has(patient,msg.sender), 'Not Patient');\n        _;\n    }\n    \n    /*\n        General Information\n    */\n    struct HumanName{\n        string givenNames;\n        string surname;\n    }\n\n    struct ContactPoint{\n        string phoneNumber;\n        string email;\n    }\n    \n    struct PhysicalAddress{\n        string use;\n        string street;\n        string city;\n        string state;\n        string postalCode;\n        string country;\n    }\n\n    struct Communication{\n        string[] languages;\n        string preferred;\n    }\n\n    enum Gender{ MALE, FEMALE, OTHER, UNKNOWN }\n\n    struct Organisation{\n        address id;\n        string name;\n        uint dateJoined;\n        PhysicalAddress organisationAddress;\n    }\n    /*\n        Practitioner\n    */\n    struct Practitioner{\n        address id;\n        HumanName name;\n        ContactPoint telecom;\n        PhysicalAddress homeAddress;\n        Gender gender;\n        uint birthDate;\n        Communication communication;\n        address memberOrgaisation;\n    }\n    /*\n        Patient\n    */\n    struct Patient{\n        address id;\n        HumanName name;\n        ContactPoint telecom;       \n        Gender gender;\n        uint birthDate;\n        PhysicalAddress homeAddress; \n        bool deceasedBoolean;\n        uint deceasedDateTime;\n        bool multipleBirthBoolean;\n        uint multipleBirthInteger;\n        Communication communication;     \n        address generalPractitioner;\n        address managingOrganisation;\n    }\n\n    // Start of Medical Records\n    struct MedicalRecord{\n        address patientId;\n        address practitionerId;\n        address organisationId;\n        uint timestamp;\n        string diagnosis;\n        string[] medicationName;\n        uint[] dosage;\n        string[] unit;\n        uint[] noOfDays;\n        string[] remarks;\n        string[] clinicalTests;\n    }\n    // End of Medical Records\n\n    mapping(address => Organisation) Organisations;\n    mapping(address => Practitioner) Practitioners;\n    mapping(address => Patient) Patients;\n    mapping(address => MedicalRecord[]) Records;\n\n    address[] public OrganisationList;\n    address[] public PractitionerList;\n    address[] public PatientList;\n\n    address centralAuthorityID;\n\n    constructor() {\n        centralAuthorityID = msg.sender;\n        add(centralAuthority,centralAuthorityID);\n    }\n\n    //get Admin\n\n    function getCentralAuthority() external view returns(address){\n        return centralAuthorityID;\n    }\n  \n    function isCentralAuthority() external view returns(bool){\n        return has(centralAuthority,tx.origin);\n    }\n\n    function addOrganisation(Organisation memory data) external onlyCentralAuthority{\n        require(has(centralAuthority,msg.sender) == true, \"Only for Admins\");\n\n        Organisation storage organisationData = Organisations[data.id];\n        organisationData.id = data.id;\n        organisationData.name = data.name;\n        organisationData.dateJoined = data.dateJoined;\n        organisationData.organisationAddress = data.organisationAddress;\n\n        OrganisationList.push(data.id);\n        add(organisationAdmin,data.id);\n    }\n\n    function getOrganisation(address id) public view returns(Organisation memory){\n        return Organisations[id];\n    }\n\n    function getAllOrganisation() external onlyCentralAuthority view returns(address[] memory){\n        return OrganisationList;\n    }\n\n    function isOrganisation() external view returns(bool){\n        return has(organisationAdmin,msg.sender);\n    }\n\n    function addPractitioner(Practitioner memory data) external onlyOrganisationAdmin{\n        Practitioner storage practitionerData = Practitioners[data.id];\n        practitionerData.id = data.id;\n        practitionerData.name = data.name;\n        practitionerData.telecom = data.telecom;\n        practitionerData.birthDate = data.birthDate;\n        practitionerData.gender = data.gender;\n        practitionerData.homeAddress = data.homeAddress;\n        practitionerData.communication = data.communication;\n        practitionerData.memberOrgaisation = data.memberOrgaisation;\n\n        PractitionerList.push(data.id);\n        add(practitioner,data.id);\n    }\n\n    function getDr(address _id) external view returns(Practitioner memory){\n        require(has(practitioner,msg.sender)|| has(organisationAdmin,msg.sender) || has(patient,msg.sender), \"Not Allowed\");\n        return (Practitioners[_id]);\n    }\n\n    function isPractitioner(address id) external view returns(int){\n        if(has(practitioner,id)){\n            return 1;\n        }\n        return 0;\n    }\n\n    function getPractitionerCount() external onlyCentralAuthority view returns(uint) {\n        return(PractitionerList.length);\n    }\n\n    function getPatientCount() external onlyCentralAuthority view returns(uint){\n        return(PatientList.length);\n    }\n\n    function getPractitionersPerOrg() external onlyOrganisationAdmin view returns(Practitioner[] memory){\n        uint count = 0;\n        Practitioner[] memory practitionerList = new Practitioner[](PractitionerList.length);\n        for(uint i=0;i<PractitionerList.length;i++){\n            Practitioner storage pracData = Practitioners[PractitionerList[i]];\n            if(pracData.memberOrgaisation == msg.sender){\n                practitionerList[count++] = pracData;\n            }\n        }\n        return(practitionerList);\n    }\n\n    function getPatientsPerDoc() external onlyPractitioner view returns(Patient[] memory){\n        uint count = 0;\n        Patient[] memory patientList = new Patient[](PatientList.length);\n        for(uint i=0;i<PatientList.length;i++){\n            Patient storage patientData = Patients[PatientList[i]];\n            if(patientData.generalPractitioner == msg.sender){\n                patientList[count++] = patientData;\n            }\n        }\n        return(patientList);\n    }\n\n    function getPatientsPerOrg() external onlyOrganisationAdmin view returns(Patient[] memory){\n        uint count = 0;\n        Patient[] memory patientList = new Patient[](PatientList.length);\n        for(uint i=0;i<PatientList.length;i++){\n            Patient storage patientData = Patients[PatientList[i]];\n            if(patientData.managingOrganisation == msg.sender){\n                patientList[count++] = patientData;\n            }\n        }\n        return(patientList);\n    }\n\n    /*\n            Patient\n    */\n    function isPatient(address id) external view returns(int){\n       if(has(patient,id)){\n           return 1;\n        }\n        return 0;\n    }\n\n    function getPatInfo(address iD) external view returns(Patient memory){\n        require(has(patient,msg.sender) || has(practitioner,msg.sender), \"Not allowed\");\n        return (Patients[iD]);\n    }\n\n    function addPatient(Patient memory data ) external onlyOrganisationAdmin{\n        require(has(organisationAdmin,msg.sender) && has(practitioner,data.generalPractitioner), 'Invalid Data');\n        Patient storage patientData = Patients[data.id];\n        patientData.id = data.id;\n        patientData.name = data.name;\n        patientData.telecom = data.telecom;\n        patientData.birthDate = data.birthDate;\n        patientData.communication = data.communication;\n        patientData.gender = data.gender;\n        patientData.homeAddress = data.homeAddress;\n        patientData.deceasedBoolean = data.deceasedBoolean;\n        patientData.deceasedDateTime = data.deceasedDateTime;\n        patientData.multipleBirthBoolean = data.multipleBirthBoolean;\n        patientData.multipleBirthInteger = data.multipleBirthInteger;\n        patientData.generalPractitioner = data.generalPractitioner;\n        patientData.managingOrganisation = msg.sender;\n\n        PatientList.push(data.id);\n        add(patient,data.id);\n    }\n\n    /*\n        Medical Records\n    */\n\n    function addMedicalRecord(MedicalRecord memory data) external onlyPractitioner{\n        MedicalRecord memory recordData;\n        recordData.patientId = data.patientId;\n        recordData.practitionerId = msg.sender;\n        recordData.organisationId = Practitioners[msg.sender].memberOrgaisation;\n        recordData.timestamp = data.timestamp;\n        recordData.diagnosis = data.diagnosis;\n        recordData.medicationName = data.medicationName;\n        recordData.dosage = data.dosage;\n        recordData.unit = data.unit;\n        recordData.noOfDays = data.noOfDays;\n        recordData.remarks = data.remarks;\n        recordData.clinicalTests = data.clinicalTests;\n        Records[data.patientId].push(recordData);\n    }\n\n    function viewMedicalRecord(address id) external onlyPractitioner view returns(MedicalRecord[] memory){\n        return (Records[id]);\n    }\n\n    function viewMedicalRecord() external onlyPatient view returns(MedicalRecord[] memory){\n        return (Records[msg.sender]);\n    }\n}\n\n",
  "sourcePath": "/Users/amrhoballah/Documents/GitHub/Algobucks/contracts/Contract.sol",
  "compiler": {
    "name": "solc",
    "version": "0.8.11+commit.d7f03943.Emscripten.clang"
  },
  "schemaVersion": "3.4.6",
  "updatedAt": "2022-05-07T13:29:22.270Z",
  "devdoc": {
    "kind": "dev",
    "methods": {},
    "version": 1
  },
  "userdoc": {
    "kind": "user",
    "methods": {},
    "version": 1
  }
}