{
  "contractName": "Contract",
  "abi": [
    {
      "inputs": [],
      "stateMutability": "nonpayable",
      "type": "constructor"
    },
    {
      "inputs": [
        {
          "internalType": "uint256",
          "name": "",
          "type": "uint256"
        }
      ],
      "name": "MedicalRecords",
      "outputs": [
        {
          "internalType": "address",
          "name": "patientId",
          "type": "address"
        },
        {
          "internalType": "string",
          "name": "recordType",
          "type": "string"
        },
        {
          "internalType": "uint256",
          "name": "timestamp",
          "type": "uint256"
        },
        {
          "internalType": "string",
          "name": "diagnosis",
          "type": "string"
        },
        {
          "internalType": "string",
          "name": "treatment",
          "type": "string"
        }
      ],
      "stateMutability": "view",
      "type": "function",
      "constant": true
    },
    {
      "inputs": [
        {
          "internalType": "uint256",
          "name": "",
          "type": "uint256"
        }
      ],
      "name": "OrganisationList",
      "outputs": [
        {
          "internalType": "address",
          "name": "",
          "type": "address"
        }
      ],
      "stateMutability": "view",
      "type": "function",
      "constant": true
    },
    {
      "inputs": [
        {
          "internalType": "uint256",
          "name": "",
          "type": "uint256"
        }
      ],
      "name": "PatientList",
      "outputs": [
        {
          "internalType": "address",
          "name": "",
          "type": "address"
        }
      ],
      "stateMutability": "view",
      "type": "function",
      "constant": true
    },
    {
      "inputs": [
        {
          "internalType": "uint256",
          "name": "",
          "type": "uint256"
        }
      ],
      "name": "PractitionerList",
      "outputs": [
        {
          "internalType": "address",
          "name": "",
          "type": "address"
        }
      ],
      "stateMutability": "view",
      "type": "function",
      "constant": true
    },
    {
      "inputs": [],
      "name": "getCentralAuthority",
      "outputs": [
        {
          "internalType": "address",
          "name": "",
          "type": "address"
        }
      ],
      "stateMutability": "view",
      "type": "function",
      "constant": true
    },
    {
      "inputs": [],
      "name": "isCentralAuthority",
      "outputs": [
        {
          "internalType": "bool",
          "name": "",
          "type": "bool"
        }
      ],
      "stateMutability": "view",
      "type": "function",
      "constant": true
    },
    {
      "inputs": [
        {
          "components": [
            {
              "internalType": "address",
              "name": "id",
              "type": "address"
            },
            {
              "internalType": "string",
              "name": "name",
              "type": "string"
            },
            {
              "internalType": "uint256",
              "name": "dateJoined",
              "type": "uint256"
            },
            {
              "components": [
                {
                  "internalType": "string",
                  "name": "use",
                  "type": "string"
                },
                {
                  "internalType": "string",
                  "name": "street",
                  "type": "string"
                },
                {
                  "internalType": "string",
                  "name": "city",
                  "type": "string"
                },
                {
                  "internalType": "string",
                  "name": "state",
                  "type": "string"
                },
                {
                  "internalType": "string",
                  "name": "postalCode",
                  "type": "string"
                },
                {
                  "internalType": "string",
                  "name": "country",
                  "type": "string"
                }
              ],
              "internalType": "struct Contract.PhysicalAddress",
              "name": "organisationAddress",
              "type": "tuple"
            }
          ],
          "internalType": "struct Contract.Organisation",
          "name": "data",
          "type": "tuple"
        }
      ],
      "name": "addOrganisation",
      "outputs": [],
      "stateMutability": "nonpayable",
      "type": "function"
    },
    {
      "inputs": [
        {
          "internalType": "address",
          "name": "id",
          "type": "address"
        }
      ],
      "name": "getOrganisation",
      "outputs": [
        {
          "components": [
            {
              "internalType": "address",
              "name": "id",
              "type": "address"
            },
            {
              "internalType": "string",
              "name": "name",
              "type": "string"
            },
            {
              "internalType": "uint256",
              "name": "dateJoined",
              "type": "uint256"
            },
            {
              "components": [
                {
                  "internalType": "string",
                  "name": "use",
                  "type": "string"
                },
                {
                  "internalType": "string",
                  "name": "street",
                  "type": "string"
                },
                {
                  "internalType": "string",
                  "name": "city",
                  "type": "string"
                },
                {
                  "internalType": "string",
                  "name": "state",
                  "type": "string"
                },
                {
                  "internalType": "string",
                  "name": "postalCode",
                  "type": "string"
                },
                {
                  "internalType": "string",
                  "name": "country",
                  "type": "string"
                }
              ],
              "internalType": "struct Contract.PhysicalAddress",
              "name": "organisationAddress",
              "type": "tuple"
            }
          ],
          "internalType": "struct Contract.Organisation",
          "name": "",
          "type": "tuple"
        }
      ],
      "stateMutability": "view",
      "type": "function",
      "constant": true
    },
    {
      "inputs": [],
      "name": "getAllOrganisation",
      "outputs": [
        {
          "internalType": "address[]",
          "name": "",
          "type": "address[]"
        }
      ],
      "stateMutability": "view",
      "type": "function",
      "constant": true
    },
    {
      "inputs": [],
      "name": "isOrganisation",
      "outputs": [
        {
          "internalType": "bool",
          "name": "",
          "type": "bool"
        }
      ],
      "stateMutability": "view",
      "type": "function",
      "constant": true
    },
    {
      "inputs": [
        {
          "components": [
            {
              "internalType": "address",
              "name": "id",
              "type": "address"
            },
            {
              "components": [
                {
                  "internalType": "string",
                  "name": "givenNames",
                  "type": "string"
                },
                {
                  "internalType": "string",
                  "name": "surname",
                  "type": "string"
                }
              ],
              "internalType": "struct Contract.HumanName",
              "name": "name",
              "type": "tuple"
            },
            {
              "components": [
                {
                  "internalType": "string",
                  "name": "phoneNumber",
                  "type": "string"
                },
                {
                  "internalType": "string",
                  "name": "email",
                  "type": "string"
                }
              ],
              "internalType": "struct Contract.ContactPoint",
              "name": "telecom",
              "type": "tuple"
            },
            {
              "components": [
                {
                  "internalType": "string",
                  "name": "use",
                  "type": "string"
                },
                {
                  "internalType": "string",
                  "name": "street",
                  "type": "string"
                },
                {
                  "internalType": "string",
                  "name": "city",
                  "type": "string"
                },
                {
                  "internalType": "string",
                  "name": "state",
                  "type": "string"
                },
                {
                  "internalType": "string",
                  "name": "postalCode",
                  "type": "string"
                },
                {
                  "internalType": "string",
                  "name": "country",
                  "type": "string"
                }
              ],
              "internalType": "struct Contract.PhysicalAddress",
              "name": "homeAddress",
              "type": "tuple"
            },
            {
              "internalType": "enum Contract.Gender",
              "name": "gender",
              "type": "uint8"
            },
            {
              "internalType": "uint256",
              "name": "birthDate",
              "type": "uint256"
            },
            {
              "components": [
                {
                  "internalType": "string[]",
                  "name": "languages",
                  "type": "string[]"
                },
                {
                  "internalType": "string",
                  "name": "preferred",
                  "type": "string"
                }
              ],
              "internalType": "struct Contract.Communication",
              "name": "Communication",
              "type": "tuple"
            },
            {
              "internalType": "address",
              "name": "memberOrgaisation",
              "type": "address"
            }
          ],
          "internalType": "struct Contract.Practitioner",
          "name": "data",
          "type": "tuple"
        }
      ],
      "name": "addPractitioner",
      "outputs": [],
      "stateMutability": "nonpayable",
      "type": "function"
    },
    {
      "inputs": [],
      "name": "get_drtid",
      "outputs": [
        {
          "internalType": "address",
          "name": "",
          "type": "address"
        }
      ],
      "stateMutability": "view",
      "type": "function",
      "constant": true
    },
    {
      "inputs": [
        {
          "internalType": "address",
          "name": "_id",
          "type": "address"
        }
      ],
      "name": "search",
      "outputs": [],
      "stateMutability": "nonpayable",
      "type": "function"
    },
    {
      "inputs": [],
      "name": "getDrInfo",
      "outputs": [
        {
          "components": [
            {
              "internalType": "address",
              "name": "id",
              "type": "address"
            },
            {
              "components": [
                {
                  "internalType": "string",
                  "name": "givenNames",
                  "type": "string"
                },
                {
                  "internalType": "string",
                  "name": "surname",
                  "type": "string"
                }
              ],
              "internalType": "struct Contract.HumanName",
              "name": "name",
              "type": "tuple"
            },
            {
              "components": [
                {
                  "internalType": "string",
                  "name": "phoneNumber",
                  "type": "string"
                },
                {
                  "internalType": "string",
                  "name": "email",
                  "type": "string"
                }
              ],
              "internalType": "struct Contract.ContactPoint",
              "name": "telecom",
              "type": "tuple"
            },
            {
              "components": [
                {
                  "internalType": "string",
                  "name": "use",
                  "type": "string"
                },
                {
                  "internalType": "string",
                  "name": "street",
                  "type": "string"
                },
                {
                  "internalType": "string",
                  "name": "city",
                  "type": "string"
                },
                {
                  "internalType": "string",
                  "name": "state",
                  "type": "string"
                },
                {
                  "internalType": "string",
                  "name": "postalCode",
                  "type": "string"
                },
                {
                  "internalType": "string",
                  "name": "country",
                  "type": "string"
                }
              ],
              "internalType": "struct Contract.PhysicalAddress",
              "name": "homeAddress",
              "type": "tuple"
            },
            {
              "internalType": "enum Contract.Gender",
              "name": "gender",
              "type": "uint8"
            },
            {
              "internalType": "uint256",
              "name": "birthDate",
              "type": "uint256"
            },
            {
              "components": [
                {
                  "internalType": "string[]",
                  "name": "languages",
                  "type": "string[]"
                },
                {
                  "internalType": "string",
                  "name": "preferred",
                  "type": "string"
                }
              ],
              "internalType": "struct Contract.Communication",
              "name": "Communication",
              "type": "tuple"
            },
            {
              "internalType": "address",
              "name": "memberOrgaisation",
              "type": "address"
            }
          ],
          "internalType": "struct Contract.Practitioner",
          "name": "",
          "type": "tuple"
        }
      ],
      "stateMutability": "view",
      "type": "function",
      "constant": true
    },
    {
      "inputs": [
        {
          "internalType": "address",
          "name": "_id",
          "type": "address"
        }
      ],
      "name": "getDr",
      "outputs": [
        {
          "components": [
            {
              "internalType": "address",
              "name": "id",
              "type": "address"
            },
            {
              "components": [
                {
                  "internalType": "string",
                  "name": "givenNames",
                  "type": "string"
                },
                {
                  "internalType": "string",
                  "name": "surname",
                  "type": "string"
                }
              ],
              "internalType": "struct Contract.HumanName",
              "name": "name",
              "type": "tuple"
            },
            {
              "components": [
                {
                  "internalType": "string",
                  "name": "phoneNumber",
                  "type": "string"
                },
                {
                  "internalType": "string",
                  "name": "email",
                  "type": "string"
                }
              ],
              "internalType": "struct Contract.ContactPoint",
              "name": "telecom",
              "type": "tuple"
            },
            {
              "components": [
                {
                  "internalType": "string",
                  "name": "use",
                  "type": "string"
                },
                {
                  "internalType": "string",
                  "name": "street",
                  "type": "string"
                },
                {
                  "internalType": "string",
                  "name": "city",
                  "type": "string"
                },
                {
                  "internalType": "string",
                  "name": "state",
                  "type": "string"
                },
                {
                  "internalType": "string",
                  "name": "postalCode",
                  "type": "string"
                },
                {
                  "internalType": "string",
                  "name": "country",
                  "type": "string"
                }
              ],
              "internalType": "struct Contract.PhysicalAddress",
              "name": "homeAddress",
              "type": "tuple"
            },
            {
              "internalType": "enum Contract.Gender",
              "name": "gender",
              "type": "uint8"
            },
            {
              "internalType": "uint256",
              "name": "birthDate",
              "type": "uint256"
            },
            {
              "components": [
                {
                  "internalType": "string[]",
                  "name": "languages",
                  "type": "string[]"
                },
                {
                  "internalType": "string",
                  "name": "preferred",
                  "type": "string"
                }
              ],
              "internalType": "struct Contract.Communication",
              "name": "Communication",
              "type": "tuple"
            },
            {
              "internalType": "address",
              "name": "memberOrgaisation",
              "type": "address"
            }
          ],
          "internalType": "struct Contract.Practitioner",
          "name": "",
          "type": "tuple"
        }
      ],
      "stateMutability": "view",
      "type": "function",
      "constant": true
    },
    {
      "inputs": [
        {
          "internalType": "address",
          "name": "id",
          "type": "address"
        }
      ],
      "name": "isDr",
      "outputs": [
        {
          "internalType": "string",
          "name": "",
          "type": "string"
        }
      ],
      "stateMutability": "view",
      "type": "function",
      "constant": true
    },
    {
      "inputs": [
        {
          "internalType": "address",
          "name": "id",
          "type": "address"
        }
      ],
      "name": "isPractitioner",
      "outputs": [
        {
          "internalType": "int256",
          "name": "",
          "type": "int256"
        }
      ],
      "stateMutability": "view",
      "type": "function",
      "constant": true
    },
    {
      "inputs": [],
      "name": "getAllPractitioners",
      "outputs": [
        {
          "internalType": "address[]",
          "name": "",
          "type": "address[]"
        }
      ],
      "stateMutability": "view",
      "type": "function",
      "constant": true
    },
    {
      "inputs": [],
      "name": "getPractitionerCount",
      "outputs": [
        {
          "internalType": "uint256",
          "name": "",
          "type": "uint256"
        }
      ],
      "stateMutability": "view",
      "type": "function",
      "constant": true
    },
    {
      "inputs": [],
      "name": "getOrganisationCount",
      "outputs": [
        {
          "internalType": "uint256",
          "name": "",
          "type": "uint256"
        }
      ],
      "stateMutability": "view",
      "type": "function",
      "constant": true
    },
    {
      "inputs": [
        {
          "internalType": "address",
          "name": "id",
          "type": "address"
        }
      ],
      "name": "isPat",
      "outputs": [
        {
          "internalType": "string",
          "name": "",
          "type": "string"
        }
      ],
      "stateMutability": "view",
      "type": "function",
      "constant": true
    },
    {
      "inputs": [
        {
          "internalType": "address",
          "name": "id",
          "type": "address"
        }
      ],
      "name": "isPatient",
      "outputs": [
        {
          "internalType": "int256",
          "name": "",
          "type": "int256"
        }
      ],
      "stateMutability": "view",
      "type": "function",
      "constant": true
    },
    {
      "inputs": [
        {
          "internalType": "address",
          "name": "_patid",
          "type": "address"
        }
      ],
      "name": "addRec",
      "outputs": [],
      "stateMutability": "nonpayable",
      "type": "function"
    },
    {
      "inputs": [
        {
          "internalType": "address",
          "name": "_patid",
          "type": "address"
        }
      ],
      "name": "viewPatRec",
      "outputs": [],
      "stateMutability": "nonpayable",
      "type": "function"
    },
    {
      "inputs": [],
      "name": "get",
      "outputs": [
        {
          "internalType": "address",
          "name": "",
          "type": "address"
        }
      ],
      "stateMutability": "view",
      "type": "function",
      "constant": true
    },
    {
      "inputs": [],
      "name": "get_patid",
      "outputs": [
        {
          "internalType": "address",
          "name": "",
          "type": "address"
        }
      ],
      "stateMutability": "view",
      "type": "function",
      "constant": true
    },
    {
      "inputs": [
        {
          "internalType": "address",
          "name": "iD",
          "type": "address"
        }
      ],
      "name": "getPatInfo",
      "outputs": [
        {
          "components": [
            {
              "internalType": "address",
              "name": "id",
              "type": "address"
            },
            {
              "components": [
                {
                  "internalType": "string",
                  "name": "givenNames",
                  "type": "string"
                },
                {
                  "internalType": "string",
                  "name": "surname",
                  "type": "string"
                }
              ],
              "internalType": "struct Contract.HumanName",
              "name": "name",
              "type": "tuple"
            },
            {
              "components": [
                {
                  "internalType": "string",
                  "name": "phoneNumber",
                  "type": "string"
                },
                {
                  "internalType": "string",
                  "name": "email",
                  "type": "string"
                }
              ],
              "internalType": "struct Contract.ContactPoint",
              "name": "telecom",
              "type": "tuple"
            },
            {
              "internalType": "enum Contract.Gender",
              "name": "gender",
              "type": "uint8"
            },
            {
              "internalType": "uint256",
              "name": "birthDate",
              "type": "uint256"
            },
            {
              "components": [
                {
                  "internalType": "string",
                  "name": "use",
                  "type": "string"
                },
                {
                  "internalType": "string",
                  "name": "street",
                  "type": "string"
                },
                {
                  "internalType": "string",
                  "name": "city",
                  "type": "string"
                },
                {
                  "internalType": "string",
                  "name": "state",
                  "type": "string"
                },
                {
                  "internalType": "string",
                  "name": "postalCode",
                  "type": "string"
                },
                {
                  "internalType": "string",
                  "name": "country",
                  "type": "string"
                }
              ],
              "internalType": "struct Contract.PhysicalAddress",
              "name": "homeAddress",
              "type": "tuple"
            },
            {
              "internalType": "bool",
              "name": "deceasedBoolean",
              "type": "bool"
            },
            {
              "internalType": "uint256",
              "name": "deceasedDateTime",
              "type": "uint256"
            },
            {
              "internalType": "bool",
              "name": "multipleBirthBoolean",
              "type": "bool"
            },
            {
              "internalType": "uint256",
              "name": "multipleBirthInteger",
              "type": "uint256"
            },
            {
              "components": [
                {
                  "internalType": "string[]",
                  "name": "languages",
                  "type": "string[]"
                },
                {
                  "internalType": "string",
                  "name": "preferred",
                  "type": "string"
                }
              ],
              "internalType": "struct Contract.Communication",
              "name": "communication",
              "type": "tuple"
            },
            {
              "internalType": "address",
              "name": "generalPractitioner",
              "type": "address"
            },
            {
              "internalType": "address",
              "name": "managingOrganisation",
              "type": "address"
            },
            {
              "internalType": "bool",
              "name": "exists",
              "type": "bool"
            }
          ],
          "internalType": "struct Contract.Patient",
          "name": "",
          "type": "tuple"
        }
      ],
      "stateMutability": "view",
      "type": "function",
      "constant": true
    },
    {
      "inputs": [
        {
          "components": [
            {
              "internalType": "address",
              "name": "id",
              "type": "address"
            },
            {
              "components": [
                {
                  "internalType": "string",
                  "name": "givenNames",
                  "type": "string"
                },
                {
                  "internalType": "string",
                  "name": "surname",
                  "type": "string"
                }
              ],
              "internalType": "struct Contract.HumanName",
              "name": "name",
              "type": "tuple"
            },
            {
              "components": [
                {
                  "internalType": "string",
                  "name": "phoneNumber",
                  "type": "string"
                },
                {
                  "internalType": "string",
                  "name": "email",
                  "type": "string"
                }
              ],
              "internalType": "struct Contract.ContactPoint",
              "name": "telecom",
              "type": "tuple"
            },
            {
              "internalType": "enum Contract.Gender",
              "name": "gender",
              "type": "uint8"
            },
            {
              "internalType": "uint256",
              "name": "birthDate",
              "type": "uint256"
            },
            {
              "components": [
                {
                  "internalType": "string",
                  "name": "use",
                  "type": "string"
                },
                {
                  "internalType": "string",
                  "name": "street",
                  "type": "string"
                },
                {
                  "internalType": "string",
                  "name": "city",
                  "type": "string"
                },
                {
                  "internalType": "string",
                  "name": "state",
                  "type": "string"
                },
                {
                  "internalType": "string",
                  "name": "postalCode",
                  "type": "string"
                },
                {
                  "internalType": "string",
                  "name": "country",
                  "type": "string"
                }
              ],
              "internalType": "struct Contract.PhysicalAddress",
              "name": "homeAddress",
              "type": "tuple"
            },
            {
              "internalType": "bool",
              "name": "deceasedBoolean",
              "type": "bool"
            },
            {
              "internalType": "uint256",
              "name": "deceasedDateTime",
              "type": "uint256"
            },
            {
              "internalType": "bool",
              "name": "multipleBirthBoolean",
              "type": "bool"
            },
            {
              "internalType": "uint256",
              "name": "multipleBirthInteger",
              "type": "uint256"
            },
            {
              "components": [
                {
                  "internalType": "string[]",
                  "name": "languages",
                  "type": "string[]"
                },
                {
                  "internalType": "string",
                  "name": "preferred",
                  "type": "string"
                }
              ],
              "internalType": "struct Contract.Communication",
              "name": "communication",
              "type": "tuple"
            },
            {
              "internalType": "address",
              "name": "generalPractitioner",
              "type": "address"
            },
            {
              "internalType": "address",
              "name": "managingOrganisation",
              "type": "address"
            },
            {
              "internalType": "bool",
              "name": "exists",
              "type": "bool"
            }
          ],
          "internalType": "struct Contract.Patient",
          "name": "data",
          "type": "tuple"
        }
      ],
      "name": "addPatient",
      "outputs": [],
      "stateMutability": "nonpayable",
      "type": "function"
    },
    {
      "inputs": [
        {
          "components": [
            {
              "internalType": "address",
              "name": "patientId",
              "type": "address"
            },
            {
              "internalType": "string",
              "name": "recordType",
              "type": "string"
            },
            {
              "internalType": "uint256",
              "name": "timestamp",
              "type": "uint256"
            },
            {
              "internalType": "string",
              "name": "diagnosis",
              "type": "string"
            },
            {
              "internalType": "string",
              "name": "treatment",
              "type": "string"
            }
          ],
          "internalType": "struct Contract.MedicalRecord",
          "name": "_record",
          "type": "tuple"
        }
      ],
      "name": "addMedicalRecord",
      "outputs": [],
      "stateMutability": "nonpayable",
      "type": "function"
    },
    {
      "inputs": [
        {
          "internalType": "address",
          "name": "id",
          "type": "address"
        }
      ],
      "name": "viewMedicalRecord",
      "outputs": [
        {
          "components": [
            {
              "internalType": "address",
              "name": "patientId",
              "type": "address"
            },
            {
              "internalType": "string",
              "name": "recordType",
              "type": "string"
            },
            {
              "internalType": "uint256",
              "name": "timestamp",
              "type": "uint256"
            },
            {
              "internalType": "string",
              "name": "diagnosis",
              "type": "string"
            },
            {
              "internalType": "string",
              "name": "treatment",
              "type": "string"
            }
          ],
          "internalType": "struct Contract.MedicalRecord[]",
          "name": "",
          "type": "tuple[]"
        }
      ],
      "stateMutability": "view",
      "type": "function",
      "constant": true
    }
  ],
  "bytecode": "0x60806040523480156200001157600080fd5b50600d80546001600160a01b0319163390811790915562000035906000906200003b565b62000144565b620000478282620000bf565b156200009a5760405162461bcd60e51b815260206004820152601f60248201527f526f6c65733a206163636f756e7420616c72656164792068617320726f6c650060448201526064015b60405180910390fd5b6001600160a01b0316600090815260209190915260409020805460ff19166001179055565b60006001600160a01b038216620001245760405162461bcd60e51b815260206004820152602260248201527f526f6c65733a206163636f756e7420697320746865207a65726f206164647265604482015261737360f01b606482015260840162000091565b506001600160a01b03166000908152602091909152604090205460ff1690565b6145e380620001546000396000f3fe608060405234801561001057600080fd5b50600436106101da5760003560e01c806394a1162c11610104578063cc572914116100a2578063dd9243d811610071578063dd9243d81461042b578063ddf8f98b14610433578063e33220d014610444578063ea345f691461045757600080fd5b8063cc572914146103d2578063d2fce6cc146103f2578063d4fd45c414610405578063da6623341461041857600080fd5b8063b48f3cab116100de578063b48f3cab1461038f578063b771e51e146103a4578063be956873146103b7578063c0936832146103ca57600080fd5b806394a1162c1461034357806397a08aca14610367578063b082b9c71461038757600080fd5b80636052f8251161017c57806372a094591161014b57806372a09459146102f657806389f5ffc7146103085780638f9c79ed1461031b57806392bed5ce1461032e57600080fd5b80636052f82514610280578063657a2512146102a05780636d4ce63c146102d0578063720d5b4b146102d657600080fd5b80632040e86f116101b85780632040e86f1461023157806324e9480e146102445780634914cf09146102555780635ca60edb1461026857600080fd5b8063047f66c3146101df5780631c7fb129146101f45780631ce8e4551461021e575b600080fd5b6101f26101ed3660046136e9565b61046a565b005b600f546001600160a01b03165b6040516001600160a01b0390911681526020015b60405180910390f35b61020161022c36600461370b565b61048c565b6101f261023f3660046139af565b6104b6565b600d546001600160a01b0316610201565b61020161026336600461370b565b6106d0565b6102706106e0565b6040519015158152602001610215565b61029361028e3660046136e9565b6106f2565b6040516102159190613aa7565b6101f26102ae3660046136e9565b600f80546001600160a01b0319166001600160a01b0392909216919091179055565b33610201565b6102e96102e43660046136e9565b61093d565b6040516102159190613b69565b6009545b604051908152602001610215565b6102fa6103163660046136e9565b6109ac565b6102fa6103293660046136e9565b610a15565b610336610a6f565b6040516102159190613cf7565b61035661035136600461370b565b61126f565b604051610215959493929190613dcc565b61037a6103753660046136e9565b611453565b6040516102159190613e28565b6008546102fa565b6103976118b0565b6040516102159190613e7d565b6101f26103b2366004614038565b61196e565b6102e96103c53660046136e9565b611c14565b610270611c21565b6103e56103e03660046136e9565b611c2e565b604051610215919061414e565b6101f26104003660046136e9565b612481565b6103366104133660046136e9565b61252c565b61020161042636600461370b565b612d2a565b610397612d3a565b600e546001600160a01b0316610201565b6101f2610452366004614294565b612d9a565b6101f2610465366004614373565b612f81565b600e80546001600160a01b0319166001600160a01b0392909216919091179055565b600a818154811061049c57600080fd5b6000918252602090912001546001600160a01b0316905081565b6104c160003361329e565b15156001146105225760405162461bcd60e51b815260206004820152602260248201527f4f6e6c792043656e7472616c20417574686f726974792043616e20446f205468604482015261185d60f21b60648201526084015b60405180910390fd5b61052d60003361329e565b15156001146105705760405162461bcd60e51b815260206004820152600f60248201526e4f6e6c7920666f722041646d696e7360881b6044820152606401610519565b80516001600160a01b039081166000908152600460209081526040909120835181546001600160a01b03191693169290921782558083015180516105ba926001850192019061339d565b506040820151600282015560608201518051805160038401916105e29183916020019061339d565b5060208281015180516105fb926001850192019061339d565b506040820151805161061791600284019160209091019061339d565b506060820151805161063391600384019160209091019061339d565b506080820151805161064f91600484019160209091019061339d565b5060a0820151805161066b91600584019160209091019061339d565b5050825160088054600180820183556000929092527ff3f7a9fe364faab93b216da50a3214154f22a0a2b415b23a84c8169e8b636ee30180546001600160a01b0319166001600160a01b039093169290921790915583516106cc9250613321565b5050565b6008818154811061049c57600080fd5b60006106ed60013361329e565b905090565b6001600160a01b0381166000908152600760209081526040808320805482518185028101850190935280835260609492939192909184015b828210156109325760008481526020908190206040805160a081019091526005850290910180546001600160a01b031682526001810180549293919291840191610773906144f0565b80601f016020809104026020016040519081016040528092919081815260200182805461079f906144f0565b80156107ec5780601f106107c1576101008083540402835291602001916107ec565b820191906000526020600020905b8154815290600101906020018083116107cf57829003601f168201915b505050505081526020016002820154815260200160038201805461080f906144f0565b80601f016020809104026020016040519081016040528092919081815260200182805461083b906144f0565b80156108885780601f1061085d57610100808354040283529160200191610888565b820191906000526020600020905b81548152906001019060200180831161086b57829003601f168201915b505050505081526020016004820180546108a1906144f0565b80601f01602080910402602001604051908101604052809291908181526020018280546108cd906144f0565b801561091a5780601f106108ef5761010080835404028352916020019161091a565b820191906000526020600020905b8154815290600101906020018083116108fd57829003601f168201915b5050505050815250508152602001906001019061072a565b505050509050919050565b606061094a60038361329e565b61098f5760405162461bcd60e51b81526020600482015260166024820152754f6e6c7920666f722050726163746974696f6e65727360501b6044820152606401610519565b50506040805180820190915260018152603160f81b602082015290565b6000805b6009548111610a0c57826001600160a01b0316600982815481106109d6576109d661452b565b6000918252602090912001546001600160a01b031614156109fa5750600192915050565b80610a0481614541565b9150506109b0565b50600092915050565b6000805b600a548111610a0c57600a8181548110610a3557610a3561452b565b6000918252602090912001546001600160a01b0384811691161415610a5d5750600192915050565b80610a6781614541565b915050610a19565b610a77613421565b600f546001600160a01b039081166000908152600560209081526040918290208251610100810184528154909416845282518084019093526001810180549193928501929182908290610ac9906144f0565b80601f0160208091040260200160405190810160405280929190818152602001828054610af5906144f0565b8015610b425780601f10610b1757610100808354040283529160200191610b42565b820191906000526020600020905b815481529060010190602001808311610b2557829003601f168201915b50505050508152602001600182018054610b5b906144f0565b80601f0160208091040260200160405190810160405280929190818152602001828054610b87906144f0565b8015610bd45780601f10610ba957610100808354040283529160200191610bd4565b820191906000526020600020905b815481529060010190602001808311610bb757829003601f168201915b505050505081525050815260200160038201604051806040016040529081600082018054610c01906144f0565b80601f0160208091040260200160405190810160405280929190818152602001828054610c2d906144f0565b8015610c7a5780601f10610c4f57610100808354040283529160200191610c7a565b820191906000526020600020905b815481529060010190602001808311610c5d57829003601f168201915b50505050508152602001600182018054610c93906144f0565b80601f0160208091040260200160405190810160405280929190818152602001828054610cbf906144f0565b8015610d0c5780601f10610ce157610100808354040283529160200191610d0c565b820191906000526020600020905b815481529060010190602001808311610cef57829003601f168201915b5050505050815250508152602001600582016040518060c0016040529081600082018054610d39906144f0565b80601f0160208091040260200160405190810160405280929190818152602001828054610d65906144f0565b8015610db25780601f10610d8757610100808354040283529160200191610db2565b820191906000526020600020905b815481529060010190602001808311610d9557829003601f168201915b50505050508152602001600182018054610dcb906144f0565b80601f0160208091040260200160405190810160405280929190818152602001828054610df7906144f0565b8015610e445780601f10610e1957610100808354040283529160200191610e44565b820191906000526020600020905b815481529060010190602001808311610e2757829003601f168201915b50505050508152602001600282018054610e5d906144f0565b80601f0160208091040260200160405190810160405280929190818152602001828054610e89906144f0565b8015610ed65780601f10610eab57610100808354040283529160200191610ed6565b820191906000526020600020905b815481529060010190602001808311610eb957829003601f168201915b50505050508152602001600382018054610eef906144f0565b80601f0160208091040260200160405190810160405280929190818152602001828054610f1b906144f0565b8015610f685780601f10610f3d57610100808354040283529160200191610f68565b820191906000526020600020905b815481529060010190602001808311610f4b57829003601f168201915b50505050508152602001600482018054610f81906144f0565b80601f0160208091040260200160405190810160405280929190818152602001828054610fad906144f0565b8015610ffa5780601f10610fcf57610100808354040283529160200191610ffa565b820191906000526020600020905b815481529060010190602001808311610fdd57829003601f168201915b50505050508152602001600582018054611013906144f0565b80601f016020809104026020016040519081016040528092919081815260200182805461103f906144f0565b801561108c5780601f106110615761010080835404028352916020019161108c565b820191906000526020600020905b81548152906001019060200180831161106f57829003601f168201915b505050919092525050508152600b82015460209091019060ff1660038111156110b7576110b7613c49565b60038111156110c8576110c8613c49565b8152602001600c8201548152602001600d820160405180604001604052908160008201805480602002602001604051908101604052809291908181526020016000905b828210156111b757838290600052602060002001805461112a906144f0565b80601f0160208091040260200160405190810160405280929190818152602001828054611156906144f0565b80156111a35780601f10611178576101008083540402835291602001916111a3565b820191906000526020600020905b81548152906001019060200180831161118657829003601f168201915b50505050508152602001906001019061110b565b5050505081526020016001820180546111cf906144f0565b80601f01602080910402602001604051908101604052809291908181526020018280546111fb906144f0565b80156112485780601f1061121d57610100808354040283529160200191611248565b820191906000526020600020905b81548152906001019060200180831161122b57829003601f168201915b505050919092525050508152600f91909101546001600160a01b0316602090910152919050565b600b818154811061127f57600080fd5b6000918252602090912060059091020180546001820180546001600160a01b039092169350906112ae906144f0565b80601f01602080910402602001604051908101604052809291908181526020018280546112da906144f0565b80156113275780601f106112fc57610100808354040283529160200191611327565b820191906000526020600020905b81548152906001019060200180831161130a57829003601f168201915b505050505090806002015490806003018054611342906144f0565b80601f016020809104026020016040519081016040528092919081815260200182805461136e906144f0565b80156113bb5780601f10611390576101008083540402835291602001916113bb565b820191906000526020600020905b81548152906001019060200180831161139e57829003601f168201915b5050505050908060040180546113d0906144f0565b80601f01602080910402602001604051908101604052809291908181526020018280546113fc906144f0565b80156114495780601f1061141e57610100808354040283529160200191611449565b820191906000526020600020905b81548152906001019060200180831161142c57829003601f168201915b5050505050905085565b61145b6134c6565b6001600160a01b03808316600090815260046020908152604091829020825160808101909352805490931682526001830180549293929184019161149e906144f0565b80601f01602080910402602001604051908101604052809291908181526020018280546114ca906144f0565b80156115175780601f106114ec57610100808354040283529160200191611517565b820191906000526020600020905b8154815290600101906020018083116114fa57829003601f168201915b5050505050815260200160028201548152602001600382016040518060c001604052908160008201805461154a906144f0565b80601f0160208091040260200160405190810160405280929190818152602001828054611576906144f0565b80156115c35780601f10611598576101008083540402835291602001916115c3565b820191906000526020600020905b8154815290600101906020018083116115a657829003601f168201915b505050505081526020016001820180546115dc906144f0565b80601f0160208091040260200160405190810160405280929190818152602001828054611608906144f0565b80156116555780601f1061162a57610100808354040283529160200191611655565b820191906000526020600020905b81548152906001019060200180831161163857829003601f168201915b5050505050815260200160028201805461166e906144f0565b80601f016020809104026020016040519081016040528092919081815260200182805461169a906144f0565b80156116e75780601f106116bc576101008083540402835291602001916116e7565b820191906000526020600020905b8154815290600101906020018083116116ca57829003601f168201915b50505050508152602001600382018054611700906144f0565b80601f016020809104026020016040519081016040528092919081815260200182805461172c906144f0565b80156117795780601f1061174e57610100808354040283529160200191611779565b820191906000526020600020905b81548152906001019060200180831161175c57829003601f168201915b50505050508152602001600482018054611792906144f0565b80601f01602080910402602001604051908101604052809291908181526020018280546117be906144f0565b801561180b5780601f106117e05761010080835404028352916020019161180b565b820191906000526020600020905b8154815290600101906020018083116117ee57829003601f168201915b50505050508152602001600582018054611824906144f0565b80601f0160208091040260200160405190810160405280929190818152602001828054611850906144f0565b801561189d5780601f106118725761010080835404028352916020019161189d565b820191906000526020600020905b81548152906001019060200180831161188057829003601f168201915b5050509190925250505090525092915050565b60606118bd60003361329e565b151560011461190e5760405162461bcd60e51b815260206004820152601a60248201527f4f6e6c7920666f722043656e7472616c20417574686f726974790000000000006044820152606401610519565b600880548060200260200160405190810160405280929190818152602001828054801561196457602002820191906000526020600020905b81546001600160a01b03168152600190910190602001808311611946575b5050505050905090565b61197960013361329e565b151560011461199a5760405162461bcd60e51b81526004016105199061456a565b6119a560013361329e565b15156001146119e85760405162461bcd60e51b815260206004820152600f60248201526e4f6e6c7920666f722041646d696e7360881b6044820152606401610519565b80516001600160a01b039081166000908152600560209081526040909120835181546001600160a01b0319169316929092178255808301518051805191926001850192611a38928492019061339d565b506020828101518051611a51926001850192019061339d565b5050506040820151805180516003840191611a719183916020019061339d565b506020828101518051611a8a926001850192019061339d565b50505060a0820151600c8201556080820151600b8201805460ff19166001836003811115611aba57611aba613c49565b02179055506060820151805180516005840191611adc9183916020019061339d565b506020828101518051611af5926001850192019061339d565b5060408201518051611b1191600284019160209091019061339d565b5060608201518051611b2d91600384019160209091019061339d565b5060808201518051611b4991600484019160209091019061339d565b5060a08201518051611b6591600584019160209091019061339d565b50505060c082015180518051600d840191611b85918391602001906134fc565b506020828101518051611b9e926001850192019061339d565b50505060e0820151600f820180546001600160a01b039283166001600160a01b0319918216179091558351600980546001810182556000919091527f6e1540171b6c0c960b71a7020d9f60077f6af931a8bbf590da0223dacf75c7af01805491909316911617905581516106cc90600290613321565b606061094a60028361329e565b60006106ed60003261329e565b611c36613555565b6001600160a01b0380831660009081526006602090815260409182902082516101c0810184528154909416845282518084019093526001810180549193928501929182908290611c85906144f0565b80601f0160208091040260200160405190810160405280929190818152602001828054611cb1906144f0565b8015611cfe5780601f10611cd357610100808354040283529160200191611cfe565b820191906000526020600020905b815481529060010190602001808311611ce157829003601f168201915b50505050508152602001600182018054611d17906144f0565b80601f0160208091040260200160405190810160405280929190818152602001828054611d43906144f0565b8015611d905780601f10611d6557610100808354040283529160200191611d90565b820191906000526020600020905b815481529060010190602001808311611d7357829003601f168201915b505050505081525050815260200160038201604051806040016040529081600082018054611dbd906144f0565b80601f0160208091040260200160405190810160405280929190818152602001828054611de9906144f0565b8015611e365780601f10611e0b57610100808354040283529160200191611e36565b820191906000526020600020905b815481529060010190602001808311611e1957829003601f168201915b50505050508152602001600182018054611e4f906144f0565b80601f0160208091040260200160405190810160405280929190818152602001828054611e7b906144f0565b8015611ec85780601f10611e9d57610100808354040283529160200191611ec8565b820191906000526020600020905b815481529060010190602001808311611eab57829003601f168201915b505050919092525050508152600582015460209091019060ff166003811115611ef357611ef3613c49565b6003811115611f0457611f04613c49565b815260200160068201548152602001600782016040518060c0016040529081600082018054611f32906144f0565b80601f0160208091040260200160405190810160405280929190818152602001828054611f5e906144f0565b8015611fab5780601f10611f8057610100808354040283529160200191611fab565b820191906000526020600020905b815481529060010190602001808311611f8e57829003601f168201915b50505050508152602001600182018054611fc4906144f0565b80601f0160208091040260200160405190810160405280929190818152602001828054611ff0906144f0565b801561203d5780601f106120125761010080835404028352916020019161203d565b820191906000526020600020905b81548152906001019060200180831161202057829003601f168201915b50505050508152602001600282018054612056906144f0565b80601f0160208091040260200160405190810160405280929190818152602001828054612082906144f0565b80156120cf5780601f106120a4576101008083540402835291602001916120cf565b820191906000526020600020905b8154815290600101906020018083116120b257829003601f168201915b505050505081526020016003820180546120e8906144f0565b80601f0160208091040260200160405190810160405280929190818152602001828054612114906144f0565b80156121615780601f1061213657610100808354040283529160200191612161565b820191906000526020600020905b81548152906001019060200180831161214457829003601f168201915b5050505050815260200160048201805461217a906144f0565b80601f01602080910402602001604051908101604052809291908181526020018280546121a6906144f0565b80156121f35780601f106121c8576101008083540402835291602001916121f3565b820191906000526020600020905b8154815290600101906020018083116121d657829003601f168201915b5050505050815260200160058201805461220c906144f0565b80601f0160208091040260200160405190810160405280929190818152602001828054612238906144f0565b80156122855780601f1061225a57610100808354040283529160200191612285565b820191906000526020600020905b81548152906001019060200180831161226857829003601f168201915b505050919092525050508152600d82015460ff9081161515602080840191909152600e840154604080850191909152600f850154909216151560608085019190915260108501546080850152825160118601805493840282018301855293810183815260a090950194909392849284919060009085015b828210156123a857838290600052602060002001805461231b906144f0565b80601f0160208091040260200160405190810160405280929190818152602001828054612347906144f0565b80156123945780601f1061236957610100808354040283529160200191612394565b820191906000526020600020905b81548152906001019060200180831161237757829003601f168201915b5050505050815260200190600101906122fc565b5050505081526020016001820180546123c0906144f0565b80601f01602080910402602001604051908101604052809291908181526020018280546123ec906144f0565b80156124395780601f1061240e57610100808354040283529160200191612439565b820191906000526020600020905b81548152906001019060200180831161241c57829003601f168201915b50505091909252505050815260138201546001600160a01b0390811660208301526014909201549182166040820152600160a01b90910460ff16151560609091015292915050565b61248c60023361329e565b15156001146124dd5760405162461bcd60e51b815260206004820152601d60248201527f4f6e6c792050726163746974696f6e65722043616e20446f20546861740000006044820152606401610519565b6124e860038261329e565b151560011461046a5760405162461bcd60e51b815260206004820152601060248201526f1a5cc81b9bdd08184814185d1a595b9d60821b6044820152606401610519565b612534613421565b6001600160a01b038083166000908152600560209081526040918290208251610100810184528154909416845282518084019093526001810180549193928501929182908290612583906144f0565b80601f01602080910402602001604051908101604052809291908181526020018280546125af906144f0565b80156125fc5780601f106125d1576101008083540402835291602001916125fc565b820191906000526020600020905b8154815290600101906020018083116125df57829003601f168201915b50505050508152602001600182018054612615906144f0565b80601f0160208091040260200160405190810160405280929190818152602001828054612641906144f0565b801561268e5780601f106126635761010080835404028352916020019161268e565b820191906000526020600020905b81548152906001019060200180831161267157829003601f168201915b5050505050815250508152602001600382016040518060400160405290816000820180546126bb906144f0565b80601f01602080910402602001604051908101604052809291908181526020018280546126e7906144f0565b80156127345780601f1061270957610100808354040283529160200191612734565b820191906000526020600020905b81548152906001019060200180831161271757829003601f168201915b5050505050815260200160018201805461274d906144f0565b80601f0160208091040260200160405190810160405280929190818152602001828054612779906144f0565b80156127c65780601f1061279b576101008083540402835291602001916127c6565b820191906000526020600020905b8154815290600101906020018083116127a957829003601f168201915b5050505050815250508152602001600582016040518060c00160405290816000820180546127f3906144f0565b80601f016020809104026020016040519081016040528092919081815260200182805461281f906144f0565b801561286c5780601f106128415761010080835404028352916020019161286c565b820191906000526020600020905b81548152906001019060200180831161284f57829003601f168201915b50505050508152602001600182018054612885906144f0565b80601f01602080910402602001604051908101604052809291908181526020018280546128b1906144f0565b80156128fe5780601f106128d3576101008083540402835291602001916128fe565b820191906000526020600020905b8154815290600101906020018083116128e157829003601f168201915b50505050508152602001600282018054612917906144f0565b80601f0160208091040260200160405190810160405280929190818152602001828054612943906144f0565b80156129905780601f1061296557610100808354040283529160200191612990565b820191906000526020600020905b81548152906001019060200180831161297357829003601f168201915b505050505081526020016003820180546129a9906144f0565b80601f01602080910402602001604051908101604052809291908181526020018280546129d5906144f0565b8015612a225780601f106129f757610100808354040283529160200191612a22565b820191906000526020600020905b815481529060010190602001808311612a0557829003601f168201915b50505050508152602001600482018054612a3b906144f0565b80601f0160208091040260200160405190810160405280929190818152602001828054612a67906144f0565b8015612ab45780601f10612a8957610100808354040283529160200191612ab4565b820191906000526020600020905b815481529060010190602001808311612a9757829003601f168201915b50505050508152602001600582018054612acd906144f0565b80601f0160208091040260200160405190810160405280929190818152602001828054612af9906144f0565b8015612b465780601f10612b1b57610100808354040283529160200191612b46565b820191906000526020600020905b815481529060010190602001808311612b2957829003601f168201915b505050919092525050508152600b82015460209091019060ff166003811115612b7157612b71613c49565b6003811115612b8257612b82613c49565b8152602001600c8201548152602001600d820160405180604001604052908160008201805480602002602001604051908101604052809291908181526020016000905b82821015612c71578382906000526020600020018054612be4906144f0565b80601f0160208091040260200160405190810160405280929190818152602001828054612c10906144f0565b8015612c5d5780601f10612c3257610100808354040283529160200191612c5d565b820191906000526020600020905b815481529060010190602001808311612c4057829003601f168201915b505050505081526020019060010190612bc5565b505050508152602001600182018054612c89906144f0565b80601f0160208091040260200160405190810160405280929190818152602001828054612cb5906144f0565b8015612d025780601f10612cd757610100808354040283529160200191612d02565b820191906000526020600020905b815481529060010190602001808311612ce557829003601f168201915b505050919092525050508152600f91909101546001600160a01b031660209091015292915050565b6009818154811061049c57600080fd5b60606009805480602002602001604051908101604052809291908181526020018280548015611964576020028201919060005260206000209081546001600160a01b03168152600190910190602001808311611946575050505050905090565b612da560023361329e565b1515600114612df65760405162461bcd60e51b815260206004820152601d60248201527f4f6e6c792050726163746974696f6e65722043616e20446f20546861740000006044820152606401610519565b4260408281019190915281516001600160a01b0390811660009081526007602090815292812080546001808201835591835291849020855160059093020180546001600160a01b031916929093169190911782558284015180518594612e6093850192019061339d565b506040820151600282015560608201518051612e8691600384019160209091019061339d565b5060808201518051612ea291600484019160209091019061339d565b5050600b8054600181018255600091909152825160059091027f0175b7a638427703f0dbe7bb9bbf987a2551717b34e79f33b5b1008d1fa01db9810180546001600160a01b039093166001600160a01b03199093169290921782556020808501518051869550612f39937f0175b7a638427703f0dbe7bb9bbf987a2551717b34e79f33b5b1008d1fa01dba0192919091019061339d565b506040820151600282015560608201518051612f5f91600384019160209091019061339d565b5060808201518051612f7b91600484019160209091019061339d565b50505050565b612f8c60013361329e565b1515600114612fad5760405162461bcd60e51b81526004016105199061456a565b612fb860013361329e565b15156001146130095760405162461bcd60e51b815260206004820152601c60248201527f4f6e6c7920666f72204f7267616e69736174696f6e2041646d696e73000000006044820152606401610519565b80516001600160a01b039081166000908152600660209081526040909120835181546001600160a01b0319169316929092178255808301518051805191926001850192613059928492019061339d565b506020828101518051613072926001850192019061339d565b50505060408201518051805160038401916130929183916020019061339d565b5060208281015180516130ab926001850192019061339d565b505050608082015160068201556101408201518051805160118401916130d6918391602001906134fc565b5060208281015180516130ef926001850192019061339d565b505050606082015160058201805460ff1916600183600381111561311557613115613c49565b021790555060a08201518051805160078401916131379183916020019061339d565b506020828101518051613150926001850192019061339d565b506040820151805161316c91600284019160209091019061339d565b506060820151805161318891600384019160209091019061339d565b50608082015180516131a491600484019160209091019061339d565b5060a082015180516131c091600584019160209091019061339d565b50505060c0820151600d8201805491151560ff1992831617905560e0830151600e830155610100830151600f830180549115159190921617905561012082015160108201556101608201516013820180546001600160a01b039283166001600160a01b0319918216179091556101808401516014840180546001600160a81b03191691841691909117600160a01b1790558351600a80546001810182556000919091527fc65a7bb8d6351c1cf70c95a316cc6a92839c986682d98bc35f958f4883f9d2a801805491909316911617905581516106cc90600390613321565b60006001600160a01b0382166133015760405162461bcd60e51b815260206004820152602260248201527f526f6c65733a206163636f756e7420697320746865207a65726f206164647265604482015261737360f01b6064820152608401610519565b506001600160a01b03166000908152602091909152604090205460ff1690565b61332b828261329e565b156133785760405162461bcd60e51b815260206004820152601f60248201527f526f6c65733a206163636f756e7420616c72656164792068617320726f6c65006044820152606401610519565b6001600160a01b0316600090815260209190915260409020805460ff19166001179055565b8280546133a9906144f0565b90600052602060002090601f0160209004810192826133cb5760008555613411565b82601f106133e457805160ff1916838001178555613411565b82800160010185558215613411579182015b828111156134115782518255916020019190600101906133f6565b5061341d929150613628565b5090565b60405180610100016040528060006001600160a01b0316815260200161345a604051806040016040528060608152602001606081525090565b815260200161347c604051806040016040528060608152602001606081525090565b815260200161348961363d565b815260200160008152602001600081526020016134b9604051806040016040528060608152602001606081525090565b8152600060209091015290565b604051806080016040528060006001600160a01b0316815260200160608152602001600081526020016134f761363d565b905290565b828054828255906000526020600020908101928215613549579160200282015b82811115613549578251805161353991849160209091019061339d565b509160200191906001019061351c565b5061341d929150613673565b604051806101c0016040528060006001600160a01b0316815260200161358e604051806040016040528060608152602001606081525090565b81526020016135b0604051806040016040528060608152602001606081525090565b815260200160008152602001600081526020016135cb61363d565b8152602001600015158152602001600081526020016000151581526020016000815260200161360d604051806040016040528060608152602001606081525090565b81526000602082018190526040820181905260609091015290565b5b8082111561341d5760008155600101613629565b6040518060c001604052806060815260200160608152602001606081526020016060815260200160608152602001606081525090565b8082111561341d5760006136878282613690565b50600101613673565b50805461369c906144f0565b6000825580601f106136ac575050565b601f0160209004906000526020600020908101906136ca9190613628565b50565b80356001600160a01b03811681146136e457600080fd5b919050565b6000602082840312156136fb57600080fd5b613704826136cd565b9392505050565b60006020828403121561371d57600080fd5b5035919050565b634e487b7160e01b600052604160045260246000fd5b60405160c081016001600160401b038111828210171561375c5761375c613724565b60405290565b604051608081016001600160401b038111828210171561375c5761375c613724565b604080519081016001600160401b038111828210171561375c5761375c613724565b60405161010081016001600160401b038111828210171561375c5761375c613724565b60405160a081016001600160401b038111828210171561375c5761375c613724565b6040516101c081016001600160401b038111828210171561375c5761375c613724565b604051601f8201601f191681016001600160401b038111828210171561383657613836613724565b604052919050565b600082601f83011261384f57600080fd5b81356001600160401b0381111561386857613868613724565b61387b601f8201601f191660200161380e565b81815284602083860101111561389057600080fd5b816020850160208301376000918101602001919091529392505050565b600060c082840312156138bf57600080fd5b6138c761373a565b905081356001600160401b03808211156138e057600080fd5b6138ec8583860161383e565b8352602084013591508082111561390257600080fd5b61390e8583860161383e565b6020840152604084013591508082111561392757600080fd5b6139338583860161383e565b6040840152606084013591508082111561394c57600080fd5b6139588583860161383e565b6060840152608084013591508082111561397157600080fd5b61397d8583860161383e565b608084015260a084013591508082111561399657600080fd5b506139a38482850161383e565b60a08301525092915050565b6000602082840312156139c157600080fd5b81356001600160401b03808211156139d857600080fd5b90830190608082860312156139ec57600080fd5b6139f4613762565b6139fd836136cd565b8152602083013582811115613a1157600080fd5b613a1d8782860161383e565b60208301525060408301356040820152606083013582811115613a3f57600080fd5b613a4b878286016138ad565b60608301525095945050505050565b6000815180845260005b81811015613a8057602081850181015186830182015201613a64565b81811115613a92576000602083870101525b50601f01601f19169290920160200192915050565b60006020808301818452808551808352604092508286019150828160051b87010184880160005b83811015613b5b57888303603f19018552815180516001600160a01b031684528781015160a089860181905290613b0782870182613a5a565b915050878201518886015260608083015186830382880152613b298382613a5a565b9250505060808083015192508582038187015250613b478183613a5a565b968901969450505090860190600101613ace565b509098975050505050505050565b6020815260006137046020830184613a5a565b6000815160408452613b916040850182613a5a565b905060208301518482036020860152613baa8282613a5a565b95945050505050565b6000815160c08452613bc860c0850182613a5a565b905060208301518482036020860152613be18282613a5a565b91505060408301518482036040860152613bfb8282613a5a565b91505060608301518482036060860152613c158282613a5a565b91505060808301518482036080860152613c2f8282613a5a565b91505060a083015184820360a0860152613baa8282613a5a565b634e487b7160e01b600052602160045260246000fd5b60048110613c7d57634e487b7160e01b600052602160045260246000fd5b9052565b60006040830182516040855281815180845260608701915060608160051b88010193506020808401935060005b82811015613cdc57605f19898703018452613cca868651613a5a565b95509381019392810192600101613cae565b5080870151935087850381890152505050613baa8282613a5a565b60208152613d116020820183516001600160a01b03169052565b60006020830151610100806040850152613d2f610120850183613b7c565b91506040850151601f1980868503016060870152613d4d8483613b7c565b93506060870151915080868503016080870152613d6a8483613bb3565b935060808701519150613d8060a0870183613c5f565b60a087015160c087015260c08701519150808685030160e087015250613da68382613c81565b92505060e0850151613dc2828601826001600160a01b03169052565b5090949350505050565b6001600160a01b038616815260a060208201819052600090613df090830187613a5a565b8560408401528281036060840152613e088186613a5a565b90508281036080840152613e1c8185613a5a565b98975050505050505050565b602080825282516001600160a01b03168282015282015160806040830152600090613e5660a0840182613a5a565b9050604084015160608401526060840151601f19848303016080850152613baa8282613bb3565b6020808252825182820181905260009190848201906040850190845b81811015613ebe5783516001600160a01b031683529284019291840191600101613e99565b50909695505050505050565b600060408284031215613edc57600080fd5b613ee4613784565b905081356001600160401b0380821115613efd57600080fd5b613f098583860161383e565b83526020840135915080821115613f1f57600080fd5b50613f2c8482850161383e565b60208301525092915050565b8035600481106136e457600080fd5b600060408284031215613f5957600080fd5b613f61613784565b905081356001600160401b0380821115613f7a57600080fd5b818401915084601f830112613f8e57600080fd5b8135602082821115613fa257613fa2613724565b8160051b613fb182820161380e565b9283528481018201928281019089851115613fcb57600080fd5b83870192505b8483101561400757823586811115613fe95760008081fd5b613ff78b86838b010161383e565b8352509183019190830190613fd1565b875250508581013593508284111561401e57600080fd5b61402a8785880161383e565b818601525050505092915050565b60006020828403121561404a57600080fd5b81356001600160401b038082111561406157600080fd5b90830190610100828603121561407657600080fd5b61407e6137a6565b614087836136cd565b815260208301358281111561409b57600080fd5b6140a787828601613eca565b6020830152506040830135828111156140bf57600080fd5b6140cb87828601613eca565b6040830152506060830135828111156140e357600080fd5b6140ef878286016138ad565b60608301525061410160808401613f38565b608082015260a083013560a082015260c08301358281111561412257600080fd5b61412e87828601613f47565b60c08301525061414060e084016136cd565b60e082015295945050505050565b602081526141686020820183516001600160a01b03169052565b600060208301516101c08060408501526141866101e0850183613b7c565b91506040850151601f19808685030160608701526141a48483613b7c565b9350606087015191506141ba6080870183613c5f565b608087015160a087015260a08701519150808685030160c08701526141df8483613bb3565b935060c087015191506141f660e087018315159052565b60e087015161010087810191909152870151915061012061421a8188018415159052565b808801519250506101408281880152808801519250506101608187860301818801526142468584613c81565b94508088015192505050610180614267818701836001600160a01b03169052565b86015190506101a0614283868201836001600160a01b03169052565b860151801515838701529050613dc2565b6000602082840312156142a657600080fd5b81356001600160401b03808211156142bd57600080fd5b9083019060a082860312156142d157600080fd5b6142d96137c9565b6142e2836136cd565b81526020830135828111156142f657600080fd5b6143028782860161383e565b6020830152506040830135604082015260608301358281111561432457600080fd5b6143308782860161383e565b60608301525060808301358281111561434857600080fd5b6143548782860161383e565b60808301525095945050505050565b803580151581146136e457600080fd5b60006020828403121561438557600080fd5b81356001600160401b038082111561439c57600080fd5b908301906101c082860312156143b157600080fd5b6143b96137eb565b6143c2836136cd565b81526020830135828111156143d657600080fd5b6143e287828601613eca565b6020830152506040830135828111156143fa57600080fd5b61440687828601613eca565b60408301525061441860608401613f38565b60608201526080830135608082015260a08301358281111561443957600080fd5b614445878286016138ad565b60a08301525061445760c08401614363565b60c082015260e083013560e0820152610100614474818501614363565b908201526101208381013590820152610140808401358381111561449757600080fd5b6144a388828701613f47565b82840152505061016091506144b98284016136cd565b8282015261018091506144cd8284016136cd565b828201526101a091506144e1828401614363565b91810191909152949350505050565b600181811c9082168061450457607f821691505b6020821081141561452557634e487b7160e01b600052602260045260246000fd5b50919050565b634e487b7160e01b600052603260045260246000fd5b600060001982141561456357634e487b7160e01b600052601160045260246000fd5b5060010190565b60208082526023908201527f4f6e6c79204f7267616e69736174696f6e2041646d696e2043616e20446f20546040820152621a185d60ea1b60608201526080019056fea2646970667358221220f135fb8635a559849766e023660b3cf8599d92a2a2baee27edc7adcb7d388ef264736f6c634300080b0033",
  "immutableReferences": {},
  "source": "// SPDX-License-Identifier: MIT\npragma solidity >= 0.8.11;\n\ncontract Contract{\n\n    struct Role {\n        mapping (address => bool) bearer;\n    }\n    //Add a role to an account\n    function add(Role storage role, address account) internal {\n        require(!has(role, account), \"Roles: account already has role\");\n        role.bearer[account] = true;\n    }\n    //Remove a role from an account\n    function remove(Role storage role, address account) internal {\n        require(has(role, account), \"Roles: account does not have role\");\n        role.bearer[account] = false;\n    }\n    //Check if an account has a role\n    function has(Role storage role, address account) internal view returns (bool) {\n        require(account != address(0), \"Roles: account is the zero address\");\n        return role.bearer[account];\n    }\n\n    Role private centralAuthority;\n    Role private organisationAdmin;\n    Role private practitioner;\n    Role private patient;\n\n     /*\n        Modifiers\n    */\n\n    modifier onlyCentralAuthority(){\n        require(has(centralAuthority,msg.sender) == true, 'Only Central Authority Can Do That');\n        _;\n    }\n    modifier onlyOrganisationAdmin(){\n        require(has(organisationAdmin,msg.sender) == true, 'Only Organisation Admin Can Do That');\n        _;\n    }\n    modifier onlyPractitioner(){\n        require(has(practitioner,msg.sender) == true, 'Only Practitioner Can Do That');\n        _;\n    }\n    modifier onlyPatient(){\n        require(has(patient,msg.sender) == true, 'Only Patient Can Do That');\n        _;\n    }\n    \n    /*\n        General Information\n    */\n    struct HumanName{\n        string givenNames;\n        string surname;\n    }\n\n    struct ContactPoint{\n        string phoneNumber;\n        string email;\n    }\n    \n    struct PhysicalAddress{\n        string use;\n        string street;\n        string city;\n        string state;\n        string postalCode;\n        string country;\n    }\n\n    struct Communication{\n        string[] languages;\n        string preferred;\n    }\n\n    enum Gender{ MALE, FEMALE, OTHER, UNKNOWN }\n\n    struct Organisation{\n        address id;\n        string name;\n        uint dateJoined;\n        PhysicalAddress organisationAddress;\n    }\n    /*\n        Practitioner\n    */\n    struct Practitioner{\n        address id;\n        HumanName name;\n        ContactPoint telecom;\n        PhysicalAddress homeAddress;\n        Gender gender;\n        uint birthDate;\n        Communication Communication;\n        address memberOrgaisation;\n    }\n    \n    /*\n        Patient\n    */\n    struct Patient{\n        address id;\n        HumanName name;\n        ContactPoint telecom;       \n        Gender gender;\n        uint birthDate;\n        PhysicalAddress homeAddress; \n        bool deceasedBoolean;\n        uint deceasedDateTime;\n        bool multipleBirthBoolean;\n        uint multipleBirthInteger;\n        Communication communication;     \n        address generalPractitioner;\n        address managingOrganisation;\n        bool exists;\n    }\n\n    enum PatientContactRelationship {GUARDIAN, PARTNER, FRIEND, FAMILY, CAREGIVER}\n\n    struct Contact{\n        PatientContactRelationship relationship;\n        HumanName name;\n        ContactPoint telecom;\n        PhysicalAddress homeAddress;\n        Gender gender;\n    }\n\n    // Start of Medical Records\n    struct MedicalRecord{\n        address patientId;\n        string recordType;\n        uint timestamp;\n        string diagnosis;\n        string treatment;\n    }\n\n    mapping(address => Organisation) Organisations;\n    mapping(address => Practitioner) Practitioners;\n    mapping(address => Patient) Patients;\n    mapping(address => MedicalRecord[]) Records;\n\n    address[] public OrganisationList;\n    address[] public PractitionerList;\n    address[] public PatientList;\n    MedicalRecord[] public MedicalRecords;\n\n    address accountId;\n    address centralAuthorityID;\n    address get_patient_id;\n    address get_dr_id;\n\n    constructor() {\n        centralAuthorityID = msg.sender;\n        add(centralAuthority,centralAuthorityID);\n    }\n\n    //get Admin\n\n    function getCentralAuthority() external view returns(address){\n        return centralAuthorityID;\n    }\n  \n    function isCentralAuthority() external view returns(bool){\n        return has(centralAuthority,tx.origin);\n    }\n\n    function addOrganisation(Organisation memory data) external onlyCentralAuthority{\n        require(has(centralAuthority,msg.sender) == true, \"Only for Admins\");\n\n        Organisation storage organisationData = Organisations[data.id];\n        organisationData.id = data.id;\n        organisationData.name = data.name;\n        organisationData.dateJoined = data.dateJoined;\n        organisationData.organisationAddress = data.organisationAddress;\n\n        OrganisationList.push(data.id);\n        add(organisationAdmin,data.id);\n    }\n\n    function getOrganisation(address id) public view returns(Organisation memory){\n        return Organisations[id];\n    }\n\n    function getAllOrganisation() external view returns(address[] memory){\n        require(has(centralAuthority,msg.sender) == true, \"Only for Central Authority\");\n        return OrganisationList;\n    }\n\n    function isOrganisation() external view returns(bool){\n        return has(organisationAdmin,msg.sender);\n    }\n    /*\n\n        Practitioner\n\n    */\n    //Add Practitioner\n    function addPractitioner(Practitioner memory data) external onlyOrganisationAdmin{\n        require(has(organisationAdmin,msg.sender) == true, \"Only for Admins\");\n        Practitioner storage practitionerData = Practitioners[data.id];\n        practitionerData.id = data.id;\n        practitionerData.name = data.name;\n        practitionerData.telecom = data.telecom;\n        practitionerData.birthDate = data.birthDate;\n        practitionerData.gender = data.gender;\n        practitionerData.homeAddress = data.homeAddress;\n        practitionerData.Communication = data.Communication;\n        practitionerData.memberOrgaisation = data.memberOrgaisation;\n\n        PractitionerList.push(data.id);\n        add(practitioner,data.id);\n    }\n\n    // function updateInfo(address dr_id, string memory _drInfo_hash) public{\n    //     Practitioner storage drInfo = Practitioners[msg.sender];\n    //     drInfo.drHash = _drInfo_hash;\n    //     PractitionerList.push(dr_id);\n    // }\n\n    // function addPractitioner(address _newdr) external onlyAdmin() {\n    //     add(practitioner,_newdr);\n    // }\n\n    // function delDr(address _accid) external onlyAdmin(){\n    //     remove(practitioner,_accid);\n    // }\n\n    function get_drtid() public view returns(address){\n        return get_dr_id;\n    }\n\n    function search(address _id)public{\n        get_dr_id = _id;\n    }\n\n    function getDrInfo() public view returns(Practitioner memory){\n        return (Practitioners[get_dr_id]);\n    }\n\n    function getDr(address _id) public view returns(Practitioner memory){\n        return (Practitioners[_id]);\n    }\n\n    function isDr(address id) public view returns(string memory){\n        require(has(practitioner,id), \"Only for Practitioners\");\n        return \"1\";\n    }\n\n    function isPractitioner(address id) public view returns(int){\n        // require(practitioner.has(msg.sender), \"Only for Practitioners\");\n        for(uint i=0;i<=PractitionerList.length;i++){\n            if(PractitionerList[i] == id){\n                return 1;\n            }\n        }\n        return 0;\n    }\n\n    function getAllPractitioners() public view returns(address[] memory){\n        return(PractitionerList);\n    }\n\n    function getPractitionerCount() public view returns(uint){\n        return(PractitionerList.length);\n    }\n\n    function getOrganisationCount() public view returns(uint){\n        return(OrganisationList.length);\n    }\n\n    // function getAllDrDetails() onlyAdmin() public view returns(string[] memory) {\n    //     drIds =\n    //     return ['']\n    // }\n    /*\n            Patient\n\n    */\n    function isPat(address id) public view returns(string memory){\n        require(has(patient,id), \"Only for Practitioners\");\n        return \"1\";\n    }\n    // Check is patient\n    function isPatient(address id) public view returns(int){\n        for(uint i = 0 ;i<=PatientList.length;i++){\n            if(id == PatientList[i]){return 1;}\n        }\n        return 0;\n    }\n\n\n    // function addPatient(address _newpatient) external onl() {\n    //     add(patient,_newpatient);\n    // }\n\n    function addRec(address _patid) external onlyPractitioner{\n        require(has(patient,_patid) == true, \"is not a Patient\");\n        get_patient_id = _patid;\n    }\n    function viewPatRec(address _patid) public{\n        get_patient_id = _patid;\n    }\n\n    // function delPat(address _accid) external onlyAdmin(){\n    //     remove(patient,_accid);\n    // }\n\n    function get() public view  returns(address){\n        return msg.sender;\n    }\n\n    function get_patid() public view returns(address){\n        return get_patient_id;\n    }\n\n    function getPatInfo(address iD)public view returns(Patient memory){\n        return (Patients[iD]);\n    }\n\n    function addPatient(Patient memory data ) external onlyOrganisationAdmin{\n        require(has(organisationAdmin,msg.sender) == true, 'Only for Organisation Admins');\n        //require(Patients[data.id].exists == true, \"Patient already exists\");  \n        Patient storage patientData = Patients[data.id];\n        patientData.id = data.id;\n        patientData.name = data.name;\n        patientData.telecom = data.telecom;\n        patientData.birthDate = data.birthDate;\n        patientData.communication = data.communication;\n        patientData.gender = data.gender;\n        patientData.homeAddress = data.homeAddress;\n        patientData.deceasedBoolean = data.deceasedBoolean;\n        patientData.deceasedDateTime = data.deceasedDateTime;\n        patientData.multipleBirthBoolean = data.multipleBirthBoolean;\n        patientData.multipleBirthInteger = data.multipleBirthInteger;\n        patientData.generalPractitioner = data.generalPractitioner;\n        patientData.managingOrganisation = data.managingOrganisation;\n        patientData.exists = true;\n\n        PatientList.push(data.id);\n        add(patient,data.id);\n    }\n\n    /*\n        Medical Records\n    */\n\n    function addMedicalRecord(MedicalRecord memory _record) external onlyPractitioner{\n        //require(has(practitioner,msg.sender) == true, 'Only Practitioner Can Do That');\n        _record.timestamp=block.timestamp;\n        Records[_record.patientId].push(_record);\n        // record.recordType = _record.recordType;\n        // record.diagnosis = _record.diagnosis;\n        // record.treatment = _record.treatment;\n        // record.timestamp = block.timestamp;\n        MedicalRecords.push(_record);\n    }\n\n    function viewMedicalRecord(address id)public view returns(MedicalRecord[] memory){\n        return (Records[id]);\n    }\n\n   \n\n}\n\n",
  "sourcePath": "/Users/amrhoballah/Documents/GitHub/Algobucks/contracts/Contract.sol",
  "compiler": {
    "name": "solc",
    "version": "0.8.11+commit.d7f03943.Emscripten.clang"
  },
  "schemaVersion": "3.4.6",
  "updatedAt": "2022-04-27T00:22:20.992Z",
  "networkType": "ethereum",
  "devdoc": {
    "kind": "dev",
    "methods": {},
    "version": 1
  },
  "userdoc": {
    "kind": "user",
    "methods": {},
    "version": 1
  }
}