{
  "contractName": "Contract",
  "abi": [
    {
      "inputs": [],
      "stateMutability": "nonpayable",
      "type": "constructor"
    },
    {
      "inputs": [
        {
          "internalType": "address",
          "name": "newC",
          "type": "address"
        }
      ],
      "name": "authoriseContract",
      "outputs": [],
      "stateMutability": "nonpayable",
      "type": "function"
    },
    {
      "inputs": [
        {
          "internalType": "address",
          "name": "sender",
          "type": "address"
        }
      ],
      "name": "onlyCentralAuthorityE",
      "outputs": [
        {
          "internalType": "bool",
          "name": "",
          "type": "bool"
        }
      ],
      "stateMutability": "view",
      "type": "function",
      "constant": true
    },
    {
      "inputs": [
        {
          "internalType": "address",
          "name": "sender",
          "type": "address"
        }
      ],
      "name": "onlyOrganisationAdminE",
      "outputs": [
        {
          "internalType": "bool",
          "name": "",
          "type": "bool"
        }
      ],
      "stateMutability": "view",
      "type": "function",
      "constant": true
    },
    {
      "inputs": [
        {
          "internalType": "address",
          "name": "sender",
          "type": "address"
        }
      ],
      "name": "onlyPractitionerE",
      "outputs": [
        {
          "internalType": "bool",
          "name": "",
          "type": "bool"
        }
      ],
      "stateMutability": "view",
      "type": "function",
      "constant": true
    },
    {
      "inputs": [
        {
          "internalType": "address",
          "name": "sender",
          "type": "address"
        }
      ],
      "name": "onlyPatientE",
      "outputs": [
        {
          "internalType": "bool",
          "name": "",
          "type": "bool"
        }
      ],
      "stateMutability": "view",
      "type": "function",
      "constant": true
    },
    {
      "inputs": [
        {
          "internalType": "uint256",
          "name": "role",
          "type": "uint256"
        },
        {
          "internalType": "address",
          "name": "account",
          "type": "address"
        }
      ],
      "name": "addRole",
      "outputs": [],
      "stateMutability": "nonpayable",
      "type": "function"
    },
    {
      "inputs": [],
      "name": "getCentralAuthority",
      "outputs": [
        {
          "internalType": "address",
          "name": "",
          "type": "address"
        }
      ],
      "stateMutability": "view",
      "type": "function",
      "constant": true
    },
    {
      "inputs": [],
      "name": "isCentralAuthority",
      "outputs": [
        {
          "internalType": "bool",
          "name": "",
          "type": "bool"
        }
      ],
      "stateMutability": "view",
      "type": "function",
      "constant": true
    }
  ],
  "bytecode": "0x608060405234801561001057600080fd5b50600680546001600160a01b0319163390811790915561003290600290610037565b610123565b61004182826100ab565b156100865760405162461bcd60e51b815260206004820152601060248201526f4163636f756e742068617320726f6c6560801b60448201526064015b60405180910390fd5b6001600160a01b0316600090815260209190915260409020805460ff19166001179055565b60006001600160a01b0382166101035760405162461bcd60e51b815260206004820152601b60248201527f4163636f756e7420697320746865207a65726f20616464726573730000000000604482015260640161007d565b506001600160a01b03166000908152602091909152604090205460ff1690565b610496806101326000396000f3fe608060405234801561001057600080fd5b50600436106100885760003560e01c806373117b141161005b57806373117b14146100f6578063c09368321461010b578063cc5f099714610113578063ce9194ad1461012657600080fd5b806306d9c7c11461008d57806322e9259f146100b557806324e9480e146100c857806340e7f32f146100e3575b600080fd5b6100a061009b3660046103ea565b610139565b60405190151581526020015b60405180910390f35b6100a06100c33660046103ea565b610192565b6006546040516001600160a01b0390911681526020016100ac565b6100a06100f13660046103ea565b6101cc565b6101096101043660046103ea565b610206565b005b6100a0610254565b61010961012136600461040c565b610266565b6100a06101343660046103ea565b6102b6565b3360009081526001602052604081205460ff166101715760405162461bcd60e51b815260040161016890610438565b60405180910390fd5b61017c6004836102ec565b1561018957506001919050565b5060005b919050565b3360009081526001602052604081205460ff166101c15760405162461bcd60e51b815260040161016890610438565b61017c6002836102ec565b3360009081526001602052604081205460ff166101fb5760405162461bcd60e51b815260040161016890610438565b61017c6003836102ec565b6102116002336102ec565b61022d5760405162461bcd60e51b815260040161016890610438565b6001600160a01b03166000908152600160208190526040909120805460ff19169091179055565b60006102616002326102ec565b905090565b8161027a57610276600282610364565b5050565b816001141561028e57610276600382610364565b81600214156102a257610276600482610364565b816003141561027657610276600582610364565b3360009081526001602052604081205460ff166102e55760405162461bcd60e51b815260040161016890610438565b61017c6005835b60006001600160a01b0382166103445760405162461bcd60e51b815260206004820152601b60248201527f4163636f756e7420697320746865207a65726f206164647265737300000000006044820152606401610168565b506001600160a01b03166000908152602091909152604090205460ff1690565b61036e82826102ec565b156103ae5760405162461bcd60e51b815260206004820152601060248201526f4163636f756e742068617320726f6c6560801b6044820152606401610168565b6001600160a01b0316600090815260209190915260409020805460ff19166001179055565b80356001600160a01b038116811461018d57600080fd5b6000602082840312156103fc57600080fd5b610405826103d3565b9392505050565b6000806040838503121561041f57600080fd5b8235915061042f602084016103d3565b90509250929050565b6020808252600e908201526d139bdd08105d5d1a1bdc9a5cd95960921b60408201526060019056fea264697066735822122033c330c793709433dcad16ea934e9fcc01733b5578af37c771c6259eb803df1c64736f6c634300080b0033",
  "immutableReferences": {},
  "source": "// SPDX-License-Identifier: MIT\npragma solidity >= 0.8.11;\n\ncontract Contract{\n\n    Contract internal C;\n\n    mapping (address => bool) private authorisedContracts;\n\n    function authoriseContract(address newC) public {\n        require(has(centralAuthority, msg.sender),\"Not Authorised\");\n        authorisedContracts[newC] = true;\n    }\n\n    struct Role {\n        mapping (address => bool) bearer;\n    }\n    //Add a role to an account\n    function add(Role storage role, address account) internal {\n        require(!has(role, account), \"Account has role\");\n        role.bearer[account] = true;\n    }\n    //Remove a role from an account\n    function remove(Role storage role, address account) internal {\n        require(has(role, account), \"Account does not have role\");\n        role.bearer[account] = false;\n    }\n    //Check if an account has a role\n    function has(Role storage role, address account) internal view returns (bool) {\n        require(account != address(0), \"Account is the zero address\");\n        return role.bearer[account];\n    }\n\n    Role private centralAuthority;\n    Role private organisationAdmin;\n    Role private practitioner;\n    Role private patient;\n\n    modifier onlyAuthorisedContracts {\n        require(authorisedContracts[msg.sender],\"Not Authorised\");\n        _;\n    }\n    modifier onlyCentralAuthority(){\n        require(C.onlyCentralAuthorityE(msg.sender), 'Not Organisation Admin');\n        _;\n    }\n    modifier onlyOrganisationAdmin(){\n        require(C.onlyOrganisationAdminE(msg.sender), 'Not Organisation Admin');\n        _;\n    }\n    modifier onlyPractitioner(){\n        require(C.onlyPractitionerE(msg.sender), 'Not Practitioner');\n        _;\n    }\n    modifier onlyPatient(){\n        require(C.onlyPatientE(msg.sender), 'Not Patient');\n        _;\n    }\n\n    function onlyCentralAuthorityE(address sender) external onlyAuthorisedContracts view returns (bool){\n        if(has(centralAuthority,sender)){\n            return true;\n        }\n        return false;\n    }\n    function onlyOrganisationAdminE(address sender) external onlyAuthorisedContracts view returns (bool){\n        if(has(organisationAdmin,sender)){\n            return true;\n        }\n        return false;\n    }\n    function onlyPractitionerE(address sender) external onlyAuthorisedContracts view returns (bool){\n        if(has(practitioner,sender)){\n            return true;\n        }\n        return false;\n    }\n    function onlyPatientE(address sender) external onlyAuthorisedContracts view returns (bool){\n        if(has(patient,sender)){\n            return true;\n        }\n        return false;\n    }\n\n    function addRole(uint role, address account) external {\n        if(role == 0){\n            add(centralAuthority, account);\n        }\n        else if(role == 1){\n            add(organisationAdmin, account);\n        }\n        else if(role == 2){\n            add(practitioner, account);\n        }\n        else if(role == 3){\n            add(patient, account);\n        }\n    }\n    /*\n        General Information\n    */\n    struct HumanName{\n        string givenNames;\n        string surname;\n    }\n\n    struct ContactPoint{\n        string phoneNumber;\n        string email;\n    }\n    \n    struct PhysicalAddress{\n        string use;\n        string street;\n        string city;\n        string state;\n        string postalCode;\n        string country;\n    }\n\n    struct Communication{\n        string[] languages;\n        string preferred;\n    }\n\n    enum Gender{ MALE, FEMALE, OTHER, UNKNOWN }\n\n    address centralAuthorityID;\n\n    constructor() {\n        centralAuthorityID = msg.sender;\n        add(centralAuthority,centralAuthorityID);\n    }\n\n    function getCentralAuthority() external view returns(address){\n        return centralAuthorityID;\n    }\n  \n    function isCentralAuthority() external view returns(bool){\n        return has(centralAuthority,tx.origin);\n    }\n\n}\n\ncontract OrganisationContract is Contract{\n\n    constructor(address _C) {\n        C = Contract(_C);\n    }\n\n    struct Organisation{\n        address id;\n        string name;\n        uint dateJoined;\n        PhysicalAddress organisationAddress;\n    }\n   \n    mapping(address => Organisation) Organisations;\n    address[] public OrganisationList;\n\n    function addOrganisation(Organisation memory data) external onlyCentralAuthority{\n        require(C.onlyCentralAuthorityE(msg.sender), \"Only for Admins\");\n\n        Organisation storage organisationData = Organisations[data.id];\n        organisationData.id = data.id;\n        organisationData.name = data.name;\n        organisationData.dateJoined = data.dateJoined;\n        organisationData.organisationAddress = data.organisationAddress;\n\n        OrganisationList.push(data.id);\n        C.addRole(1,data.id);\n    }\n\n    function getOrganisation(address id) public view returns(Organisation memory){\n        return Organisations[id];\n    }\n\n    function getAllOrganisation() external onlyCentralAuthority view returns(address[] memory){\n        return OrganisationList;\n    }\n\n    function isOrganisation() external view returns(bool){\n        return C.onlyOrganisationAdminE(msg.sender);\n    }\n}\n\ncontract PractitionerContract is Contract{\n\n    constructor(address _C) {\n        C = Contract(_C);\n    }\n\n    struct Practitioner{\n        address id;\n        HumanName name;\n        ContactPoint telecom;\n        PhysicalAddress homeAddress;\n        Gender gender;\n        uint birthDate;\n        Communication communication;\n        address memberOrgaisation;\n    }\n\n    mapping(address => Practitioner) Practitioners;\n    address[] public PractitionerList;\n\n    function addPractitioner(Practitioner memory data) external onlyOrganisationAdmin{\n        Practitioner storage practitionerData = Practitioners[data.id];\n        practitionerData.id = data.id;\n        practitionerData.name = data.name;\n        practitionerData.telecom = data.telecom;\n        practitionerData.birthDate = data.birthDate;\n        practitionerData.gender = data.gender;\n        practitionerData.homeAddress = data.homeAddress;\n        practitionerData.communication = data.communication;\n        practitionerData.memberOrgaisation = data.memberOrgaisation;\n\n        PractitionerList.push(data.id);\n        C.addRole(2,data.id);\n    }\n\n    function getDr(address _id) external view returns(Practitioner memory){\n        if(C.onlyPractitionerE(msg.sender) || C.onlyOrganisationAdminE(msg.sender) || C.onlyPatientE(msg.sender)){\n            return Practitioners[_id];\n        }\n        else{\n            revert(\"Not Authorised\");\n        }\n    }\n\n    function isPractitioner(address id) external view returns(int){\n        if(C.onlyPractitionerE(id)){\n            return 1;\n        }\n        return 0;\n    }\n\n    function getPractitionerCount() external onlyCentralAuthority view returns(uint) {\n        return(PractitionerList.length);\n    }\n\n    function getPractitionersPerOrg() external onlyOrganisationAdmin view returns(Practitioner[] memory){\n        uint count = 0;\n        Practitioner[] memory practitionerList = new Practitioner[](PractitionerList.length);\n        for(uint i=0;i<PractitionerList.length;i++){\n            Practitioner storage pracData = Practitioners[PractitionerList[i]];\n            if(pracData.memberOrgaisation == msg.sender){\n                practitionerList[count++] = pracData;\n            }\n        }\n        return(practitionerList);\n    }\n}\n\ncontract PatientContract is Contract{\n\n    constructor(address _C) {\n        C = Contract(_C);\n    }\n\n    struct Patient{\n        address id;\n        HumanName name;\n        ContactPoint telecom;       \n        Gender gender;\n        uint birthDate;\n        PhysicalAddress homeAddress; \n        bool deceasedBoolean;\n        uint deceasedDateTime;\n        bool multipleBirthBoolean;\n        uint multipleBirthInteger;\n        Communication communication;     \n        address generalPractitioner;\n        address managingOrganisation;\n    }\n\n    // Start of Medical Records\n    struct MedicalRecord{\n        address patientId;\n        address practitionerId;\n        address organisationId;\n        uint timestamp;\n        string diagnosis;\n        string[] medicationName;\n        uint[] dosage;\n        string[] unit;\n        uint[] noOfDays;\n        string[] remarks;\n        string[] clinicalTests;\n    }\n    // End of Medical Records\n\n    // mapping(address => Organisation) Organisations;\n    // mapping(address => Practitioner) Practitioners;\n    mapping(address => Patient) Patients;\n    mapping(address => MedicalRecord[]) Records;\n\n    // address[] public OrganisationList;\n    // address[] public PractitionerList;\n    address[] public PatientList;\n\n    function getPatientCount() external onlyCentralAuthority view returns(uint){\n        return(PatientList.length);\n    }\n\n    function getPatientsPerDoc() external onlyPractitioner view returns(Patient[] memory){\n        uint count = 0;\n        Patient[] memory patientList = new Patient[](PatientList.length);\n        for(uint i=0;i<PatientList.length;i++){\n            Patient storage patientData = Patients[PatientList[i]];\n            if(patientData.generalPractitioner == msg.sender){\n                patientList[count++] = patientData;\n            }\n        }\n        return(patientList);\n    }\n\n    function getPatientsPerOrg() external onlyOrganisationAdmin view returns(Patient[] memory){\n        uint count = 0;\n        Patient[] memory patientList = new Patient[](PatientList.length);\n        for(uint i=0;i<PatientList.length;i++){\n            Patient storage patientData = Patients[PatientList[i]];\n            if(patientData.managingOrganisation == msg.sender){\n                patientList[count++] = patientData;\n            }\n        }\n        return(patientList);\n    }\n\n    /*\n            Patient\n    */\n    function isPatient(address id) external view returns(int){\n       if(C.onlyPatientE(id)){\n           return 1;\n        }\n        return 0;\n    }\n\n    function getPatInfo(address iD) external view returns(Patient memory){\n        require((C.onlyPatientE(msg.sender) && iD==msg.sender) || C.onlyPractitionerE(msg.sender), \"Not allowed\");\n        return (Patients[iD]);\n    }\n\n    function addPatient(Patient memory data ) external onlyOrganisationAdmin{\n        require(C.onlyOrganisationAdminE(msg.sender) && C.onlyPractitionerE(data.generalPractitioner), 'Invalid Data');\n        Patient storage patientData = Patients[data.id];\n        patientData.id = data.id;\n        patientData.name = data.name;\n        patientData.telecom = data.telecom;\n        patientData.birthDate = data.birthDate;\n        patientData.communication = data.communication;\n        patientData.gender = data.gender;\n        patientData.homeAddress = data.homeAddress;\n        patientData.deceasedBoolean = data.deceasedBoolean;\n        patientData.deceasedDateTime = data.deceasedDateTime;\n        patientData.multipleBirthBoolean = data.multipleBirthBoolean;\n        patientData.multipleBirthInteger = data.multipleBirthInteger;\n        patientData.generalPractitioner = data.generalPractitioner;\n        patientData.managingOrganisation = msg.sender;\n\n        PatientList.push(data.id);\n        C.addRole(3,data.id);\n    }\n\n    /*\n        Medical Records\n    */\n\n    function addMedicalRecord(MedicalRecord memory data) external onlyPractitioner{\n        MedicalRecord memory recordData;\n        recordData.patientId = data.patientId;\n        recordData.practitionerId = msg.sender;\n        recordData.organisationId = data.organisationId;\n        recordData.timestamp = data.timestamp;\n        recordData.diagnosis = data.diagnosis;\n        recordData.medicationName = data.medicationName;\n        recordData.dosage = data.dosage;\n        recordData.unit = data.unit;\n        recordData.noOfDays = data.noOfDays;\n        recordData.remarks = data.remarks;\n        recordData.clinicalTests = data.clinicalTests;\n        Records[data.patientId].push(recordData);\n    }\n\n    function viewMedicalRecord(address id) external onlyPractitioner view returns(MedicalRecord[] memory){\n        return (Records[id]);\n    }\n\n    function viewMedicalRecord() external onlyPatient view returns(MedicalRecord[] memory){\n        return (Records[msg.sender]);\n    }\n}",
  "sourcePath": "/Users/amrhoballah/Documents/GitHub/Algobucks/contracts/Contract.sol",
  "compiler": {
    "name": "solc",
    "version": "0.8.11+commit.d7f03943.Emscripten.clang"
  },
  "schemaVersion": "3.4.6",
  "updatedAt": "2022-06-25T17:58:08.373Z",
  "networkType": "ethereum",
  "devdoc": {
    "kind": "dev",
    "methods": {},
    "version": 1
  },
  "userdoc": {
    "kind": "user",
    "methods": {},
    "version": 1
  }
}