{
  "contractName": "Contract",
  "abi": [
    {
      "inputs": [],
      "stateMutability": "nonpayable",
      "type": "constructor"
    },
    {
      "inputs": [
        {
          "internalType": "uint256",
          "name": "",
          "type": "uint256"
        }
      ],
      "name": "MedicalRecords",
      "outputs": [
        {
          "internalType": "address",
          "name": "patientId",
          "type": "address"
        },
        {
          "internalType": "string",
          "name": "recordType",
          "type": "string"
        },
        {
          "internalType": "uint256",
          "name": "timestamp",
          "type": "uint256"
        },
        {
          "internalType": "string",
          "name": "diagnosis",
          "type": "string"
        },
        {
          "internalType": "string",
          "name": "treatment",
          "type": "string"
        }
      ],
      "stateMutability": "view",
      "type": "function",
      "constant": true
    },
    {
      "inputs": [
        {
          "internalType": "uint256",
          "name": "",
          "type": "uint256"
        }
      ],
      "name": "OrganisationList",
      "outputs": [
        {
          "internalType": "address",
          "name": "",
          "type": "address"
        }
      ],
      "stateMutability": "view",
      "type": "function",
      "constant": true
    },
    {
      "inputs": [
        {
          "internalType": "uint256",
          "name": "",
          "type": "uint256"
        }
      ],
      "name": "PatientList",
      "outputs": [
        {
          "internalType": "address",
          "name": "",
          "type": "address"
        }
      ],
      "stateMutability": "view",
      "type": "function",
      "constant": true
    },
    {
      "inputs": [
        {
          "internalType": "uint256",
          "name": "",
          "type": "uint256"
        }
      ],
      "name": "PractitionerList",
      "outputs": [
        {
          "internalType": "address",
          "name": "",
          "type": "address"
        }
      ],
      "stateMutability": "view",
      "type": "function",
      "constant": true
    },
    {
      "inputs": [],
      "name": "getCentralAuthority",
      "outputs": [
        {
          "internalType": "address",
          "name": "",
          "type": "address"
        }
      ],
      "stateMutability": "view",
      "type": "function",
      "constant": true
    },
    {
      "inputs": [],
      "name": "isCentralAuthority",
      "outputs": [
        {
          "internalType": "bool",
          "name": "",
          "type": "bool"
        }
      ],
      "stateMutability": "view",
      "type": "function",
      "constant": true
    },
    {
      "inputs": [
        {
          "components": [
            {
              "internalType": "address",
              "name": "id",
              "type": "address"
            },
            {
              "internalType": "string",
              "name": "name",
              "type": "string"
            },
            {
              "internalType": "uint256",
              "name": "dateJoined",
              "type": "uint256"
            },
            {
              "components": [
                {
                  "internalType": "string",
                  "name": "use",
                  "type": "string"
                },
                {
                  "internalType": "string",
                  "name": "street",
                  "type": "string"
                },
                {
                  "internalType": "string",
                  "name": "city",
                  "type": "string"
                },
                {
                  "internalType": "string",
                  "name": "state",
                  "type": "string"
                },
                {
                  "internalType": "string",
                  "name": "postalCode",
                  "type": "string"
                },
                {
                  "internalType": "string",
                  "name": "country",
                  "type": "string"
                }
              ],
              "internalType": "struct Contract.PhysicalAddress",
              "name": "organisationAddress",
              "type": "tuple"
            }
          ],
          "internalType": "struct Contract.Organisation",
          "name": "data",
          "type": "tuple"
        }
      ],
      "name": "addOrganisation",
      "outputs": [],
      "stateMutability": "nonpayable",
      "type": "function"
    },
    {
      "inputs": [
        {
          "internalType": "address",
          "name": "id",
          "type": "address"
        }
      ],
      "name": "getOrganisation",
      "outputs": [
        {
          "components": [
            {
              "internalType": "address",
              "name": "id",
              "type": "address"
            },
            {
              "internalType": "string",
              "name": "name",
              "type": "string"
            },
            {
              "internalType": "uint256",
              "name": "dateJoined",
              "type": "uint256"
            },
            {
              "components": [
                {
                  "internalType": "string",
                  "name": "use",
                  "type": "string"
                },
                {
                  "internalType": "string",
                  "name": "street",
                  "type": "string"
                },
                {
                  "internalType": "string",
                  "name": "city",
                  "type": "string"
                },
                {
                  "internalType": "string",
                  "name": "state",
                  "type": "string"
                },
                {
                  "internalType": "string",
                  "name": "postalCode",
                  "type": "string"
                },
                {
                  "internalType": "string",
                  "name": "country",
                  "type": "string"
                }
              ],
              "internalType": "struct Contract.PhysicalAddress",
              "name": "organisationAddress",
              "type": "tuple"
            }
          ],
          "internalType": "struct Contract.Organisation",
          "name": "",
          "type": "tuple"
        }
      ],
      "stateMutability": "view",
      "type": "function",
      "constant": true
    },
    {
      "inputs": [],
      "name": "getAllOrganisation",
      "outputs": [
        {
          "internalType": "address[]",
          "name": "",
          "type": "address[]"
        }
      ],
      "stateMutability": "view",
      "type": "function",
      "constant": true
    },
    {
      "inputs": [
        {
          "components": [
            {
              "internalType": "address",
              "name": "id",
              "type": "address"
            },
            {
              "components": [
                {
                  "internalType": "string",
                  "name": "givenNames",
                  "type": "string"
                },
                {
                  "internalType": "string",
                  "name": "surname",
                  "type": "string"
                }
              ],
              "internalType": "struct Contract.HumanName",
              "name": "name",
              "type": "tuple"
            },
            {
              "components": [
                {
                  "internalType": "string",
                  "name": "phoneNumber",
                  "type": "string"
                },
                {
                  "internalType": "string",
                  "name": "email",
                  "type": "string"
                }
              ],
              "internalType": "struct Contract.ContactPoint",
              "name": "telecom",
              "type": "tuple"
            },
            {
              "components": [
                {
                  "internalType": "string",
                  "name": "use",
                  "type": "string"
                },
                {
                  "internalType": "string",
                  "name": "street",
                  "type": "string"
                },
                {
                  "internalType": "string",
                  "name": "city",
                  "type": "string"
                },
                {
                  "internalType": "string",
                  "name": "state",
                  "type": "string"
                },
                {
                  "internalType": "string",
                  "name": "postalCode",
                  "type": "string"
                },
                {
                  "internalType": "string",
                  "name": "country",
                  "type": "string"
                }
              ],
              "internalType": "struct Contract.PhysicalAddress",
              "name": "homeAddress",
              "type": "tuple"
            },
            {
              "internalType": "enum Contract.Gender",
              "name": "gender",
              "type": "uint8"
            },
            {
              "internalType": "uint256",
              "name": "birthDate",
              "type": "uint256"
            },
            {
              "components": [
                {
                  "internalType": "string[]",
                  "name": "languages",
                  "type": "string[]"
                },
                {
                  "internalType": "string",
                  "name": "preferred",
                  "type": "string"
                }
              ],
              "internalType": "struct Contract.Communication",
              "name": "Communication",
              "type": "tuple"
            },
            {
              "internalType": "address",
              "name": "memberOrgaisation",
              "type": "address"
            }
          ],
          "internalType": "struct Contract.Practitioner",
          "name": "data",
          "type": "tuple"
        }
      ],
      "name": "addPractitioner",
      "outputs": [],
      "stateMutability": "nonpayable",
      "type": "function"
    },
    {
      "inputs": [],
      "name": "get_drtid",
      "outputs": [
        {
          "internalType": "address",
          "name": "",
          "type": "address"
        }
      ],
      "stateMutability": "view",
      "type": "function",
      "constant": true
    },
    {
      "inputs": [
        {
          "internalType": "address",
          "name": "_id",
          "type": "address"
        }
      ],
      "name": "search",
      "outputs": [],
      "stateMutability": "nonpayable",
      "type": "function"
    },
    {
      "inputs": [],
      "name": "getDrInfo",
      "outputs": [
        {
          "components": [
            {
              "internalType": "address",
              "name": "id",
              "type": "address"
            },
            {
              "components": [
                {
                  "internalType": "string",
                  "name": "givenNames",
                  "type": "string"
                },
                {
                  "internalType": "string",
                  "name": "surname",
                  "type": "string"
                }
              ],
              "internalType": "struct Contract.HumanName",
              "name": "name",
              "type": "tuple"
            },
            {
              "components": [
                {
                  "internalType": "string",
                  "name": "phoneNumber",
                  "type": "string"
                },
                {
                  "internalType": "string",
                  "name": "email",
                  "type": "string"
                }
              ],
              "internalType": "struct Contract.ContactPoint",
              "name": "telecom",
              "type": "tuple"
            },
            {
              "components": [
                {
                  "internalType": "string",
                  "name": "use",
                  "type": "string"
                },
                {
                  "internalType": "string",
                  "name": "street",
                  "type": "string"
                },
                {
                  "internalType": "string",
                  "name": "city",
                  "type": "string"
                },
                {
                  "internalType": "string",
                  "name": "state",
                  "type": "string"
                },
                {
                  "internalType": "string",
                  "name": "postalCode",
                  "type": "string"
                },
                {
                  "internalType": "string",
                  "name": "country",
                  "type": "string"
                }
              ],
              "internalType": "struct Contract.PhysicalAddress",
              "name": "homeAddress",
              "type": "tuple"
            },
            {
              "internalType": "enum Contract.Gender",
              "name": "gender",
              "type": "uint8"
            },
            {
              "internalType": "uint256",
              "name": "birthDate",
              "type": "uint256"
            },
            {
              "components": [
                {
                  "internalType": "string[]",
                  "name": "languages",
                  "type": "string[]"
                },
                {
                  "internalType": "string",
                  "name": "preferred",
                  "type": "string"
                }
              ],
              "internalType": "struct Contract.Communication",
              "name": "Communication",
              "type": "tuple"
            },
            {
              "internalType": "address",
              "name": "memberOrgaisation",
              "type": "address"
            }
          ],
          "internalType": "struct Contract.Practitioner",
          "name": "",
          "type": "tuple"
        }
      ],
      "stateMutability": "view",
      "type": "function",
      "constant": true
    },
    {
      "inputs": [
        {
          "internalType": "address",
          "name": "_id",
          "type": "address"
        }
      ],
      "name": "getDr",
      "outputs": [
        {
          "components": [
            {
              "internalType": "address",
              "name": "id",
              "type": "address"
            },
            {
              "components": [
                {
                  "internalType": "string",
                  "name": "givenNames",
                  "type": "string"
                },
                {
                  "internalType": "string",
                  "name": "surname",
                  "type": "string"
                }
              ],
              "internalType": "struct Contract.HumanName",
              "name": "name",
              "type": "tuple"
            },
            {
              "components": [
                {
                  "internalType": "string",
                  "name": "phoneNumber",
                  "type": "string"
                },
                {
                  "internalType": "string",
                  "name": "email",
                  "type": "string"
                }
              ],
              "internalType": "struct Contract.ContactPoint",
              "name": "telecom",
              "type": "tuple"
            },
            {
              "components": [
                {
                  "internalType": "string",
                  "name": "use",
                  "type": "string"
                },
                {
                  "internalType": "string",
                  "name": "street",
                  "type": "string"
                },
                {
                  "internalType": "string",
                  "name": "city",
                  "type": "string"
                },
                {
                  "internalType": "string",
                  "name": "state",
                  "type": "string"
                },
                {
                  "internalType": "string",
                  "name": "postalCode",
                  "type": "string"
                },
                {
                  "internalType": "string",
                  "name": "country",
                  "type": "string"
                }
              ],
              "internalType": "struct Contract.PhysicalAddress",
              "name": "homeAddress",
              "type": "tuple"
            },
            {
              "internalType": "enum Contract.Gender",
              "name": "gender",
              "type": "uint8"
            },
            {
              "internalType": "uint256",
              "name": "birthDate",
              "type": "uint256"
            },
            {
              "components": [
                {
                  "internalType": "string[]",
                  "name": "languages",
                  "type": "string[]"
                },
                {
                  "internalType": "string",
                  "name": "preferred",
                  "type": "string"
                }
              ],
              "internalType": "struct Contract.Communication",
              "name": "Communication",
              "type": "tuple"
            },
            {
              "internalType": "address",
              "name": "memberOrgaisation",
              "type": "address"
            }
          ],
          "internalType": "struct Contract.Practitioner",
          "name": "",
          "type": "tuple"
        }
      ],
      "stateMutability": "view",
      "type": "function",
      "constant": true
    },
    {
      "inputs": [
        {
          "internalType": "address",
          "name": "id",
          "type": "address"
        }
      ],
      "name": "isDr",
      "outputs": [
        {
          "internalType": "string",
          "name": "",
          "type": "string"
        }
      ],
      "stateMutability": "view",
      "type": "function",
      "constant": true
    },
    {
      "inputs": [
        {
          "internalType": "address",
          "name": "id",
          "type": "address"
        }
      ],
      "name": "isPractitioner",
      "outputs": [
        {
          "internalType": "int256",
          "name": "",
          "type": "int256"
        }
      ],
      "stateMutability": "view",
      "type": "function",
      "constant": true
    },
    {
      "inputs": [],
      "name": "getAllPractitioners",
      "outputs": [
        {
          "internalType": "address[]",
          "name": "",
          "type": "address[]"
        }
      ],
      "stateMutability": "view",
      "type": "function",
      "constant": true
    },
    {
      "inputs": [],
      "name": "getPractitionerCount",
      "outputs": [
        {
          "internalType": "uint256",
          "name": "",
          "type": "uint256"
        }
      ],
      "stateMutability": "view",
      "type": "function",
      "constant": true
    },
    {
      "inputs": [],
      "name": "getOrganisationCount",
      "outputs": [
        {
          "internalType": "uint256",
          "name": "",
          "type": "uint256"
        }
      ],
      "stateMutability": "view",
      "type": "function",
      "constant": true
    },
    {
      "inputs": [
        {
          "internalType": "address",
          "name": "id",
          "type": "address"
        }
      ],
      "name": "isPat",
      "outputs": [
        {
          "internalType": "string",
          "name": "",
          "type": "string"
        }
      ],
      "stateMutability": "view",
      "type": "function",
      "constant": true
    },
    {
      "inputs": [
        {
          "internalType": "address",
          "name": "id",
          "type": "address"
        }
      ],
      "name": "isPatient",
      "outputs": [
        {
          "internalType": "int256",
          "name": "",
          "type": "int256"
        }
      ],
      "stateMutability": "view",
      "type": "function",
      "constant": true
    },
    {
      "inputs": [
        {
          "internalType": "address",
          "name": "_patid",
          "type": "address"
        }
      ],
      "name": "addRec",
      "outputs": [],
      "stateMutability": "nonpayable",
      "type": "function"
    },
    {
      "inputs": [
        {
          "internalType": "address",
          "name": "_patid",
          "type": "address"
        }
      ],
      "name": "viewPatRec",
      "outputs": [],
      "stateMutability": "nonpayable",
      "type": "function"
    },
    {
      "inputs": [],
      "name": "get",
      "outputs": [
        {
          "internalType": "address",
          "name": "",
          "type": "address"
        }
      ],
      "stateMutability": "view",
      "type": "function",
      "constant": true
    },
    {
      "inputs": [],
      "name": "get_patid",
      "outputs": [
        {
          "internalType": "address",
          "name": "",
          "type": "address"
        }
      ],
      "stateMutability": "view",
      "type": "function",
      "constant": true
    },
    {
      "inputs": [
        {
          "internalType": "address",
          "name": "iD",
          "type": "address"
        }
      ],
      "name": "getPatInfo",
      "outputs": [
        {
          "components": [
            {
              "internalType": "address",
              "name": "id",
              "type": "address"
            },
            {
              "components": [
                {
                  "internalType": "string",
                  "name": "givenNames",
                  "type": "string"
                },
                {
                  "internalType": "string",
                  "name": "surname",
                  "type": "string"
                }
              ],
              "internalType": "struct Contract.HumanName",
              "name": "name",
              "type": "tuple"
            },
            {
              "components": [
                {
                  "internalType": "string",
                  "name": "phoneNumber",
                  "type": "string"
                },
                {
                  "internalType": "string",
                  "name": "email",
                  "type": "string"
                }
              ],
              "internalType": "struct Contract.ContactPoint",
              "name": "telecom",
              "type": "tuple"
            },
            {
              "internalType": "enum Contract.Gender",
              "name": "gender",
              "type": "uint8"
            },
            {
              "internalType": "uint256",
              "name": "birthDate",
              "type": "uint256"
            },
            {
              "components": [
                {
                  "internalType": "string",
                  "name": "use",
                  "type": "string"
                },
                {
                  "internalType": "string",
                  "name": "street",
                  "type": "string"
                },
                {
                  "internalType": "string",
                  "name": "city",
                  "type": "string"
                },
                {
                  "internalType": "string",
                  "name": "state",
                  "type": "string"
                },
                {
                  "internalType": "string",
                  "name": "postalCode",
                  "type": "string"
                },
                {
                  "internalType": "string",
                  "name": "country",
                  "type": "string"
                }
              ],
              "internalType": "struct Contract.PhysicalAddress",
              "name": "homeAddress",
              "type": "tuple"
            },
            {
              "internalType": "bool",
              "name": "deceasedBoolean",
              "type": "bool"
            },
            {
              "internalType": "uint256",
              "name": "deceasedDateTime",
              "type": "uint256"
            },
            {
              "internalType": "bool",
              "name": "multipleBirthBoolean",
              "type": "bool"
            },
            {
              "internalType": "uint256",
              "name": "multipleBirthInteger",
              "type": "uint256"
            },
            {
              "components": [
                {
                  "internalType": "string[]",
                  "name": "languages",
                  "type": "string[]"
                },
                {
                  "internalType": "string",
                  "name": "preferred",
                  "type": "string"
                }
              ],
              "internalType": "struct Contract.Communication",
              "name": "communication",
              "type": "tuple"
            },
            {
              "internalType": "address",
              "name": "generalPractitioner",
              "type": "address"
            },
            {
              "internalType": "address",
              "name": "managingOrganisation",
              "type": "address"
            },
            {
              "internalType": "bool",
              "name": "exists",
              "type": "bool"
            }
          ],
          "internalType": "struct Contract.Patient",
          "name": "",
          "type": "tuple"
        }
      ],
      "stateMutability": "view",
      "type": "function",
      "constant": true
    },
    {
      "inputs": [
        {
          "components": [
            {
              "internalType": "address",
              "name": "id",
              "type": "address"
            },
            {
              "components": [
                {
                  "internalType": "string",
                  "name": "givenNames",
                  "type": "string"
                },
                {
                  "internalType": "string",
                  "name": "surname",
                  "type": "string"
                }
              ],
              "internalType": "struct Contract.HumanName",
              "name": "name",
              "type": "tuple"
            },
            {
              "components": [
                {
                  "internalType": "string",
                  "name": "phoneNumber",
                  "type": "string"
                },
                {
                  "internalType": "string",
                  "name": "email",
                  "type": "string"
                }
              ],
              "internalType": "struct Contract.ContactPoint",
              "name": "telecom",
              "type": "tuple"
            },
            {
              "internalType": "enum Contract.Gender",
              "name": "gender",
              "type": "uint8"
            },
            {
              "internalType": "uint256",
              "name": "birthDate",
              "type": "uint256"
            },
            {
              "components": [
                {
                  "internalType": "string",
                  "name": "use",
                  "type": "string"
                },
                {
                  "internalType": "string",
                  "name": "street",
                  "type": "string"
                },
                {
                  "internalType": "string",
                  "name": "city",
                  "type": "string"
                },
                {
                  "internalType": "string",
                  "name": "state",
                  "type": "string"
                },
                {
                  "internalType": "string",
                  "name": "postalCode",
                  "type": "string"
                },
                {
                  "internalType": "string",
                  "name": "country",
                  "type": "string"
                }
              ],
              "internalType": "struct Contract.PhysicalAddress",
              "name": "homeAddress",
              "type": "tuple"
            },
            {
              "internalType": "bool",
              "name": "deceasedBoolean",
              "type": "bool"
            },
            {
              "internalType": "uint256",
              "name": "deceasedDateTime",
              "type": "uint256"
            },
            {
              "internalType": "bool",
              "name": "multipleBirthBoolean",
              "type": "bool"
            },
            {
              "internalType": "uint256",
              "name": "multipleBirthInteger",
              "type": "uint256"
            },
            {
              "components": [
                {
                  "internalType": "string[]",
                  "name": "languages",
                  "type": "string[]"
                },
                {
                  "internalType": "string",
                  "name": "preferred",
                  "type": "string"
                }
              ],
              "internalType": "struct Contract.Communication",
              "name": "communication",
              "type": "tuple"
            },
            {
              "internalType": "address",
              "name": "generalPractitioner",
              "type": "address"
            },
            {
              "internalType": "address",
              "name": "managingOrganisation",
              "type": "address"
            },
            {
              "internalType": "bool",
              "name": "exists",
              "type": "bool"
            }
          ],
          "internalType": "struct Contract.Patient",
          "name": "data",
          "type": "tuple"
        }
      ],
      "name": "addPatient",
      "outputs": [],
      "stateMutability": "nonpayable",
      "type": "function"
    },
    {
      "inputs": [
        {
          "components": [
            {
              "internalType": "address",
              "name": "patientId",
              "type": "address"
            },
            {
              "internalType": "string",
              "name": "recordType",
              "type": "string"
            },
            {
              "internalType": "uint256",
              "name": "timestamp",
              "type": "uint256"
            },
            {
              "internalType": "string",
              "name": "diagnosis",
              "type": "string"
            },
            {
              "internalType": "string",
              "name": "treatment",
              "type": "string"
            }
          ],
          "internalType": "struct Contract.MedicalRecord",
          "name": "_record",
          "type": "tuple"
        }
      ],
      "name": "addMedicalRecord",
      "outputs": [],
      "stateMutability": "nonpayable",
      "type": "function"
    },
    {
      "inputs": [
        {
          "internalType": "address",
          "name": "id",
          "type": "address"
        }
      ],
      "name": "viewMedicalRecord",
      "outputs": [
        {
          "components": [
            {
              "internalType": "address",
              "name": "patientId",
              "type": "address"
            },
            {
              "internalType": "string",
              "name": "recordType",
              "type": "string"
            },
            {
              "internalType": "uint256",
              "name": "timestamp",
              "type": "uint256"
            },
            {
              "internalType": "string",
              "name": "diagnosis",
              "type": "string"
            },
            {
              "internalType": "string",
              "name": "treatment",
              "type": "string"
            }
          ],
          "internalType": "struct Contract.MedicalRecord[]",
          "name": "",
          "type": "tuple[]"
        }
      ],
      "stateMutability": "view",
      "type": "function",
      "constant": true
    }
  ],
  "bytecode": "0x60806040523480156200001157600080fd5b50600d80546001600160a01b0319163390811790915562000035906000906200003b565b62000144565b620000478282620000bf565b156200009a5760405162461bcd60e51b815260206004820152601f60248201527f526f6c65733a206163636f756e7420616c72656164792068617320726f6c650060448201526064015b60405180910390fd5b6001600160a01b0316600090815260209190915260409020805460ff19166001179055565b60006001600160a01b038216620001245760405162461bcd60e51b815260206004820152602260248201527f526f6c65733a206163636f756e7420697320746865207a65726f206164647265604482015261737360f01b606482015260840162000091565b506001600160a01b03166000908152602091909152604090205460ff1690565b61463480620001546000396000f3fe608060405234801561001057600080fd5b50600436106101cf5760003560e01c806394a1162c11610104578063cc572914116100a2578063dd9243d811610071578063dd9243d814610418578063ddf8f98b14610420578063e33220d014610431578063ea345f691461044457600080fd5b8063cc572914146103bf578063d2fce6cc146103df578063d4fd45c4146103f2578063da6623341461040557600080fd5b8063b48f3cab116100de578063b48f3cab1461036c578063b771e51e14610381578063be95687314610394578063c0936832146103a757600080fd5b806394a1162c1461032057806397a08aca14610344578063b082b9c71461036457600080fd5b8063657a25121161017157806372a094591161014b57806372a09459146102d357806389f5ffc7146102e55780638f9c79ed146102f857806392bed5ce1461030b57600080fd5b8063657a25121461027d5780636d4ce63c146102ad578063720d5b4b146102b357600080fd5b80632040e86f116101ad5780632040e86f1461022657806324e9480e146102395780634914cf091461024a5780636052f8251461025d57600080fd5b8063047f66c3146101d45780631c7fb129146101e95780631ce8e45514610213575b600080fd5b6101e76101e236600461373a565b610457565b005b600f546001600160a01b03165b6040516001600160a01b0390911681526020015b60405180910390f35b6101f661022136600461375c565b610479565b6101e7610234366004613a00565b6104a3565b600d546001600160a01b03166101f6565b6101f661025836600461375c565b6106bd565b61027061026b36600461373a565b6106cd565b60405161020a9190613af8565b6101e761028b36600461373a565b600f80546001600160a01b0319166001600160a01b0392909216919091179055565b336101f6565b6102c66102c136600461373a565b610918565b60405161020a9190613bba565b6009545b60405190815260200161020a565b6102d76102f336600461373a565b610987565b6102d761030636600461373a565b6109f0565b610313610a4a565b60405161020a9190613d48565b61033361032e36600461375c565b61124a565b60405161020a959493929190613e1d565b61035761035236600461373a565b61142e565b60405161020a9190613e79565b6008546102d7565b61037461188b565b60405161020a9190613ece565b6101e761038f366004614089565b611949565b6102c66103a236600461373a565b611bef565b6103af611bfc565b604051901515815260200161020a565b6103d26103cd36600461373a565b611c0e565b60405161020a919061419f565b6101e76103ed36600461373a565b612461565b61031361040036600461373a565b61250c565b6101f661041336600461375c565b612d0a565b610374612d1a565b600e546001600160a01b03166101f6565b6101e761043f3660046142e5565b612d7a565b6101e76104523660046143c4565b612f61565b600e80546001600160a01b0319166001600160a01b0392909216919091179055565b600a818154811061048957600080fd5b6000918252602090912001546001600160a01b0316905081565b6104ae6000336132ef565b151560011461050f5760405162461bcd60e51b815260206004820152602260248201527f4f6e6c792043656e7472616c20417574686f726974792043616e20446f205468604482015261185d60f21b60648201526084015b60405180910390fd5b61051a6000336132ef565b151560011461055d5760405162461bcd60e51b815260206004820152600f60248201526e4f6e6c7920666f722041646d696e7360881b6044820152606401610506565b80516001600160a01b039081166000908152600460209081526040909120835181546001600160a01b03191693169290921782558083015180516105a792600185019201906133ee565b506040820151600282015560608201518051805160038401916105cf918391602001906133ee565b5060208281015180516105e892600185019201906133ee565b50604082015180516106049160028401916020909101906133ee565b50606082015180516106209160038401916020909101906133ee565b506080820151805161063c9160048401916020909101906133ee565b5060a082015180516106589160058401916020909101906133ee565b5050825160088054600180820183556000929092527ff3f7a9fe364faab93b216da50a3214154f22a0a2b415b23a84c8169e8b636ee30180546001600160a01b0319166001600160a01b039093169290921790915583516106b99250613372565b5050565b6008818154811061048957600080fd5b6001600160a01b0381166000908152600760209081526040808320805482518185028101850190935280835260609492939192909184015b8282101561090d5760008481526020908190206040805160a081019091526005850290910180546001600160a01b03168252600181018054929391929184019161074e90614541565b80601f016020809104026020016040519081016040528092919081815260200182805461077a90614541565b80156107c75780601f1061079c576101008083540402835291602001916107c7565b820191906000526020600020905b8154815290600101906020018083116107aa57829003601f168201915b50505050508152602001600282015481526020016003820180546107ea90614541565b80601f016020809104026020016040519081016040528092919081815260200182805461081690614541565b80156108635780601f1061083857610100808354040283529160200191610863565b820191906000526020600020905b81548152906001019060200180831161084657829003601f168201915b5050505050815260200160048201805461087c90614541565b80601f01602080910402602001604051908101604052809291908181526020018280546108a890614541565b80156108f55780601f106108ca576101008083540402835291602001916108f5565b820191906000526020600020905b8154815290600101906020018083116108d857829003601f168201915b50505050508152505081526020019060010190610705565b505050509050919050565b60606109256003836132ef565b61096a5760405162461bcd60e51b81526020600482015260166024820152754f6e6c7920666f722050726163746974696f6e65727360501b6044820152606401610506565b50506040805180820190915260018152603160f81b602082015290565b6000805b60095481116109e757826001600160a01b0316600982815481106109b1576109b161457c565b6000918252602090912001546001600160a01b031614156109d55750600192915050565b806109df81614592565b91505061098b565b50600092915050565b6000805b600a5481116109e757600a8181548110610a1057610a1061457c565b6000918252602090912001546001600160a01b0384811691161415610a385750600192915050565b80610a4281614592565b9150506109f4565b610a52613472565b600f546001600160a01b039081166000908152600560209081526040918290208251610100810184528154909416845282518084019093526001810180549193928501929182908290610aa490614541565b80601f0160208091040260200160405190810160405280929190818152602001828054610ad090614541565b8015610b1d5780601f10610af257610100808354040283529160200191610b1d565b820191906000526020600020905b815481529060010190602001808311610b0057829003601f168201915b50505050508152602001600182018054610b3690614541565b80601f0160208091040260200160405190810160405280929190818152602001828054610b6290614541565b8015610baf5780601f10610b8457610100808354040283529160200191610baf565b820191906000526020600020905b815481529060010190602001808311610b9257829003601f168201915b505050505081525050815260200160038201604051806040016040529081600082018054610bdc90614541565b80601f0160208091040260200160405190810160405280929190818152602001828054610c0890614541565b8015610c555780601f10610c2a57610100808354040283529160200191610c55565b820191906000526020600020905b815481529060010190602001808311610c3857829003601f168201915b50505050508152602001600182018054610c6e90614541565b80601f0160208091040260200160405190810160405280929190818152602001828054610c9a90614541565b8015610ce75780601f10610cbc57610100808354040283529160200191610ce7565b820191906000526020600020905b815481529060010190602001808311610cca57829003601f168201915b5050505050815250508152602001600582016040518060c0016040529081600082018054610d1490614541565b80601f0160208091040260200160405190810160405280929190818152602001828054610d4090614541565b8015610d8d5780601f10610d6257610100808354040283529160200191610d8d565b820191906000526020600020905b815481529060010190602001808311610d7057829003601f168201915b50505050508152602001600182018054610da690614541565b80601f0160208091040260200160405190810160405280929190818152602001828054610dd290614541565b8015610e1f5780601f10610df457610100808354040283529160200191610e1f565b820191906000526020600020905b815481529060010190602001808311610e0257829003601f168201915b50505050508152602001600282018054610e3890614541565b80601f0160208091040260200160405190810160405280929190818152602001828054610e6490614541565b8015610eb15780601f10610e8657610100808354040283529160200191610eb1565b820191906000526020600020905b815481529060010190602001808311610e9457829003601f168201915b50505050508152602001600382018054610eca90614541565b80601f0160208091040260200160405190810160405280929190818152602001828054610ef690614541565b8015610f435780601f10610f1857610100808354040283529160200191610f43565b820191906000526020600020905b815481529060010190602001808311610f2657829003601f168201915b50505050508152602001600482018054610f5c90614541565b80601f0160208091040260200160405190810160405280929190818152602001828054610f8890614541565b8015610fd55780601f10610faa57610100808354040283529160200191610fd5565b820191906000526020600020905b815481529060010190602001808311610fb857829003601f168201915b50505050508152602001600582018054610fee90614541565b80601f016020809104026020016040519081016040528092919081815260200182805461101a90614541565b80156110675780601f1061103c57610100808354040283529160200191611067565b820191906000526020600020905b81548152906001019060200180831161104a57829003601f168201915b505050919092525050508152600b82015460209091019060ff16600381111561109257611092613c9a565b60038111156110a3576110a3613c9a565b8152602001600c8201548152602001600d820160405180604001604052908160008201805480602002602001604051908101604052809291908181526020016000905b8282101561119257838290600052602060002001805461110590614541565b80601f016020809104026020016040519081016040528092919081815260200182805461113190614541565b801561117e5780601f106111535761010080835404028352916020019161117e565b820191906000526020600020905b81548152906001019060200180831161116157829003601f168201915b5050505050815260200190600101906110e6565b5050505081526020016001820180546111aa90614541565b80601f01602080910402602001604051908101604052809291908181526020018280546111d690614541565b80156112235780601f106111f857610100808354040283529160200191611223565b820191906000526020600020905b81548152906001019060200180831161120657829003601f168201915b505050919092525050508152600f91909101546001600160a01b0316602090910152919050565b600b818154811061125a57600080fd5b6000918252602090912060059091020180546001820180546001600160a01b0390921693509061128990614541565b80601f01602080910402602001604051908101604052809291908181526020018280546112b590614541565b80156113025780601f106112d757610100808354040283529160200191611302565b820191906000526020600020905b8154815290600101906020018083116112e557829003601f168201915b50505050509080600201549080600301805461131d90614541565b80601f016020809104026020016040519081016040528092919081815260200182805461134990614541565b80156113965780601f1061136b57610100808354040283529160200191611396565b820191906000526020600020905b81548152906001019060200180831161137957829003601f168201915b5050505050908060040180546113ab90614541565b80601f01602080910402602001604051908101604052809291908181526020018280546113d790614541565b80156114245780601f106113f957610100808354040283529160200191611424565b820191906000526020600020905b81548152906001019060200180831161140757829003601f168201915b5050505050905085565b611436613517565b6001600160a01b03808316600090815260046020908152604091829020825160808101909352805490931682526001830180549293929184019161147990614541565b80601f01602080910402602001604051908101604052809291908181526020018280546114a590614541565b80156114f25780601f106114c7576101008083540402835291602001916114f2565b820191906000526020600020905b8154815290600101906020018083116114d557829003601f168201915b5050505050815260200160028201548152602001600382016040518060c001604052908160008201805461152590614541565b80601f016020809104026020016040519081016040528092919081815260200182805461155190614541565b801561159e5780601f106115735761010080835404028352916020019161159e565b820191906000526020600020905b81548152906001019060200180831161158157829003601f168201915b505050505081526020016001820180546115b790614541565b80601f01602080910402602001604051908101604052809291908181526020018280546115e390614541565b80156116305780601f1061160557610100808354040283529160200191611630565b820191906000526020600020905b81548152906001019060200180831161161357829003601f168201915b5050505050815260200160028201805461164990614541565b80601f016020809104026020016040519081016040528092919081815260200182805461167590614541565b80156116c25780601f10611697576101008083540402835291602001916116c2565b820191906000526020600020905b8154815290600101906020018083116116a557829003601f168201915b505050505081526020016003820180546116db90614541565b80601f016020809104026020016040519081016040528092919081815260200182805461170790614541565b80156117545780601f1061172957610100808354040283529160200191611754565b820191906000526020600020905b81548152906001019060200180831161173757829003601f168201915b5050505050815260200160048201805461176d90614541565b80601f016020809104026020016040519081016040528092919081815260200182805461179990614541565b80156117e65780601f106117bb576101008083540402835291602001916117e6565b820191906000526020600020905b8154815290600101906020018083116117c957829003601f168201915b505050505081526020016005820180546117ff90614541565b80601f016020809104026020016040519081016040528092919081815260200182805461182b90614541565b80156118785780601f1061184d57610100808354040283529160200191611878565b820191906000526020600020905b81548152906001019060200180831161185b57829003601f168201915b5050509190925250505090525092915050565b60606118986000336132ef565b15156001146118e95760405162461bcd60e51b815260206004820152601a60248201527f4f6e6c7920666f722043656e7472616c20417574686f726974790000000000006044820152606401610506565b600880548060200260200160405190810160405280929190818152602001828054801561193f57602002820191906000526020600020905b81546001600160a01b03168152600190910190602001808311611921575b5050505050905090565b6119546001336132ef565b15156001146119755760405162461bcd60e51b8152600401610506906145bb565b6119806001336132ef565b15156001146119c35760405162461bcd60e51b815260206004820152600f60248201526e4f6e6c7920666f722041646d696e7360881b6044820152606401610506565b80516001600160a01b039081166000908152600560209081526040909120835181546001600160a01b0319169316929092178255808301518051805191926001850192611a1392849201906133ee565b506020828101518051611a2c92600185019201906133ee565b5050506040820151805180516003840191611a4c918391602001906133ee565b506020828101518051611a6592600185019201906133ee565b50505060a0820151600c8201556080820151600b8201805460ff19166001836003811115611a9557611a95613c9a565b02179055506060820151805180516005840191611ab7918391602001906133ee565b506020828101518051611ad092600185019201906133ee565b5060408201518051611aec9160028401916020909101906133ee565b5060608201518051611b089160038401916020909101906133ee565b5060808201518051611b249160048401916020909101906133ee565b5060a08201518051611b409160058401916020909101906133ee565b50505060c082015180518051600d840191611b609183916020019061354d565b506020828101518051611b7992600185019201906133ee565b50505060e0820151600f820180546001600160a01b039283166001600160a01b0319918216179091558351600980546001810182556000919091527f6e1540171b6c0c960b71a7020d9f60077f6af931a8bbf590da0223dacf75c7af01805491909316911617905581516106b990600290613372565b60606109256002836132ef565b6000611c096000326132ef565b905090565b611c166135a6565b6001600160a01b0380831660009081526006602090815260409182902082516101c0810184528154909416845282518084019093526001810180549193928501929182908290611c6590614541565b80601f0160208091040260200160405190810160405280929190818152602001828054611c9190614541565b8015611cde5780601f10611cb357610100808354040283529160200191611cde565b820191906000526020600020905b815481529060010190602001808311611cc157829003601f168201915b50505050508152602001600182018054611cf790614541565b80601f0160208091040260200160405190810160405280929190818152602001828054611d2390614541565b8015611d705780601f10611d4557610100808354040283529160200191611d70565b820191906000526020600020905b815481529060010190602001808311611d5357829003601f168201915b505050505081525050815260200160038201604051806040016040529081600082018054611d9d90614541565b80601f0160208091040260200160405190810160405280929190818152602001828054611dc990614541565b8015611e165780601f10611deb57610100808354040283529160200191611e16565b820191906000526020600020905b815481529060010190602001808311611df957829003601f168201915b50505050508152602001600182018054611e2f90614541565b80601f0160208091040260200160405190810160405280929190818152602001828054611e5b90614541565b8015611ea85780601f10611e7d57610100808354040283529160200191611ea8565b820191906000526020600020905b815481529060010190602001808311611e8b57829003601f168201915b505050919092525050508152600582015460209091019060ff166003811115611ed357611ed3613c9a565b6003811115611ee457611ee4613c9a565b815260200160068201548152602001600782016040518060c0016040529081600082018054611f1290614541565b80601f0160208091040260200160405190810160405280929190818152602001828054611f3e90614541565b8015611f8b5780601f10611f6057610100808354040283529160200191611f8b565b820191906000526020600020905b815481529060010190602001808311611f6e57829003601f168201915b50505050508152602001600182018054611fa490614541565b80601f0160208091040260200160405190810160405280929190818152602001828054611fd090614541565b801561201d5780601f10611ff25761010080835404028352916020019161201d565b820191906000526020600020905b81548152906001019060200180831161200057829003601f168201915b5050505050815260200160028201805461203690614541565b80601f016020809104026020016040519081016040528092919081815260200182805461206290614541565b80156120af5780601f10612084576101008083540402835291602001916120af565b820191906000526020600020905b81548152906001019060200180831161209257829003601f168201915b505050505081526020016003820180546120c890614541565b80601f01602080910402602001604051908101604052809291908181526020018280546120f490614541565b80156121415780601f1061211657610100808354040283529160200191612141565b820191906000526020600020905b81548152906001019060200180831161212457829003601f168201915b5050505050815260200160048201805461215a90614541565b80601f016020809104026020016040519081016040528092919081815260200182805461218690614541565b80156121d35780601f106121a8576101008083540402835291602001916121d3565b820191906000526020600020905b8154815290600101906020018083116121b657829003601f168201915b505050505081526020016005820180546121ec90614541565b80601f016020809104026020016040519081016040528092919081815260200182805461221890614541565b80156122655780601f1061223a57610100808354040283529160200191612265565b820191906000526020600020905b81548152906001019060200180831161224857829003601f168201915b505050919092525050508152600d82015460ff9081161515602080840191909152600e840154604080850191909152600f850154909216151560608085019190915260108501546080850152825160118601805493840282018301855293810183815260a090950194909392849284919060009085015b828210156123885783829060005260206000200180546122fb90614541565b80601f016020809104026020016040519081016040528092919081815260200182805461232790614541565b80156123745780601f1061234957610100808354040283529160200191612374565b820191906000526020600020905b81548152906001019060200180831161235757829003601f168201915b5050505050815260200190600101906122dc565b5050505081526020016001820180546123a090614541565b80601f01602080910402602001604051908101604052809291908181526020018280546123cc90614541565b80156124195780601f106123ee57610100808354040283529160200191612419565b820191906000526020600020905b8154815290600101906020018083116123fc57829003601f168201915b50505091909252505050815260138201546001600160a01b0390811660208301526014909201549182166040820152600160a01b90910460ff16151560609091015292915050565b61246c6002336132ef565b15156001146124bd5760405162461bcd60e51b815260206004820152601d60248201527f4f6e6c792050726163746974696f6e65722043616e20446f20546861740000006044820152606401610506565b6124c86003826132ef565b15156001146104575760405162461bcd60e51b815260206004820152601060248201526f1a5cc81b9bdd08184814185d1a595b9d60821b6044820152606401610506565b612514613472565b6001600160a01b03808316600090815260056020908152604091829020825161010081018452815490941684528251808401909352600181018054919392850192918290829061256390614541565b80601f016020809104026020016040519081016040528092919081815260200182805461258f90614541565b80156125dc5780601f106125b1576101008083540402835291602001916125dc565b820191906000526020600020905b8154815290600101906020018083116125bf57829003601f168201915b505050505081526020016001820180546125f590614541565b80601f016020809104026020016040519081016040528092919081815260200182805461262190614541565b801561266e5780601f106126435761010080835404028352916020019161266e565b820191906000526020600020905b81548152906001019060200180831161265157829003601f168201915b50505050508152505081526020016003820160405180604001604052908160008201805461269b90614541565b80601f01602080910402602001604051908101604052809291908181526020018280546126c790614541565b80156127145780601f106126e957610100808354040283529160200191612714565b820191906000526020600020905b8154815290600101906020018083116126f757829003601f168201915b5050505050815260200160018201805461272d90614541565b80601f016020809104026020016040519081016040528092919081815260200182805461275990614541565b80156127a65780601f1061277b576101008083540402835291602001916127a6565b820191906000526020600020905b81548152906001019060200180831161278957829003601f168201915b5050505050815250508152602001600582016040518060c00160405290816000820180546127d390614541565b80601f01602080910402602001604051908101604052809291908181526020018280546127ff90614541565b801561284c5780601f106128215761010080835404028352916020019161284c565b820191906000526020600020905b81548152906001019060200180831161282f57829003601f168201915b5050505050815260200160018201805461286590614541565b80601f016020809104026020016040519081016040528092919081815260200182805461289190614541565b80156128de5780601f106128b3576101008083540402835291602001916128de565b820191906000526020600020905b8154815290600101906020018083116128c157829003601f168201915b505050505081526020016002820180546128f790614541565b80601f016020809104026020016040519081016040528092919081815260200182805461292390614541565b80156129705780601f1061294557610100808354040283529160200191612970565b820191906000526020600020905b81548152906001019060200180831161295357829003601f168201915b5050505050815260200160038201805461298990614541565b80601f01602080910402602001604051908101604052809291908181526020018280546129b590614541565b8015612a025780601f106129d757610100808354040283529160200191612a02565b820191906000526020600020905b8154815290600101906020018083116129e557829003601f168201915b50505050508152602001600482018054612a1b90614541565b80601f0160208091040260200160405190810160405280929190818152602001828054612a4790614541565b8015612a945780601f10612a6957610100808354040283529160200191612a94565b820191906000526020600020905b815481529060010190602001808311612a7757829003601f168201915b50505050508152602001600582018054612aad90614541565b80601f0160208091040260200160405190810160405280929190818152602001828054612ad990614541565b8015612b265780601f10612afb57610100808354040283529160200191612b26565b820191906000526020600020905b815481529060010190602001808311612b0957829003601f168201915b505050919092525050508152600b82015460209091019060ff166003811115612b5157612b51613c9a565b6003811115612b6257612b62613c9a565b8152602001600c8201548152602001600d820160405180604001604052908160008201805480602002602001604051908101604052809291908181526020016000905b82821015612c51578382906000526020600020018054612bc490614541565b80601f0160208091040260200160405190810160405280929190818152602001828054612bf090614541565b8015612c3d5780601f10612c1257610100808354040283529160200191612c3d565b820191906000526020600020905b815481529060010190602001808311612c2057829003601f168201915b505050505081526020019060010190612ba5565b505050508152602001600182018054612c6990614541565b80601f0160208091040260200160405190810160405280929190818152602001828054612c9590614541565b8015612ce25780601f10612cb757610100808354040283529160200191612ce2565b820191906000526020600020905b815481529060010190602001808311612cc557829003601f168201915b505050919092525050508152600f91909101546001600160a01b031660209091015292915050565b6009818154811061048957600080fd5b6060600980548060200260200160405190810160405280929190818152602001828054801561193f576020028201919060005260206000209081546001600160a01b03168152600190910190602001808311611921575050505050905090565b612d856002336132ef565b1515600114612dd65760405162461bcd60e51b815260206004820152601d60248201527f4f6e6c792050726163746974696f6e65722043616e20446f20546861740000006044820152606401610506565b4260408281019190915281516001600160a01b0390811660009081526007602090815292812080546001808201835591835291849020855160059093020180546001600160a01b031916929093169190911782558284015180518594612e409385019201906133ee565b506040820151600282015560608201518051612e669160038401916020909101906133ee565b5060808201518051612e829160048401916020909101906133ee565b5050600b8054600181018255600091909152825160059091027f0175b7a638427703f0dbe7bb9bbf987a2551717b34e79f33b5b1008d1fa01db9810180546001600160a01b039093166001600160a01b03199093169290921782556020808501518051869550612f19937f0175b7a638427703f0dbe7bb9bbf987a2551717b34e79f33b5b1008d1fa01dba019291909101906133ee565b506040820151600282015560608201518051612f3f9160038401916020909101906133ee565b5060808201518051612f5b9160048401916020909101906133ee565b50505050565b612f6c6001336132ef565b1515600114612f8d5760405162461bcd60e51b8152600401610506906145bb565b612f986001336132ef565b1515600114612fe95760405162461bcd60e51b815260206004820152601c60248201527f4f6e6c7920666f72204f7267616e69736174696f6e2041646d696e73000000006044820152606401610506565b80516001600160a01b0316600090815260066020526040902060140154600160a01b900460ff16151560011461305a5760405162461bcd60e51b815260206004820152601660248201527550617469656e7420616c72656164792065786973747360501b6044820152606401610506565b80516001600160a01b039081166000908152600660209081526040909120835181546001600160a01b03191693169290921782558083015180518051919260018501926130aa92849201906133ee565b5060208281015180516130c392600185019201906133ee565b50505060408201518051805160038401916130e3918391602001906133ee565b5060208281015180516130fc92600185019201906133ee565b505050608082015160068201556101408201518051805160118401916131279183916020019061354d565b50602082810151805161314092600185019201906133ee565b505050606082015160058201805460ff1916600183600381111561316657613166613c9a565b021790555060a0820151805180516007840191613188918391602001906133ee565b5060208281015180516131a192600185019201906133ee565b50604082015180516131bd9160028401916020909101906133ee565b50606082015180516131d99160038401916020909101906133ee565b50608082015180516131f59160048401916020909101906133ee565b5060a082015180516132119160058401916020909101906133ee565b50505060c0820151600d8201805491151560ff1992831617905560e0830151600e830155610100830151600f830180549115159190921617905561012082015160108201556101608201516013820180546001600160a01b039283166001600160a01b0319918216179091556101808401516014840180546001600160a81b03191691841691909117600160a01b1790558351600a80546001810182556000919091527fc65a7bb8d6351c1cf70c95a316cc6a92839c986682d98bc35f958f4883f9d2a801805491909316911617905581516106b990600390613372565b60006001600160a01b0382166133525760405162461bcd60e51b815260206004820152602260248201527f526f6c65733a206163636f756e7420697320746865207a65726f206164647265604482015261737360f01b6064820152608401610506565b506001600160a01b03166000908152602091909152604090205460ff1690565b61337c82826132ef565b156133c95760405162461bcd60e51b815260206004820152601f60248201527f526f6c65733a206163636f756e7420616c72656164792068617320726f6c65006044820152606401610506565b6001600160a01b0316600090815260209190915260409020805460ff19166001179055565b8280546133fa90614541565b90600052602060002090601f01602090048101928261341c5760008555613462565b82601f1061343557805160ff1916838001178555613462565b82800160010185558215613462579182015b82811115613462578251825591602001919060010190613447565b5061346e929150613679565b5090565b60405180610100016040528060006001600160a01b031681526020016134ab604051806040016040528060608152602001606081525090565b81526020016134cd604051806040016040528060608152602001606081525090565b81526020016134da61368e565b8152602001600081526020016000815260200161350a604051806040016040528060608152602001606081525090565b8152600060209091015290565b604051806080016040528060006001600160a01b03168152602001606081526020016000815260200161354861368e565b905290565b82805482825590600052602060002090810192821561359a579160200282015b8281111561359a578251805161358a9184916020909101906133ee565b509160200191906001019061356d565b5061346e9291506136c4565b604051806101c0016040528060006001600160a01b031681526020016135df604051806040016040528060608152602001606081525090565b8152602001613601604051806040016040528060608152602001606081525090565b8152602001600081526020016000815260200161361c61368e565b8152602001600015158152602001600081526020016000151581526020016000815260200161365e604051806040016040528060608152602001606081525090565b81526000602082018190526040820181905260609091015290565b5b8082111561346e576000815560010161367a565b6040518060c001604052806060815260200160608152602001606081526020016060815260200160608152602001606081525090565b8082111561346e5760006136d882826136e1565b506001016136c4565b5080546136ed90614541565b6000825580601f106136fd575050565b601f01602090049060005260206000209081019061371b9190613679565b50565b80356001600160a01b038116811461373557600080fd5b919050565b60006020828403121561374c57600080fd5b6137558261371e565b9392505050565b60006020828403121561376e57600080fd5b5035919050565b634e487b7160e01b600052604160045260246000fd5b60405160c081016001600160401b03811182821017156137ad576137ad613775565b60405290565b604051608081016001600160401b03811182821017156137ad576137ad613775565b604080519081016001600160401b03811182821017156137ad576137ad613775565b60405161010081016001600160401b03811182821017156137ad576137ad613775565b60405160a081016001600160401b03811182821017156137ad576137ad613775565b6040516101c081016001600160401b03811182821017156137ad576137ad613775565b604051601f8201601f191681016001600160401b038111828210171561388757613887613775565b604052919050565b600082601f8301126138a057600080fd5b81356001600160401b038111156138b9576138b9613775565b6138cc601f8201601f191660200161385f565b8181528460208386010111156138e157600080fd5b816020850160208301376000918101602001919091529392505050565b600060c0828403121561391057600080fd5b61391861378b565b905081356001600160401b038082111561393157600080fd5b61393d8583860161388f565b8352602084013591508082111561395357600080fd5b61395f8583860161388f565b6020840152604084013591508082111561397857600080fd5b6139848583860161388f565b6040840152606084013591508082111561399d57600080fd5b6139a98583860161388f565b606084015260808401359150808211156139c257600080fd5b6139ce8583860161388f565b608084015260a08401359150808211156139e757600080fd5b506139f48482850161388f565b60a08301525092915050565b600060208284031215613a1257600080fd5b81356001600160401b0380821115613a2957600080fd5b9083019060808286031215613a3d57600080fd5b613a456137b3565b613a4e8361371e565b8152602083013582811115613a6257600080fd5b613a6e8782860161388f565b60208301525060408301356040820152606083013582811115613a9057600080fd5b613a9c878286016138fe565b60608301525095945050505050565b6000815180845260005b81811015613ad157602081850181015186830182015201613ab5565b81811115613ae3576000602083870101525b50601f01601f19169290920160200192915050565b60006020808301818452808551808352604092508286019150828160051b87010184880160005b83811015613bac57888303603f19018552815180516001600160a01b031684528781015160a089860181905290613b5882870182613aab565b915050878201518886015260608083015186830382880152613b7a8382613aab565b9250505060808083015192508582038187015250613b988183613aab565b968901969450505090860190600101613b1f565b509098975050505050505050565b6020815260006137556020830184613aab565b6000815160408452613be26040850182613aab565b905060208301518482036020860152613bfb8282613aab565b95945050505050565b6000815160c08452613c1960c0850182613aab565b905060208301518482036020860152613c328282613aab565b91505060408301518482036040860152613c4c8282613aab565b91505060608301518482036060860152613c668282613aab565b91505060808301518482036080860152613c808282613aab565b91505060a083015184820360a0860152613bfb8282613aab565b634e487b7160e01b600052602160045260246000fd5b60048110613cce57634e487b7160e01b600052602160045260246000fd5b9052565b60006040830182516040855281815180845260608701915060608160051b88010193506020808401935060005b82811015613d2d57605f19898703018452613d1b868651613aab565b95509381019392810192600101613cff565b5080870151935087850381890152505050613bfb8282613aab565b60208152613d626020820183516001600160a01b03169052565b60006020830151610100806040850152613d80610120850183613bcd565b91506040850151601f1980868503016060870152613d9e8483613bcd565b93506060870151915080868503016080870152613dbb8483613c04565b935060808701519150613dd160a0870183613cb0565b60a087015160c087015260c08701519150808685030160e087015250613df78382613cd2565b92505060e0850151613e13828601826001600160a01b03169052565b5090949350505050565b6001600160a01b038616815260a060208201819052600090613e4190830187613aab565b8560408401528281036060840152613e598186613aab565b90508281036080840152613e6d8185613aab565b98975050505050505050565b602080825282516001600160a01b03168282015282015160806040830152600090613ea760a0840182613aab565b9050604084015160608401526060840151601f19848303016080850152613bfb8282613c04565b6020808252825182820181905260009190848201906040850190845b81811015613f0f5783516001600160a01b031683529284019291840191600101613eea565b50909695505050505050565b600060408284031215613f2d57600080fd5b613f356137d5565b905081356001600160401b0380821115613f4e57600080fd5b613f5a8583860161388f565b83526020840135915080821115613f7057600080fd5b50613f7d8482850161388f565b60208301525092915050565b80356004811061373557600080fd5b600060408284031215613faa57600080fd5b613fb26137d5565b905081356001600160401b0380821115613fcb57600080fd5b818401915084601f830112613fdf57600080fd5b8135602082821115613ff357613ff3613775565b8160051b61400282820161385f565b928352848101820192828101908985111561401c57600080fd5b83870192505b848310156140585782358681111561403a5760008081fd5b6140488b86838b010161388f565b8352509183019190830190614022565b875250508581013593508284111561406f57600080fd5b61407b8785880161388f565b818601525050505092915050565b60006020828403121561409b57600080fd5b81356001600160401b03808211156140b257600080fd5b9083019061010082860312156140c757600080fd5b6140cf6137f7565b6140d88361371e565b81526020830135828111156140ec57600080fd5b6140f887828601613f1b565b60208301525060408301358281111561411057600080fd5b61411c87828601613f1b565b60408301525060608301358281111561413457600080fd5b614140878286016138fe565b60608301525061415260808401613f89565b608082015260a083013560a082015260c08301358281111561417357600080fd5b61417f87828601613f98565b60c08301525061419160e0840161371e565b60e082015295945050505050565b602081526141b96020820183516001600160a01b03169052565b600060208301516101c08060408501526141d76101e0850183613bcd565b91506040850151601f19808685030160608701526141f58483613bcd565b93506060870151915061420b6080870183613cb0565b608087015160a087015260a08701519150808685030160c08701526142308483613c04565b935060c0870151915061424760e087018315159052565b60e087015161010087810191909152870151915061012061426b8188018415159052565b808801519250506101408281880152808801519250506101608187860301818801526142978584613cd2565b945080880151925050506101806142b8818701836001600160a01b03169052565b86015190506101a06142d4868201836001600160a01b03169052565b860151801515838701529050613e13565b6000602082840312156142f757600080fd5b81356001600160401b038082111561430e57600080fd5b9083019060a0828603121561432257600080fd5b61432a61381a565b6143338361371e565b815260208301358281111561434757600080fd5b6143538782860161388f565b6020830152506040830135604082015260608301358281111561437557600080fd5b6143818782860161388f565b60608301525060808301358281111561439957600080fd5b6143a58782860161388f565b60808301525095945050505050565b8035801515811461373557600080fd5b6000602082840312156143d657600080fd5b81356001600160401b03808211156143ed57600080fd5b908301906101c0828603121561440257600080fd5b61440a61383c565b6144138361371e565b815260208301358281111561442757600080fd5b61443387828601613f1b565b60208301525060408301358281111561444b57600080fd5b61445787828601613f1b565b60408301525061446960608401613f89565b60608201526080830135608082015260a08301358281111561448a57600080fd5b614496878286016138fe565b60a0830152506144a860c084016143b4565b60c082015260e083013560e08201526101006144c58185016143b4565b90820152610120838101359082015261014080840135838111156144e857600080fd5b6144f488828701613f98565b828401525050610160915061450a82840161371e565b82820152610180915061451e82840161371e565b828201526101a091506145328284016143b4565b91810191909152949350505050565b600181811c9082168061455557607f821691505b6020821081141561457657634e487b7160e01b600052602260045260246000fd5b50919050565b634e487b7160e01b600052603260045260246000fd5b60006000198214156145b457634e487b7160e01b600052601160045260246000fd5b5060010190565b60208082526023908201527f4f6e6c79204f7267616e69736174696f6e2041646d696e2043616e20446f20546040820152621a185d60ea1b60608201526080019056fea26469706673582212203eb7dce9c4868b3a5abb7d1e16fdc7fd9daa69ca22f07d29caa1e4f6107ecead64736f6c634300080b0033",
  "immutableReferences": {},
  "source": "// SPDX-License-Identifier: MIT\npragma solidity >= 0.8.11;\n\ncontract Contract{\n\n    struct Role {\n        mapping (address => bool) bearer;\n    }\n    //Add a role to an account\n    function add(Role storage role, address account) internal {\n        require(!has(role, account), \"Roles: account already has role\");\n        role.bearer[account] = true;\n    }\n    //Remove a role from an account\n    function remove(Role storage role, address account) internal {\n        require(has(role, account), \"Roles: account does not have role\");\n        role.bearer[account] = false;\n    }\n    //Check if an account has a role\n    function has(Role storage role, address account) internal view returns (bool) {\n        require(account != address(0), \"Roles: account is the zero address\");\n        return role.bearer[account];\n    }\n\n    Role private centralAuthority;\n    Role private organisationAdmin;\n    Role private practitioner;\n    Role private patient;\n\n     /*\n        Modifiers\n    */\n\n    modifier onlyCentralAuthority(){\n        require(has(centralAuthority,msg.sender) == true, 'Only Central Authority Can Do That');\n        _;\n    }\n    modifier onlyOrganisationAdmin(){\n        require(has(organisationAdmin,msg.sender) == true, 'Only Organisation Admin Can Do That');\n        _;\n    }\n    modifier onlyPractitioner(){\n        require(has(practitioner,msg.sender) == true, 'Only Practitioner Can Do That');\n        _;\n    }\n    modifier onlyPatient(){\n        require(has(patient,msg.sender) == true, 'Only Patient Can Do That');\n        _;\n    }\n    \n    /*\n        General Information\n    */\n    struct HumanName{\n        string givenNames;\n        string surname;\n    }\n\n    struct ContactPoint{\n        string phoneNumber;\n        string email;\n    }\n    \n    struct PhysicalAddress{\n        string use;\n        string street;\n        string city;\n        string state;\n        string postalCode;\n        string country;\n    }\n\n    struct Communication{\n        string[] languages;\n        string preferred;\n    }\n\n    enum Gender{ MALE, FEMALE, OTHER, UNKNOWN }\n\n    struct Organisation{\n        address id;\n        string name;\n        uint dateJoined;\n        PhysicalAddress organisationAddress;\n    }\n    /*\n        Practitioner\n    */\n    struct Practitioner{\n        address id;\n        HumanName name;\n        ContactPoint telecom;\n        PhysicalAddress homeAddress;\n        Gender gender;\n        uint birthDate;\n        Communication Communication;\n        address memberOrgaisation;\n    }\n    \n    /*\n        Patient\n    */\n    struct Patient{\n        address id;\n        HumanName name;\n        ContactPoint telecom;       \n        Gender gender;\n        uint birthDate;\n        PhysicalAddress homeAddress; \n        bool deceasedBoolean;\n        uint deceasedDateTime;\n        bool multipleBirthBoolean;\n        uint multipleBirthInteger;\n        Communication communication;     \n        address generalPractitioner;\n        address managingOrganisation;\n        bool exists;\n    }\n\n    enum PatientContactRelationship {GUARDIAN, PARTNER, FRIEND, FAMILY, CAREGIVER}\n\n    struct Contact{\n        PatientContactRelationship relationship;\n        HumanName name;\n        ContactPoint telecom;\n        PhysicalAddress homeAddress;\n        Gender gender;\n    }\n\n    // Start of Medical Records\n    struct MedicalRecord{\n        address patientId;\n        string recordType;\n        uint timestamp;\n        string diagnosis;\n        string treatment;\n    }\n\n    mapping(address => Organisation) Organisations;\n    mapping(address => Practitioner) Practitioners;\n    mapping(address => Patient) Patients;\n    mapping(address => MedicalRecord[]) Records;\n\n    address[] public OrganisationList;\n    address[] public PractitionerList;\n    address[] public PatientList;\n    MedicalRecord[] public MedicalRecords;\n\n    address accountId;\n    address centralAuthorityID;\n    address get_patient_id;\n    address get_dr_id;\n\n    constructor() {\n        centralAuthorityID = msg.sender;\n        add(centralAuthority,centralAuthorityID);\n    }\n\n    //get Admin\n\n    function getCentralAuthority() external view returns(address){\n        return centralAuthorityID;\n    }\n  \n    function isCentralAuthority() external view returns(bool){\n        return has(centralAuthority,tx.origin);\n    }\n\n    function addOrganisation(Organisation memory data) external onlyCentralAuthority{\n        require(has(centralAuthority,msg.sender) == true, \"Only for Admins\");\n\n        Organisation storage organisationData = Organisations[data.id];\n        organisationData.id = data.id;\n        organisationData.name = data.name;\n        organisationData.dateJoined = data.dateJoined;\n        organisationData.organisationAddress = data.organisationAddress;\n\n        OrganisationList.push(data.id);\n        add(organisationAdmin,data.id);\n    }\n\n    function getOrganisation(address id) public view returns(Organisation memory){\n        return Organisations[id];\n    }\n\n    function getAllOrganisation() external view returns(address[] memory){\n        require(has(centralAuthority,msg.sender) == true, \"Only for Central Authority\");\n        return OrganisationList;\n    }\n    /*\n\n        Practitioner\n\n    */\n    //Add Practitioner\n    function addPractitioner(Practitioner memory data) external onlyOrganisationAdmin{\n        require(has(organisationAdmin,msg.sender) == true, \"Only for Admins\");\n        Practitioner storage practitionerData = Practitioners[data.id];\n        practitionerData.id = data.id;\n        practitionerData.name = data.name;\n        practitionerData.telecom = data.telecom;\n        practitionerData.birthDate = data.birthDate;\n        practitionerData.gender = data.gender;\n        practitionerData.homeAddress = data.homeAddress;\n        practitionerData.Communication = data.Communication;\n        practitionerData.memberOrgaisation = data.memberOrgaisation;\n\n        PractitionerList.push(data.id);\n        add(practitioner,data.id);\n    }\n\n    // function updateInfo(address dr_id, string memory _drInfo_hash) public{\n    //     Practitioner storage drInfo = Practitioners[msg.sender];\n    //     drInfo.drHash = _drInfo_hash;\n    //     PractitionerList.push(dr_id);\n    // }\n\n    // function addPractitioner(address _newdr) external onlyAdmin() {\n    //     add(practitioner,_newdr);\n    // }\n\n    // function delDr(address _accid) external onlyAdmin(){\n    //     remove(practitioner,_accid);\n    // }\n\n    function get_drtid() public view returns(address){\n        return get_dr_id;\n    }\n\n    function search(address _id)public{\n        get_dr_id = _id;\n    }\n\n    function getDrInfo() public view returns(Practitioner memory){\n        return (Practitioners[get_dr_id]);\n    }\n\n    function getDr(address _id) public view returns(Practitioner memory){\n        return (Practitioners[_id]);\n    }\n\n    function isDr(address id) public view returns(string memory){\n        require(has(practitioner,id), \"Only for Practitioners\");\n        return \"1\";\n    }\n\n    function isPractitioner(address id) public view returns(int){\n        // require(practitioner.has(msg.sender), \"Only for Practitioners\");\n        for(uint i=0;i<=PractitionerList.length;i++){\n            if(PractitionerList[i] == id){\n                return 1;\n            }\n        }\n        return 0;\n    }\n\n    function getAllPractitioners() public view returns(address[] memory){\n        return(PractitionerList);\n    }\n\n    function getPractitionerCount() public view returns(uint){\n        return(PractitionerList.length);\n    }\n\n    function getOrganisationCount() public view returns(uint){\n        return(OrganisationList.length);\n    }\n\n    // function getAllDrDetails() onlyAdmin() public view returns(string[] memory) {\n    //     drIds =\n    //     return ['']\n    // }\n    /*\n            Patient\n\n    */\n    function isPat(address id) public view returns(string memory){\n        require(has(patient,id), \"Only for Practitioners\");\n        return \"1\";\n    }\n    // Check is patient\n    function isPatient(address id) public view returns(int){\n        for(uint i = 0 ;i<=PatientList.length;i++){\n            if(id == PatientList[i]){return 1;}\n        }\n        return 0;\n    }\n\n\n    // function addPatient(address _newpatient) external onl() {\n    //     add(patient,_newpatient);\n    // }\n\n    function addRec(address _patid) external onlyPractitioner{\n        require(has(patient,_patid) == true, \"is not a Patient\");\n        get_patient_id = _patid;\n    }\n    function viewPatRec(address _patid) public{\n        get_patient_id = _patid;\n    }\n\n    // function delPat(address _accid) external onlyAdmin(){\n    //     remove(patient,_accid);\n    // }\n\n    function get() public view  returns(address){\n        return msg.sender;\n    }\n\n    function get_patid() public view returns(address){\n        return get_patient_id;\n    }\n\n    function getPatInfo(address iD)public view returns(Patient memory){\n        return (Patients[iD]);\n    }\n\n    function addPatient(Patient memory data ) external onlyOrganisationAdmin{\n        require(has(organisationAdmin,msg.sender) == true, 'Only for Organisation Admins');\n        require(Patients[data.id].exists == true, \"Patient already exists\");  \n        Patient storage patientData = Patients[data.id];\n        patientData.id = data.id;\n        patientData.name = data.name;\n        patientData.telecom = data.telecom;\n        patientData.birthDate = data.birthDate;\n        patientData.communication = data.communication;\n        patientData.gender = data.gender;\n        patientData.homeAddress = data.homeAddress;\n        patientData.deceasedBoolean = data.deceasedBoolean;\n        patientData.deceasedDateTime = data.deceasedDateTime;\n        patientData.multipleBirthBoolean = data.multipleBirthBoolean;\n        patientData.multipleBirthInteger = data.multipleBirthInteger;\n        patientData.generalPractitioner = data.generalPractitioner;\n        patientData.managingOrganisation = data.managingOrganisation;\n        patientData.exists = true;\n\n        PatientList.push(data.id);\n        add(patient,data.id);\n    }\n\n    /*\n        Medical Records\n    */\n\n    function addMedicalRecord(MedicalRecord memory _record) external onlyPractitioner{\n        //require(has(practitioner,msg.sender) == true, 'Only Practitioner Can Do That');\n        _record.timestamp=block.timestamp;\n        Records[_record.patientId].push(_record);\n        // record.recordType = _record.recordType;\n        // record.diagnosis = _record.diagnosis;\n        // record.treatment = _record.treatment;\n        // record.timestamp = block.timestamp;\n        MedicalRecords.push(_record);\n    }\n\n    function viewMedicalRecord(address id)public view returns(MedicalRecord[] memory){\n        return (Records[id]);\n    }\n\n   \n\n}\n\n",
  "sourcePath": "/Users/amrhoballah/Documents/GitHub/Algobucks/contracts/Contract.sol",
  "compiler": {
    "name": "solc",
    "version": "0.8.11+commit.d7f03943.Emscripten.clang"
  },
  "schemaVersion": "3.4.6",
  "updatedAt": "2022-04-20T00:31:31.899Z",
  "networkType": "ethereum",
  "devdoc": {
    "kind": "dev",
    "methods": {},
    "version": 1
  },
  "userdoc": {
    "kind": "user",
    "methods": {},
    "version": 1
  }
}