{
  "contractName": "Contract",
  "abi": [
    {
      "inputs": [],
      "stateMutability": "nonpayable",
      "type": "constructor"
    },
    {
      "inputs": [
        {
          "internalType": "uint256",
          "name": "",
          "type": "uint256"
        }
      ],
      "name": "Dr_ids",
      "outputs": [
        {
          "internalType": "address",
          "name": "",
          "type": "address"
        }
      ],
      "stateMutability": "view",
      "type": "function",
      "constant": true
    },
    {
      "inputs": [
        {
          "internalType": "uint256",
          "name": "",
          "type": "uint256"
        }
      ],
      "name": "MedicalRecords",
      "outputs": [
        {
          "internalType": "address",
          "name": "patientId",
          "type": "address"
        },
        {
          "internalType": "string",
          "name": "recordType",
          "type": "string"
        },
        {
          "internalType": "uint256",
          "name": "timestamp",
          "type": "uint256"
        },
        {
          "internalType": "string",
          "name": "diagnosis",
          "type": "string"
        },
        {
          "internalType": "string",
          "name": "treatment",
          "type": "string"
        }
      ],
      "stateMutability": "view",
      "type": "function",
      "constant": true
    },
    {
      "inputs": [
        {
          "internalType": "uint256",
          "name": "",
          "type": "uint256"
        }
      ],
      "name": "Patient_ids",
      "outputs": [
        {
          "internalType": "address",
          "name": "",
          "type": "address"
        }
      ],
      "stateMutability": "view",
      "type": "function",
      "constant": true
    },
    {
      "inputs": [],
      "name": "getAdmin",
      "outputs": [
        {
          "internalType": "address",
          "name": "",
          "type": "address"
        }
      ],
      "stateMutability": "view",
      "type": "function",
      "constant": true
    },
    {
      "inputs": [
        {
          "internalType": "address",
          "name": "dr_id",
          "type": "address"
        },
        {
          "internalType": "string",
          "name": "firstName",
          "type": "string"
        },
        {
          "internalType": "string",
          "name": "lastName",
          "type": "string"
        }
      ],
      "name": "addDrInfo",
      "outputs": [],
      "stateMutability": "nonpayable",
      "type": "function"
    },
    {
      "inputs": [
        {
          "internalType": "address",
          "name": "_newdr",
          "type": "address"
        }
      ],
      "name": "addDoctor",
      "outputs": [],
      "stateMutability": "nonpayable",
      "type": "function"
    },
    {
      "inputs": [
        {
          "internalType": "address",
          "name": "_accid",
          "type": "address"
        }
      ],
      "name": "delDr",
      "outputs": [],
      "stateMutability": "nonpayable",
      "type": "function"
    },
    {
      "inputs": [],
      "name": "get_drtid",
      "outputs": [
        {
          "internalType": "address",
          "name": "",
          "type": "address"
        }
      ],
      "stateMutability": "view",
      "type": "function",
      "constant": true
    },
    {
      "inputs": [
        {
          "internalType": "address",
          "name": "_id",
          "type": "address"
        }
      ],
      "name": "search",
      "outputs": [],
      "stateMutability": "nonpayable",
      "type": "function"
    },
    {
      "inputs": [],
      "name": "getDrInfo",
      "outputs": [
        {
          "components": [
            {
              "internalType": "string",
              "name": "firstName",
              "type": "string"
            },
            {
              "internalType": "string",
              "name": "lastName",
              "type": "string"
            }
          ],
          "internalType": "struct Contract.Doctor",
          "name": "",
          "type": "tuple"
        }
      ],
      "stateMutability": "view",
      "type": "function",
      "constant": true
    },
    {
      "inputs": [
        {
          "internalType": "address",
          "name": "_id",
          "type": "address"
        }
      ],
      "name": "getDr",
      "outputs": [
        {
          "components": [
            {
              "internalType": "string",
              "name": "firstName",
              "type": "string"
            },
            {
              "internalType": "string",
              "name": "lastName",
              "type": "string"
            }
          ],
          "internalType": "struct Contract.Doctor",
          "name": "",
          "type": "tuple"
        }
      ],
      "stateMutability": "view",
      "type": "function",
      "constant": true
    },
    {
      "inputs": [
        {
          "internalType": "address",
          "name": "id",
          "type": "address"
        }
      ],
      "name": "isDr",
      "outputs": [
        {
          "internalType": "string",
          "name": "",
          "type": "string"
        }
      ],
      "stateMutability": "view",
      "type": "function",
      "constant": true
    },
    {
      "inputs": [
        {
          "internalType": "address",
          "name": "id",
          "type": "address"
        }
      ],
      "name": "isDoctor",
      "outputs": [
        {
          "internalType": "int256",
          "name": "",
          "type": "int256"
        }
      ],
      "stateMutability": "view",
      "type": "function",
      "constant": true
    },
    {
      "inputs": [],
      "name": "getAllDrs",
      "outputs": [
        {
          "internalType": "address[]",
          "name": "",
          "type": "address[]"
        }
      ],
      "stateMutability": "view",
      "type": "function",
      "constant": true
    },
    {
      "inputs": [],
      "name": "getDoctorCount",
      "outputs": [
        {
          "internalType": "uint256",
          "name": "",
          "type": "uint256"
        }
      ],
      "stateMutability": "view",
      "type": "function",
      "constant": true
    },
    {
      "inputs": [
        {
          "internalType": "address",
          "name": "id",
          "type": "address"
        }
      ],
      "name": "isPat",
      "outputs": [
        {
          "internalType": "string",
          "name": "",
          "type": "string"
        }
      ],
      "stateMutability": "view",
      "type": "function",
      "constant": true
    },
    {
      "inputs": [
        {
          "internalType": "address",
          "name": "id",
          "type": "address"
        }
      ],
      "name": "isPatient",
      "outputs": [
        {
          "internalType": "int256",
          "name": "",
          "type": "int256"
        }
      ],
      "stateMutability": "view",
      "type": "function",
      "constant": true
    },
    {
      "inputs": [
        {
          "internalType": "address",
          "name": "_newpatient",
          "type": "address"
        }
      ],
      "name": "addPatient",
      "outputs": [],
      "stateMutability": "nonpayable",
      "type": "function"
    },
    {
      "inputs": [
        {
          "internalType": "address",
          "name": "_patid",
          "type": "address"
        }
      ],
      "name": "addRec",
      "outputs": [],
      "stateMutability": "nonpayable",
      "type": "function"
    },
    {
      "inputs": [
        {
          "internalType": "address",
          "name": "_patid",
          "type": "address"
        }
      ],
      "name": "viewPatRec",
      "outputs": [],
      "stateMutability": "nonpayable",
      "type": "function"
    },
    {
      "inputs": [
        {
          "internalType": "address",
          "name": "_accid",
          "type": "address"
        }
      ],
      "name": "delPat",
      "outputs": [],
      "stateMutability": "nonpayable",
      "type": "function"
    },
    {
      "inputs": [],
      "name": "get",
      "outputs": [
        {
          "internalType": "address",
          "name": "",
          "type": "address"
        }
      ],
      "stateMutability": "view",
      "type": "function",
      "constant": true
    },
    {
      "inputs": [],
      "name": "get_patid",
      "outputs": [
        {
          "internalType": "address",
          "name": "",
          "type": "address"
        }
      ],
      "stateMutability": "view",
      "type": "function",
      "constant": true
    },
    {
      "inputs": [
        {
          "internalType": "address",
          "name": "iD",
          "type": "address"
        }
      ],
      "name": "getPatInfo",
      "outputs": [
        {
          "components": [
            {
              "internalType": "string",
              "name": "firstName",
              "type": "string"
            },
            {
              "internalType": "string",
              "name": "lastName",
              "type": "string"
            }
          ],
          "internalType": "struct Contract.Patient",
          "name": "",
          "type": "tuple"
        }
      ],
      "stateMutability": "view",
      "type": "function",
      "constant": true
    },
    {
      "inputs": [
        {
          "internalType": "address",
          "name": "pat_id",
          "type": "address"
        },
        {
          "internalType": "string",
          "name": "firstName",
          "type": "string"
        },
        {
          "internalType": "string",
          "name": "lastName",
          "type": "string"
        }
      ],
      "name": "addPatInfo",
      "outputs": [],
      "stateMutability": "nonpayable",
      "type": "function"
    },
    {
      "inputs": [
        {
          "components": [
            {
              "internalType": "address",
              "name": "patientId",
              "type": "address"
            },
            {
              "internalType": "string",
              "name": "recordType",
              "type": "string"
            },
            {
              "internalType": "uint256",
              "name": "timestamp",
              "type": "uint256"
            },
            {
              "internalType": "string",
              "name": "diagnosis",
              "type": "string"
            },
            {
              "internalType": "string",
              "name": "treatment",
              "type": "string"
            }
          ],
          "internalType": "struct Contract.MedicalRecord",
          "name": "_record",
          "type": "tuple"
        }
      ],
      "name": "addMedicalRecord",
      "outputs": [],
      "stateMutability": "nonpayable",
      "type": "function"
    },
    {
      "inputs": [
        {
          "internalType": "address",
          "name": "id",
          "type": "address"
        }
      ],
      "name": "viewMedicalRecord",
      "outputs": [
        {
          "components": [
            {
              "internalType": "address",
              "name": "patientId",
              "type": "address"
            },
            {
              "internalType": "string",
              "name": "recordType",
              "type": "string"
            },
            {
              "internalType": "uint256",
              "name": "timestamp",
              "type": "uint256"
            },
            {
              "internalType": "string",
              "name": "diagnosis",
              "type": "string"
            },
            {
              "internalType": "string",
              "name": "treatment",
              "type": "string"
            }
          ],
          "internalType": "struct Contract.MedicalRecord[]",
          "name": "",
          "type": "tuple[]"
        }
      ],
      "stateMutability": "view",
      "type": "function",
      "constant": true
    }
  ],
  "bytecode": "0x60806040523480156200001157600080fd5b50600a80546001600160a01b0319163390811790915562000035906000906200003b565b62000144565b620000478282620000bf565b156200009a5760405162461bcd60e51b815260206004820152601f60248201527f526f6c65733a206163636f756e7420616c72656164792068617320726f6c650060448201526064015b60405180910390fd5b6001600160a01b0316600090815260209190915260409020805460ff19166001179055565b60006001600160a01b038216620001245760405162461bcd60e51b815260206004820152602260248201527f526f6c65733a206163636f756e7420697320746865207a65726f206164647265604482015261737360f01b606482015260840162000091565b506001600160a01b03166000908152602091909152604090205460ff1690565b6119e780620001546000396000f3fe608060405234801561001057600080fd5b50600436106101a95760003560e01c806379111c1c116100f9578063be95687311610097578063d2fce6cc11610071578063d2fce6cc146103b8578063d4fd45c4146103cb578063ddf8f98b146103de578063e33220d0146103ef57600080fd5b8063be9568731461037f578063c979783f14610392578063cc572914146103a557600080fd5b806392bed5ce116100d357806392bed5ce1461032057806394a1162c14610335578063996440c6146103595780639fd067741461036c57600080fd5b806379111c1c146102e85780638f9c79ed146102fa57806391174ee11461030d57600080fd5b80634fe6c950116101665780636d263ceb116101405780636d263ceb1461029e5780636d4ce63c146102b15780636e9960c3146102b7578063720d5b4b146102c857600080fd5b80634fe6c9501461023b5780636052f8251461024e578063657a25121461026e57600080fd5b8063047f66c3146101ae5780631b61c08c146101c35780631c7fb129146101d65780631da3e2dc146102005780632f4a4dcb146102155780634780468f14610228575b600080fd5b6101c16101bc3660046114a7565b610402565b005b6101c16101d1366004611595565b610424565b600c546001600160a01b03165b6040516001600160a01b0390911681526020015b60405180910390f35b610208610512565b6040516101f79190611609565b6101e3610223366004611656565b610574565b6101c16102363660046114a7565b61059e565b6101c16102493660046114a7565b6105d8565b61026161025c3660046114a7565b61060f565b6040516101f791906116bc565b6101c161027c3660046114a7565b600c80546001600160a01b0319166001600160a01b0392909216919091179055565b6101c16102ac3660046114a7565b61085a565b336101e3565b600a546001600160a01b03166101e3565b6102db6102d63660046114a7565b610891565b6040516101f7919061177e565b6006545b6040519081526020016101f7565b6102ec6103083660046114a7565b6108fa565b6101c161031b366004611595565b61095d565b610328610a53565b6040516101f791906117c8565b610348610343366004611656565b610bb3565b6040516101f79594939291906117db565b6102ec6103673660046114a7565b610d97565b6101c161037a3660046114a7565b610df7565b6102db61038d3660046114a7565b610e2e565b6101e36103a0366004611656565b610e3b565b6103286103b33660046114a7565b610e4b565b6101c16103c63660046114a7565b610fab565b6103286103d93660046114a7565b611050565b600b546001600160a01b03166101e3565b6101c16103fd366004611837565b611095565b600b80546001600160a01b0319166001600160a01b0392909216919091179055565b61042f600033611271565b6104725760405162461bcd60e51b815260206004820152600f60248201526e27b7363c902337b9102237b1ba37b960891b60448201526064015b60405180910390fd5b6001600160a01b03831660009081526003602090815260409091208351909161049f9183918601906113f2565b5081516104b590600183019060208501906113f2565b5060068054600180820183556000929092527ff652222313e28459528d920b65115c16c04f3efc82aaedc97be59f3f377c0d3f0180546001600160a01b0319166001600160a01b03871617905561050c90856112f4565b50505050565b6060600680548060200260200160405190810160405280929190818152602001828054801561056a57602002820191906000526020600020905b81546001600160a01b0316815260019091019060200180831161054c575b5050505050905090565b6007818154811061058457600080fd5b6000918252602090912001546001600160a01b0316905081565b6105a9600033611271565b15156001146105ca5760405162461bcd60e51b815260040161046990611907565b6105d56001826112f4565b50565b6105e3600033611271565b15156001146106045760405162461bcd60e51b815260040161046990611907565b6105d5600182611370565b6001600160a01b0381166000908152600560209081526040808320805482518185028101850190935280835260609492939192909184015b8282101561084f5760008481526020908190206040805160a081019091526005850290910180546001600160a01b03168252600181018054929391929184019161069090611937565b80601f01602080910402602001604051908101604052809291908181526020018280546106bc90611937565b80156107095780601f106106de57610100808354040283529160200191610709565b820191906000526020600020905b8154815290600101906020018083116106ec57829003601f168201915b505050505081526020016002820154815260200160038201805461072c90611937565b80601f016020809104026020016040519081016040528092919081815260200182805461075890611937565b80156107a55780601f1061077a576101008083540402835291602001916107a5565b820191906000526020600020905b81548152906001019060200180831161078857829003601f168201915b505050505081526020016004820180546107be90611937565b80601f01602080910402602001604051908101604052809291908181526020018280546107ea90611937565b80156108375780601f1061080c57610100808354040283529160200191610837565b820191906000526020600020905b81548152906001019060200180831161081a57829003601f168201915b50505050508152505081526020019060010190610647565b505050509050919050565b610865600033611271565b15156001146108865760405162461bcd60e51b815260040161046990611907565b6105d56002826112f4565b606061089e600283611271565b6108dd5760405162461bcd60e51b815260206004820152601060248201526f4f6e6c7920666f7220446f63746f727360801b6044820152606401610469565b50506040805180820190915260018152603160f81b602082015290565b6000805b6007548111610954576007818154811061091a5761091a611972565b6000918252602090912001546001600160a01b03848116911614156109425750600192915050565b8061094c81611988565b9150506108fe565b50600092915050565b610968600033611271565b15156001146109b95760405162461bcd60e51b815260206004820152601b60248201527f4f6e6c7920796f752043616e2041646420796f757220696e666f2000000000006044820152606401610469565b6001600160a01b0383166000908152600460209081526040909120835190916109e69183918601906113f2565b5081516109fc90600183019060208501906113f2565b50600780546001810182556000919091527fa66cc928b5edb82af9bd49922954155ab7b0942694bea4ce44661d9a8736c6880180546001600160a01b0319166001600160a01b03861617905561050c6002856112f4565b6040805180820190915260608082526020820152600c546001600160a01b0316600090815260036020526040908190208151808301909252805482908290610a9a90611937565b80601f0160208091040260200160405190810160405280929190818152602001828054610ac690611937565b8015610b135780601f10610ae857610100808354040283529160200191610b13565b820191906000526020600020905b815481529060010190602001808311610af657829003601f168201915b50505050508152602001600182018054610b2c90611937565b80601f0160208091040260200160405190810160405280929190818152602001828054610b5890611937565b8015610ba55780601f10610b7a57610100808354040283529160200191610ba5565b820191906000526020600020905b815481529060010190602001808311610b8857829003601f168201915b505050505081525050905090565b60088181548110610bc357600080fd5b6000918252602090912060059091020180546001820180546001600160a01b03909216935090610bf290611937565b80601f0160208091040260200160405190810160405280929190818152602001828054610c1e90611937565b8015610c6b5780601f10610c4057610100808354040283529160200191610c6b565b820191906000526020600020905b815481529060010190602001808311610c4e57829003601f168201915b505050505090806002015490806003018054610c8690611937565b80601f0160208091040260200160405190810160405280929190818152602001828054610cb290611937565b8015610cff5780601f10610cd457610100808354040283529160200191610cff565b820191906000526020600020905b815481529060010190602001808311610ce257829003601f168201915b505050505090806004018054610d1490611937565b80601f0160208091040260200160405190810160405280929190818152602001828054610d4090611937565b8015610d8d5780601f10610d6257610100808354040283529160200191610d8d565b820191906000526020600020905b815481529060010190602001808311610d7057829003601f168201915b5050505050905085565b6000805b600654811161095457826001600160a01b031660068281548110610dc157610dc1611972565b6000918252602090912001546001600160a01b03161415610de55750600192915050565b80610def81611988565b915050610d9b565b610e02600033611271565b1515600114610e235760405162461bcd60e51b815260040161046990611907565b6105d5600282611370565b606061089e600183611271565b6006818154811061058457600080fd5b60408051808201909152606080825260208201526001600160a01b038216600090815260046020526040908190208151808301909252805482908290610e9090611937565b80601f0160208091040260200160405190810160405280929190818152602001828054610ebc90611937565b8015610f095780601f10610ede57610100808354040283529160200191610f09565b820191906000526020600020905b815481529060010190602001808311610eec57829003601f168201915b50505050508152602001600182018054610f2290611937565b80601f0160208091040260200160405190810160405280929190818152602001828054610f4e90611937565b8015610f9b5780601f10610f7057610100808354040283529160200191610f9b565b820191906000526020600020905b815481529060010190602001808311610f7e57829003601f168201915b5050505050815250509050919050565b610fb6600133611271565b15156001146110015760405162461bcd60e51b815260206004820152601760248201527613db9b1e48111bd8dd1bdc8810d85b88111bc8151a185d604a1b6044820152606401610469565b61100c600282611271565b15156001146104025760405162461bcd60e51b815260206004820152601060248201526f1a5cc81b9bdd08184814185d1a595b9d60821b6044820152606401610469565b60408051808201909152606080825260208201526001600160a01b038216600090815260036020526040908190208151808301909252805482908290610e9090611937565b6110a0600133611271565b15156001146110eb5760405162461bcd60e51b815260206004820152601760248201527613db9b1e48111bd8dd1bdc8810d85b88111bc8151a185d604a1b6044820152606401610469565b4260408281019190915281516001600160a01b039081166000908152600560208181529382208054600180820183559184529285902086519390920290910180546001600160a01b0319169290931691909117825582840151805185946111569385019201906113f2565b50604082015160028201556060820151805161117c9160038401916020909101906113f2565b50608082015180516111989160048401916020909101906113f2565b505060088054600181018255600091909152825160059091027ff3f7a9fe364faab93b216da50a3214154f22a0a2b415b23a84c8169e8b636ee3810180546001600160a01b039093166001600160a01b0319909316929092178255602080850151805186955061122f937ff3f7a9fe364faab93b216da50a3214154f22a0a2b415b23a84c8169e8b636ee4019291909101906113f2565b5060408201516002820155606082015180516112559160038401916020909101906113f2565b506080820151805161050c9160048401916020909101906113f2565b60006001600160a01b0382166112d45760405162461bcd60e51b815260206004820152602260248201527f526f6c65733a206163636f756e7420697320746865207a65726f206164647265604482015261737360f01b6064820152608401610469565b506001600160a01b03166000908152602091909152604090205460ff1690565b6112fe8282611271565b1561134b5760405162461bcd60e51b815260206004820152601f60248201527f526f6c65733a206163636f756e7420616c72656164792068617320726f6c65006044820152606401610469565b6001600160a01b0316600090815260209190915260409020805460ff19166001179055565b61137a8282611271565b6113d05760405162461bcd60e51b815260206004820152602160248201527f526f6c65733a206163636f756e7420646f6573206e6f74206861766520726f6c6044820152606560f81b6064820152608401610469565b6001600160a01b0316600090815260209190915260409020805460ff19169055565b8280546113fe90611937565b90600052602060002090601f0160209004810192826114205760008555611466565b82601f1061143957805160ff1916838001178555611466565b82800160010185558215611466579182015b8281111561146657825182559160200191906001019061144b565b50611472929150611476565b5090565b5b808211156114725760008155600101611477565b80356001600160a01b03811681146114a257600080fd5b919050565b6000602082840312156114b957600080fd5b6114c28261148b565b9392505050565b634e487b7160e01b600052604160045260246000fd5b60405160a0810167ffffffffffffffff81118282101715611502576115026114c9565b60405290565b600082601f83011261151957600080fd5b813567ffffffffffffffff80821115611534576115346114c9565b604051601f8301601f19908116603f0116810190828211818310171561155c5761155c6114c9565b8160405283815286602085880101111561157557600080fd5b836020870160208301376000602085830101528094505050505092915050565b6000806000606084860312156115aa57600080fd5b6115b38461148b565b9250602084013567ffffffffffffffff808211156115d057600080fd5b6115dc87838801611508565b935060408601359150808211156115f257600080fd5b506115ff86828701611508565b9150509250925092565b6020808252825182820181905260009190848201906040850190845b8181101561164a5783516001600160a01b031683529284019291840191600101611625565b50909695505050505050565b60006020828403121561166857600080fd5b5035919050565b6000815180845260005b8181101561169557602081850181015186830182015201611679565b818111156116a7576000602083870101525b50601f01601f19169290920160200192915050565b60006020808301818452808551808352604092508286019150828160051b87010184880160005b8381101561177057888303603f19018552815180516001600160a01b031684528781015160a08986018190529061171c8287018261166f565b91505087820151888601526060808301518683038288015261173e838261166f565b925050506080808301519250858203818701525061175c818361166f565b9689019694505050908601906001016116e3565b509098975050505050505050565b6020815260006114c2602083018461166f565b60008151604084526117a6604085018261166f565b9050602083015184820360208601526117bf828261166f565b95945050505050565b6020815260006114c26020830184611791565b6001600160a01b038616815260a0602082018190526000906117ff9083018761166f565b8560408401528281036060840152611817818661166f565b9050828103608084015261182b818561166f565b98975050505050505050565b60006020828403121561184957600080fd5b813567ffffffffffffffff8082111561186157600080fd5b9083019060a0828603121561187557600080fd5b61187d6114df565b6118868361148b565b815260208301358281111561189a57600080fd5b6118a687828601611508565b602083015250604083013560408201526060830135828111156118c857600080fd5b6118d487828601611508565b6060830152506080830135828111156118ec57600080fd5b6118f887828601611508565b60808301525095945050505050565b60208082526016908201527513db9b1e4810591b5a5b8810d85b88111bc8151a185d60521b604082015260600190565b600181811c9082168061194b57607f821691505b6020821081141561196c57634e487b7160e01b600052602260045260246000fd5b50919050565b634e487b7160e01b600052603260045260246000fd5b60006000198214156119aa57634e487b7160e01b600052601160045260246000fd5b506001019056fea2646970667358221220aac7c59a4a936d36401488e019499bc6bad32d0ac1e82bf366fbb8221842195f64736f6c634300080b0033",
  "immutableReferences": {},
  "source": "// SPDX-License-Identifier: MIT\npragma solidity >= 0.4.21;\n\ncontract Contract{\n\n    struct Role {\n        mapping (address => bool) bearer;\n    }\n    //Add a role to an account\n    function add(Role storage role, address account) internal {\n        require(!has(role, account), \"Roles: account already has role\");\n        role.bearer[account] = true;\n    }\n    //Remove a role from an account\n    function remove(Role storage role, address account) internal {\n        require(has(role, account), \"Roles: account does not have role\");\n        role.bearer[account] = false;\n    }\n    //Check if an account has a role\n    function has(Role storage role, address account) internal view returns (bool) {\n        require(account != address(0), \"Roles: account is the zero address\");\n        return role.bearer[account];\n    }\n\n    Role private admin;\n    Role private doctor;\n    Role private patient;\n\n     /*\n        Modifiers\n    */\n\n\n    modifier onlyAdmin(){\n        require(has(admin,msg.sender) == true, 'Only Admin Can Do That');\n        _;\n    }\n    modifier onlyDoctor(){\n        require(has(doctor,msg.sender) == true, 'Only Doctor Can Do That');\n        _;\n    }\n    modifier onlyPatient(){\n        require(has(patient,msg.sender) == true, 'Only Admin Can Do That');\n        _;\n    }\n\n    struct Doctor{\n        string firstName;\n        string lastName;\n\n    }\n\n    struct Patient{\n        string firstName;\n        string lastName;\n    }\n\n    struct MedicalRecord{\n        address patientId;\n        string recordType;\n        uint timestamp;\n        string diagnosis;\n        string treatment;\n    }\n\n    mapping(address => Doctor) Doctors;\n    mapping(address => Patient) Patients;\n    mapping(address => MedicalRecord[]) Records;\n\n    address[] public Dr_ids;\n    address[] public Patient_ids;\n    MedicalRecord[] public MedicalRecords;\n\n    address accountId;\n    address admin_id;\n    address get_patient_id;\n    address get_dr_id;\n\n    constructor() {\n        admin_id = msg.sender;\n        add(admin,admin_id);\n    }\n\n    //get Admin\n\n    function getAdmin() public view returns(address){\n        return admin_id;\n    }\n\n    /*\n\n        Doctor\n\n    */\n    //Add Doctor\n\n    function addDrInfo(address dr_id, string memory firstName, string memory lastName) public{\n        require(has(admin,msg.sender), 'Only For Doctor');\n\n        Doctor storage drInfo = Doctors[dr_id];\n        drInfo.firstName = firstName;\n        drInfo.lastName = lastName;\n        Dr_ids.push(dr_id);\n\n        add(doctor,dr_id);\n    }\n\n    // function updateInfo(address dr_id, string memory _drInfo_hash) public{\n    //     Doctor storage drInfo = Doctors[msg.sender];\n    //     drInfo.drHash = _drInfo_hash;\n    //     Dr_ids.push(dr_id);\n    // }\n\n    function addDoctor(address _newdr) external onlyAdmin() {\n        add(doctor,_newdr);\n    }\n\n    function delDr(address _accid) external onlyAdmin(){\n        remove(doctor,_accid);\n    }\n\n    function get_drtid() public view returns(address){\n        return get_dr_id;\n    }\n\n    function search(address _id)public{\n        get_dr_id = _id;\n    }\n\n    function getDrInfo() public view returns(Doctor memory){\n        return (Doctors[get_dr_id]);\n    }\n\n    function getDr(address _id) public view returns(Doctor memory){\n        return (Doctors[_id]);\n    }\n\n    function isDr(address id) public view returns(string memory){\n        require(has(doctor,id), \"Only for Doctors\");\n        return \"1\";\n    }\n\n    function isDoctor(address id) public view returns(int){\n        // require(doctor.has(msg.sender), \"Only for Doctors\");\n        for(uint i=0;i<=Dr_ids.length;i++){\n            if(Dr_ids[i] == id){\n                return 1;\n            }\n        }\n        return 0;\n    }\n\n    function getAllDrs() public view returns(address[] memory){\n        return(Dr_ids);\n    }\n\n    function getDoctorCount() public view returns(uint){\n        return(Dr_ids.length);\n    }\n\n    // function getAllDrDetails() onlyAdmin() public view returns(string[] memory) {\n    //     drIds =\n    //     return ['']\n    // }\n    /*\n            Patient\n\n    */\n    function isPat(address id) public view returns(string memory){\n        require(has(patient,id), \"Only for Doctors\");\n        return \"1\";\n    }\n    // Check is patient\n    function isPatient(address id) public view returns(int){\n        for(uint i = 0 ;i<=Patient_ids.length;i++){\n            if(id == Patient_ids[i]){return 1;}\n        }\n        return 0;\n    }\n\n\n    function addPatient(address _newpatient) external onlyAdmin() {\n        add(patient,_newpatient);\n    }\n\n    function addRec(address _patid) external onlyDoctor() {\n        require(has(patient,_patid) == true, \"is not a Patient\");\n        get_patient_id = _patid;\n    }\n    function viewPatRec(address _patid) public{\n        get_patient_id = _patid;\n    }\n\n    function delPat(address _accid) external onlyAdmin(){\n        remove(patient,_accid);\n    }\n    function get() public view  returns(address){\n        return msg.sender;\n    }\n    function get_patid() public view returns(address){\n        return get_patient_id;\n    }\n    function getPatInfo(address iD)public view returns(Patient memory){\n        return (Patients[iD]);\n    }\n    function addPatInfo(address pat_id, string memory firstName, string memory lastName) public {\n        require(has(admin,msg.sender) == true, 'Only you Can Add your info ');\n        Patient storage patInfo = Patients[pat_id];\n        patInfo.firstName = firstName;\n        patInfo.lastName = lastName;\n        Patient_ids.push(pat_id);\n\n        add(patient,pat_id);\n    }\n\n    /*\n\n        Medical Records\n\n\n    */\n\n    function addMedicalRecord(MedicalRecord memory _record) external onlyDoctor{\n        //require(has(doctor,msg.sender) == true, 'Only Doctor Can Do That');\n        _record.timestamp=block.timestamp;\n        Records[_record.patientId].push(_record);\n        // record.recordType = _record.recordType;\n        // record.diagnosis = _record.diagnosis;\n        // record.treatment = _record.treatment;\n        // record.timestamp = block.timestamp;\n        MedicalRecords.push(_record);\n    }\n\n    function viewMedicalRecord(address id)public view returns(MedicalRecord[] memory){\n        return (Records[id]);\n    }\n\n   \n\n}\n\n",
  "sourcePath": "/Users/amrhoballah/Documents/GitHub/Algobucks/contracts/Contract.sol",
  "compiler": {
    "name": "solc",
    "version": "0.8.11+commit.d7f03943.Emscripten.clang"
  },
  "schemaVersion": "3.4.6",
  "updatedAt": "2022-03-28T21:05:24.127Z",
  "networkType": "ethereum",
  "devdoc": {
    "kind": "dev",
    "methods": {},
    "version": 1
  },
  "userdoc": {
    "kind": "user",
    "methods": {},
    "version": 1
  }
}