{
  "contractName": "OrganisationContract",
  "abi": [
    {
      "inputs": [
        {
          "internalType": "address",
          "name": "_C",
          "type": "address"
        }
      ],
      "stateMutability": "nonpayable",
      "type": "constructor"
    },
    {
      "inputs": [
        {
          "internalType": "uint256",
          "name": "",
          "type": "uint256"
        }
      ],
      "name": "OrganisationList",
      "outputs": [
        {
          "internalType": "address",
          "name": "",
          "type": "address"
        }
      ],
      "stateMutability": "view",
      "type": "function",
      "constant": true
    },
    {
      "inputs": [
        {
          "internalType": "uint256",
          "name": "role",
          "type": "uint256"
        },
        {
          "internalType": "address",
          "name": "account",
          "type": "address"
        }
      ],
      "name": "addRole",
      "outputs": [],
      "stateMutability": "nonpayable",
      "type": "function"
    },
    {
      "inputs": [
        {
          "internalType": "address",
          "name": "newC",
          "type": "address"
        }
      ],
      "name": "authoriseContract",
      "outputs": [],
      "stateMutability": "nonpayable",
      "type": "function"
    },
    {
      "inputs": [],
      "name": "getCentralAuthority",
      "outputs": [
        {
          "internalType": "address",
          "name": "",
          "type": "address"
        }
      ],
      "stateMutability": "view",
      "type": "function",
      "constant": true
    },
    {
      "inputs": [],
      "name": "isCentralAuthority",
      "outputs": [
        {
          "internalType": "bool",
          "name": "",
          "type": "bool"
        }
      ],
      "stateMutability": "view",
      "type": "function",
      "constant": true
    },
    {
      "inputs": [
        {
          "internalType": "address",
          "name": "sender",
          "type": "address"
        }
      ],
      "name": "onlyCentralAuthorityE",
      "outputs": [
        {
          "internalType": "bool",
          "name": "",
          "type": "bool"
        }
      ],
      "stateMutability": "view",
      "type": "function",
      "constant": true
    },
    {
      "inputs": [
        {
          "internalType": "address",
          "name": "sender",
          "type": "address"
        }
      ],
      "name": "onlyOrganisationAdminE",
      "outputs": [
        {
          "internalType": "bool",
          "name": "",
          "type": "bool"
        }
      ],
      "stateMutability": "view",
      "type": "function",
      "constant": true
    },
    {
      "inputs": [
        {
          "internalType": "address",
          "name": "sender",
          "type": "address"
        }
      ],
      "name": "onlyPatientE",
      "outputs": [
        {
          "internalType": "bool",
          "name": "",
          "type": "bool"
        }
      ],
      "stateMutability": "view",
      "type": "function",
      "constant": true
    },
    {
      "inputs": [
        {
          "internalType": "address",
          "name": "sender",
          "type": "address"
        }
      ],
      "name": "onlyPractitionerE",
      "outputs": [
        {
          "internalType": "bool",
          "name": "",
          "type": "bool"
        }
      ],
      "stateMutability": "view",
      "type": "function",
      "constant": true
    },
    {
      "inputs": [
        {
          "components": [
            {
              "internalType": "address",
              "name": "id",
              "type": "address"
            },
            {
              "internalType": "string",
              "name": "name",
              "type": "string"
            },
            {
              "internalType": "uint256",
              "name": "dateJoined",
              "type": "uint256"
            },
            {
              "components": [
                {
                  "internalType": "string",
                  "name": "use",
                  "type": "string"
                },
                {
                  "internalType": "string",
                  "name": "street",
                  "type": "string"
                },
                {
                  "internalType": "string",
                  "name": "city",
                  "type": "string"
                },
                {
                  "internalType": "string",
                  "name": "state",
                  "type": "string"
                },
                {
                  "internalType": "string",
                  "name": "postalCode",
                  "type": "string"
                },
                {
                  "internalType": "string",
                  "name": "country",
                  "type": "string"
                }
              ],
              "internalType": "struct MainContract.PhysicalAddress",
              "name": "organisationAddress",
              "type": "tuple"
            }
          ],
          "internalType": "struct OrganisationContract.Organisation",
          "name": "data",
          "type": "tuple"
        }
      ],
      "name": "addOrganisation",
      "outputs": [],
      "stateMutability": "nonpayable",
      "type": "function"
    },
    {
      "inputs": [
        {
          "internalType": "address",
          "name": "id",
          "type": "address"
        }
      ],
      "name": "getOrganisation",
      "outputs": [
        {
          "components": [
            {
              "internalType": "address",
              "name": "id",
              "type": "address"
            },
            {
              "internalType": "string",
              "name": "name",
              "type": "string"
            },
            {
              "internalType": "uint256",
              "name": "dateJoined",
              "type": "uint256"
            },
            {
              "components": [
                {
                  "internalType": "string",
                  "name": "use",
                  "type": "string"
                },
                {
                  "internalType": "string",
                  "name": "street",
                  "type": "string"
                },
                {
                  "internalType": "string",
                  "name": "city",
                  "type": "string"
                },
                {
                  "internalType": "string",
                  "name": "state",
                  "type": "string"
                },
                {
                  "internalType": "string",
                  "name": "postalCode",
                  "type": "string"
                },
                {
                  "internalType": "string",
                  "name": "country",
                  "type": "string"
                }
              ],
              "internalType": "struct MainContract.PhysicalAddress",
              "name": "organisationAddress",
              "type": "tuple"
            }
          ],
          "internalType": "struct OrganisationContract.Organisation",
          "name": "",
          "type": "tuple"
        }
      ],
      "stateMutability": "view",
      "type": "function",
      "constant": true
    },
    {
      "inputs": [],
      "name": "getAllOrganisation",
      "outputs": [
        {
          "internalType": "address[]",
          "name": "",
          "type": "address[]"
        }
      ],
      "stateMutability": "view",
      "type": "function",
      "constant": true
    },
    {
      "inputs": [],
      "name": "isOrganisation",
      "outputs": [
        {
          "internalType": "bool",
          "name": "",
          "type": "bool"
        }
      ],
      "stateMutability": "view",
      "type": "function",
      "constant": true
    }
  ],
  "bytecode": "0x60806040523480156200001157600080fd5b50604051620015b3380380620015b383398101604081905262000034916200016e565b600680546001600160a01b0319163390811790915562000057906002906200007d565b600080546001600160a01b0319166001600160a01b0392909216919091179055620001a0565b620000898282620000f4565b15620000cf5760405162461bcd60e51b815260206004820152601060248201526f4163636f756e742068617320726f6c6560801b60448201526064015b60405180910390fd5b6001600160a01b0316600090815260209190915260409020805460ff19166001179055565b60006001600160a01b0382166200014e5760405162461bcd60e51b815260206004820152601b60248201527f4163636f756e7420697320746865207a65726f206164647265737300000000006044820152606401620000c6565b506001600160a01b03166000908152602091909152604090205460ff1690565b6000602082840312156200018157600080fd5b81516001600160a01b03811681146200019957600080fd5b9392505050565b61140380620001b06000396000f3fe608060405234801561001057600080fd5b50600436106100cf5760003560e01c80635ca60edb1161008c578063b48f3cab11610066578063b48f3cab146101aa578063c0936832146101bf578063cc5f0997146101c7578063ce9194ad146101da57600080fd5b80635ca60edb1461016f57806373117b141461017757806397a08aca1461018a57600080fd5b806306d9c7c1146100d45780632040e86f146100fc57806322e9259f1461011157806324e9480e1461012457806340e7f32f146101495780634914cf091461015c575b600080fd5b6100e76100e2366004610edf565b6101ed565b60405190151581526020015b60405180910390f35b61010f61010a366004610ff0565b610246565b005b6100e761011f366004610edf565b610552565b6006546001600160a01b03165b6040516001600160a01b0390911681526020016100f3565b6100e7610157366004610edf565b61058c565b61013161016a36600461117e565b6105c6565b6100e76105f0565b61010f610185366004610edf565b610662565b61019d610198366004610edf565b6106b0565b6040516100f391906111e4565b6101b2610b0d565b6040516100f391906112cf565b6100e7610c1f565b61010f6101d536600461131c565b610c2c565b6100e76101e8366004610edf565b610cab565b3360009081526001602052604081205460ff166102255760405162461bcd60e51b815260040161021c90611348565b60405180910390fd5b610230600483610ce1565b1561023d57506001919050565b5060005b919050565b6000546040516322e9259f60e01b81523360048201526001600160a01b03909116906322e9259f90602401602060405180830381865afa15801561028e573d6000803e3d6000fd5b505050506040513d601f19601f820116820180604052508101906102b29190611370565b6102f75760405162461bcd60e51b81526020600482015260166024820152752737ba1027b933b0b734b9b0ba34b7b71020b236b4b760511b604482015260640161021c565b6000546040516322e9259f60e01b81523360048201526001600160a01b03909116906322e9259f90602401602060405180830381865afa15801561033f573d6000803e3d6000fd5b505050506040513d601f19601f820116820180604052508101906103639190611370565b6103a15760405162461bcd60e51b815260206004820152600f60248201526e4f6e6c7920666f722041646d696e7360881b604482015260640161021c565b80516001600160a01b039081166000908152600760209081526040909120835181546001600160a01b03191693169290921782558083015180516103eb9260018501920190610dc8565b5060408201516002820155606082015180518051600384019161041391839160200190610dc8565b50602082810151805161042c9260018501920190610dc8565b5060408201518051610448916002840191602090910190610dc8565b5060608201518051610464916003840191602090910190610dc8565b5060808201518051610480916004840191602090910190610dc8565b5060a0820151805161049c916005840191602090910190610dc8565b50508251600880546001808201835560009283527ff3f7a9fe364faab93b216da50a3214154f22a0a2b415b23a84c8169e8b636ee390910180546001600160a01b0319166001600160a01b039485161790559054855160405163cc5f099760e01b8152600481019390935283166024830152909116915063cc5f099790604401600060405180830381600087803b15801561053657600080fd5b505af115801561054a573d6000803e3d6000fd5b505050505050565b3360009081526001602052604081205460ff166105815760405162461bcd60e51b815260040161021c90611348565b610230600283610ce1565b3360009081526001602052604081205460ff166105bb5760405162461bcd60e51b815260040161021c90611348565b610230600383610ce1565b600881815481106105d657600080fd5b6000918252602090912001546001600160a01b0316905081565b600080546040516340e7f32f60e01b81523360048201526001600160a01b03909116906340e7f32f90602401602060405180830381865afa158015610639573d6000803e3d6000fd5b505050506040513d601f19601f8201168201806040525081019061065d9190611370565b905090565b61066d600233610ce1565b6106895760405162461bcd60e51b815260040161021c90611348565b6001600160a01b03166000908152600160208190526040909120805460ff19169091179055565b6106b8610e4c565b6001600160a01b0380831660009081526007602090815260409182902082516080810190935280549093168252600183018054929392918401916106fb90611392565b80601f016020809104026020016040519081016040528092919081815260200182805461072790611392565b80156107745780601f1061074957610100808354040283529160200191610774565b820191906000526020600020905b81548152906001019060200180831161075757829003601f168201915b5050505050815260200160028201548152602001600382016040518060c00160405290816000820180546107a790611392565b80601f01602080910402602001604051908101604052809291908181526020018280546107d390611392565b80156108205780601f106107f557610100808354040283529160200191610820565b820191906000526020600020905b81548152906001019060200180831161080357829003601f168201915b5050505050815260200160018201805461083990611392565b80601f016020809104026020016040519081016040528092919081815260200182805461086590611392565b80156108b25780601f10610887576101008083540402835291602001916108b2565b820191906000526020600020905b81548152906001019060200180831161089557829003601f168201915b505050505081526020016002820180546108cb90611392565b80601f01602080910402602001604051908101604052809291908181526020018280546108f790611392565b80156109445780601f1061091957610100808354040283529160200191610944565b820191906000526020600020905b81548152906001019060200180831161092757829003601f168201915b5050505050815260200160038201805461095d90611392565b80601f016020809104026020016040519081016040528092919081815260200182805461098990611392565b80156109d65780601f106109ab576101008083540402835291602001916109d6565b820191906000526020600020905b8154815290600101906020018083116109b957829003601f168201915b505050505081526020016004820180546109ef90611392565b80601f0160208091040260200160405190810160405280929190818152602001828054610a1b90611392565b8015610a685780601f10610a3d57610100808354040283529160200191610a68565b820191906000526020600020905b815481529060010190602001808311610a4b57829003601f168201915b50505050508152602001600582018054610a8190611392565b80601f0160208091040260200160405190810160405280929190818152602001828054610aad90611392565b8015610afa5780601f10610acf57610100808354040283529160200191610afa565b820191906000526020600020905b815481529060010190602001808311610add57829003601f168201915b5050509190925250505090525092915050565b6000546040516322e9259f60e01b81523360048201526060916001600160a01b0316906322e9259f90602401602060405180830381865afa158015610b56573d6000803e3d6000fd5b505050506040513d601f19601f82011682018060405250810190610b7a9190611370565b610bbf5760405162461bcd60e51b81526020600482015260166024820152752737ba1027b933b0b734b9b0ba34b7b71020b236b4b760511b604482015260640161021c565b6008805480602002602001604051908101604052809291908181526020018280548015610c1557602002820191906000526020600020905b81546001600160a01b03168152600190910190602001808311610bf7575b5050505050905090565b600061065d600232610ce1565b3360009081526001602052604090205460ff16610c5b5760405162461bcd60e51b815260040161021c90611348565b81610c6f57610c6b600282610d59565b5050565b8160011415610c8357610c6b600382610d59565b8160021415610c9757610c6b600482610d59565b8160031415610c6b57610c6b600582610d59565b3360009081526001602052604081205460ff16610cda5760405162461bcd60e51b815260040161021c90611348565b6102306005835b60006001600160a01b038216610d395760405162461bcd60e51b815260206004820152601b60248201527f4163636f756e7420697320746865207a65726f20616464726573730000000000604482015260640161021c565b506001600160a01b03166000908152602091909152604090205460ff1690565b610d638282610ce1565b15610da35760405162461bcd60e51b815260206004820152601060248201526f4163636f756e742068617320726f6c6560801b604482015260640161021c565b6001600160a01b0316600090815260209190915260409020805460ff19166001179055565b828054610dd490611392565b90600052602060002090601f016020900481019282610df65760008555610e3c565b82601f10610e0f57805160ff1916838001178555610e3c565b82800160010185558215610e3c579182015b82811115610e3c578251825591602001919060010190610e21565b50610e48929150610eb3565b5090565b604051806080016040528060006001600160a01b031681526020016060815260200160008152602001610eae6040518060c001604052806060815260200160608152602001606081526020016060815260200160608152602001606081525090565b905290565b5b80821115610e485760008155600101610eb4565b80356001600160a01b038116811461024157600080fd5b600060208284031215610ef157600080fd5b610efa82610ec8565b9392505050565b634e487b7160e01b600052604160045260246000fd5b6040516080810167ffffffffffffffff81118282101715610f3a57610f3a610f01565b60405290565b60405160c0810167ffffffffffffffff81118282101715610f3a57610f3a610f01565b600082601f830112610f7457600080fd5b813567ffffffffffffffff80821115610f8f57610f8f610f01565b604051601f8301601f19908116603f01168101908282118183101715610fb757610fb7610f01565b81604052838152866020858801011115610fd057600080fd5b836020870160208301376000602085830101528094505050505092915050565b60006020828403121561100257600080fd5b813567ffffffffffffffff8082111561101a57600080fd5b908301906080828603121561102e57600080fd5b611036610f17565b61103f83610ec8565b815260208301358281111561105357600080fd5b61105f87828601610f63565b6020830152506040830135604082015260608301358281111561108157600080fd5b929092019160c0838703121561109657600080fd5b61109e610f40565b8335838111156110ad57600080fd5b6110b988828701610f63565b8252506020840135838111156110ce57600080fd5b6110da88828701610f63565b6020830152506040840135838111156110f257600080fd5b6110fe88828701610f63565b60408301525060608401358381111561111657600080fd5b61112288828701610f63565b60608301525060808401358381111561113a57600080fd5b61114688828701610f63565b60808301525060a08401358381111561115e57600080fd5b61116a88828701610f63565b60a083015250606082015295945050505050565b60006020828403121561119057600080fd5b5035919050565b6000815180845260005b818110156111bd576020818501810151868301820152016111a1565b818111156111cf576000602083870101525b50601f01601f19169290920160200192915050565b602080825282516001600160a01b0316828201528201516080604083015260009061121260a0840182611197565b9050604084015160608401526060840151601f19848303016080850152805160c0835261124260c0840182611197565b90506020820151838203602085015261125b8282611197565b915050604082015183820360408501526112758282611197565b9150506060820151838203606085015261128f8282611197565b915050608082015183820360808501526112a98282611197565b91505060a0820151915082810360a08401526112c58183611197565b9695505050505050565b6020808252825182820181905260009190848201906040850190845b818110156113105783516001600160a01b0316835292840192918401916001016112eb565b50909695505050505050565b6000806040838503121561132f57600080fd5b8235915061133f60208401610ec8565b90509250929050565b6020808252600e908201526d139bdd08105d5d1a1bdc9a5cd95960921b604082015260600190565b60006020828403121561138257600080fd5b81518015158114610efa57600080fd5b600181811c908216806113a657607f821691505b602082108114156113c757634e487b7160e01b600052602260045260246000fd5b5091905056fea2646970667358221220c68507adced12c77df92f74945aceb9a4201bdc13a700da31f358614d84361d264736f6c634300080b0033",
  "immutableReferences": {},
  "source": "// SPDX-License-Identifier: MIT\npragma solidity >= 0.8.11;\n\ncontract MainContract{\n\n    MainContract internal parentContract;\n\n    mapping (address => bool) private authorisedContracts;\n\n    function authoriseContract(address newC) public {\n        require(has(centralAuthority, msg.sender),\"Not Authorised\");\n        authorisedContracts[newC] = true;\n    }\n\n    struct Role {\n        mapping (address => bool) bearer;\n    }\n    //Add a role to an account\n    function add(Role storage role, address account) internal {\n        require(!has(role, account), \"Account has role\");\n        role.bearer[account] = true;\n    }\n    //Remove a role from an account\n    function remove(Role storage role, address account) internal {\n        require(has(role, account), \"Account does not have role\");\n        role.bearer[account] = false;\n    }\n    //Check if an account has a role\n    function has(Role storage role, address account) internal view returns (bool) {\n        require(account != address(0), \"Account is the zero address\");\n        return role.bearer[account];\n    }\n\n    Role private centralAuthority;\n    Role private organisationAdmin;\n    Role private practitioner;\n    Role private patient;\n\n    modifier onlyAuthorisedContracts {\n        require(authorisedContracts[msg.sender],\"Not Authorised\");\n        _;\n    }\n    modifier onlyCentralAuthority(){\n        require(parentContract.onlyCentralAuthorityE(msg.sender), 'Not Organisation Admin');\n        _;\n    }\n    modifier onlyOrganisationAdmin(){\n        require(parentContract.onlyOrganisationAdminE(msg.sender), 'Not Organisation Admin');\n        _;\n    }\n    modifier onlyPractitioner(){\n        require(parentContract.onlyPractitionerE(msg.sender), 'Not Practitioner');\n        _;\n    }\n    modifier onlyPatient(){\n        require(parentContract.onlyPatientE(msg.sender), 'Not Patient');\n        _;\n    }\n\n    function onlyCentralAuthorityE(address sender) external onlyAuthorisedContracts view returns (bool){\n        if(has(centralAuthority,sender)){\n            return true;\n        }\n        return false;\n    }\n    function onlyOrganisationAdminE(address sender) external onlyAuthorisedContracts view returns (bool){\n        if(has(organisationAdmin,sender)){\n            return true;\n        }\n        return false;\n    }\n    function onlyPractitionerE(address sender) external onlyAuthorisedContracts view returns (bool){\n        if(has(practitioner,sender)){\n            return true;\n        }\n        return false;\n    }\n    function onlyPatientE(address sender) external onlyAuthorisedContracts view returns (bool){\n        if(has(patient,sender)){\n            return true;\n        }\n        return false;\n    }\n\n    function addRole(uint role, address account) external onlyAuthorisedContracts {\n        if(role == 0){\n            add(centralAuthority, account);\n        }\n        else if(role == 1){\n            add(organisationAdmin, account);\n        }\n        else if(role == 2){\n            add(practitioner, account);\n        }\n        else if(role == 3){\n            add(patient, account);\n        }\n    }\n    /*\n        General Information\n    */\n    struct HumanName{\n        string givenNames;\n        string surname;\n    }\n\n    struct ContactPoint{\n        string phoneNumber;\n        string email;\n    }\n    \n    struct PhysicalAddress{\n        string use;\n        string street;\n        string city;\n        string state;\n        string postalCode;\n        string country;\n    }\n\n    struct Communication{\n        string[] languages;\n        string preferred;\n    }\n\n    enum Gender{ MALE, FEMALE, OTHER, UNKNOWN }\n\n    address centralAuthorityID;\n\n    constructor() {\n        centralAuthorityID = msg.sender;\n        add(centralAuthority,centralAuthorityID);\n    }\n\n    function getCentralAuthority() external view returns(address){\n        return centralAuthorityID;\n    }\n  \n    function isCentralAuthority() external view returns(bool){\n        return has(centralAuthority,tx.origin);\n    }\n\n}\n\ncontract OrganisationContract is MainContract{\n\n    constructor(address _C) {\n        parentContract = MainContract(_C);\n    }\n\n    struct Organisation{\n        address id;\n        string name;\n        uint dateJoined;\n        PhysicalAddress organisationAddress;\n    }\n   \n    mapping(address => Organisation) Organisations;\n    address[] public OrganisationList;\n\n    function addOrganisation(Organisation memory data) external onlyCentralAuthority{\n        require(parentContract.onlyCentralAuthorityE(msg.sender), \"Only for Admins\");\n\n        Organisation storage organisationData = Organisations[data.id];\n        organisationData.id = data.id;\n        organisationData.name = data.name;\n        organisationData.dateJoined = data.dateJoined;\n        organisationData.organisationAddress = data.organisationAddress;\n\n        OrganisationList.push(data.id);\n        parentContract.addRole(1,data.id);\n    }\n\n    function getOrganisation(address id) public view returns(Organisation memory){\n        return Organisations[id];\n    }\n\n    function getAllOrganisation() external onlyCentralAuthority view returns(address[] memory){\n        return OrganisationList;\n    }\n\n    function isOrganisation() external view returns(bool){\n        return parentContract.onlyOrganisationAdminE(msg.sender);\n    }\n}\n\ncontract PractitionerContract is MainContract{\n\n    constructor(address _C) {\n        parentContract = MainContract(_C);\n    }\n\n    struct Practitioner{\n        address id;\n        HumanName name;\n        ContactPoint telecom;\n        PhysicalAddress homeAddress;\n        Gender gender;\n        uint birthDate;\n        Communication communication;\n        address memberOrgaisation;\n    }\n\n    mapping(address => Practitioner) Practitioners;\n    address[] public PractitionerList;\n\n    function addPractitioner(Practitioner memory data) external onlyOrganisationAdmin{\n        Practitioner storage practitionerData = Practitioners[data.id];\n        practitionerData.id = data.id;\n        practitionerData.name = data.name;\n        practitionerData.telecom = data.telecom;\n        practitionerData.birthDate = data.birthDate;\n        practitionerData.gender = data.gender;\n        practitionerData.homeAddress = data.homeAddress;\n        practitionerData.communication = data.communication;\n        practitionerData.memberOrgaisation = data.memberOrgaisation;\n\n        PractitionerList.push(data.id);\n        parentContract.addRole(2,data.id);\n    }\n\n    function getDr(address _id) external view returns(Practitioner memory){\n        if(parentContract.onlyPractitionerE(msg.sender) || parentContract.onlyOrganisationAdminE(msg.sender) || parentContract.onlyPatientE(msg.sender)){\n            return Practitioners[_id];\n        }\n        else{\n            revert(\"Not Authorised\");\n        }\n    }\n\n    function isPractitioner(address id) external view returns(int){\n        if(parentContract.onlyPractitionerE(id)){\n            return 1;\n        }\n        return 0;\n    }\n\n    function getPractitionerCount() external onlyCentralAuthority view returns(uint) {\n        return(PractitionerList.length);\n    }\n\n    function getPractitionersPerOrg() external onlyOrganisationAdmin view returns(Practitioner[] memory){\n        uint count = 0;\n        Practitioner[] memory practitionerList = new Practitioner[](PractitionerList.length);\n        for(uint i=0;i<PractitionerList.length;i++){\n            Practitioner storage pracData = Practitioners[PractitionerList[i]];\n            if(pracData.memberOrgaisation == msg.sender){\n                practitionerList[count++] = pracData;\n            }\n        }\n        return(practitionerList);\n    }\n}\n\ncontract PatientContract is MainContract{\n\n    constructor(address _C) {\n        parentContract = MainContract(_C);\n    }\n\n    struct Patient{\n        address id;\n        HumanName name;\n        ContactPoint telecom;       \n        Gender gender;\n        uint birthDate;\n        PhysicalAddress homeAddress; \n        bool deceasedBoolean;\n        uint deceasedDateTime;\n        bool multipleBirthBoolean;\n        uint multipleBirthInteger;\n        Communication communication;     \n        address generalPractitioner;\n        address managingOrganisation;\n    }\n\n    // Start of Medical Records\n    struct MedicalRecord{\n        address patientId;\n        address practitionerId;\n        address organisationId;\n        uint timestamp;\n        string diagnosis;\n        string[] medicationName;\n        uint[] dosage;\n        string[] unit;\n        uint[] noOfDays;\n        string[] remarks;\n        string[] clinicalTests;\n    }\n    // End of Medical Records\n\n    // mapping(address => Organisation) Organisations;\n    // mapping(address => Practitioner) Practitioners;\n    mapping(address => Patient) Patients;\n    mapping(address => MedicalRecord[]) Records;\n\n    // address[] public OrganisationList;\n    // address[] public PractitionerList;\n    address[] public PatientList;\n\n    function getPatientCount() external onlyCentralAuthority view returns(uint){\n        return(PatientList.length);\n    }\n\n    function getPatientsPerDoc() external onlyPractitioner view returns(Patient[] memory){\n        uint count = 0;\n        Patient[] memory patientList = new Patient[](PatientList.length);\n        for(uint i=0;i<PatientList.length;i++){\n            Patient storage patientData = Patients[PatientList[i]];\n            if(patientData.generalPractitioner == msg.sender){\n                patientList[count++] = patientData;\n            }\n        }\n        return(patientList);\n    }\n\n    function getPatientsPerOrg() external onlyOrganisationAdmin view returns(Patient[] memory){\n        uint count = 0;\n        Patient[] memory patientList = new Patient[](PatientList.length);\n        for(uint i=0;i<PatientList.length;i++){\n            Patient storage patientData = Patients[PatientList[i]];\n            if(patientData.managingOrganisation == msg.sender){\n                patientList[count++] = patientData;\n            }\n        }\n        return(patientList);\n    }\n\n    /*\n            Patient\n    */\n    function isPatient(address id) external view returns(int){\n       if(parentContract.onlyPatientE(id)){\n           return 1;\n        }\n        return 0;\n    }\n\n    function getPatInfo(address iD) external view returns(Patient memory){\n        require((parentContract.onlyPatientE(msg.sender) && iD==msg.sender) || parentContract.onlyPractitionerE(msg.sender), \"Not allowed\");\n        return (Patients[iD]);\n    }\n\n    function addPatient(Patient memory data ) external onlyOrganisationAdmin{\n        require(parentContract.onlyOrganisationAdminE(msg.sender) && parentContract.onlyPractitionerE(data.generalPractitioner), 'Invalid Data');\n        Patient storage patientData = Patients[data.id];\n        patientData.id = data.id;\n        patientData.name = data.name;\n        patientData.telecom = data.telecom;\n        patientData.birthDate = data.birthDate;\n        patientData.communication = data.communication;\n        patientData.gender = data.gender;\n        patientData.homeAddress = data.homeAddress;\n        patientData.deceasedBoolean = data.deceasedBoolean;\n        patientData.deceasedDateTime = data.deceasedDateTime;\n        patientData.multipleBirthBoolean = data.multipleBirthBoolean;\n        patientData.multipleBirthInteger = data.multipleBirthInteger;\n        patientData.generalPractitioner = data.generalPractitioner;\n        patientData.managingOrganisation = msg.sender;\n\n        PatientList.push(data.id);\n        parentContract.addRole(3,data.id);\n    }\n\n    /*\n        Medical Records\n    */\n\n    function addMedicalRecord(MedicalRecord memory data) external onlyPractitioner{\n        MedicalRecord memory recordData;\n        recordData.patientId = data.patientId;\n        recordData.practitionerId = msg.sender;\n        recordData.organisationId = data.organisationId;\n        recordData.timestamp = data.timestamp;\n        recordData.diagnosis = data.diagnosis;\n        recordData.medicationName = data.medicationName;\n        recordData.dosage = data.dosage;\n        recordData.unit = data.unit;\n        recordData.noOfDays = data.noOfDays;\n        recordData.remarks = data.remarks;\n        recordData.clinicalTests = data.clinicalTests;\n        Records[data.patientId].push(recordData);\n    }\n\n    function viewMedicalRecord(address id) external onlyPractitioner view returns(MedicalRecord[] memory){\n        return (Records[id]);\n    }\n\n    function viewMedicalRecord() external onlyPatient view returns(MedicalRecord[] memory){\n        return (Records[msg.sender]);\n    }\n}",
  "sourcePath": "/Users/amrhoballah/Documents/GitHub/Algobucks/contracts/Contract.sol",
  "compiler": {
    "name": "solc",
    "version": "0.8.11+commit.d7f03943.Emscripten.clang"
  },
  "schemaVersion": "3.4.6",
  "updatedAt": "2022-06-25T17:58:08.494Z",
  "networkType": "ethereum",
  "devdoc": {
    "kind": "dev",
    "methods": {},
    "version": 1
  },
  "userdoc": {
    "kind": "user",
    "methods": {},
    "version": 1
  }
}