{
  "contractName": "PatientContract",
  "abi": [
    {
      "inputs": [
        {
          "internalType": "address",
          "name": "_C",
          "type": "address"
        }
      ],
      "stateMutability": "nonpayable",
      "type": "constructor"
    },
    {
      "inputs": [
        {
          "internalType": "uint256",
          "name": "",
          "type": "uint256"
        }
      ],
      "name": "PatientList",
      "outputs": [
        {
          "internalType": "address",
          "name": "",
          "type": "address"
        }
      ],
      "stateMutability": "view",
      "type": "function",
      "constant": true
    },
    {
      "inputs": [
        {
          "internalType": "uint256",
          "name": "role",
          "type": "uint256"
        },
        {
          "internalType": "address",
          "name": "account",
          "type": "address"
        }
      ],
      "name": "addRole",
      "outputs": [],
      "stateMutability": "nonpayable",
      "type": "function"
    },
    {
      "inputs": [
        {
          "internalType": "address",
          "name": "newC",
          "type": "address"
        }
      ],
      "name": "authoriseContract",
      "outputs": [],
      "stateMutability": "nonpayable",
      "type": "function"
    },
    {
      "inputs": [],
      "name": "getCentralAuthority",
      "outputs": [
        {
          "internalType": "address",
          "name": "",
          "type": "address"
        }
      ],
      "stateMutability": "view",
      "type": "function",
      "constant": true
    },
    {
      "inputs": [],
      "name": "isCentralAuthority",
      "outputs": [
        {
          "internalType": "bool",
          "name": "",
          "type": "bool"
        }
      ],
      "stateMutability": "view",
      "type": "function",
      "constant": true
    },
    {
      "inputs": [
        {
          "internalType": "address",
          "name": "sender",
          "type": "address"
        }
      ],
      "name": "onlyCentralAuthorityE",
      "outputs": [
        {
          "internalType": "bool",
          "name": "",
          "type": "bool"
        }
      ],
      "stateMutability": "view",
      "type": "function",
      "constant": true
    },
    {
      "inputs": [
        {
          "internalType": "address",
          "name": "sender",
          "type": "address"
        }
      ],
      "name": "onlyOrganisationAdminE",
      "outputs": [
        {
          "internalType": "bool",
          "name": "",
          "type": "bool"
        }
      ],
      "stateMutability": "view",
      "type": "function",
      "constant": true
    },
    {
      "inputs": [
        {
          "internalType": "address",
          "name": "sender",
          "type": "address"
        }
      ],
      "name": "onlyPatientE",
      "outputs": [
        {
          "internalType": "bool",
          "name": "",
          "type": "bool"
        }
      ],
      "stateMutability": "view",
      "type": "function",
      "constant": true
    },
    {
      "inputs": [
        {
          "internalType": "address",
          "name": "sender",
          "type": "address"
        }
      ],
      "name": "onlyPractitionerE",
      "outputs": [
        {
          "internalType": "bool",
          "name": "",
          "type": "bool"
        }
      ],
      "stateMutability": "view",
      "type": "function",
      "constant": true
    },
    {
      "inputs": [],
      "name": "getPatientCount",
      "outputs": [
        {
          "internalType": "uint256",
          "name": "",
          "type": "uint256"
        }
      ],
      "stateMutability": "view",
      "type": "function",
      "constant": true
    },
    {
      "inputs": [],
      "name": "getPatientsPerDoc",
      "outputs": [
        {
          "components": [
            {
              "internalType": "address",
              "name": "id",
              "type": "address"
            },
            {
              "components": [
                {
                  "internalType": "string",
                  "name": "givenNames",
                  "type": "string"
                },
                {
                  "internalType": "string",
                  "name": "surname",
                  "type": "string"
                }
              ],
              "internalType": "struct MainContract.HumanName",
              "name": "name",
              "type": "tuple"
            },
            {
              "components": [
                {
                  "internalType": "string",
                  "name": "phoneNumber",
                  "type": "string"
                },
                {
                  "internalType": "string",
                  "name": "email",
                  "type": "string"
                }
              ],
              "internalType": "struct MainContract.ContactPoint",
              "name": "telecom",
              "type": "tuple"
            },
            {
              "internalType": "enum MainContract.Gender",
              "name": "gender",
              "type": "uint8"
            },
            {
              "internalType": "uint256",
              "name": "birthDate",
              "type": "uint256"
            },
            {
              "components": [
                {
                  "internalType": "string",
                  "name": "use",
                  "type": "string"
                },
                {
                  "internalType": "string",
                  "name": "street",
                  "type": "string"
                },
                {
                  "internalType": "string",
                  "name": "city",
                  "type": "string"
                },
                {
                  "internalType": "string",
                  "name": "state",
                  "type": "string"
                },
                {
                  "internalType": "string",
                  "name": "postalCode",
                  "type": "string"
                },
                {
                  "internalType": "string",
                  "name": "country",
                  "type": "string"
                }
              ],
              "internalType": "struct MainContract.PhysicalAddress",
              "name": "homeAddress",
              "type": "tuple"
            },
            {
              "internalType": "bool",
              "name": "deceasedBoolean",
              "type": "bool"
            },
            {
              "internalType": "uint256",
              "name": "deceasedDateTime",
              "type": "uint256"
            },
            {
              "internalType": "bool",
              "name": "multipleBirthBoolean",
              "type": "bool"
            },
            {
              "internalType": "uint256",
              "name": "multipleBirthInteger",
              "type": "uint256"
            },
            {
              "components": [
                {
                  "internalType": "string[]",
                  "name": "languages",
                  "type": "string[]"
                },
                {
                  "internalType": "string",
                  "name": "preferred",
                  "type": "string"
                }
              ],
              "internalType": "struct MainContract.Communication",
              "name": "communication",
              "type": "tuple"
            },
            {
              "internalType": "address",
              "name": "generalPractitioner",
              "type": "address"
            },
            {
              "internalType": "address",
              "name": "managingOrganisation",
              "type": "address"
            }
          ],
          "internalType": "struct PatientContract.Patient[]",
          "name": "",
          "type": "tuple[]"
        }
      ],
      "stateMutability": "view",
      "type": "function",
      "constant": true
    },
    {
      "inputs": [],
      "name": "getPatientsPerOrg",
      "outputs": [
        {
          "components": [
            {
              "internalType": "address",
              "name": "id",
              "type": "address"
            },
            {
              "components": [
                {
                  "internalType": "string",
                  "name": "givenNames",
                  "type": "string"
                },
                {
                  "internalType": "string",
                  "name": "surname",
                  "type": "string"
                }
              ],
              "internalType": "struct MainContract.HumanName",
              "name": "name",
              "type": "tuple"
            },
            {
              "components": [
                {
                  "internalType": "string",
                  "name": "phoneNumber",
                  "type": "string"
                },
                {
                  "internalType": "string",
                  "name": "email",
                  "type": "string"
                }
              ],
              "internalType": "struct MainContract.ContactPoint",
              "name": "telecom",
              "type": "tuple"
            },
            {
              "internalType": "enum MainContract.Gender",
              "name": "gender",
              "type": "uint8"
            },
            {
              "internalType": "uint256",
              "name": "birthDate",
              "type": "uint256"
            },
            {
              "components": [
                {
                  "internalType": "string",
                  "name": "use",
                  "type": "string"
                },
                {
                  "internalType": "string",
                  "name": "street",
                  "type": "string"
                },
                {
                  "internalType": "string",
                  "name": "city",
                  "type": "string"
                },
                {
                  "internalType": "string",
                  "name": "state",
                  "type": "string"
                },
                {
                  "internalType": "string",
                  "name": "postalCode",
                  "type": "string"
                },
                {
                  "internalType": "string",
                  "name": "country",
                  "type": "string"
                }
              ],
              "internalType": "struct MainContract.PhysicalAddress",
              "name": "homeAddress",
              "type": "tuple"
            },
            {
              "internalType": "bool",
              "name": "deceasedBoolean",
              "type": "bool"
            },
            {
              "internalType": "uint256",
              "name": "deceasedDateTime",
              "type": "uint256"
            },
            {
              "internalType": "bool",
              "name": "multipleBirthBoolean",
              "type": "bool"
            },
            {
              "internalType": "uint256",
              "name": "multipleBirthInteger",
              "type": "uint256"
            },
            {
              "components": [
                {
                  "internalType": "string[]",
                  "name": "languages",
                  "type": "string[]"
                },
                {
                  "internalType": "string",
                  "name": "preferred",
                  "type": "string"
                }
              ],
              "internalType": "struct MainContract.Communication",
              "name": "communication",
              "type": "tuple"
            },
            {
              "internalType": "address",
              "name": "generalPractitioner",
              "type": "address"
            },
            {
              "internalType": "address",
              "name": "managingOrganisation",
              "type": "address"
            }
          ],
          "internalType": "struct PatientContract.Patient[]",
          "name": "",
          "type": "tuple[]"
        }
      ],
      "stateMutability": "view",
      "type": "function",
      "constant": true
    },
    {
      "inputs": [
        {
          "internalType": "address",
          "name": "id",
          "type": "address"
        }
      ],
      "name": "isPatient",
      "outputs": [
        {
          "internalType": "int256",
          "name": "",
          "type": "int256"
        }
      ],
      "stateMutability": "view",
      "type": "function",
      "constant": true
    },
    {
      "inputs": [
        {
          "internalType": "address",
          "name": "iD",
          "type": "address"
        }
      ],
      "name": "getPatInfo",
      "outputs": [
        {
          "components": [
            {
              "internalType": "address",
              "name": "id",
              "type": "address"
            },
            {
              "components": [
                {
                  "internalType": "string",
                  "name": "givenNames",
                  "type": "string"
                },
                {
                  "internalType": "string",
                  "name": "surname",
                  "type": "string"
                }
              ],
              "internalType": "struct MainContract.HumanName",
              "name": "name",
              "type": "tuple"
            },
            {
              "components": [
                {
                  "internalType": "string",
                  "name": "phoneNumber",
                  "type": "string"
                },
                {
                  "internalType": "string",
                  "name": "email",
                  "type": "string"
                }
              ],
              "internalType": "struct MainContract.ContactPoint",
              "name": "telecom",
              "type": "tuple"
            },
            {
              "internalType": "enum MainContract.Gender",
              "name": "gender",
              "type": "uint8"
            },
            {
              "internalType": "uint256",
              "name": "birthDate",
              "type": "uint256"
            },
            {
              "components": [
                {
                  "internalType": "string",
                  "name": "use",
                  "type": "string"
                },
                {
                  "internalType": "string",
                  "name": "street",
                  "type": "string"
                },
                {
                  "internalType": "string",
                  "name": "city",
                  "type": "string"
                },
                {
                  "internalType": "string",
                  "name": "state",
                  "type": "string"
                },
                {
                  "internalType": "string",
                  "name": "postalCode",
                  "type": "string"
                },
                {
                  "internalType": "string",
                  "name": "country",
                  "type": "string"
                }
              ],
              "internalType": "struct MainContract.PhysicalAddress",
              "name": "homeAddress",
              "type": "tuple"
            },
            {
              "internalType": "bool",
              "name": "deceasedBoolean",
              "type": "bool"
            },
            {
              "internalType": "uint256",
              "name": "deceasedDateTime",
              "type": "uint256"
            },
            {
              "internalType": "bool",
              "name": "multipleBirthBoolean",
              "type": "bool"
            },
            {
              "internalType": "uint256",
              "name": "multipleBirthInteger",
              "type": "uint256"
            },
            {
              "components": [
                {
                  "internalType": "string[]",
                  "name": "languages",
                  "type": "string[]"
                },
                {
                  "internalType": "string",
                  "name": "preferred",
                  "type": "string"
                }
              ],
              "internalType": "struct MainContract.Communication",
              "name": "communication",
              "type": "tuple"
            },
            {
              "internalType": "address",
              "name": "generalPractitioner",
              "type": "address"
            },
            {
              "internalType": "address",
              "name": "managingOrganisation",
              "type": "address"
            }
          ],
          "internalType": "struct PatientContract.Patient",
          "name": "",
          "type": "tuple"
        }
      ],
      "stateMutability": "view",
      "type": "function",
      "constant": true
    },
    {
      "inputs": [
        {
          "components": [
            {
              "internalType": "address",
              "name": "id",
              "type": "address"
            },
            {
              "components": [
                {
                  "internalType": "string",
                  "name": "givenNames",
                  "type": "string"
                },
                {
                  "internalType": "string",
                  "name": "surname",
                  "type": "string"
                }
              ],
              "internalType": "struct MainContract.HumanName",
              "name": "name",
              "type": "tuple"
            },
            {
              "components": [
                {
                  "internalType": "string",
                  "name": "phoneNumber",
                  "type": "string"
                },
                {
                  "internalType": "string",
                  "name": "email",
                  "type": "string"
                }
              ],
              "internalType": "struct MainContract.ContactPoint",
              "name": "telecom",
              "type": "tuple"
            },
            {
              "internalType": "enum MainContract.Gender",
              "name": "gender",
              "type": "uint8"
            },
            {
              "internalType": "uint256",
              "name": "birthDate",
              "type": "uint256"
            },
            {
              "components": [
                {
                  "internalType": "string",
                  "name": "use",
                  "type": "string"
                },
                {
                  "internalType": "string",
                  "name": "street",
                  "type": "string"
                },
                {
                  "internalType": "string",
                  "name": "city",
                  "type": "string"
                },
                {
                  "internalType": "string",
                  "name": "state",
                  "type": "string"
                },
                {
                  "internalType": "string",
                  "name": "postalCode",
                  "type": "string"
                },
                {
                  "internalType": "string",
                  "name": "country",
                  "type": "string"
                }
              ],
              "internalType": "struct MainContract.PhysicalAddress",
              "name": "homeAddress",
              "type": "tuple"
            },
            {
              "internalType": "bool",
              "name": "deceasedBoolean",
              "type": "bool"
            },
            {
              "internalType": "uint256",
              "name": "deceasedDateTime",
              "type": "uint256"
            },
            {
              "internalType": "bool",
              "name": "multipleBirthBoolean",
              "type": "bool"
            },
            {
              "internalType": "uint256",
              "name": "multipleBirthInteger",
              "type": "uint256"
            },
            {
              "components": [
                {
                  "internalType": "string[]",
                  "name": "languages",
                  "type": "string[]"
                },
                {
                  "internalType": "string",
                  "name": "preferred",
                  "type": "string"
                }
              ],
              "internalType": "struct MainContract.Communication",
              "name": "communication",
              "type": "tuple"
            },
            {
              "internalType": "address",
              "name": "generalPractitioner",
              "type": "address"
            },
            {
              "internalType": "address",
              "name": "managingOrganisation",
              "type": "address"
            }
          ],
          "internalType": "struct PatientContract.Patient",
          "name": "data",
          "type": "tuple"
        }
      ],
      "name": "addPatient",
      "outputs": [],
      "stateMutability": "nonpayable",
      "type": "function"
    },
    {
      "inputs": [
        {
          "components": [
            {
              "internalType": "address",
              "name": "patientId",
              "type": "address"
            },
            {
              "internalType": "address",
              "name": "practitionerId",
              "type": "address"
            },
            {
              "internalType": "address",
              "name": "organisationId",
              "type": "address"
            },
            {
              "internalType": "uint256",
              "name": "timestamp",
              "type": "uint256"
            },
            {
              "internalType": "string",
              "name": "diagnosis",
              "type": "string"
            },
            {
              "internalType": "string[]",
              "name": "medicationName",
              "type": "string[]"
            },
            {
              "internalType": "uint256[]",
              "name": "dosage",
              "type": "uint256[]"
            },
            {
              "internalType": "string[]",
              "name": "unit",
              "type": "string[]"
            },
            {
              "internalType": "uint256[]",
              "name": "noOfDays",
              "type": "uint256[]"
            },
            {
              "internalType": "string[]",
              "name": "remarks",
              "type": "string[]"
            },
            {
              "internalType": "string[]",
              "name": "clinicalTests",
              "type": "string[]"
            }
          ],
          "internalType": "struct PatientContract.MedicalRecord",
          "name": "data",
          "type": "tuple"
        }
      ],
      "name": "addMedicalRecord",
      "outputs": [],
      "stateMutability": "nonpayable",
      "type": "function"
    },
    {
      "inputs": [
        {
          "internalType": "address",
          "name": "id",
          "type": "address"
        }
      ],
      "name": "viewMedicalRecord",
      "outputs": [
        {
          "components": [
            {
              "internalType": "address",
              "name": "patientId",
              "type": "address"
            },
            {
              "internalType": "address",
              "name": "practitionerId",
              "type": "address"
            },
            {
              "internalType": "address",
              "name": "organisationId",
              "type": "address"
            },
            {
              "internalType": "uint256",
              "name": "timestamp",
              "type": "uint256"
            },
            {
              "internalType": "string",
              "name": "diagnosis",
              "type": "string"
            },
            {
              "internalType": "string[]",
              "name": "medicationName",
              "type": "string[]"
            },
            {
              "internalType": "uint256[]",
              "name": "dosage",
              "type": "uint256[]"
            },
            {
              "internalType": "string[]",
              "name": "unit",
              "type": "string[]"
            },
            {
              "internalType": "uint256[]",
              "name": "noOfDays",
              "type": "uint256[]"
            },
            {
              "internalType": "string[]",
              "name": "remarks",
              "type": "string[]"
            },
            {
              "internalType": "string[]",
              "name": "clinicalTests",
              "type": "string[]"
            }
          ],
          "internalType": "struct PatientContract.MedicalRecord[]",
          "name": "",
          "type": "tuple[]"
        }
      ],
      "stateMutability": "view",
      "type": "function",
      "constant": true
    },
    {
      "inputs": [],
      "name": "viewMedicalRecord",
      "outputs": [
        {
          "components": [
            {
              "internalType": "address",
              "name": "patientId",
              "type": "address"
            },
            {
              "internalType": "address",
              "name": "practitionerId",
              "type": "address"
            },
            {
              "internalType": "address",
              "name": "organisationId",
              "type": "address"
            },
            {
              "internalType": "uint256",
              "name": "timestamp",
              "type": "uint256"
            },
            {
              "internalType": "string",
              "name": "diagnosis",
              "type": "string"
            },
            {
              "internalType": "string[]",
              "name": "medicationName",
              "type": "string[]"
            },
            {
              "internalType": "uint256[]",
              "name": "dosage",
              "type": "uint256[]"
            },
            {
              "internalType": "string[]",
              "name": "unit",
              "type": "string[]"
            },
            {
              "internalType": "uint256[]",
              "name": "noOfDays",
              "type": "uint256[]"
            },
            {
              "internalType": "string[]",
              "name": "remarks",
              "type": "string[]"
            },
            {
              "internalType": "string[]",
              "name": "clinicalTests",
              "type": "string[]"
            }
          ],
          "internalType": "struct PatientContract.MedicalRecord[]",
          "name": "",
          "type": "tuple[]"
        }
      ],
      "stateMutability": "view",
      "type": "function",
      "constant": true
    }
  ],
  "bytecode": "0x60806040523480156200001157600080fd5b50604051620048243803806200482483398101604081905262000034916200016e565b600680546001600160a01b0319163390811790915562000057906002906200007d565b600080546001600160a01b0319166001600160a01b0392909216919091179055620001a0565b620000898282620000f4565b15620000cf5760405162461bcd60e51b815260206004820152601060248201526f4163636f756e742068617320726f6c6560801b60448201526064015b60405180910390fd5b6001600160a01b0316600090815260209190915260409020805460ff19166001179055565b60006001600160a01b0382166200014e5760405162461bcd60e51b815260206004820152601b60248201527f4163636f756e7420697320746865207a65726f206164647265737300000000006044820152606401620000c6565b506001600160a01b03166000908152602091909152604090205460ff1690565b6000602082840312156200018157600080fd5b81516001600160a01b03811681146200019957600080fd5b9392505050565b61467480620001b06000396000f3fe608060405234801561001057600080fd5b50600436106101165760003560e01c8063c0936832116100a2578063cc5f099711610071578063cc5f099714610253578063ce9194ad14610266578063dc5244f314610279578063dce1278a14610281578063f66be1091461028957600080fd5b8063c093683214610210578063c190665b14610218578063c875802b14610220578063cc5729141461023357600080fd5b80632f862d6a116100e95780632f862d6a1461019257806340e7f32f146101a75780636052f825146101ba57806373117b14146101da5780638f9c79ed146101ef57600080fd5b806306d9c7c11461011b5780631ce8e4551461014357806322e9259f1461016e57806324e9480e14610181575b600080fd5b61012e6101293660046138d7565b61029c565b60405190151581526020015b60405180910390f35b6101566101513660046138f9565b6102f5565b6040516001600160a01b03909116815260200161013a565b61012e61017c3660046138d7565b61031f565b6006546001600160a01b0316610156565b61019a610359565b60405161013a9190613be0565b61012e6101b53660046138d7565b610d00565b6101cd6101c83660046138d7565b610d3a565b60405161013a9190613c7d565b6101ed6101e83660046138d7565b611316565b005b6102026101fd3660046138d7565b611364565b60405190815260200161013a565b61012e6113d3565b6102026113e5565b6101ed61022e366004614198565b611475565b6102466102413660046138d7565b6118f1565b60405161013a9190614301565b6101ed610261366004614314565b61225e565b61012e6102743660046138d7565b6122dd565b6101cd612317565b61019a612906565b6101ed61029736600461439b565b6132a6565b3360009081526001602052604081205460ff166102d45760405162461bcd60e51b81526004016102cb90614525565b60405180910390fd5b6102df600483613556565b156102ec57506001919050565b5060005b919050565b6009818154811061030557600080fd5b6000918252602090912001546001600160a01b0316905081565b3360009081526001602052604081205460ff1661034e5760405162461bcd60e51b81526004016102cb90614525565b6102df600283613556565b6000546040516306d9c7c160e01b81523360048201526060916001600160a01b0316906306d9c7c190602401602060405180830381865afa1580156103a2573d6000803e3d6000fd5b505050506040513d601f19601f820116820180604052508101906103c6919061454d565b6103e25760405162461bcd60e51b81526004016102cb9061456a565b60095460009081906001600160401b0381111561040157610401613dca565b60405190808252806020026020018201604052801561043a57816020015b61042761363d565b81526020019060019003908161041f5790505b50905060005b600954811015610cf9576000600760006009848154811061046357610463614594565b60009182526020808320909101546001600160a01b0390811684529083019390935260409091019020601381015490925016331415610ce657604080516101a08101825282546001600160a01b03168152815180830190925260018301805491928492602085019290829082906104d9906145aa565b80601f0160208091040260200160405190810160405280929190818152602001828054610505906145aa565b80156105525780601f1061052757610100808354040283529160200191610552565b820191906000526020600020905b81548152906001019060200180831161053557829003601f168201915b5050505050815260200160018201805461056b906145aa565b80601f0160208091040260200160405190810160405280929190818152602001828054610597906145aa565b80156105e45780601f106105b9576101008083540402835291602001916105e4565b820191906000526020600020905b8154815290600101906020018083116105c757829003601f168201915b505050505081525050815260200160038201604051806040016040529081600082018054610611906145aa565b80601f016020809104026020016040519081016040528092919081815260200182805461063d906145aa565b801561068a5780601f1061065f5761010080835404028352916020019161068a565b820191906000526020600020905b81548152906001019060200180831161066d57829003601f168201915b505050505081526020016001820180546106a3906145aa565b80601f01602080910402602001604051908101604052809291908181526020018280546106cf906145aa565b801561071c5780601f106106f15761010080835404028352916020019161071c565b820191906000526020600020905b8154815290600101906020018083116106ff57829003601f168201915b505050919092525050508152600582015460209091019060ff16600381111561074757610747613996565b600381111561075857610758613996565b815260200160068201548152602001600782016040518060c0016040529081600082018054610786906145aa565b80601f01602080910402602001604051908101604052809291908181526020018280546107b2906145aa565b80156107ff5780601f106107d4576101008083540402835291602001916107ff565b820191906000526020600020905b8154815290600101906020018083116107e257829003601f168201915b50505050508152602001600182018054610818906145aa565b80601f0160208091040260200160405190810160405280929190818152602001828054610844906145aa565b80156108915780601f1061086657610100808354040283529160200191610891565b820191906000526020600020905b81548152906001019060200180831161087457829003601f168201915b505050505081526020016002820180546108aa906145aa565b80601f01602080910402602001604051908101604052809291908181526020018280546108d6906145aa565b80156109235780601f106108f857610100808354040283529160200191610923565b820191906000526020600020905b81548152906001019060200180831161090657829003601f168201915b5050505050815260200160038201805461093c906145aa565b80601f0160208091040260200160405190810160405280929190818152602001828054610968906145aa565b80156109b55780601f1061098a576101008083540402835291602001916109b5565b820191906000526020600020905b81548152906001019060200180831161099857829003601f168201915b505050505081526020016004820180546109ce906145aa565b80601f01602080910402602001604051908101604052809291908181526020018280546109fa906145aa565b8015610a475780601f10610a1c57610100808354040283529160200191610a47565b820191906000526020600020905b815481529060010190602001808311610a2a57829003601f168201915b50505050508152602001600582018054610a60906145aa565b80601f0160208091040260200160405190810160405280929190818152602001828054610a8c906145aa565b8015610ad95780601f10610aae57610100808354040283529160200191610ad9565b820191906000526020600020905b815481529060010190602001808311610abc57829003601f168201915b505050919092525050508152600d82015460ff9081161515602080840191909152600e840154604080850191909152600f850154909216151560608085019190915260108501546080850152825160118601805493840282018301855293810183815260a090950194909392849284919060009085015b82821015610bfc578382906000526020600020018054610b6f906145aa565b80601f0160208091040260200160405190810160405280929190818152602001828054610b9b906145aa565b8015610be85780601f10610bbd57610100808354040283529160200191610be8565b820191906000526020600020905b815481529060010190602001808311610bcb57829003601f168201915b505050505081526020019060010190610b50565b505050508152602001600182018054610c14906145aa565b80601f0160208091040260200160405190810160405280929190818152602001828054610c40906145aa565b8015610c8d5780601f10610c6257610100808354040283529160200191610c8d565b820191906000526020600020905b815481529060010190602001808311610c7057829003601f168201915b50505091909252505050815260138201546001600160a01b0390811660208301526014909201549091166040909101528385610cc8816145e5565b965081518110610cda57610cda614594565b60200260200101819052505b5080610cf1816145e5565b915050610440565b5091505090565b3360009081526001602052604081205460ff16610d2f5760405162461bcd60e51b81526004016102cb90614525565b6102df600383613556565b6000546040516306d9c7c160e01b81523360048201526060916001600160a01b0316906306d9c7c190602401602060405180830381865afa158015610d83573d6000803e3d6000fd5b505050506040513d601f19601f82011682018060405250810190610da7919061454d565b610dc35760405162461bcd60e51b81526004016102cb9061456a565b6001600160a01b038216600090815260086020908152604080832080548251818502810185019093528083529193909284015b8282101561130b5760008481526020908190206040805161016081018252600b860290920180546001600160a01b039081168452600182015481169484019490945260028101549093169082015260038201546060820152600482018054919291608084019190610e66906145aa565b80601f0160208091040260200160405190810160405280929190818152602001828054610e92906145aa565b8015610edf5780601f10610eb457610100808354040283529160200191610edf565b820191906000526020600020905b815481529060010190602001808311610ec257829003601f168201915b5050505050815260200160058201805480602002602001604051908101604052809291908181526020016000905b82821015610fb9578382906000526020600020018054610f2c906145aa565b80601f0160208091040260200160405190810160405280929190818152602001828054610f58906145aa565b8015610fa55780601f10610f7a57610100808354040283529160200191610fa5565b820191906000526020600020905b815481529060010190602001808311610f8857829003601f168201915b505050505081526020019060010190610f0d565b5050505081526020016006820180548060200260200160405190810160405280929190818152602001828054801561101057602002820191906000526020600020905b815481526020019060010190808311610ffc575b5050505050815260200160078201805480602002602001604051908101604052809291908181526020016000905b828210156110ea57838290600052602060002001805461105d906145aa565b80601f0160208091040260200160405190810160405280929190818152602001828054611089906145aa565b80156110d65780601f106110ab576101008083540402835291602001916110d6565b820191906000526020600020905b8154815290600101906020018083116110b957829003601f168201915b50505050508152602001906001019061103e565b5050505081526020016008820180548060200260200160405190810160405280929190818152602001828054801561114157602002820191906000526020600020905b81548152602001906001019080831161112d575b5050505050815260200160098201805480602002602001604051908101604052809291908181526020016000905b8282101561121b57838290600052602060002001805461118e906145aa565b80601f01602080910402602001604051908101604052809291908181526020018280546111ba906145aa565b80156112075780601f106111dc57610100808354040283529160200191611207565b820191906000526020600020905b8154815290600101906020018083116111ea57829003601f168201915b50505050508152602001906001019061116f565b505050508152602001600a8201805480602002602001604051908101604052809291908181526020016000905b828210156112f4578382906000526020600020018054611267906145aa565b80601f0160208091040260200160405190810160405280929190818152602001828054611293906145aa565b80156112e05780601f106112b5576101008083540402835291602001916112e0565b820191906000526020600020905b8154815290600101906020018083116112c357829003601f168201915b505050505081526020019060010190611248565b505050508152505081526020019060010190610df6565b505050509050919050565b611321600233613556565b61133d5760405162461bcd60e51b81526004016102cb90614525565b6001600160a01b03166000908152600160208190526040909120805460ff19169091179055565b6000805460405163ce9194ad60e01b81526001600160a01b0384811660048301529091169063ce9194ad90602401602060405180830381865afa1580156113af573d6000803e3d6000fd5b505050506040513d601f19601f820116820180604052508101906102df919061454d565b60006113e0600232613556565b905090565b600080546040516322e9259f60e01b81523360048201526001600160a01b03909116906322e9259f90602401602060405180830381865afa15801561142e573d6000803e3d6000fd5b505050506040513d601f19601f82011682018060405250810190611452919061454d565b61146e5760405162461bcd60e51b81526004016102cb9061460e565b5060095490565b6000546040516340e7f32f60e01b81523360048201526001600160a01b03909116906340e7f32f90602401602060405180830381865afa1580156114bd573d6000803e3d6000fd5b505050506040513d601f19601f820116820180604052508101906114e1919061454d565b6114fd5760405162461bcd60e51b81526004016102cb9061460e565b6000546040516340e7f32f60e01b81523360048201526001600160a01b03909116906340e7f32f90602401602060405180830381865afa158015611545573d6000803e3d6000fd5b505050506040513d601f19601f82011682018060405250810190611569919061454d565b80156115e357506000546101608201516040516306d9c7c160e01b81526001600160a01b0391821660048201529116906306d9c7c190602401602060405180830381865afa1580156115bf573d6000803e3d6000fd5b505050506040513d601f19601f820116820180604052508101906115e3919061454d565b61161e5760405162461bcd60e51b815260206004820152600c60248201526b496e76616c6964204461746160a01b60448201526064016102cb565b80516001600160a01b039081166000908152600760209081526040909120835181546001600160a01b031916931692909217825580830151805180519192600185019261166e928492019061373a565b506020828101518051611687926001850192019061373a565b50505060408201518051805160038401916116a79183916020019061373a565b5060208281015180516116c0926001850192019061373a565b505050608082015160068201556101408201518051805160118401916116eb918391602001906137be565b506020828101518051611704926001850192019061373a565b505050606082015160058201805460ff1916600183600381111561172a5761172a613996565b021790555060a082015180518051600784019161174c9183916020019061373a565b506020828101518051611765926001850192019061373a565b506040820151805161178191600284019160209091019061373a565b506060820151805161179d91600384019160209091019061373a565b50608082015180516117b991600484019160209091019061373a565b5060a082015180516117d591600584019160209091019061373a565b50505060c0820151600d8201805491151560ff1992831617905560e0830151600e830155610100830151600f830180549115159190921617905561012082015160108201556101608201516013820180546001600160a01b039283166001600160a01b03199182161790915560148301805482163317905583516009805460018101825560009182527f6e1540171b6c0c960b71a7020d9f60077f6af931a8bbf590da0223dacf75c7af018054928516929093169190911790915554835160405163cc5f099760e01b815260036004820152908316602482015291169063cc5f099790604401600060405180830381600087803b1580156118d557600080fd5b505af11580156118e9573d6000803e3d6000fd5b505050505050565b6118f961363d565b60005460405163ce9194ad60e01b81523360048201526001600160a01b039091169063ce9194ad90602401602060405180830381865afa158015611941573d6000803e3d6000fd5b505050506040513d601f19601f82011682018060405250810190611965919061454d565b801561197957506001600160a01b03821633145b806119eb57506000546040516306d9c7c160e01b81523360048201526001600160a01b03909116906306d9c7c190602401602060405180830381865afa1580156119c7573d6000803e3d6000fd5b505050506040513d601f19601f820116820180604052508101906119eb919061454d565b611a255760405162461bcd60e51b815260206004820152600b60248201526a139bdd08185b1b1bddd95960aa1b60448201526064016102cb565b6001600160a01b0380831660009081526007602090815260409182902082516101a0810184528154909416845282518084019093526001810180549193928501929182908290611a74906145aa565b80601f0160208091040260200160405190810160405280929190818152602001828054611aa0906145aa565b8015611aed5780601f10611ac257610100808354040283529160200191611aed565b820191906000526020600020905b815481529060010190602001808311611ad057829003601f168201915b50505050508152602001600182018054611b06906145aa565b80601f0160208091040260200160405190810160405280929190818152602001828054611b32906145aa565b8015611b7f5780601f10611b5457610100808354040283529160200191611b7f565b820191906000526020600020905b815481529060010190602001808311611b6257829003601f168201915b505050505081525050815260200160038201604051806040016040529081600082018054611bac906145aa565b80601f0160208091040260200160405190810160405280929190818152602001828054611bd8906145aa565b8015611c255780601f10611bfa57610100808354040283529160200191611c25565b820191906000526020600020905b815481529060010190602001808311611c0857829003601f168201915b50505050508152602001600182018054611c3e906145aa565b80601f0160208091040260200160405190810160405280929190818152602001828054611c6a906145aa565b8015611cb75780601f10611c8c57610100808354040283529160200191611cb7565b820191906000526020600020905b815481529060010190602001808311611c9a57829003601f168201915b505050919092525050508152600582015460209091019060ff166003811115611ce257611ce2613996565b6003811115611cf357611cf3613996565b815260200160068201548152602001600782016040518060c0016040529081600082018054611d21906145aa565b80601f0160208091040260200160405190810160405280929190818152602001828054611d4d906145aa565b8015611d9a5780601f10611d6f57610100808354040283529160200191611d9a565b820191906000526020600020905b815481529060010190602001808311611d7d57829003601f168201915b50505050508152602001600182018054611db3906145aa565b80601f0160208091040260200160405190810160405280929190818152602001828054611ddf906145aa565b8015611e2c5780601f10611e0157610100808354040283529160200191611e2c565b820191906000526020600020905b815481529060010190602001808311611e0f57829003601f168201915b50505050508152602001600282018054611e45906145aa565b80601f0160208091040260200160405190810160405280929190818152602001828054611e71906145aa565b8015611ebe5780601f10611e9357610100808354040283529160200191611ebe565b820191906000526020600020905b815481529060010190602001808311611ea157829003601f168201915b50505050508152602001600382018054611ed7906145aa565b80601f0160208091040260200160405190810160405280929190818152602001828054611f03906145aa565b8015611f505780601f10611f2557610100808354040283529160200191611f50565b820191906000526020600020905b815481529060010190602001808311611f3357829003601f168201915b50505050508152602001600482018054611f69906145aa565b80601f0160208091040260200160405190810160405280929190818152602001828054611f95906145aa565b8015611fe25780601f10611fb757610100808354040283529160200191611fe2565b820191906000526020600020905b815481529060010190602001808311611fc557829003601f168201915b50505050508152602001600582018054611ffb906145aa565b80601f0160208091040260200160405190810160405280929190818152602001828054612027906145aa565b80156120745780601f1061204957610100808354040283529160200191612074565b820191906000526020600020905b81548152906001019060200180831161205757829003601f168201915b505050919092525050508152600d82015460ff9081161515602080840191909152600e840154604080850191909152600f850154909216151560608085019190915260108501546080850152825160118601805493840282018301855293810183815260a090950194909392849284919060009085015b8282101561219757838290600052602060002001805461210a906145aa565b80601f0160208091040260200160405190810160405280929190818152602001828054612136906145aa565b80156121835780601f1061215857610100808354040283529160200191612183565b820191906000526020600020905b81548152906001019060200180831161216657829003601f168201915b5050505050815260200190600101906120eb565b5050505081526020016001820180546121af906145aa565b80601f01602080910402602001604051908101604052809291908181526020018280546121db906145aa565b80156122285780601f106121fd57610100808354040283529160200191612228565b820191906000526020600020905b81548152906001019060200180831161220b57829003601f168201915b50505091909252505050815260138201546001600160a01b03908116602083015260149092015490911660409091015292915050565b3360009081526001602052604090205460ff1661228d5760405162461bcd60e51b81526004016102cb90614525565b816122a15761229d6002826135ce565b5050565b81600114156122b55761229d6003826135ce565b81600214156122c95761229d6004826135ce565b816003141561229d5761229d6005826135ce565b3360009081526001602052604081205460ff1661230c5760405162461bcd60e51b81526004016102cb90614525565b6102df600583613556565b60005460405163ce9194ad60e01b81523360048201526060916001600160a01b03169063ce9194ad90602401602060405180830381865afa158015612360573d6000803e3d6000fd5b505050506040513d601f19601f82011682018060405250810190612384919061454d565b6123be5760405162461bcd60e51b815260206004820152600b60248201526a139bdd0814185d1a595b9d60aa1b60448201526064016102cb565b33600090815260086020908152604080832080548251818502810185019093528083529193909284015b828210156128fd5760008481526020908190206040805161016081018252600b860290920180546001600160a01b039081168452600182015481169484019490945260028101549093169082015260038201546060820152600482018054919291608084019190612458906145aa565b80601f0160208091040260200160405190810160405280929190818152602001828054612484906145aa565b80156124d15780601f106124a6576101008083540402835291602001916124d1565b820191906000526020600020905b8154815290600101906020018083116124b457829003601f168201915b5050505050815260200160058201805480602002602001604051908101604052809291908181526020016000905b828210156125ab57838290600052602060002001805461251e906145aa565b80601f016020809104026020016040519081016040528092919081815260200182805461254a906145aa565b80156125975780601f1061256c57610100808354040283529160200191612597565b820191906000526020600020905b81548152906001019060200180831161257a57829003601f168201915b5050505050815260200190600101906124ff565b5050505081526020016006820180548060200260200160405190810160405280929190818152602001828054801561260257602002820191906000526020600020905b8154815260200190600101908083116125ee575b5050505050815260200160078201805480602002602001604051908101604052809291908181526020016000905b828210156126dc57838290600052602060002001805461264f906145aa565b80601f016020809104026020016040519081016040528092919081815260200182805461267b906145aa565b80156126c85780601f1061269d576101008083540402835291602001916126c8565b820191906000526020600020905b8154815290600101906020018083116126ab57829003601f168201915b505050505081526020019060010190612630565b5050505081526020016008820180548060200260200160405190810160405280929190818152602001828054801561273357602002820191906000526020600020905b81548152602001906001019080831161271f575b5050505050815260200160098201805480602002602001604051908101604052809291908181526020016000905b8282101561280d578382906000526020600020018054612780906145aa565b80601f01602080910402602001604051908101604052809291908181526020018280546127ac906145aa565b80156127f95780601f106127ce576101008083540402835291602001916127f9565b820191906000526020600020905b8154815290600101906020018083116127dc57829003601f168201915b505050505081526020019060010190612761565b505050508152602001600a8201805480602002602001604051908101604052809291908181526020016000905b828210156128e6578382906000526020600020018054612859906145aa565b80601f0160208091040260200160405190810160405280929190818152602001828054612885906145aa565b80156128d25780601f106128a7576101008083540402835291602001916128d2565b820191906000526020600020905b8154815290600101906020018083116128b557829003601f168201915b50505050508152602001906001019061283a565b5050505081525050815260200190600101906123e8565b50505050905090565b6000546040516340e7f32f60e01b81523360048201526060916001600160a01b0316906340e7f32f90602401602060405180830381865afa15801561294f573d6000803e3d6000fd5b505050506040513d601f19601f82011682018060405250810190612973919061454d565b61298f5760405162461bcd60e51b81526004016102cb9061460e565b60095460009081906001600160401b038111156129ae576129ae613dca565b6040519080825280602002602001820160405280156129e757816020015b6129d461363d565b8152602001906001900390816129cc5790505b50905060005b600954811015610cf95760006007600060098481548110612a1057612a10614594565b60009182526020808320909101546001600160a01b039081168452908301939093526040909101902060148101549092501633141561329357604080516101a08101825282546001600160a01b0316815281518083019092526001830180549192849260208501929082908290612a86906145aa565b80601f0160208091040260200160405190810160405280929190818152602001828054612ab2906145aa565b8015612aff5780601f10612ad457610100808354040283529160200191612aff565b820191906000526020600020905b815481529060010190602001808311612ae257829003601f168201915b50505050508152602001600182018054612b18906145aa565b80601f0160208091040260200160405190810160405280929190818152602001828054612b44906145aa565b8015612b915780601f10612b6657610100808354040283529160200191612b91565b820191906000526020600020905b815481529060010190602001808311612b7457829003601f168201915b505050505081525050815260200160038201604051806040016040529081600082018054612bbe906145aa565b80601f0160208091040260200160405190810160405280929190818152602001828054612bea906145aa565b8015612c375780601f10612c0c57610100808354040283529160200191612c37565b820191906000526020600020905b815481529060010190602001808311612c1a57829003601f168201915b50505050508152602001600182018054612c50906145aa565b80601f0160208091040260200160405190810160405280929190818152602001828054612c7c906145aa565b8015612cc95780601f10612c9e57610100808354040283529160200191612cc9565b820191906000526020600020905b815481529060010190602001808311612cac57829003601f168201915b505050919092525050508152600582015460209091019060ff166003811115612cf457612cf4613996565b6003811115612d0557612d05613996565b815260200160068201548152602001600782016040518060c0016040529081600082018054612d33906145aa565b80601f0160208091040260200160405190810160405280929190818152602001828054612d5f906145aa565b8015612dac5780601f10612d8157610100808354040283529160200191612dac565b820191906000526020600020905b815481529060010190602001808311612d8f57829003601f168201915b50505050508152602001600182018054612dc5906145aa565b80601f0160208091040260200160405190810160405280929190818152602001828054612df1906145aa565b8015612e3e5780601f10612e1357610100808354040283529160200191612e3e565b820191906000526020600020905b815481529060010190602001808311612e2157829003601f168201915b50505050508152602001600282018054612e57906145aa565b80601f0160208091040260200160405190810160405280929190818152602001828054612e83906145aa565b8015612ed05780601f10612ea557610100808354040283529160200191612ed0565b820191906000526020600020905b815481529060010190602001808311612eb357829003601f168201915b50505050508152602001600382018054612ee9906145aa565b80601f0160208091040260200160405190810160405280929190818152602001828054612f15906145aa565b8015612f625780601f10612f3757610100808354040283529160200191612f62565b820191906000526020600020905b815481529060010190602001808311612f4557829003601f168201915b50505050508152602001600482018054612f7b906145aa565b80601f0160208091040260200160405190810160405280929190818152602001828054612fa7906145aa565b8015612ff45780601f10612fc957610100808354040283529160200191612ff4565b820191906000526020600020905b815481529060010190602001808311612fd757829003601f168201915b5050505050815260200160058201805461300d906145aa565b80601f0160208091040260200160405190810160405280929190818152602001828054613039906145aa565b80156130865780601f1061305b57610100808354040283529160200191613086565b820191906000526020600020905b81548152906001019060200180831161306957829003601f168201915b505050919092525050508152600d82015460ff9081161515602080840191909152600e840154604080850191909152600f850154909216151560608085019190915260108501546080850152825160118601805493840282018301855293810183815260a090950194909392849284919060009085015b828210156131a957838290600052602060002001805461311c906145aa565b80601f0160208091040260200160405190810160405280929190818152602001828054613148906145aa565b80156131955780601f1061316a57610100808354040283529160200191613195565b820191906000526020600020905b81548152906001019060200180831161317857829003601f168201915b5050505050815260200190600101906130fd565b5050505081526020016001820180546131c1906145aa565b80601f01602080910402602001604051908101604052809291908181526020018280546131ed906145aa565b801561323a5780601f1061320f5761010080835404028352916020019161323a565b820191906000526020600020905b81548152906001019060200180831161321d57829003601f168201915b50505091909252505050815260138201546001600160a01b0390811660208301526014909201549091166040909101528385613275816145e5565b96508151811061328757613287614594565b60200260200101819052505b508061329e816145e5565b9150506129ed565b6000546040516306d9c7c160e01b81523360048201526001600160a01b03909116906306d9c7c190602401602060405180830381865afa1580156132ee573d6000803e3d6000fd5b505050506040513d601f19601f82011682018060405250810190613312919061454d565b61332e5760405162461bcd60e51b81526004016102cb9061456a565b6133a660405180610160016040528060006001600160a01b0316815260200160006001600160a01b0316815260200160006001600160a01b0316815260200160008152602001606081526020016060815260200160608152602001606081526020016060815260200160608152602001606081525090565b81516001600160a01b039081168252336020808401918252604080860151841681860190815260608088015190870190815260808089015190880190815260a0808a01519089015260c0808a01519089015260e0808a015190890152610100808a015190890152610120808a015190890152610140808a01519089015288518716600090815260088652938420805460018181018355918652948690208951600b9096020180549589166001600160a01b0319968716178155965190870180549189169186169190911790559151600286018054919097169316929092179094555160038301559151805184936134a492600485019291019061373a565b5060a082015180516134c09160058401916020909101906137be565b5060c082015180516134dc916006840191602090910190613817565b5060e082015180516134f89160078401916020909101906137be565b506101008201518051613515916008840191602090910190613817565b5061012082015180516135329160098401916020909101906137be565b50610140820151805161354f91600a8401916020909101906137be565b5050505050565b60006001600160a01b0382166135ae5760405162461bcd60e51b815260206004820152601b60248201527f4163636f756e7420697320746865207a65726f2061646472657373000000000060448201526064016102cb565b506001600160a01b03166000908152602091909152604090205460ff1690565b6135d88282613556565b156136185760405162461bcd60e51b815260206004820152601060248201526f4163636f756e742068617320726f6c6560801b60448201526064016102cb565b6001600160a01b0316600090815260209190915260409020805460ff19166001179055565b604051806101a0016040528060006001600160a01b03168152602001613676604051806040016040528060608152602001606081525090565b8152602001613698604051806040016040528060608152602001606081525090565b815260200160008152602001600081526020016136e46040518060c001604052806060815260200160608152602001606081526020016060815260200160608152602001606081525090565b81526020016000151581526020016000815260200160001515815260200160008152602001613726604051806040016040528060608152602001606081525090565b815260006020820181905260409091015290565b828054613746906145aa565b90600052602060002090601f01602090048101928261376857600085556137ae565b82601f1061378157805160ff19168380011785556137ae565b828001600101855582156137ae579182015b828111156137ae578251825591602001919060010190613793565b506137ba929150613851565b5090565b82805482825590600052602060002090810192821561380b579160200282015b8281111561380b57825180516137fb91849160209091019061373a565b50916020019190600101906137de565b506137ba929150613866565b8280548282559060005260206000209081019282156137ae57916020028201828111156137ae578251825591602001919060010190613793565b5b808211156137ba5760008155600101613852565b808211156137ba57600061387a8282613883565b50600101613866565b50805461388f906145aa565b6000825580601f1061389f575050565b601f0160209004906000526020600020908101906138bd9190613851565b50565b80356001600160a01b03811681146102f057600080fd5b6000602082840312156138e957600080fd5b6138f2826138c0565b9392505050565b60006020828403121561390b57600080fd5b5035919050565b6000815180845260005b818110156139385760208185018101518683018201520161391c565b8181111561394a576000602083870101525b50601f01601f19169290920160200192915050565b60008151604084526139746040850182613912565b90506020830151848203602086015261398d8282613912565b95945050505050565b634e487b7160e01b600052602160045260246000fd5b600481106139ca57634e487b7160e01b600052602160045260246000fd5b9052565b6000815160c084526139e360c0850182613912565b9050602083015184820360208601526139fc8282613912565b91505060408301518482036040860152613a168282613912565b91505060608301518482036060860152613a308282613912565b91505060808301518482036080860152613a4a8282613912565b91505060a083015184820360a086015261398d8282613912565b600081518084526020808501808196508360051b8101915082860160005b85811015613aac578284038952613a9a848351613912565b98850198935090840190600101613a82565b5091979650505050505050565b60008151604084526139746040850182613a64565b80516001600160a01b0316825260006101a06020830151816020860152613af78286018261395f565b91505060408301518482036040860152613b11828261395f565b9150506060830151613b2660608601826139ac565b506080830151608085015260a083015184820360a0860152613b4882826139ce565b91505060c0830151613b5e60c086018215159052565b5060e083015160e085015261010080840151613b7d8287018215159052565b505061012083810151908501526101408084015185830382870152613ba28382613ab9565b9250505061016080840151613bc1828701826001600160a01b03169052565b5050610180928301516001600160a01b03169390920192909252919050565b6000602080830181845280855180835260408601915060408160051b870101925083870160005b82811015613c3557603f19888603018452613c23858351613ace565b94509285019290850190600101613c07565b5092979650505050505050565b600081518084526020808501945080840160005b83811015613c7257815187529582019590820190600101613c56565b509495945050505050565b60006020808301818452808551808352604092508286019150828160051b87010184880160005b83811015613dbc57603f19898403018552815180516001600160a01b03908116855288820151811689860152878201511687850152606080820151908501526080808201516101608287018190529190613d0083880182613912565b9250505060a08083015186830382880152613d1b8382613a64565b9250505060c08083015186830382880152613d368382613c42565b9250505060e08083015186830382880152613d518382613a64565b925050506101008083015186830382880152613d6d8382613c42565b925050506101208083015186830382880152613d898382613a64565b925050506101408083015192508582038187015250613da88183613a64565b968901969450505090860190600101613ca4565b509098975050505050505050565b634e487b7160e01b600052604160045260246000fd5b604080519081016001600160401b0381118282101715613e0257613e02613dca565b60405290565b60405160c081016001600160401b0381118282101715613e0257613e02613dca565b6040516101a081016001600160401b0381118282101715613e0257613e02613dca565b60405161016081016001600160401b0381118282101715613e0257613e02613dca565b604051601f8201601f191681016001600160401b0381118282101715613e9857613e98613dca565b604052919050565b600082601f830112613eb157600080fd5b81356001600160401b03811115613eca57613eca613dca565b613edd601f8201601f1916602001613e70565b818152846020838601011115613ef257600080fd5b816020850160208301376000918101602001919091529392505050565b600060408284031215613f2157600080fd5b613f29613de0565b905081356001600160401b0380821115613f4257600080fd5b613f4e85838601613ea0565b83526020840135915080821115613f6457600080fd5b50613f7184828501613ea0565b60208301525092915050565b8035600481106102f057600080fd5b600060c08284031215613f9e57600080fd5b613fa6613e08565b905081356001600160401b0380821115613fbf57600080fd5b613fcb85838601613ea0565b83526020840135915080821115613fe157600080fd5b613fed85838601613ea0565b6020840152604084013591508082111561400657600080fd5b61401285838601613ea0565b6040840152606084013591508082111561402b57600080fd5b61403785838601613ea0565b6060840152608084013591508082111561405057600080fd5b61405c85838601613ea0565b608084015260a084013591508082111561407557600080fd5b5061408284828501613ea0565b60a08301525092915050565b80151581146138bd57600080fd5b80356102f08161408e565b60006001600160401b038211156140c0576140c0613dca565b5060051b60200190565b600082601f8301126140db57600080fd5b813560206140f06140eb836140a7565b613e70565b82815260059290921b8401810191818101908684111561410f57600080fd5b8286015b8481101561414e5780356001600160401b038111156141325760008081fd5b6141408986838b0101613ea0565b845250918301918301614113565b509695505050505050565b60006040828403121561416b57600080fd5b614173613de0565b905081356001600160401b038082111561418c57600080fd5b613f4e858386016140ca565b6000602082840312156141aa57600080fd5b81356001600160401b03808211156141c157600080fd5b908301906101a082860312156141d657600080fd5b6141de613e2a565b6141e7836138c0565b81526020830135828111156141fb57600080fd5b61420787828601613f0f565b60208301525060408301358281111561421f57600080fd5b61422b87828601613f0f565b60408301525061423d60608401613f7d565b60608201526080830135608082015260a08301358281111561425e57600080fd5b61426a87828601613f8c565b60a08301525061427c60c0840161409c565b60c082015260e083013560e082015261010061429981850161409c565b90820152610120838101359082015261014080840135838111156142bc57600080fd5b6142c888828701614159565b82840152505061016091506142de8284016138c0565b8282015261018091506142f28284016138c0565b91810191909152949350505050565b6020815260006138f26020830184613ace565b6000806040838503121561432757600080fd5b82359150614337602084016138c0565b90509250929050565b600082601f83011261435157600080fd5b813560206143616140eb836140a7565b82815260059290921b8401810191818101908684111561438057600080fd5b8286015b8481101561414e5780358352918301918301614384565b6000602082840312156143ad57600080fd5b81356001600160401b03808211156143c457600080fd5b9083019061016082860312156143d957600080fd5b6143e1613e4d565b6143ea836138c0565b81526143f8602084016138c0565b6020820152614409604084016138c0565b60408201526060830135606082015260808301358281111561442a57600080fd5b61443687828601613ea0565b60808301525060a08301358281111561444e57600080fd5b61445a878286016140ca565b60a08301525060c08301358281111561447257600080fd5b61447e87828601614340565b60c08301525060e08301358281111561449657600080fd5b6144a2878286016140ca565b60e08301525061010080840135838111156144bc57600080fd5b6144c888828701614340565b82840152505061012080840135838111156144e257600080fd5b6144ee888287016140ca565b828401525050610140808401358381111561450857600080fd5b614514888287016140ca565b918301919091525095945050505050565b6020808252600e908201526d139bdd08105d5d1a1bdc9a5cd95960921b604082015260600190565b60006020828403121561455f57600080fd5b81516138f28161408e565b60208082526010908201526f2737ba10283930b1ba34ba34b7b732b960811b604082015260600190565b634e487b7160e01b600052603260045260246000fd5b600181811c908216806145be57607f821691505b602082108114156145df57634e487b7160e01b600052602260045260246000fd5b50919050565b600060001982141561460757634e487b7160e01b600052601160045260246000fd5b5060010190565b6020808252601690820152752737ba1027b933b0b734b9b0ba34b7b71020b236b4b760511b60408201526060019056fea264697066735822122097927a0e1ead46a2d61c5f8404b0b001faa604a330d32d2db650653b99326f5d64736f6c634300080b0033",
  "immutableReferences": {},
  "source": "// SPDX-License-Identifier: MIT\npragma solidity >= 0.8.11;\n\ncontract MainContract{\n\n    MainContract internal parentContract;\n\n    mapping (address => bool) private authorisedContracts;\n\n    function authoriseContract(address newC) public {\n        require(has(centralAuthority, msg.sender),\"Not Authorised\");\n        authorisedContracts[newC] = true;\n    }\n\n    struct Role {\n        mapping (address => bool) bearer;\n    }\n    //Add a role to an account\n    function add(Role storage role, address account) internal {\n        require(!has(role, account), \"Account has role\");\n        role.bearer[account] = true;\n    }\n    //Remove a role from an account\n    function remove(Role storage role, address account) internal {\n        require(has(role, account), \"Account does not have role\");\n        role.bearer[account] = false;\n    }\n    //Check if an account has a role\n    function has(Role storage role, address account) internal view returns (bool) {\n        require(account != address(0), \"Account is the zero address\");\n        return role.bearer[account];\n    }\n\n    Role private centralAuthority;\n    Role private organisationAdmin;\n    Role private practitioner;\n    Role private patient;\n\n    modifier onlyAuthorisedContracts {\n        require(authorisedContracts[msg.sender],\"Not Authorised\");\n        _;\n    }\n    modifier onlyCentralAuthority(){\n        require(parentContract.onlyCentralAuthorityE(msg.sender), 'Not Organisation Admin');\n        _;\n    }\n    modifier onlyOrganisationAdmin(){\n        require(parentContract.onlyOrganisationAdminE(msg.sender), 'Not Organisation Admin');\n        _;\n    }\n    modifier onlyPractitioner(){\n        require(parentContract.onlyPractitionerE(msg.sender), 'Not Practitioner');\n        _;\n    }\n    modifier onlyPatient(){\n        require(parentContract.onlyPatientE(msg.sender), 'Not Patient');\n        _;\n    }\n\n    function onlyCentralAuthorityE(address sender) external onlyAuthorisedContracts view returns (bool){\n        if(has(centralAuthority,sender)){\n            return true;\n        }\n        return false;\n    }\n    function onlyOrganisationAdminE(address sender) external onlyAuthorisedContracts view returns (bool){\n        if(has(organisationAdmin,sender)){\n            return true;\n        }\n        return false;\n    }\n    function onlyPractitionerE(address sender) external onlyAuthorisedContracts view returns (bool){\n        if(has(practitioner,sender)){\n            return true;\n        }\n        return false;\n    }\n    function onlyPatientE(address sender) external onlyAuthorisedContracts view returns (bool){\n        if(has(patient,sender)){\n            return true;\n        }\n        return false;\n    }\n\n    function addRole(uint role, address account) external onlyAuthorisedContracts {\n        if(role == 0){\n            add(centralAuthority, account);\n        }\n        else if(role == 1){\n            add(organisationAdmin, account);\n        }\n        else if(role == 2){\n            add(practitioner, account);\n        }\n        else if(role == 3){\n            add(patient, account);\n        }\n    }\n    /*\n        General Information\n    */\n    struct HumanName{\n        string givenNames;\n        string surname;\n    }\n\n    struct ContactPoint{\n        string phoneNumber;\n        string email;\n    }\n    \n    struct PhysicalAddress{\n        string use;\n        string street;\n        string city;\n        string state;\n        string postalCode;\n        string country;\n    }\n\n    struct Communication{\n        string[] languages;\n        string preferred;\n    }\n\n    enum Gender{ MALE, FEMALE, OTHER, UNKNOWN }\n\n    address centralAuthorityID;\n\n    constructor() {\n        centralAuthorityID = msg.sender;\n        add(centralAuthority,centralAuthorityID);\n    }\n\n    function getCentralAuthority() external view returns(address){\n        return centralAuthorityID;\n    }\n  \n    function isCentralAuthority() external view returns(bool){\n        return has(centralAuthority,tx.origin);\n    }\n\n}\n\ncontract OrganisationContract is MainContract{\n\n    constructor(address _C) {\n        parentContract = MainContract(_C);\n    }\n\n    struct Organisation{\n        address id;\n        string name;\n        uint dateJoined;\n        PhysicalAddress organisationAddress;\n    }\n   \n    mapping(address => Organisation) Organisations;\n    address[] public OrganisationList;\n\n    function addOrganisation(Organisation memory data) external onlyCentralAuthority{\n        require(parentContract.onlyCentralAuthorityE(msg.sender), \"Only for Admins\");\n\n        Organisation storage organisationData = Organisations[data.id];\n        organisationData.id = data.id;\n        organisationData.name = data.name;\n        organisationData.dateJoined = data.dateJoined;\n        organisationData.organisationAddress = data.organisationAddress;\n\n        OrganisationList.push(data.id);\n        parentContract.addRole(1,data.id);\n    }\n\n    function getOrganisation(address id) public view returns(Organisation memory){\n        return Organisations[id];\n    }\n\n    function getAllOrganisation() external onlyCentralAuthority view returns(address[] memory){\n        return OrganisationList;\n    }\n\n    function isOrganisation() external view returns(bool){\n        return parentContract.onlyOrganisationAdminE(msg.sender);\n    }\n}\n\ncontract PractitionerContract is MainContract{\n\n    constructor(address _C) {\n        parentContract = MainContract(_C);\n    }\n\n    struct Practitioner{\n        address id;\n        HumanName name;\n        ContactPoint telecom;\n        PhysicalAddress homeAddress;\n        Gender gender;\n        uint birthDate;\n        Communication communication;\n        address memberOrgaisation;\n    }\n\n    mapping(address => Practitioner) Practitioners;\n    address[] public PractitionerList;\n\n    function addPractitioner(Practitioner memory data) external onlyOrganisationAdmin{\n        Practitioner storage practitionerData = Practitioners[data.id];\n        practitionerData.id = data.id;\n        practitionerData.name = data.name;\n        practitionerData.telecom = data.telecom;\n        practitionerData.birthDate = data.birthDate;\n        practitionerData.gender = data.gender;\n        practitionerData.homeAddress = data.homeAddress;\n        practitionerData.communication = data.communication;\n        practitionerData.memberOrgaisation = data.memberOrgaisation;\n\n        PractitionerList.push(data.id);\n        parentContract.addRole(2,data.id);\n    }\n\n    function getDr(address _id) external view returns(Practitioner memory){\n        if(parentContract.onlyPractitionerE(msg.sender) || parentContract.onlyOrganisationAdminE(msg.sender) || parentContract.onlyPatientE(msg.sender)){\n            return Practitioners[_id];\n        }\n        else{\n            revert(\"Not Authorised\");\n        }\n    }\n\n    function isPractitioner(address id) external view returns(int){\n        if(parentContract.onlyPractitionerE(id)){\n            return 1;\n        }\n        return 0;\n    }\n\n    function getPractitionerCount() external onlyCentralAuthority view returns(uint) {\n        return(PractitionerList.length);\n    }\n\n    function getPractitionersPerOrg() external onlyOrganisationAdmin view returns(Practitioner[] memory){\n        uint count = 0;\n        Practitioner[] memory practitionerList = new Practitioner[](PractitionerList.length);\n        for(uint i=0;i<PractitionerList.length;i++){\n            Practitioner storage pracData = Practitioners[PractitionerList[i]];\n            if(pracData.memberOrgaisation == msg.sender){\n                practitionerList[count++] = pracData;\n            }\n        }\n        return(practitionerList);\n    }\n}\n\ncontract PatientContract is MainContract{\n\n    constructor(address _C) {\n        parentContract = MainContract(_C);\n    }\n\n    struct Patient{\n        address id;\n        HumanName name;\n        ContactPoint telecom;       \n        Gender gender;\n        uint birthDate;\n        PhysicalAddress homeAddress; \n        bool deceasedBoolean;\n        uint deceasedDateTime;\n        bool multipleBirthBoolean;\n        uint multipleBirthInteger;\n        Communication communication;     \n        address generalPractitioner;\n        address managingOrganisation;\n    }\n\n    // Start of Medical Records\n    struct MedicalRecord{\n        address patientId;\n        address practitionerId;\n        address organisationId;\n        uint timestamp;\n        string diagnosis;\n        string[] medicationName;\n        uint[] dosage;\n        string[] unit;\n        uint[] noOfDays;\n        string[] remarks;\n        string[] clinicalTests;\n    }\n    // End of Medical Records\n\n    // mapping(address => Organisation) Organisations;\n    // mapping(address => Practitioner) Practitioners;\n    mapping(address => Patient) Patients;\n    mapping(address => MedicalRecord[]) Records;\n\n    // address[] public OrganisationList;\n    // address[] public PractitionerList;\n    address[] public PatientList;\n\n    function getPatientCount() external onlyCentralAuthority view returns(uint){\n        return(PatientList.length);\n    }\n\n    function getPatientsPerDoc() external onlyPractitioner view returns(Patient[] memory){\n        uint count = 0;\n        Patient[] memory patientList = new Patient[](PatientList.length);\n        for(uint i=0;i<PatientList.length;i++){\n            Patient storage patientData = Patients[PatientList[i]];\n            if(patientData.generalPractitioner == msg.sender){\n                patientList[count++] = patientData;\n            }\n        }\n        return(patientList);\n    }\n\n    function getPatientsPerOrg() external onlyOrganisationAdmin view returns(Patient[] memory){\n        uint count = 0;\n        Patient[] memory patientList = new Patient[](PatientList.length);\n        for(uint i=0;i<PatientList.length;i++){\n            Patient storage patientData = Patients[PatientList[i]];\n            if(patientData.managingOrganisation == msg.sender){\n                patientList[count++] = patientData;\n            }\n        }\n        return(patientList);\n    }\n\n    /*\n            Patient\n    */\n    function isPatient(address id) external view returns(int){\n       if(parentContract.onlyPatientE(id)){\n           return 1;\n        }\n        return 0;\n    }\n\n    function getPatInfo(address iD) external view returns(Patient memory){\n        require((parentContract.onlyPatientE(msg.sender) && iD==msg.sender) || parentContract.onlyPractitionerE(msg.sender), \"Not allowed\");\n        return (Patients[iD]);\n    }\n\n    function addPatient(Patient memory data ) external onlyOrganisationAdmin{\n        require(parentContract.onlyOrganisationAdminE(msg.sender) && parentContract.onlyPractitionerE(data.generalPractitioner), 'Invalid Data');\n        Patient storage patientData = Patients[data.id];\n        patientData.id = data.id;\n        patientData.name = data.name;\n        patientData.telecom = data.telecom;\n        patientData.birthDate = data.birthDate;\n        patientData.communication = data.communication;\n        patientData.gender = data.gender;\n        patientData.homeAddress = data.homeAddress;\n        patientData.deceasedBoolean = data.deceasedBoolean;\n        patientData.deceasedDateTime = data.deceasedDateTime;\n        patientData.multipleBirthBoolean = data.multipleBirthBoolean;\n        patientData.multipleBirthInteger = data.multipleBirthInteger;\n        patientData.generalPractitioner = data.generalPractitioner;\n        patientData.managingOrganisation = msg.sender;\n\n        PatientList.push(data.id);\n        parentContract.addRole(3,data.id);\n    }\n\n    /*\n        Medical Records\n    */\n\n    function addMedicalRecord(MedicalRecord memory data) external onlyPractitioner{\n        MedicalRecord memory recordData;\n        recordData.patientId = data.patientId;\n        recordData.practitionerId = msg.sender;\n        recordData.organisationId = data.organisationId;\n        recordData.timestamp = data.timestamp;\n        recordData.diagnosis = data.diagnosis;\n        recordData.medicationName = data.medicationName;\n        recordData.dosage = data.dosage;\n        recordData.unit = data.unit;\n        recordData.noOfDays = data.noOfDays;\n        recordData.remarks = data.remarks;\n        recordData.clinicalTests = data.clinicalTests;\n        Records[data.patientId].push(recordData);\n    }\n\n    function viewMedicalRecord(address id) external onlyPractitioner view returns(MedicalRecord[] memory){\n        return (Records[id]);\n    }\n\n    function viewMedicalRecord() external onlyPatient view returns(MedicalRecord[] memory){\n        return (Records[msg.sender]);\n    }\n}",
  "sourcePath": "/Users/amrhoballah/Documents/GitHub/Algobucks/contracts/Contract.sol",
  "compiler": {
    "name": "solc",
    "version": "0.8.11+commit.d7f03943.Emscripten.clang"
  },
  "schemaVersion": "3.4.6",
  "updatedAt": "2022-06-25T17:58:08.422Z",
  "networkType": "ethereum",
  "devdoc": {
    "kind": "dev",
    "methods": {},
    "version": 1
  },
  "userdoc": {
    "kind": "user",
    "methods": {},
    "version": 1
  }
}