{
  "contractName": "PractitionerContract",
  "abi": [
    {
      "inputs": [
        {
          "internalType": "address",
          "name": "_C",
          "type": "address"
        }
      ],
      "stateMutability": "nonpayable",
      "type": "constructor"
    },
    {
      "inputs": [
        {
          "internalType": "uint256",
          "name": "",
          "type": "uint256"
        }
      ],
      "name": "PractitionerList",
      "outputs": [
        {
          "internalType": "address",
          "name": "",
          "type": "address"
        }
      ],
      "stateMutability": "view",
      "type": "function",
      "constant": true
    },
    {
      "inputs": [
        {
          "internalType": "uint256",
          "name": "role",
          "type": "uint256"
        },
        {
          "internalType": "address",
          "name": "account",
          "type": "address"
        }
      ],
      "name": "addRole",
      "outputs": [],
      "stateMutability": "nonpayable",
      "type": "function"
    },
    {
      "inputs": [
        {
          "internalType": "address",
          "name": "newC",
          "type": "address"
        }
      ],
      "name": "authoriseContract",
      "outputs": [],
      "stateMutability": "nonpayable",
      "type": "function"
    },
    {
      "inputs": [],
      "name": "getCentralAuthority",
      "outputs": [
        {
          "internalType": "address",
          "name": "",
          "type": "address"
        }
      ],
      "stateMutability": "view",
      "type": "function",
      "constant": true
    },
    {
      "inputs": [],
      "name": "isCentralAuthority",
      "outputs": [
        {
          "internalType": "bool",
          "name": "",
          "type": "bool"
        }
      ],
      "stateMutability": "view",
      "type": "function",
      "constant": true
    },
    {
      "inputs": [
        {
          "internalType": "address",
          "name": "sender",
          "type": "address"
        }
      ],
      "name": "onlyCentralAuthorityE",
      "outputs": [
        {
          "internalType": "bool",
          "name": "",
          "type": "bool"
        }
      ],
      "stateMutability": "view",
      "type": "function",
      "constant": true
    },
    {
      "inputs": [
        {
          "internalType": "address",
          "name": "sender",
          "type": "address"
        }
      ],
      "name": "onlyOrganisationAdminE",
      "outputs": [
        {
          "internalType": "bool",
          "name": "",
          "type": "bool"
        }
      ],
      "stateMutability": "view",
      "type": "function",
      "constant": true
    },
    {
      "inputs": [
        {
          "internalType": "address",
          "name": "sender",
          "type": "address"
        }
      ],
      "name": "onlyPatientE",
      "outputs": [
        {
          "internalType": "bool",
          "name": "",
          "type": "bool"
        }
      ],
      "stateMutability": "view",
      "type": "function",
      "constant": true
    },
    {
      "inputs": [
        {
          "internalType": "address",
          "name": "sender",
          "type": "address"
        }
      ],
      "name": "onlyPractitionerE",
      "outputs": [
        {
          "internalType": "bool",
          "name": "",
          "type": "bool"
        }
      ],
      "stateMutability": "view",
      "type": "function",
      "constant": true
    },
    {
      "inputs": [
        {
          "components": [
            {
              "internalType": "address",
              "name": "id",
              "type": "address"
            },
            {
              "components": [
                {
                  "internalType": "string",
                  "name": "givenNames",
                  "type": "string"
                },
                {
                  "internalType": "string",
                  "name": "surname",
                  "type": "string"
                }
              ],
              "internalType": "struct MainContract.HumanName",
              "name": "name",
              "type": "tuple"
            },
            {
              "components": [
                {
                  "internalType": "string",
                  "name": "phoneNumber",
                  "type": "string"
                },
                {
                  "internalType": "string",
                  "name": "email",
                  "type": "string"
                }
              ],
              "internalType": "struct MainContract.ContactPoint",
              "name": "telecom",
              "type": "tuple"
            },
            {
              "components": [
                {
                  "internalType": "string",
                  "name": "use",
                  "type": "string"
                },
                {
                  "internalType": "string",
                  "name": "street",
                  "type": "string"
                },
                {
                  "internalType": "string",
                  "name": "city",
                  "type": "string"
                },
                {
                  "internalType": "string",
                  "name": "state",
                  "type": "string"
                },
                {
                  "internalType": "string",
                  "name": "postalCode",
                  "type": "string"
                },
                {
                  "internalType": "string",
                  "name": "country",
                  "type": "string"
                }
              ],
              "internalType": "struct MainContract.PhysicalAddress",
              "name": "homeAddress",
              "type": "tuple"
            },
            {
              "internalType": "enum MainContract.Gender",
              "name": "gender",
              "type": "uint8"
            },
            {
              "internalType": "uint256",
              "name": "birthDate",
              "type": "uint256"
            },
            {
              "components": [
                {
                  "internalType": "string[]",
                  "name": "languages",
                  "type": "string[]"
                },
                {
                  "internalType": "string",
                  "name": "preferred",
                  "type": "string"
                }
              ],
              "internalType": "struct MainContract.Communication",
              "name": "communication",
              "type": "tuple"
            },
            {
              "internalType": "address",
              "name": "memberOrgaisation",
              "type": "address"
            }
          ],
          "internalType": "struct PractitionerContract.Practitioner",
          "name": "data",
          "type": "tuple"
        }
      ],
      "name": "addPractitioner",
      "outputs": [],
      "stateMutability": "nonpayable",
      "type": "function"
    },
    {
      "inputs": [
        {
          "internalType": "address",
          "name": "_id",
          "type": "address"
        }
      ],
      "name": "getDr",
      "outputs": [
        {
          "components": [
            {
              "internalType": "address",
              "name": "id",
              "type": "address"
            },
            {
              "components": [
                {
                  "internalType": "string",
                  "name": "givenNames",
                  "type": "string"
                },
                {
                  "internalType": "string",
                  "name": "surname",
                  "type": "string"
                }
              ],
              "internalType": "struct MainContract.HumanName",
              "name": "name",
              "type": "tuple"
            },
            {
              "components": [
                {
                  "internalType": "string",
                  "name": "phoneNumber",
                  "type": "string"
                },
                {
                  "internalType": "string",
                  "name": "email",
                  "type": "string"
                }
              ],
              "internalType": "struct MainContract.ContactPoint",
              "name": "telecom",
              "type": "tuple"
            },
            {
              "components": [
                {
                  "internalType": "string",
                  "name": "use",
                  "type": "string"
                },
                {
                  "internalType": "string",
                  "name": "street",
                  "type": "string"
                },
                {
                  "internalType": "string",
                  "name": "city",
                  "type": "string"
                },
                {
                  "internalType": "string",
                  "name": "state",
                  "type": "string"
                },
                {
                  "internalType": "string",
                  "name": "postalCode",
                  "type": "string"
                },
                {
                  "internalType": "string",
                  "name": "country",
                  "type": "string"
                }
              ],
              "internalType": "struct MainContract.PhysicalAddress",
              "name": "homeAddress",
              "type": "tuple"
            },
            {
              "internalType": "enum MainContract.Gender",
              "name": "gender",
              "type": "uint8"
            },
            {
              "internalType": "uint256",
              "name": "birthDate",
              "type": "uint256"
            },
            {
              "components": [
                {
                  "internalType": "string[]",
                  "name": "languages",
                  "type": "string[]"
                },
                {
                  "internalType": "string",
                  "name": "preferred",
                  "type": "string"
                }
              ],
              "internalType": "struct MainContract.Communication",
              "name": "communication",
              "type": "tuple"
            },
            {
              "internalType": "address",
              "name": "memberOrgaisation",
              "type": "address"
            }
          ],
          "internalType": "struct PractitionerContract.Practitioner",
          "name": "",
          "type": "tuple"
        }
      ],
      "stateMutability": "view",
      "type": "function",
      "constant": true
    },
    {
      "inputs": [
        {
          "internalType": "address",
          "name": "id",
          "type": "address"
        }
      ],
      "name": "isPractitioner",
      "outputs": [
        {
          "internalType": "int256",
          "name": "",
          "type": "int256"
        }
      ],
      "stateMutability": "view",
      "type": "function",
      "constant": true
    },
    {
      "inputs": [],
      "name": "getPractitionerCount",
      "outputs": [
        {
          "internalType": "uint256",
          "name": "",
          "type": "uint256"
        }
      ],
      "stateMutability": "view",
      "type": "function",
      "constant": true
    },
    {
      "inputs": [],
      "name": "getPractitionersPerOrg",
      "outputs": [
        {
          "components": [
            {
              "internalType": "address",
              "name": "id",
              "type": "address"
            },
            {
              "components": [
                {
                  "internalType": "string",
                  "name": "givenNames",
                  "type": "string"
                },
                {
                  "internalType": "string",
                  "name": "surname",
                  "type": "string"
                }
              ],
              "internalType": "struct MainContract.HumanName",
              "name": "name",
              "type": "tuple"
            },
            {
              "components": [
                {
                  "internalType": "string",
                  "name": "phoneNumber",
                  "type": "string"
                },
                {
                  "internalType": "string",
                  "name": "email",
                  "type": "string"
                }
              ],
              "internalType": "struct MainContract.ContactPoint",
              "name": "telecom",
              "type": "tuple"
            },
            {
              "components": [
                {
                  "internalType": "string",
                  "name": "use",
                  "type": "string"
                },
                {
                  "internalType": "string",
                  "name": "street",
                  "type": "string"
                },
                {
                  "internalType": "string",
                  "name": "city",
                  "type": "string"
                },
                {
                  "internalType": "string",
                  "name": "state",
                  "type": "string"
                },
                {
                  "internalType": "string",
                  "name": "postalCode",
                  "type": "string"
                },
                {
                  "internalType": "string",
                  "name": "country",
                  "type": "string"
                }
              ],
              "internalType": "struct MainContract.PhysicalAddress",
              "name": "homeAddress",
              "type": "tuple"
            },
            {
              "internalType": "enum MainContract.Gender",
              "name": "gender",
              "type": "uint8"
            },
            {
              "internalType": "uint256",
              "name": "birthDate",
              "type": "uint256"
            },
            {
              "components": [
                {
                  "internalType": "string[]",
                  "name": "languages",
                  "type": "string[]"
                },
                {
                  "internalType": "string",
                  "name": "preferred",
                  "type": "string"
                }
              ],
              "internalType": "struct MainContract.Communication",
              "name": "communication",
              "type": "tuple"
            },
            {
              "internalType": "address",
              "name": "memberOrgaisation",
              "type": "address"
            }
          ],
          "internalType": "struct PractitionerContract.Practitioner[]",
          "name": "",
          "type": "tuple[]"
        }
      ],
      "stateMutability": "view",
      "type": "function",
      "constant": true
    }
  ],
  "bytecode": "0x60806040523480156200001157600080fd5b506040516200291a3803806200291a83398101604081905262000034916200016e565b600680546001600160a01b0319163390811790915562000057906002906200007d565b600080546001600160a01b0319166001600160a01b0392909216919091179055620001a0565b620000898282620000f4565b15620000cf5760405162461bcd60e51b815260206004820152601060248201526f4163636f756e742068617320726f6c6560801b60448201526064015b60405180910390fd5b6001600160a01b0316600090815260209190915260409020805460ff19166001179055565b60006001600160a01b0382166200014e5760405162461bcd60e51b815260206004820152601b60248201527f4163636f756e7420697320746865207a65726f206164647265737300000000006044820152606401620000c6565b506001600160a01b03166000908152602091909152604090205460ff1690565b6000602082840312156200018157600080fd5b81516001600160a01b03811681146200019957600080fd5b9392505050565b61276a80620001b06000396000f3fe608060405234801561001057600080fd5b50600436106100ea5760003560e01c8063b771e51e1161008c578063ce9194ad11610066578063ce9194ad146101ce578063d4fd45c4146101e1578063da66233414610201578063ed39472b1461021457600080fd5b8063b771e51e146101a0578063c0936832146101b3578063cc5f0997146101bb57600080fd5b806340e7f32f116100c857806340e7f32f1461014f57806372a094591461016257806373117b141461017857806389f5ffc71461018d57600080fd5b806306d9c7c1146100ef57806322e9259f1461011757806324e9480e1461012a575b600080fd5b6101026100fd366004611e32565b610229565b60405190151581526020015b60405180910390f35b610102610125366004611e32565b610282565b6006546001600160a01b03165b6040516001600160a01b03909116815260200161010e565b61010261015d366004611e32565b6102bc565b61016a6102f6565b60405190815260200161010e565b61018b610186366004611e32565b610386565b005b61016a61019b366004611e32565b6103d4565b61018b6101ae3660046121ee565b610443565b61010261074d565b61018b6101c9366004612305565b61075f565b6101026101dc366004611e32565b6107de565b6101f46101ef366004611e32565b610818565b60405161010e91906125b2565b61013761020f3660046125c5565b611183565b61021c6111ad565b60405161010e91906125de565b3360009081526001602052604081205460ff166102615760405162461bcd60e51b815260040161025890612640565b60405180910390fd5b61026c600483611b12565b1561027957506001919050565b5060005b919050565b3360009081526001602052604081205460ff166102b15760405162461bcd60e51b815260040161025890612640565b61026c600283611b12565b3360009081526001602052604081205460ff166102eb5760405162461bcd60e51b815260040161025890612640565b61026c600383611b12565b600080546040516322e9259f60e01b81523360048201526001600160a01b03909116906322e9259f90602401602060405180830381865afa15801561033f573d6000803e3d6000fd5b505050506040513d601f19601f820116820180604052508101906103639190612668565b61037f5760405162461bcd60e51b81526004016102589061268a565b5060085490565b610391600233611b12565b6103ad5760405162461bcd60e51b815260040161025890612640565b6001600160a01b03166000908152600160208190526040909120805460ff19169091179055565b600080546040516306d9c7c160e01b81526001600160a01b038481166004830152909116906306d9c7c190602401602060405180830381865afa15801561041f573d6000803e3d6000fd5b505050506040513d601f19601f8201168201806040525081019061026c9190612668565b6000546040516340e7f32f60e01b81523360048201526001600160a01b03909116906340e7f32f90602401602060405180830381865afa15801561048b573d6000803e3d6000fd5b505050506040513d601f19601f820116820180604052508101906104af9190612668565b6104cb5760405162461bcd60e51b81526004016102589061268a565b80516001600160a01b039081166000908152600760209081526040909120835181546001600160a01b031916931692909217825580830151805180519192600185019261051b9284920190611bf9565b5060208281015180516105349260018501920190611bf9565b505050604082015180518051600384019161055491839160200190611bf9565b50602082810151805161056d9260018501920190611bf9565b50505060a0820151600c8201556080820151600b8201805460ff1916600183600381111561059d5761059d61244b565b021790555060608201518051805160058401916105bf91839160200190611bf9565b5060208281015180516105d89260018501920190611bf9565b50604082015180516105f4916002840191602090910190611bf9565b5060608201518051610610916003840191602090910190611bf9565b506080820151805161062c916004840191602090910190611bf9565b5060a08201518051610648916005840191602090910190611bf9565b50505060c082015180518051600d84019161066891839160200190611c7d565b5060208281015180516106819260018501920190611bf9565b50505060e0820151600f820180546001600160a01b03199081166001600160a01b039384161790915583516008805460018101825560009182527ff3f7a9fe364faab93b216da50a3214154f22a0a2b415b23a84c8169e8b636ee30180549093169184169190911790915554835160405163cc5f099760e01b815260026004820152908316602482015291169063cc5f099790604401600060405180830381600087803b15801561073157600080fd5b505af1158015610745573d6000803e3d6000fd5b505050505050565b600061075a600232611b12565b905090565b3360009081526001602052604090205460ff1661078e5760405162461bcd60e51b815260040161025890612640565b816107a25761079e600282611b8a565b5050565b81600114156107b65761079e600382611b8a565b81600214156107ca5761079e600482611b8a565b816003141561079e5761079e600582611b8a565b3360009081526001602052604081205460ff1661080d5760405162461bcd60e51b815260040161025890612640565b61026c600583611b12565b610820611cd6565b6000546040516306d9c7c160e01b81523360048201526001600160a01b03909116906306d9c7c190602401602060405180830381865afa158015610868573d6000803e3d6000fd5b505050506040513d601f19601f8201168201806040525081019061088c9190612668565b806108fe57506000546040516340e7f32f60e01b81523360048201526001600160a01b03909116906340e7f32f90602401602060405180830381865afa1580156108da573d6000803e3d6000fd5b505050506040513d601f19601f820116820180604052508101906108fe9190612668565b80610970575060005460405163ce9194ad60e01b81523360048201526001600160a01b039091169063ce9194ad90602401602060405180830381865afa15801561094c573d6000803e3d6000fd5b505050506040513d601f19601f820116820180604052508101906109709190612668565b1561116b576001600160a01b0380831660009081526007602090815260409182902082516101008101845281549094168452825180840190935260018101805491939285019291829082906109c4906126ba565b80601f01602080910402602001604051908101604052809291908181526020018280546109f0906126ba565b8015610a3d5780601f10610a1257610100808354040283529160200191610a3d565b820191906000526020600020905b815481529060010190602001808311610a2057829003601f168201915b50505050508152602001600182018054610a56906126ba565b80601f0160208091040260200160405190810160405280929190818152602001828054610a82906126ba565b8015610acf5780601f10610aa457610100808354040283529160200191610acf565b820191906000526020600020905b815481529060010190602001808311610ab257829003601f168201915b505050505081525050815260200160038201604051806040016040529081600082018054610afc906126ba565b80601f0160208091040260200160405190810160405280929190818152602001828054610b28906126ba565b8015610b755780601f10610b4a57610100808354040283529160200191610b75565b820191906000526020600020905b815481529060010190602001808311610b5857829003601f168201915b50505050508152602001600182018054610b8e906126ba565b80601f0160208091040260200160405190810160405280929190818152602001828054610bba906126ba565b8015610c075780601f10610bdc57610100808354040283529160200191610c07565b820191906000526020600020905b815481529060010190602001808311610bea57829003601f168201915b5050505050815250508152602001600582016040518060c0016040529081600082018054610c34906126ba565b80601f0160208091040260200160405190810160405280929190818152602001828054610c60906126ba565b8015610cad5780601f10610c8257610100808354040283529160200191610cad565b820191906000526020600020905b815481529060010190602001808311610c9057829003601f168201915b50505050508152602001600182018054610cc6906126ba565b80601f0160208091040260200160405190810160405280929190818152602001828054610cf2906126ba565b8015610d3f5780601f10610d1457610100808354040283529160200191610d3f565b820191906000526020600020905b815481529060010190602001808311610d2257829003601f168201915b50505050508152602001600282018054610d58906126ba565b80601f0160208091040260200160405190810160405280929190818152602001828054610d84906126ba565b8015610dd15780601f10610da657610100808354040283529160200191610dd1565b820191906000526020600020905b815481529060010190602001808311610db457829003601f168201915b50505050508152602001600382018054610dea906126ba565b80601f0160208091040260200160405190810160405280929190818152602001828054610e16906126ba565b8015610e635780601f10610e3857610100808354040283529160200191610e63565b820191906000526020600020905b815481529060010190602001808311610e4657829003601f168201915b50505050508152602001600482018054610e7c906126ba565b80601f0160208091040260200160405190810160405280929190818152602001828054610ea8906126ba565b8015610ef55780601f10610eca57610100808354040283529160200191610ef5565b820191906000526020600020905b815481529060010190602001808311610ed857829003601f168201915b50505050508152602001600582018054610f0e906126ba565b80601f0160208091040260200160405190810160405280929190818152602001828054610f3a906126ba565b8015610f875780601f10610f5c57610100808354040283529160200191610f87565b820191906000526020600020905b815481529060010190602001808311610f6a57829003601f168201915b505050919092525050508152600b82015460209091019060ff166003811115610fb257610fb261244b565b6003811115610fc357610fc361244b565b8152602001600c8201548152602001600d820160405180604001604052908160008201805480602002602001604051908101604052809291908181526020016000905b828210156110b2578382906000526020600020018054611025906126ba565b80601f0160208091040260200160405190810160405280929190818152602001828054611051906126ba565b801561109e5780601f106110735761010080835404028352916020019161109e565b820191906000526020600020905b81548152906001019060200180831161108157829003601f168201915b505050505081526020019060010190611006565b5050505081526020016001820180546110ca906126ba565b80601f01602080910402602001604051908101604052809291908181526020018280546110f6906126ba565b80156111435780601f1061111857610100808354040283529160200191611143565b820191906000526020600020905b81548152906001019060200180831161112657829003601f168201915b505050919092525050508152600f91909101546001600160a01b031660209091015292915050565b60405162461bcd60e51b815260040161025890612640565b6008818154811061119357600080fd5b6000918252602090912001546001600160a01b0316905081565b6000546040516340e7f32f60e01b81523360048201526060916001600160a01b0316906340e7f32f90602401602060405180830381865afa1580156111f6573d6000803e3d6000fd5b505050506040513d601f19601f8201168201806040525081019061121a9190612668565b6112365760405162461bcd60e51b81526004016102589061268a565b600854600090819067ffffffffffffffff81111561125657611256611e54565b60405190808252806020026020018201604052801561128f57816020015b61127c611cd6565b8152602001906001900390816112745790505b50905060005b600854811015611b0b57600060076000600884815481106112b8576112b86126f5565b60009182526020808320909101546001600160a01b0390811684529083019390935260409091019020600f81015490925016331415611af857604080516101008101825282546001600160a01b031681528151808301909252600183018054919284926020850192908290829061132e906126ba565b80601f016020809104026020016040519081016040528092919081815260200182805461135a906126ba565b80156113a75780601f1061137c576101008083540402835291602001916113a7565b820191906000526020600020905b81548152906001019060200180831161138a57829003601f168201915b505050505081526020016001820180546113c0906126ba565b80601f01602080910402602001604051908101604052809291908181526020018280546113ec906126ba565b80156114395780601f1061140e57610100808354040283529160200191611439565b820191906000526020600020905b81548152906001019060200180831161141c57829003601f168201915b505050505081525050815260200160038201604051806040016040529081600082018054611466906126ba565b80601f0160208091040260200160405190810160405280929190818152602001828054611492906126ba565b80156114df5780601f106114b4576101008083540402835291602001916114df565b820191906000526020600020905b8154815290600101906020018083116114c257829003601f168201915b505050505081526020016001820180546114f8906126ba565b80601f0160208091040260200160405190810160405280929190818152602001828054611524906126ba565b80156115715780601f1061154657610100808354040283529160200191611571565b820191906000526020600020905b81548152906001019060200180831161155457829003601f168201915b5050505050815250508152602001600582016040518060c001604052908160008201805461159e906126ba565b80601f01602080910402602001604051908101604052809291908181526020018280546115ca906126ba565b80156116175780601f106115ec57610100808354040283529160200191611617565b820191906000526020600020905b8154815290600101906020018083116115fa57829003601f168201915b50505050508152602001600182018054611630906126ba565b80601f016020809104026020016040519081016040528092919081815260200182805461165c906126ba565b80156116a95780601f1061167e576101008083540402835291602001916116a9565b820191906000526020600020905b81548152906001019060200180831161168c57829003601f168201915b505050505081526020016002820180546116c2906126ba565b80601f01602080910402602001604051908101604052809291908181526020018280546116ee906126ba565b801561173b5780601f106117105761010080835404028352916020019161173b565b820191906000526020600020905b81548152906001019060200180831161171e57829003601f168201915b50505050508152602001600382018054611754906126ba565b80601f0160208091040260200160405190810160405280929190818152602001828054611780906126ba565b80156117cd5780601f106117a2576101008083540402835291602001916117cd565b820191906000526020600020905b8154815290600101906020018083116117b057829003601f168201915b505050505081526020016004820180546117e6906126ba565b80601f0160208091040260200160405190810160405280929190818152602001828054611812906126ba565b801561185f5780601f106118345761010080835404028352916020019161185f565b820191906000526020600020905b81548152906001019060200180831161184257829003601f168201915b50505050508152602001600582018054611878906126ba565b80601f01602080910402602001604051908101604052809291908181526020018280546118a4906126ba565b80156118f15780601f106118c6576101008083540402835291602001916118f1565b820191906000526020600020905b8154815290600101906020018083116118d457829003601f168201915b505050919092525050508152600b82015460209091019060ff16600381111561191c5761191c61244b565b600381111561192d5761192d61244b565b8152602001600c8201548152602001600d820160405180604001604052908160008201805480602002602001604051908101604052809291908181526020016000905b82821015611a1c57838290600052602060002001805461198f906126ba565b80601f01602080910402602001604051908101604052809291908181526020018280546119bb906126ba565b8015611a085780601f106119dd57610100808354040283529160200191611a08565b820191906000526020600020905b8154815290600101906020018083116119eb57829003601f168201915b505050505081526020019060010190611970565b505050508152602001600182018054611a34906126ba565b80601f0160208091040260200160405190810160405280929190818152602001828054611a60906126ba565b8015611aad5780601f10611a8257610100808354040283529160200191611aad565b820191906000526020600020905b815481529060010190602001808311611a9057829003601f168201915b505050919092525050508152600f91909101546001600160a01b03166020909101528385611ada8161270b565b965081518110611aec57611aec6126f5565b60200260200101819052505b5080611b038161270b565b915050611295565b5091505090565b60006001600160a01b038216611b6a5760405162461bcd60e51b815260206004820152601b60248201527f4163636f756e7420697320746865207a65726f206164647265737300000000006044820152606401610258565b506001600160a01b03166000908152602091909152604090205460ff1690565b611b948282611b12565b15611bd45760405162461bcd60e51b815260206004820152601060248201526f4163636f756e742068617320726f6c6560801b6044820152606401610258565b6001600160a01b0316600090815260209190915260409020805460ff19166001179055565b828054611c05906126ba565b90600052602060002090601f016020900481019282611c275760008555611c6d565b82601f10611c4057805160ff1916838001178555611c6d565b82800160010185558215611c6d579182015b82811115611c6d578251825591602001919060010190611c52565b50611c79929150611dac565b5090565b828054828255906000526020600020908101928215611cca579160200282015b82811115611cca5782518051611cba918491602090910190611bf9565b5091602001919060010190611c9d565b50611c79929150611dc1565b60405180610100016040528060006001600160a01b03168152602001611d0f604051806040016040528060608152602001606081525090565b8152602001611d31604051806040016040528060608152602001606081525090565b8152602001611d6f6040518060c001604052806060815260200160608152602001606081526020016060815260200160608152602001606081525090565b81526020016000815260200160008152602001611d9f604051806040016040528060608152602001606081525090565b8152600060209091015290565b5b80821115611c795760008155600101611dad565b80821115611c79576000611dd58282611dde565b50600101611dc1565b508054611dea906126ba565b6000825580601f10611dfa575050565b601f016020900490600052602060002090810190611e189190611dac565b50565b80356001600160a01b038116811461027d57600080fd5b600060208284031215611e4457600080fd5b611e4d82611e1b565b9392505050565b634e487b7160e01b600052604160045260246000fd5b6040805190810167ffffffffffffffff81118282101715611e8d57611e8d611e54565b60405290565b60405160c0810167ffffffffffffffff81118282101715611e8d57611e8d611e54565b604051610100810167ffffffffffffffff81118282101715611e8d57611e8d611e54565b604051601f8201601f1916810167ffffffffffffffff81118282101715611f0357611f03611e54565b604052919050565b600082601f830112611f1c57600080fd5b813567ffffffffffffffff811115611f3657611f36611e54565b611f49601f8201601f1916602001611eda565b818152846020838601011115611f5e57600080fd5b816020850160208301376000918101602001919091529392505050565b600060408284031215611f8d57600080fd5b611f95611e6a565b9050813567ffffffffffffffff80821115611faf57600080fd5b611fbb85838601611f0b565b83526020840135915080821115611fd157600080fd5b50611fde84828501611f0b565b60208301525092915050565b600060c08284031215611ffc57600080fd5b612004611e93565b9050813567ffffffffffffffff8082111561201e57600080fd5b61202a85838601611f0b565b8352602084013591508082111561204057600080fd5b61204c85838601611f0b565b6020840152604084013591508082111561206557600080fd5b61207185838601611f0b565b6040840152606084013591508082111561208a57600080fd5b61209685838601611f0b565b606084015260808401359150808211156120af57600080fd5b6120bb85838601611f0b565b608084015260a08401359150808211156120d457600080fd5b506120e184828501611f0b565b60a08301525092915050565b80356004811061027d57600080fd5b60006040828403121561210e57600080fd5b612116611e6a565b9050813567ffffffffffffffff8082111561213057600080fd5b818401915084601f83011261214457600080fd5b813560208282111561215857612158611e54565b8160051b612167828201611eda565b928352848101820192828101908985111561218157600080fd5b83870192505b848310156121bd5782358681111561219f5760008081fd5b6121ad8b86838b0101611f0b565b8352509183019190830190612187565b87525050858101359350828411156121d457600080fd5b6121e087858801611f0b565b818601525050505092915050565b60006020828403121561220057600080fd5b813567ffffffffffffffff8082111561221857600080fd5b90830190610100828603121561222d57600080fd5b612235611eb6565b61223e83611e1b565b815260208301358281111561225257600080fd5b61225e87828601611f7b565b60208301525060408301358281111561227657600080fd5b61228287828601611f7b565b60408301525060608301358281111561229a57600080fd5b6122a687828601611fea565b6060830152506122b8608084016120ed565b608082015260a083013560a082015260c0830135828111156122d957600080fd5b6122e5878286016120fc565b60c0830152506122f760e08401611e1b565b60e082015295945050505050565b6000806040838503121561231857600080fd5b8235915061232860208401611e1b565b90509250929050565b6000815180845260005b818110156123575760208185018101518683018201520161233b565b81811115612369576000602083870101525b50601f01601f19169290920160200192915050565b60008151604084526123936040850182612331565b9050602083015184820360208601526123ac8282612331565b95945050505050565b6000815160c084526123ca60c0850182612331565b9050602083015184820360208601526123e38282612331565b915050604083015184820360408601526123fd8282612331565b915050606083015184820360608601526124178282612331565b915050608083015184820360808601526124318282612331565b91505060a083015184820360a08601526123ac8282612331565b634e487b7160e01b600052602160045260246000fd5b6004811061247f57634e487b7160e01b600052602160045260246000fd5b9052565b60006040830182516040855281815180845260608701915060608160051b88010193506020808401935060005b828110156124de57605f198987030184526124cc868651612331565b955093810193928101926001016124b0565b50808701519350878503818901525050506123ac8282612331565b80516001600160a01b03168252600061010060208301518160208601526125228286018261237e565b9150506040830151848203604086015261253c828261237e565b9150506060830151848203606086015261255682826123b5565b915050608083015161256b6080860182612461565b5060a083015160a085015260c083015184820360c086015261258d8282612483565b91505060e08301516125aa60e08601826001600160a01b03169052565b509392505050565b602081526000611e4d60208301846124f9565b6000602082840312156125d757600080fd5b5035919050565b6000602080830181845280855180835260408601915060408160051b870101925083870160005b8281101561263357603f198886030184526126218583516124f9565b94509285019290850190600101612605565b5092979650505050505050565b6020808252600e908201526d139bdd08105d5d1a1bdc9a5cd95960921b604082015260600190565b60006020828403121561267a57600080fd5b81518015158114611e4d57600080fd5b6020808252601690820152752737ba1027b933b0b734b9b0ba34b7b71020b236b4b760511b604082015260600190565b600181811c908216806126ce57607f821691505b602082108114156126ef57634e487b7160e01b600052602260045260246000fd5b50919050565b634e487b7160e01b600052603260045260246000fd5b600060001982141561272d57634e487b7160e01b600052601160045260246000fd5b506001019056fea2646970667358221220a50606eba5c9c3ce579819713ab642c0d191f381609ddd21036235323ba0e8af64736f6c634300080b0033",
  "immutableReferences": {},
  "source": "// SPDX-License-Identifier: MIT\npragma solidity >= 0.8.11;\n\ncontract MainContract{\n\n    MainContract internal parentContract;\n\n    mapping (address => bool) private authorisedContracts;\n\n    function authoriseContract(address newC) public {\n        require(has(centralAuthority, msg.sender),\"Not Authorised\");\n        authorisedContracts[newC] = true;\n    }\n\n    struct Role {\n        mapping (address => bool) bearer;\n    }\n    //Add a role to an account\n    function add(Role storage role, address account) internal {\n        require(!has(role, account), \"Account has role\");\n        role.bearer[account] = true;\n    }\n    //Remove a role from an account\n    function remove(Role storage role, address account) internal {\n        require(has(role, account), \"Account does not have role\");\n        role.bearer[account] = false;\n    }\n    //Check if an account has a role\n    function has(Role storage role, address account) internal view returns (bool) {\n        require(account != address(0), \"Account is the zero address\");\n        return role.bearer[account];\n    }\n\n    Role private centralAuthority;\n    Role private organisationAdmin;\n    Role private practitioner;\n    Role private patient;\n\n    modifier onlyAuthorisedContracts {\n        require(authorisedContracts[msg.sender],\"Not Authorised\");\n        _;\n    }\n    modifier onlyCentralAuthority(){\n        require(parentContract.onlyCentralAuthorityE(msg.sender), 'Not Organisation Admin');\n        _;\n    }\n    modifier onlyOrganisationAdmin(){\n        require(parentContract.onlyOrganisationAdminE(msg.sender), 'Not Organisation Admin');\n        _;\n    }\n    modifier onlyPractitioner(){\n        require(parentContract.onlyPractitionerE(msg.sender), 'Not Practitioner');\n        _;\n    }\n    modifier onlyPatient(){\n        require(parentContract.onlyPatientE(msg.sender), 'Not Patient');\n        _;\n    }\n\n    function onlyCentralAuthorityE(address sender) external onlyAuthorisedContracts view returns (bool){\n        if(has(centralAuthority,sender)){\n            return true;\n        }\n        return false;\n    }\n    function onlyOrganisationAdminE(address sender) external onlyAuthorisedContracts view returns (bool){\n        if(has(organisationAdmin,sender)){\n            return true;\n        }\n        return false;\n    }\n    function onlyPractitionerE(address sender) external onlyAuthorisedContracts view returns (bool){\n        if(has(practitioner,sender)){\n            return true;\n        }\n        return false;\n    }\n    function onlyPatientE(address sender) external onlyAuthorisedContracts view returns (bool){\n        if(has(patient,sender)){\n            return true;\n        }\n        return false;\n    }\n\n    function addRole(uint role, address account) external onlyAuthorisedContracts {\n        if(role == 0){\n            add(centralAuthority, account);\n        }\n        else if(role == 1){\n            add(organisationAdmin, account);\n        }\n        else if(role == 2){\n            add(practitioner, account);\n        }\n        else if(role == 3){\n            add(patient, account);\n        }\n    }\n    /*\n        General Information\n    */\n    struct HumanName{\n        string givenNames;\n        string surname;\n    }\n\n    struct ContactPoint{\n        string phoneNumber;\n        string email;\n    }\n    \n    struct PhysicalAddress{\n        string use;\n        string street;\n        string city;\n        string state;\n        string postalCode;\n        string country;\n    }\n\n    struct Communication{\n        string[] languages;\n        string preferred;\n    }\n\n    enum Gender{ MALE, FEMALE, OTHER, UNKNOWN }\n\n    address centralAuthorityID;\n\n    constructor() {\n        centralAuthorityID = msg.sender;\n        add(centralAuthority,centralAuthorityID);\n    }\n\n    function getCentralAuthority() external view returns(address){\n        return centralAuthorityID;\n    }\n  \n    function isCentralAuthority() external view returns(bool){\n        return has(centralAuthority,tx.origin);\n    }\n\n}\n\ncontract OrganisationContract is MainContract{\n\n    constructor(address _C) {\n        parentContract = MainContract(_C);\n    }\n\n    struct Organisation{\n        address id;\n        string name;\n        uint dateJoined;\n        PhysicalAddress organisationAddress;\n    }\n   \n    mapping(address => Organisation) Organisations;\n    address[] public OrganisationList;\n\n    function addOrganisation(Organisation memory data) external onlyCentralAuthority{\n        require(parentContract.onlyCentralAuthorityE(msg.sender), \"Only for Admins\");\n\n        Organisation storage organisationData = Organisations[data.id];\n        organisationData.id = data.id;\n        organisationData.name = data.name;\n        organisationData.dateJoined = data.dateJoined;\n        organisationData.organisationAddress = data.organisationAddress;\n\n        OrganisationList.push(data.id);\n        parentContract.addRole(1,data.id);\n    }\n\n    function getOrganisation(address id) public view returns(Organisation memory){\n        return Organisations[id];\n    }\n\n    function getAllOrganisation() external onlyCentralAuthority view returns(address[] memory){\n        return OrganisationList;\n    }\n\n    function isOrganisation() external view returns(bool){\n        return parentContract.onlyOrganisationAdminE(msg.sender);\n    }\n}\n\ncontract PractitionerContract is MainContract{\n\n    constructor(address _C) {\n        parentContract = MainContract(_C);\n    }\n\n    struct Practitioner{\n        address id;\n        HumanName name;\n        ContactPoint telecom;\n        PhysicalAddress homeAddress;\n        Gender gender;\n        uint birthDate;\n        Communication communication;\n        address memberOrgaisation;\n    }\n\n    mapping(address => Practitioner) Practitioners;\n    address[] public PractitionerList;\n\n    function addPractitioner(Practitioner memory data) external onlyOrganisationAdmin{\n        Practitioner storage practitionerData = Practitioners[data.id];\n        practitionerData.id = data.id;\n        practitionerData.name = data.name;\n        practitionerData.telecom = data.telecom;\n        practitionerData.birthDate = data.birthDate;\n        practitionerData.gender = data.gender;\n        practitionerData.homeAddress = data.homeAddress;\n        practitionerData.communication = data.communication;\n        practitionerData.memberOrgaisation = data.memberOrgaisation;\n\n        PractitionerList.push(data.id);\n        parentContract.addRole(2,data.id);\n    }\n\n    function getDr(address _id) external view returns(Practitioner memory){\n        if(parentContract.onlyPractitionerE(msg.sender) || parentContract.onlyOrganisationAdminE(msg.sender) || parentContract.onlyPatientE(msg.sender)){\n            return Practitioners[_id];\n        }\n        else{\n            revert(\"Not Authorised\");\n        }\n    }\n\n    function isPractitioner(address id) external view returns(int){\n        if(parentContract.onlyPractitionerE(id)){\n            return 1;\n        }\n        return 0;\n    }\n\n    function getPractitionerCount() external onlyCentralAuthority view returns(uint) {\n        return(PractitionerList.length);\n    }\n\n    function getPractitionersPerOrg() external onlyOrganisationAdmin view returns(Practitioner[] memory){\n        uint count = 0;\n        Practitioner[] memory practitionerList = new Practitioner[](PractitionerList.length);\n        for(uint i=0;i<PractitionerList.length;i++){\n            Practitioner storage pracData = Practitioners[PractitionerList[i]];\n            if(pracData.memberOrgaisation == msg.sender){\n                practitionerList[count++] = pracData;\n            }\n        }\n        return(practitionerList);\n    }\n}\n\ncontract PatientContract is MainContract{\n\n    constructor(address _C) {\n        parentContract = MainContract(_C);\n    }\n\n    struct Patient{\n        address id;\n        HumanName name;\n        ContactPoint telecom;       \n        Gender gender;\n        uint birthDate;\n        PhysicalAddress homeAddress; \n        bool deceasedBoolean;\n        uint deceasedDateTime;\n        bool multipleBirthBoolean;\n        uint multipleBirthInteger;\n        Communication communication;     \n        address generalPractitioner;\n        address managingOrganisation;\n    }\n\n    // Start of Medical Records\n    struct MedicalRecord{\n        address patientId;\n        address practitionerId;\n        address organisationId;\n        uint timestamp;\n        string diagnosis;\n        string[] medicationName;\n        uint[] dosage;\n        string[] unit;\n        uint[] noOfDays;\n        string[] remarks;\n        string[] clinicalTests;\n    }\n    // End of Medical Records\n\n    // mapping(address => Organisation) Organisations;\n    // mapping(address => Practitioner) Practitioners;\n    mapping(address => Patient) Patients;\n    mapping(address => MedicalRecord[]) Records;\n\n    // address[] public OrganisationList;\n    // address[] public PractitionerList;\n    address[] public PatientList;\n\n    function getPatientCount() external onlyCentralAuthority view returns(uint){\n        return(PatientList.length);\n    }\n\n    function getPatientsPerDoc() external onlyPractitioner view returns(Patient[] memory){\n        uint count = 0;\n        Patient[] memory patientList = new Patient[](PatientList.length);\n        for(uint i=0;i<PatientList.length;i++){\n            Patient storage patientData = Patients[PatientList[i]];\n            if(patientData.generalPractitioner == msg.sender){\n                patientList[count++] = patientData;\n            }\n        }\n        return(patientList);\n    }\n\n    function getPatientsPerOrg() external onlyOrganisationAdmin view returns(Patient[] memory){\n        uint count = 0;\n        Patient[] memory patientList = new Patient[](PatientList.length);\n        for(uint i=0;i<PatientList.length;i++){\n            Patient storage patientData = Patients[PatientList[i]];\n            if(patientData.managingOrganisation == msg.sender){\n                patientList[count++] = patientData;\n            }\n        }\n        return(patientList);\n    }\n\n    /*\n            Patient\n    */\n    function isPatient(address id) external view returns(int){\n       if(parentContract.onlyPatientE(id)){\n           return 1;\n        }\n        return 0;\n    }\n\n    function getPatInfo(address iD) external view returns(Patient memory){\n        require((parentContract.onlyPatientE(msg.sender) && iD==msg.sender) || parentContract.onlyPractitionerE(msg.sender), \"Not allowed\");\n        return (Patients[iD]);\n    }\n\n    function addPatient(Patient memory data ) external onlyOrganisationAdmin{\n        require(parentContract.onlyOrganisationAdminE(msg.sender) && parentContract.onlyPractitionerE(data.generalPractitioner), 'Invalid Data');\n        Patient storage patientData = Patients[data.id];\n        patientData.id = data.id;\n        patientData.name = data.name;\n        patientData.telecom = data.telecom;\n        patientData.birthDate = data.birthDate;\n        patientData.communication = data.communication;\n        patientData.gender = data.gender;\n        patientData.homeAddress = data.homeAddress;\n        patientData.deceasedBoolean = data.deceasedBoolean;\n        patientData.deceasedDateTime = data.deceasedDateTime;\n        patientData.multipleBirthBoolean = data.multipleBirthBoolean;\n        patientData.multipleBirthInteger = data.multipleBirthInteger;\n        patientData.generalPractitioner = data.generalPractitioner;\n        patientData.managingOrganisation = msg.sender;\n\n        PatientList.push(data.id);\n        parentContract.addRole(3,data.id);\n    }\n\n    /*\n        Medical Records\n    */\n\n    function addMedicalRecord(MedicalRecord memory data) external onlyPractitioner{\n        MedicalRecord memory recordData;\n        recordData.patientId = data.patientId;\n        recordData.practitionerId = msg.sender;\n        recordData.organisationId = data.organisationId;\n        recordData.timestamp = data.timestamp;\n        recordData.diagnosis = data.diagnosis;\n        recordData.medicationName = data.medicationName;\n        recordData.dosage = data.dosage;\n        recordData.unit = data.unit;\n        recordData.noOfDays = data.noOfDays;\n        recordData.remarks = data.remarks;\n        recordData.clinicalTests = data.clinicalTests;\n        Records[data.patientId].push(recordData);\n    }\n\n    function viewMedicalRecord(address id) external onlyPractitioner view returns(MedicalRecord[] memory){\n        return (Records[id]);\n    }\n\n    function viewMedicalRecord() external onlyPatient view returns(MedicalRecord[] memory){\n        return (Records[msg.sender]);\n    }\n}",
  "sourcePath": "/Users/amrhoballah/Documents/GitHub/Algobucks/contracts/Contract.sol",
  "compiler": {
    "name": "solc",
    "version": "0.8.11+commit.d7f03943.Emscripten.clang"
  },
  "schemaVersion": "3.4.6",
  "updatedAt": "2022-05-29T09:49:07.147Z",
  "networkType": "ethereum",
  "devdoc": {
    "kind": "dev",
    "methods": {},
    "version": 1
  },
  "userdoc": {
    "kind": "user",
    "methods": {},
    "version": 1
  }
}